:020000042000DA
:10000000000002203D1F0020811D0020871D0020D0
:100010008D1D0020931D0020991D00200000000070
:100020000000000000000000000000009F1D0020F4
:10003000AD1D002000000000BB1D0020C91D0020D8
:100040008D1F00208D1F00208D1F00208D1F002080
:100050008D1F00208D1F00208D1F00208D1F002070
:100060008D1F00208D1F00208D1F00208D1F002060
:100070008D1F00208D1F00208D1F00208D1F002050
:100080008D1F00208D1F00208D1F0020000000000C
:100090000000000000000000000000008D1F002094
:1000A0008D1F00208D1F00208D1F00208D1F002020
:1000B0008D1F00208D1F00208D1F00208D1F002010
:1000C0008D1F00208D1F00208D1F00208D1F002000
:1000D0008D1F00208D1F00208D1F002000000000BC
:1000E0008D1F00208D1F00208D1F002000000000AC
:1000F0000000000000000000000000008D1F002034
:10010000000000008D1F00208D1F00208D1F00208B
:1001100000000000000000000000000000000000DF
:100120008D1F00208D1F00208D1F00208D1F00209F
:100130008D1F0020000000000000000000000000F3
:100140000000000000000000000000008D1F0020E3
:100150008D1F00208D1F00208D1F00208D1F00206F
:100160008D1F00208D1F00200000000000000000F7
:10017000000000000000000000000000000000007F
:10018000000000008D1F00200000000000000000A3
:080190008D1F00208D1F0020CF
:1001980010B5054C237833B9044B13B10448AFF3B9
:1001A80000800123237010BD44950020000000004A
:1001B800E83D002008B5034B1BB103490348AFF3E2
:1001C800008008BD0000000048950020E83D0020A0
:1001D80053B94AB9002908BF00281CBF4FF0FF31A6
:1001E8004FF0FF3000F074B9ADF1080C6DE904CEA2
:1001F80000F006F8DDF804E0DDE9022304B07047FA
:100208002DE9F047089D04468E46002B4DD18A42C1
:10021800944669D9B2FA82F252B101FA02F3C2F1F4
:10022800200120FA01F10CFA02FC41EA030E944085
:100238004FEA1C48210CBEFBF8F61FFA8CF708FBA6
:1002480016E341EA034306FB07F199420AD91CEB7E
:10025800030306F1FF3080F01F81994240F21C81B0
:10026800023E63445B1AA4B2B3FBF8F008FB1033F8
:1002780044EA034400FB07F7A7420AD91CEB04042D
:1002880000F1FF3380F00A81A74240F207816444FD
:10029800023840EA0640E41B00261DB1D440002382
:1002A800C5E900433146BDE8F0878B4209D9002DE6
:1002B80000F0EF800026C5E9000130463146BDE870
:1002C800F087B3FA83F6002E4AD18B4202D38242DA
:1002D80000F2F980841A61EB030301209E46002D89
:1002E800E0D0C5E9004EDDE702B9FFDEB2FA82F2DE
:1002F800002A40F09280A1EB0C014FEA1C471FFA3C
:100308008CFE0126200CB1FBF7F307FB131140EA22
:1003180001410EFB03F0884208D91CEB010103F1EF
:10032800FF3802D2884200F2CB804346091AA4B2B1
:10033800B1FBF7F007FB101144EA01440EFB00FE85
:10034800A64508D91CEB040400F1FF3102D2A645EA
:1003580000F2BB800846A4EB0E0440EA03409CE789
:10036800C6F12007B34022FA07FC4CEA030C20FA36
:1003780007F401FA06F31C43F9404FEA1C4900FA56
:1003880006F3B1FBF9F8200C1FFA8CFE09FB1811D3
:1003980040EA014108FB0EF0884202FA06F20BD946
:1003A8001CEB010108F1FF3A80F08880884240F296
:1003B8008580A8F102086144091AA4B2B1FBF9F0DA
:1003C80009FB101144EA014100FB0EFE8E4508D9D5
:1003D8001CEB010100F1FF346CD28E456AD902385A
:1003E800614440EA0840A0FB0294A1EB0E01A1423F
:1003F800C846A64656D353D05DB1B3EB080261EBAD
:100408000E0101FA07F722FA06F3F1401F43C5E986
:10041800007100263146BDE8F087C2F12003D840BC
:100428000CFA02FC21FA03F3914001434FEA1C47FE
:100438001FFA8CFEB3FBF7F007FB10360B0C43EAF0
:10044800064300FB0EF69E4204FA02F408D91CEBA0
:10045800030300F1FF382FD29E422DD9023863449E
:100468009B1B89B2B3FBF7F607FB163341EA03413E
:1004780006FB0EF38B4208D91CEB010106F1FF388D
:1004880016D28B4214D9023E6144C91A46EA004684
:1004980038E72E46284605E70646E3E61846F8E616
:1004A8004B45A9D2B9EB020864EB0C0E0138A3E75F
:1004B8004646EAE7204694E74046D1E7D0467BE740
:1004C800023B614432E7304609E76444023842E7B8
:1004D800704700BF80B483B000AF78600B467B8064
:1004E80010E07B681A78104BDA6000BF0E4B9B68EF
:1004F80003F00203002BF9D07B6801337B607B8813
:10050800013B7B807B88002BEBD100BF064B9B68AF
:1005180003F08003002BF9D100BF00BF0C37BD46A4
:100528005DF8047B704700BF0030014080B400AF25
:10053800054B9B69044A43F48023936100BFBD4681
:100548005DF8047B704700BF0004024080B400AF30
:10055800054B9B69044A43F00403936100BFBD4601
:100568005DF8047B704700BF0004024080B500AF0F
:1005780000220221064802F01FF8052001F076FD4E
:1005880001220221024802F017F800BF80BD00BF17
:100598000004024080B582B000AF0346FB71074BF0
:1005A8009B69064A43F480339361FB1D0121184679
:1005B800FFF790FF00BF0837BD4680BD000402402A
:1005C80080B584B000AF78603960114B9B69104AE0
:1005D80043F00103936113E03B68B3F5004F28BF74
:1005E8004FF40043FB81FB8919467868FFF772FFD7
:1005F800FB897A6813447B60FB893A68D31A3B60AD
:100608003B68002BE8D100BF00BF1037BD4680BD56
:100618000004024090B585B000AF04460846114674
:100628001A462346FB800346BB800B467B80134655
:100638003B802A20FFF7AEFFFB881B0A9BB2DBB288
:100648003B73FB88DBB27B737B881B0A9BB2DBB2F4
:10065800BB737B88DBB2FB7307F10C0304211846DC
:10066800FFF7AEFF2B20FFF795FFBB881B0A9BB255
:10067800DBB23B72BB88DBB27B723B881B0A9BB246
:10068800DBB2BB723B88DBB2FB7207F108030421C3
:100698001846FFF795FF2C20FFF77CFF00BF1437A3
:1006A800BD4690BD90B59BB000AF01221021904887
:1006B80001F082FFFFF73AFFFFF758FF0120FFF72D
:1006C80069FF4FF47A7001F0D1FCCB20FFF762FF8D
:1006D800884A07F1600392E8030018600433197030
:1006E80007F1600305211846FFF76AFFCF20FFF7DF
:1006F80051FF814A07F15C031268114619800233E1
:10070800120C1A7007F15C0303211846FFF758FF13
:10071800E820FFF73FFF794A07F1580312681146AE
:1007280019800233120C1A7007F158030321184676
:10073800FFF746FFEA20FFF72DFF0023A7F8543004
:1007480007F1540302211846FFF73AFFED20FFF79F
:1007580021FF6B4B3B6507F1500304211846FFF757
:100768002FFFF720FFF716FF202387F84C3007F1FB
:100778004C0301211846FFF723FFC020FFF70AFFAB
:10078800232387F8483007F1480301211846FFF76B
:1007980017FFC120FFF7FEFE102387F8443007F14A
:1007A800440301211846FFF70BFFC520FFF7F2FEAF
:1007B80042F63E03A7F8403007F1400302211846ED
:1007C800FFF7FEFEC720FFF7E5FE862387F83C30DB
:1007D80007F13C0301211846FFF7F2FE3620FFF728
:1007E800D9FE482387F8383007F138030121184625
:1007F800FFF7E6FE3A20FFF7CDFE552387F83430A1
:1008080007F1340301211846FFF7DAFEB120FFF79C
:10081800C1FE4FF4C0533B8607F13003022118464E
:10082800FFF7CEFEB620FFF7B5FE364A07F12C03D8
:100838001268114619800233120C1A7007F12C0342
:1008480003211846FFF7BCFEF220FFF7A3FE0023A2
:1008580087F8283007F1280301211846FFF7B0FE72
:100868002620FFF797FE012387F8243007F1240399
:1008780001211846FFF7A4FEE020FFF78BFE224B6C
:1008880007F114040FCB07C4238002341B0C237018
:1008980007F114030F211846FFF792FEE120FFF736
:1008A80079FE1A4B3C1D0FCB07C4238002341B0C66
:1008B80023703B1D0F211846FFF782FE1120FFF71A
:1008C80069FE782001F0D2FB2920FFF763FE36206D
:1008D800FFF760FEE8233B703B4601211846FFF70F
:1008E8006FFEFFF733FE00BF6C37BD4690BD00BFFB
:1008F80000000240003E0020083E00200C3E002080
:1009080064031281103E0020143E0020243E002083
:1009180080B584B000AF0346FB800B46BB8013460E
:100928007B80FB88B3F5A07F1FD2BB88EF2B1CD838
:10093800FFF7FCFDFB8801339AB2BB8801339BB2F9
:10094800B988F888FFF766FE7B881B0A9BB2DBB282
:100958003B737B88DBB27B7307F10C0302211846DB
:10096800FFF72EFEFFF7F2FD00E000BF1037BD468F
:1009780080BD000090B585B000AF0446084611461A
:100988001A462346FB800346BB800B467B801346F2
:100998003B80FB88B3F5A07F50D2BB88EF2B4DD8A6
:1009A800FA887B881344B3F5A07F03DDFB88C3F581
:1009B800A0737B80BA883B881344F02B03DDBB8887
:1009C800C3F1F0033B80FFF7B1FDFA887B8813443D
:1009D8009BB2013B9CB2BA883B8813449BB2013B53
:1009E8009BB2B988F8882246FFF714FE3B8C1B0A95
:1009F8009BB2DBB23B733B8CDBB27B7301220121E0
:100A0800104801F0D9FD3B88BB8011E07B88FB8052
:100A180008E007F10C0302211846FFF75BFDFB888D
:100A2800013BFB80FB88002BF3D1BB88013BBB80DB
:100A3800BB88002BEAD1FFF789FD00E000BF14371F
:100A4800BD4690BD0004024080B584B002AF0346A5
:100A5800FB80FB880093F0234FF4A0720021002054
:100A6800FFF788FF00BF0837BD4680BD90B589B045
:100A780000AF0446084611461A462346FB80034643
:100A8800BB800B46FB7013463B80FB78203B714ACA
:100A9800DB0013445B689A88FB8813449BB2013BD4
:100AA8009CB2FB78203B6B4ADB0013445B68DA8816
:100AB800BB8813449BB2013B9BB2B988F888224695
:100AC800FFF7A8FD01237B8380237B61FB78203B14
:100AD800604ADB0013445B689B88082B04D9022317
:100AE8007B834FF400437B61FB78203B594ADB0052
:100AF80013445B689B88102B04D903237B834FF432
:100B080000037B61FB78203B524ADB0013445B689F
:100B18009B88182B04D904237B834FF000437B6107
:100B28000023FB8381E0FB78203B4A4ADB00134427
:100B38005B681A68FB8B13441B783B617B8B012B2A
:100B480011D93B691B023B61FB78203B414ADB0022
:100B580013445B681A68FB8B013313441B781A46ED
:100B68003B6913433B617B8B022B11D93B691B0209
:100B78003B61FB78203B374ADB0013445B681A680B
:100B8800FB8B023313441B781A463B6913433B61C2
:100B98007B8B032B11D93B691B023B61FB78203B04
:100BA8002C4ADB0013445B681A68FB8B033313443D
:100BB8001B781A463B6913433B610023BB8326E03D
:100BC800BB8B3A699A407B691340002B0ED03B8857
:100BD8001B0A9BB2DBB23B733B88DBB27B7307F12A
:100BE8000C0302211846FFF7EBFC0DE03B8E1B0AB5
:100BF8009BB2DBB23B723B8EDBB27B7207F1080320
:100C080002211846FFF7DCFCBB8B0133BB83FB7862
:100C1800203B104ADB0013445B689B88BA8B9A42DE
:100C2800CED3FA8B7B8B1344FB83FA8BFB78203B68
:100C38000849DB000B445B68DB8819467B8B01FBAA
:100C480003F39A42FFF66FAF00BF00BF2437BD46DB
:100C580090BD00BF4471002090B587B002AFBA6064
:100C68001A460346FB810B46BB811346FB80FFF700
:100C78005DFC45E0FA89BB681B78203B2649DB0010
:100C88000B445B689B881344B3F5A07F20DB0023EB
:100C9800FB81BB681B78203B1F4ADB0013445B6861
:100CA800DA88BB891344BB81BA89BB681B78203BAF
:100CB8001949DB000B445B68DB881344EF2B24DC09
:100CC800BB681B78202B03D1BB680133BB6017E0DE
:100CD800BB681A78FC88B989F8893B8C009323464D
:100CE800FFF7C4FEBB681B78203B0B4ADB001344AC
:100CF8005B689A88FB891344FB81BB680133BB603E
:100D0800BB681B78002BB5D100E000BFFFF71EFCC5
:100D180000BF1437BD4690BD4471002082B090B525
:100D280089B000AF7B630346FB800B46BB8013464C
:100D3800FB7097F834309AB2FB8813449BB2013B9E
:100D48009CB297F835309AB2BB8813449BB2013BEA
:100D58009BB2B988F8882246FFF75CFC0023FB6148
:100D680043E0BA6BFB78203B97F8351001FB03F39F
:100D78001946FB690B445B0013441B887B61002305
:100D8800BB6129E07A69BB6902FA03F303F4004303
:100D9800002B0ED0BB8F1B0A9BB2DBB23B74BB8F00
:100DA800DBB27B7407F1100302211846FFF708FC39
:100DB8000FE0B7F840301B0A9BB2DBB23B73B7F8C1
:100DC8004030DBB27B7307F10C0302211846FFF7B2
:100DD800F7FBBB690133BB6197F834301A46BB692E
:100DE8009342CFD3FB690133FB6197F835301A463C
:100DF800FB699342B5D300BF00BF2437BD46BDE8A9
:100E0800904002B0704782B080B586B004AF3A60B7
:100E18007B610346FB800B46BB80FFF787FB2EE018
:100E2800FB883A7D1344B3F5A07F13DB0023FB80D6
:100E38007B7D9AB2BB881344BB80BB887A7D134400
:100E4800EF2B21DC3B681B78202B03D13B68013357
:100E58003B6014E03B681A78B988F8883B8C0293A9
:100E6800BB8B0193BB6900937B69FFF757FF3B7D01
:100E78009AB2FB881344FB803B6801333B603B68B4
:100E88001B78002BCCD100E000BFFFF75FFB00BF51
:100E98000837BD46BDE8804002B0704790B587B0BE
:100EA80000AF0446084611461A462346FB8003460F
:100EB800BB800B467B8013463B807B88C3F10103D4
:100EC8009BB2FB820123BB827B881A46D203D31ACA
:100ED8005B009BB27B8200233B827B88FB81FFF710
:100EE80025FBF888BA887B8813449BB23A88194650
:100EF800FFF70EFDF888BA887B88D31A9BB23A8828
:100F08001946FFF705FDFA887B8813449BB2B98818
:100F18003A881846FFF7FCFCFA887B88D31A9BB2FC
:100F2800B9883A881846FFF7F3FC81E0B7F916301C
:100F3800002B0EDBB7F90E309BB2013B9BB2FB8155
:100F48007B8A02339BB27B82FA8A7B8A13449BB2E8
:100F5800FB82B7F910309BB201339BB23B82BB8A4C
:100F680002339BB2BB82FA8ABB8A13449BB2FB82D0
:100F7800FA883B8A134498B2BA88FB8913449BB217
:100F88003A881946FFF7C4FCFA883B8AD31A98B204
:100F9800BA88FB8913449BB23A881946FFF7B8FC14
:100FA800FA883B8A134498B2BA88FB89D31A9BB251
:100FB8003A881946FFF7ACFCFA883B8AD31A98B2EC
:100FC800BA88FB89D31A9BB23A881946FFF7A0FC66
:100FD800FA88FB89134498B2BA883B8A13449BB2B7
:100FE8003A881946FFF794FCFA88FB89D31A98B215
:100FF800BA883B8A13449BB23A881946FFF788FCA3
:10100800FA88FB89134498B2BA883B8AD31A9BB2F0
:101018003A881946FFF77CFCFA88FB89D31A98B2FC
:10102800BA883B8AD31A9BB23A881946FFF770FCF4
:10103800B7F91020B7F90E309A42FFF677AFFFF7ED
:1010480085FA00BF1C37BD4690BD000080B483B050
:1010580000AF054B7B60054B7B6000BF0C37BD467E
:101068005DF8047B704700BFF0FF0708F4FF07082E
:1010780080B500AF00224FF48071024801F09CFA5D
:1010880000BF80BD0000024080B500AF01224FF4D0
:101098008071024801F090FA00BF80BD0000024054
:1010A80080B500AF4FF48051054801F06DFA034652
:1010B800002B0CBF01230023DBB2184680BD00BF04
:1010C8000004024080B58EB002AF78603960FFF747
:1010D800CFFF0023FB620023BB62002387F8273081
:1010E800002387F826304BE0FFF7DAFF034683F04A
:1010F8000103DBB2002B48D197F82730013387F87A
:1011080027304FF0FF3301224D494E4801F01BFFB5
:1011180007F110024FF0FF33009302234A49494870
:1011280002F04DF84FF0FF3301224849454801F0DD
:101138000AFF07F10C024FF0FF33009302234249E4
:10114800404802F03CF83B7B1B027A7B1343BB61AF
:10115800BB69DB08C3F30B03FA6A1344FB623B7CED
:101168001B027A7C13437B617B69DB08C3F30B03A7
:10117800BA6A1344BB6297F82630013387F82630E1
:1011880097F826300F2BAFD900E000BFFFF77CFFA0
:1011980097F827300F2B01D800234CE0FB6A1B0976
:1011A8003B622B4B1B683A6A9A4202D2284B1B6857
:1011B8003B62284B1B683A6A9A4202D9254B1B6846
:1011C8003B62BB6A1B09FB61234B1B68FA699A42A5
:1011D80002D2214B1B68FB61204B1B68FA699A42BB
:1011E80002D91E4B1B68FB61194B1B683A6AD21A5D
:1011F80013469B0013449B011946164B1A68144B5F
:101208001B68D31AB1FBF3F39AB27B681A80124BAE
:101218001B68FA69D21A13461B019B1A1B0119464F
:101228000E4B1A680C4B1B68D31AB1FBF3F39AB236
:101238003B681A80012318463037BD4680BD00BF81
:10124800EC940020E8950020F0940020F49400200D
:101258006095002064950020689500206C9500201A
:1012680080B483B000AF294B1B685B08274A136022
:10127800274B1B685B08264A1360264B1B685B08D4
:10128800244A1360244B1B685B08234A1360214BD4
:101298001A681E4B1B68D31A204AA2FB03235B095A
:1012A8007B601D4B1A681A4B1B68D31A9B081C4A93
:1012B800A2FB03235B083B607A6813469B00134438
:1012C8005B007B603A6813469B0013445B003B60FD
:1012D8000E4B1A687B68D31A124A13600D4B1A68B2
:1012E8007B681344104A1360094B1A683B68D31A89
:1012F8000E4A1360084B1A683B6813440C4A136083
:1013080000BF0C37BD465DF8047B70477095002020
:1013180078950020749500207C950020B5814E1B9F
:1013280095204F096095002064950020689500205D
:101338006C95002080B58EB002AF0346FB7101E0CA
:10134800FFF796FEFFF7ACFE034683F00103DBB21E
:10135800002BF5D10023FB620023BB62002387F832
:101368002730002387F826304BE0FFF799FE034625
:1013780083F00103DBB2002B48D197F82730013303
:1013880087F827304FF0FF3301224C494C4801F0D1
:10139800DAFD07F110024FF0FF33009302234949A9
:1013A800474801F00CFF4FF0FF33012246494448FB
:1013B80001F0C9FD07F10C024FF0FF33009302233F
:1013C80040493F4801F0FBFE3B7B1B027A7B1343FD
:1013D8003B623B6ADB08C3F30B03FA6A1344FB6204
:1013E8003B7C1B027A7C1343FB61FB69DB08C3F37C
:1013F8000B03BA6A1344BB6297F82630013387F8A7
:10140800263097F826300F2BAFD900E000BFFFF742
:101418003BFE97F827300F2B00D890E7FB6A1B0993
:10142800BB61BB6A1B097B61FB79032B40D801A216
:1014380052F823F04D140020611400207B14002082
:1014480095140020214ABB691360214A7B69136007
:10145800642000F071FB2BE01E4ABB6913601C4B33
:101468001A687B6913441A4A1360642000F064FB0D
:101478001EE0164B1A68BB691344144A1360164AD7
:101488007B691360642000F057FB11E0114B1A6868
:10149800BB6913440F4A13600F4B1A687B691344E6
:1014A8000D4A1360642000F047FBFFF7D9FE00BF28
:1014B800012318463037BD4680BD00BFF894002090
:1014C800E8950020FC9400200095002070950020ED
:1014D80078950020749500207C95002080B586B012
:1014E80004AF0346FB71002300931923192200213E
:1014F8000020FFF73FFA0023009319231922002147
:1015080040F22B10FFF736FA002300931923192213
:10151800DB210020FFF72EFA00230093192319225C
:10152800DB2140F22B10FFF725FAFB79032B67D854
:1015380001A252F823F000BF51150020A715002082
:10154800C9150020E71500202F4B002202924FF604
:10155800E07201925A6800921B682C4A32210F20CF
:10156800FFF751FC284B002202924FF6E0720192DD
:101578005A6800921B68264A46210F20FFF743FC51
:101588004FF6E0730A220A210A20FFF787FC4FF67C
:10159800E07309220A210A20FFF780FC30E04FF6A9
:1015A800E0730A220A2140F23510FFF777FC4FF664
:1015B800E07309220A2140F23510FFF76FFC1FE0A3
:1015C8004FF6E0730A22E5210A20FFF767FC4FF681
:1015D800E0730922E5210A20FFF760FC10E04FF6CE
:1015E800E0730A22E52140F23510FFF757FC4FF669
:1015F800E0730922E52140F23510FFF74FFC00BFE8
:1016080000BF0837BD4680BD24950020403E00201D
:101618005C3E002080B586B004AF0346FB71FB79C1
:10162800002B0ED0104B002202924FF6E07201926E
:101638005A6800921B680D4A64218C20FFF7E3FB6F
:101648000DE0094B002202924FF6E07201925A68AF
:1016580000921B68064A64218C20FFF7D4FB00BF68
:101668000837BD4680BD00BF24950020783E002085
:10167800803E002080B584B004AFFFF705FDFEF77B
:1016880065FF0A2000F0F2FC184B1B68174A43F06C
:1016980040031360FFF706F8FEF748FF0020FFF746
:1016A800D3F9642000F0E2FC4FF6E070FFF7CCF9C4
:1016B8000F4B002202924FF6E07201925A68009294
:1016C8001B680C4A00211420FFF79DFB00230093A0
:1016D8004FF6E073084A32211420FFF7BDFA0020C4
:1016E800FFF7B2F900BFBD4680BD00BF0030014022
:1016F8002C950020883E0020943E002080B500AF45
:1017080008490948FFF7DEFC0346002B08D0064BC2
:101718001B88044A11884FF6FF721846FFF7F8F83D
:1017280000BF80BD829500208095002080B500AF65
:10173800094B03221A6000F027FC00F00FF800F0B4
:1017480073F900F073F800F0A7F800F0DBF800F088
:10175800DFFB00F0E9FBFCE70038014080B594B0FE
:1017680000AF07F1200330220021184602F030FBB9
:1017780007F10C0300221A605A609A60DA601A6155
:101788000023BB60274B1B6C264A43F0805313642D
:10179800244B1B6C03F08053BB60BB6800237B6049
:1017A800214B1B68204A43F4404313601E4B1B68BF
:1017B80003F440437B607B6801233B624FF4803332
:1017C8007B620223BB634FF48003FB630C233B64FF
:1017D80060237B640223BB640423FB6407F12003BA
:1017E800184600F003FF0346002B01D000F09EF9D5
:1017F8000F23FB6002233B6180237B614FF48053FE
:10180800BB610023FB6107F10C030121184601F0BD
:1018180065F90346002B01D000F088F900BF503766
:10182800BD4680BD003802400070004080B500AF62
:10183800174B184A1A60164B4FF482725A60144BB1
:1018480000229A60124B0022DA60114B00221A61C2
:101858000F4B00225A610E4B4FF400729A610C4BE9
:101868000022DA610A4B00221A62094B00225A62EE
:10187800074B00229A62064B0A22DA62044801F0FA
:10188800D9FA0346002B01D000F050F900BF80BD03
:10189800909500200030014080B500AF174B184AE2
:1018A8001A60164B4FF482725A60144B00229A60E9
:1018B800124B0022DA60114B00221A610F4B0022F2
:1018C8005A610E4B4FF400729A610C4B3822DA6160
:1018D8000A4B00221A62094B00225A62074B002267
:1018E8009A62064B0A22DA62044801F0A3FA034618
:1018F800002B01D000F01AF900BF80BDE895002048
:101908000038004080B592B000AF07F140030022D4
:101918001A605A6007F1240300221A605A609A601C
:10192800DA601A615A619A613B1D2022002118462B
:1019380002F04EFA3A4B3B4A1A60394B00225A6081
:10194800374B00229A60364B4FF6FF72DA60344B01
:1019580000221A61324B64225A61314B80229A610B
:101968002F4801F099FE0346002B01D000F0DEF865
:1019780000233B6400237B6407F140031946284891
:1019880002F042F90346002B01D000F0CFF81023F3
:101998007B626423BB620023FB6200233B6300235A
:1019A8007B630023BB630023FB6307F1240304224A
:1019B80019461B4801F0C0FE0346002B01D000F079
:1019C800B5F84FF47A73BB6207F12403082219466D
:1019D800134801F0B1FE0346002B01D000F0A6F831
:1019E80000237B600023BB600023FB6000233B6176
:1019F80000237B614FF40053BB6100233B623B1D16
:101A08001946074802F06EF90346002B01D000F092
:101A18008DF8034800F076F900BF4837BD4680BD11
:101A2800409600200000014080B588B000AF07F163
:101A38000C0300221A605A609A60DA601A61002367
:101A4800BB60374B1B6B364A43F080031363344B40
:101A58001B6B03F08003BB60BB6800237B60304BCB
:101A68001B6B2F4A43F0010313632D4B1B6B03F0D1
:101A780001037B607B6800233B60294B1B6B284A72
:101A880043F002031363264B1B6B03F002033B6016
:101A98003B68002240F21111224800F08DFD00221F
:101AA8000721214800F088FD0123FB6001233B61E9
:101AB80000237B610323BB6107F10C031946194816
:101AC80000F0DEFB4FF48873FB6001233B610023C9
:101AD8007B610023BB6107F10C031946114800F034
:101AE800CFFB0723FB6001233B6100237B610023BD
:101AF800BB6107F10C0319460B4800F0C1FB4FF41A
:101B08008053FB6000233B6100237B6107F10C03DA
:101B18001946054800F0B4FB00BF2037BD4680BD1C
:101B280000380240000002400004024080B400AFC8
:101B380072B600BFFEE7000080B483B000AF034672
:101B4800FB800A4B1B68002B09D1B7F90630074AFE
:101B58001360074B9B69064A43F00103936100BF7A
:101B68000C37BD465DF8047B704700BF889600209F
:101B78000000024080B483B000AF00237B60104BAC
:101B88005B6C0F4A43F4804353640D4B5B6C03F466
:101B980080437B607B6800233B60094B1B6C084AD1
:101BA80043F080531364064B1B6C03F080533B6077
:101BB8003B6800BF0C37BD465DF8047B704700BF2B
:101BC8000038024080B58CB000AF786007F11C0384
:101BD80000221A605A609A60DA601A617B681B6892
:101BE800324A93422CD10023BB61314B5B6C304AA3
:101BF80043F4805353642E4B5B6C03F48053BB61F6
:101C0800BB6900237B612A4B1B6B294A43F0010304
:101C18001363274B1B6B03F001037B617B69E02394
:101C2800FB6102233B6200237B620323BB62052323
:101C3800FB6207F11C0319461E4800F021FB31E046
:101C48007B681B681C4A93422CD100233B61184BCC
:101C58001B6C174A43F480431364154B1B6C03F445
:101C680080433B613B690023FB60114B1B6B104AAF
:101C780043F0020313630E4B1B6B03F00203FB607C
:101C8800FB684FF46043FB6102233B6200237B62E5
:101C98000323BB620523FB6207F11C0319460748AF
:101CA80000F0EEFA00BF3037BD4680BD003001407D
:101CB80000380240000002400038004000040240A2
:101CC80080B485B000AF78607B681B680B4A93428C
:101CD8000DD10023FB600A4B5B6C094A43F00103FA
:101CE8005364074B5B6C03F00103FB60FB6800BFA8
:101CF8001437BD465DF8047B704700BF0000014003
:101D08000038024080B588B000AF786007F10C0356
:101D180000221A605A609A60DA601A617B681B6850
:101D2800124A93421ED10023BB60114B1B6B104A11
:101D380043F0010313630E4B1B6B03F00103BB60FD
:101D4800BB684FF4C063FB6002233B6100237B61E7
:101D58000023BB610123FB6107F10C031946054809
:101D680000F08EFA00BF2037BD4680BD000001405C
:101D7800003802400000024080B400AFFEE780B4A3
:101D880000AFFEE780B400AFFEE780B400AFFEE727
:101D980080B400AFFEE780B400AF00BFBD465DF879
:101DA800047B704780B400AF00BFBD465DF8047B7C
:101DB800704780B400AF00BFBD465DF8047B704734
:101DC80080B500AF1D4B1B68002B04D01B4B1B6854
:101DD800013B1A4A13601A4B1B68002B04D0184B9E
:101DE8001B68013B164A1360164B1B68002B04D076
:101DF800144B1B68013B134A1360134B1B68002BE1
:101E080004D0114B1B68013B0F4A13600F4B1B6832
:101E1800002B04D00D4B1B68013B0C4A13600B4B85
:101E28001B680A2B05D10A4B9B69094A43F4803386
:101E3800936100F0FBF800BF80BD00BF84950020CF
:101E4800889500208C9500208C960020889600208C
:101E58000000024080B400AF064BD3F88830054A32
:101E680043F47003C2F8883000BFBD465DF8047BB8
:101E7800704700BF00ED00E080B500AF234B1B6842
:101E88001B68B3F1FF3F3FD10020FFF7C3FB0020E1
:101E9800FFF724FB0020FFF74DFA0120FFF7BAFBFC
:101EA8004FF47A7000F0E2F80020FFF7B3FB01204E
:101EB800FFF714FB0120FFF73DFA0120FFF7AAFB0B
:101EC8004FF47A7000F0D2F80020FFF7A3FB02204D
:101ED800FFF704FB0220FFF72DFA0120FFF79AFB1A
:101EE8004FF47A7000F0C2F80020FFF793FB03204C
:101EF800FFF7F4FA0320FFF71DFA0120FFF78AFB2A
:101F08004FF47A7000F0B2F800BF80BD3895002019
:101F180080B500AFFFF7AEFBFFF7F0FBFFF7ACFFB4
:101F2800FFF794F800BF80BD80B500AFFFF7E6FB70
:101F380000BF80BDDFF834D00D480E490E4A00239B
:101F480002E0D458C4500433C4188C42F9D30B4A65
:101F58000B4C002301E013600432A242FBD3FFF7CD
:101F680079FF01F011FFFFF7E1FB70470000022045
:101F780024950020449500202495002044950020B5
:101F880094960020FEE7000080B500AF0E4B1B685A
:101F98000D4A43F4007313600B4B1B680A4A43F461
:101FA80080631360084B1B68074A43F4807313600F
:101FB800032000F031F90F2000F008F8FFF7DAFDF0
:101FC8000023184680BD00BF003C024080B582B0A7
:101FD80000AF7860124B1A68124B1B7819464FF401
:101FE8007A73B3FBF1F3B2FBF3F3184600F03BF955
:101FF8000346002B01D001230EE07B680F2B0AD883
:10200800002279684FF0FF3000F011F9064A7B682A
:102018001360002300E0012318460837BD4680BD41
:1020280034950020409500203C95002080B400AFF6
:10203800064B1B781A46064B1B681344044A136068
:1020480000BFBD465DF8047B704700BF4095002087
:102058009096002080B400AF034B1B681846BD461D
:102068005DF8047B704700BF9096002080B584B06F
:1020780000AF7860FFF7EEFFB8607B68FB60FB6835
:10208800B3F1FF3F05D00A4B1B781A46FB6813448F
:10209800FB6000BFFFF7DEFF0246BB68D31AFA6891
:1020A8009A42F7D800BF00BF1037BD4680BD00BFB9
:1020B8004095002080B485B000AF78607B6803F05D
:1020C8000703FB600C4BDB68BB60BA684FF6FF0385
:1020D8001340BB60FB681A02BB68134343F0BF633D
:1020E80043F40033BB60044ABB68D36000BF1437B5
:1020F800BD465DF8047B704700ED00E080B400AF9A
:10210800044BDB681B0A03F007031846BD465DF85D
:10211800047B704700ED00E080B483B000AF034655
:102128003960FB7197F90730002B0ADB3B68DAB29C
:102138000C4997F907301201D2B20B4483F80023F7
:102148000AE03B68DAB20849FB7903F00F03043B65
:102158001201D2B20B441A7600BF0C37BD465DF8A7
:10216800047B704700E100E000ED00E080B489B036
:1021780000AFF860B9607A60FB6803F00703FB61A1
:10218800FB69C3F10703042B28BF0423BB61FB6968
:102198000433062B02D9FB69033B00E000237B6173
:1021A8004FF0FF32BB6902FA03F3DA43BB681A4007
:1021B8007B699A404FF0FF317B6901FA03F3D943F9
:1021C8007B680B40134318462437BD465DF8047BF3
:1021D8007047000080B582B000AF78607B68013B33
:1021E800B3F1807F01D301230FE00A4A7B68013BEA
:1021F80053600F214FF0FF30FFF78EFF054B002291
:102208009A60044B07221A60002318460837BD4617
:1022180080BD00BF10E000E080B582B000AF7860FC
:102228007868FFF747FF00BF0837BD4680BD80B517
:1022380086B000AF0346B9607A60FB7300237B6108
:10224800FFF75CFF78617A68B9687869FFF78EFFF5
:10225800024697F90F3011461846FFF75DFF00BF99
:102268001837BD4680BD80B582B000AF7860786809
:10227800FFF7B0FF034618460837BD4680BD00008B
:1022880080B489B000AF7860396000237B61002397
:102298003B610023BB610023FB6159E10122FB691B
:1022A80002FA03F37B613B681B687A6913403B6160
:1022B8003A697B699A4240F048813B685B6803F061
:1022C8000303012B05D03B685B6803F00303022B73
:1022D80030D17B689B68BB61FB695B00032202FA13
:1022E80003F3DB43BA691340BB613B68DA68FB69F7
:1022F8005B0002FA03F3BA691343BB617B68BA69EE
:102308009A607B685B68BB610122FB6902FA03F390
:10231800DB43BA691340BB613B685B681B0903F088
:102328000102FB6902FA03F3BA691343BB617B68D4
:10233800BA695A603B685B6803F00303032B17D044
:102348007B68DB68BB61FB695B00032202FA03F36D
:10235800DB43BA691340BB613B689A68FB695B0061
:1023680002FA03F3BA691343BB617B68BA69DA609E
:102378003B685B6803F00303022B23D1FB69DA088F
:102388007B68083253F82230BB61FB6903F007030E
:102398009B000F2202FA03F3DB43BA691340BB61C7
:1023A8003B681A69FB6903F007039B0002FA03F311
:1023B800BA691343BB61FB69DA087B680832B969FB
:1023C80043F822107B681B68BB61FB695B00032232
:1023D80002FA03F3DB43BA691340BB613B685B68ED
:1023E80003F00302FB695B0002FA03F3BA691343C3
:1023F800BB617B68BA691A603B685B6803F4403369
:10240800002B00F0A2800023FB60574B5B6C564A00
:1024180043F480435364544B5B6C03F48043FB6088
:10242800FB68524AFB699B08023352F82330BB61B0
:10243800FB6903F003039B000F2202FA03F3DB435B
:10244800BA691340BB617B68494A934219D07B68DB
:10245800484A934213D07B68474A93420DD07B6821
:10246800464A934207D07B68454A934201D10423E8
:1024780008E0072306E0032304E0022302E0012327
:1024880000E00023FA6902F0030292009340BA695F
:102498001343BB613549FB699B080233BA6941F8AC
:1024A8002320384B9B68BB613B69DB43BA69134007
:1024B800BB613B685B6803F48013002B03D0BA69E7
:1024C8003B691343BB612F4ABB6993602D4BDB68A3
:1024D800BB613B69DB43BA691340BB613B685B681E
:1024E80003F40013002B03D0BA693B691343BB61A3
:1024F800244ABB69D360234B5B68BB613B69DB4300
:10250800BA691340BB613B685B6803F40033002B76
:1025180003D0BA693B691343BB611A4ABB6953606C
:10252800184B1B68BB613B69DB43BA691340BB614D
:102538003B685B6803F48033002B03D0BA693B69BE
:102548001343BB610F4ABB691360FB690133FB612D
:10255800FB690F2B7FF6A2AE00BF00BF2437BD4634
:102568005DF8047B704700BF003802400038014026
:10257800000002400004024000080240000C024033
:1025880000100240003C014080B485B000AF786084
:102598000B467B807B681A697B881340002B02D02E
:1025A8000123FB7301E00023FB73FB7B1846143700
:1025B800BD465DF8047B704780B483B000AF786097
:1025C8000B467B8013467B707B78002B03D07A8880
:1025D8007B689A6103E07B881A047B689A6100BF74
:1025E8000C37BD465DF8047B7047000080B586B0A7
:1025F80000AF78607B68002B01D1012367E27B681C
:102608001B6803F00103002B75D0884B9B6803F00F
:102618000C03042B0CD0854B9B6803F00C03082B90
:1026280012D1824B5B6803F48003B3F5800F0BD1A2
:102638007E4B1B6803F40033002B5BD07B685B6820
:10264800002B57D1012342E27B685B68B3F5803FDA
:1026580006D1764B1B68754A43F4803313601DE03E
:102668007B685B68B3F5A02F0CD1704B1B686F4A71
:1026780043F4802313606D4B1B686C4A43F480332A
:1026880013600BE0694B1B68684A23F480331360BE
:10269800664B1B68654A23F4802313607B685B687C
:1026A800002B13D0FFF7D6FC386108E0FFF7D2FC07
:1026B80002463B69D31A642B01D9032307E25B4B1B
:1026C8001B6803F40033002BF0D014E0FFF7C2FCC2
:1026D800386108E0FFF7BEFC02463B69D31A642B59
:1026E80001D90323F3E1514B1B6803F40033002B9A
:1026F800F0D100E000BF7B681B6803F00203002BE9
:1027080063D04A4B9B6803F00C03002B0BD0474B5C
:102718009B6803F00C03082B1CD1444B5B6803F443
:102728008003002B16D1414B1B6803F00203002BDA
:1027380005D07B68DB68012B01D00123C7E13B4B47
:102748001B6823F0F8027B681B69DB0037491343D9
:102758000B603AE07B68DB68002B20D0344B012209
:102768001A60FFF777FC386108E0FFF773FC024650
:102778003B69D31A022B01D90323A8E12B4B1B6811
:1027880003F00203002BF0D0284B1B6823F0F8025B
:102798007B681B69DB00254913430B6015E0244B5C
:1027A80000221A60FFF756FC386108E0FFF752FC78
:1027B80002463B69D31A022B01D9032387E11B4B3D
:1027C8001B6803F00203002BF0D17B681B6803F041
:1027D8000803002B36D07B685B69002B16D0154B9D
:1027E80001221A60FFF736FC386108E0FFF732FC77
:1027F80002463B69D31A022B01D9032367E10B4B2D
:102808005B6F03F00203002BF0D01BE0094B0022A2
:102818001A60FFF71FFC38610EE0FFF71BFC024649
:102828003B69D31A022B07D9032350E10038024031
:1028380000004742800E4742884B5B6F03F002035B
:10284800002BEAD17B681B6803F00403002B00F01F
:1028580097800023FB75814B1B6C03F08053002B82
:102868000FD10023BB607D4B1B6C7C4A43F0805327
:1028780013647A4B1B6C03F08053BB60BB68012365
:10288800FB75774B1B6803F48073002B18D1744BCE
:102898001B68734A43F480731360FFF7DBFB3861EE
:1028A80008E0FFF7D7FB02463B69D31A022B01D990
:1028B80003230CE16A4B1B6803F48073002BF0D0F0
:1028C8007B689B68012B06D1644B1B6F634A43F0FE
:1028D800010313671CE07B689B68052B0CD15F4BD9
:1028E8001B6F5E4A43F0040313675C4B1B6F5B4A24
:1028F80043F0010313670BE0584B1B6F574A23F053
:1029080001031367554B1B6F544A23F004031367E5
:102918007B689B68002B15D0FFF79CFB38610AE0A9
:10292800FFF798FB02463B69D31A41F2883293427B
:1029380001D90323CBE0494B1B6F03F00203002BA3
:10294800EED014E0FFF786FB38610AE0FFF782FB60
:1029580002463B69D31A41F28832934201D90323D4
:10296800B5E03E4B1B6F03F00203002BEED1FB7D5D
:10297800012B05D1394B1B6C384A23F08053136463
:102988007B689B69002B00F0A180344B9B6803F0A7
:102998000C03082B5CD07B689B69022B41D1314B1F
:1029A80000221A60FFF756FB386108E0FFF752FB78
:1029B80002463B69D31A022B01D9032387E0274B30
:1029C8001B6803F00073002BF0D17B68DA697B6821
:1029D8001B6A1A437B685B6A9B011A437B689B6A84
:1029E8005B08013B1B041A437B68DB6A1B061B4917
:1029F80013434B601B4B01221A60FFF72BFB386116
:102A080008E0FFF727FB02463B69D31A022B01D9DE
:102A180003235CE0114B1B6803F00073002BF0D01C
:102A280054E0104B00221A60FFF714FB386108E0ED
:102A3800FFF710FB02463B69D31A022B01D9032387
:102A480045E0064B1B6803F00073002BF0D13DE016
:102A58007B689B69012B07D1012338E000380240CD
:102A680000700040600047421B4B5B68FB607B685E
:102A78009B69012B28D0FB6803F480027B68DB6923
:102A88009A4221D1FB6803F03F027B681B6A9A4295
:102A98001AD1FA6847F6C07313407A68526A9201ED
:102AA800934211D1FB6803F440327B689B6A5B0850
:102AB800013B1B049A4207D1FB6803F070627B68F4
:102AC800DB6A1B069A4201D0012300E00023184666
:102AD8001837BD4680BD00BF0038024080B584B0BD
:102AE80000AF786039607B68002B01D10123CCE00E
:102AF800684B1B6803F007033A689A420CD9654B88
:102B08003A68D2B21A70634B1B6803F007033A683D
:102B18009A4201D00123B8E07B681B6803F00203E6
:102B2800002B20D07B681B6803F00403002B05D022
:102B3800594B9B68584A43F4E05393607B681B6881
:102B480003F00803002B05D0534B9B68524A43F40B
:102B580060439360504B9B6823F0F0027B689B684E
:102B68004D4913438B607B681B6803F00103002BFE
:102B780044D07B685B68012B07D1474B1B6803F483
:102B88000033002B19D101237FE07B685B68022B9F
:102B980003D07B685B68032B07D13F4B1B6803F0AE
:102BA8000073002B09D101236FE03B4B1B6803F036
:102BB8000203002B01D1012367E0374B9B6823F008
:102BC80003027B685B68344913438B60FFF742FA62
:102BD800F8600AE0FFF73EFA0246FB68D31A41F2B2
:102BE8008832934201D903234FE02B4B9B6803F0B3
:102BF8000C027B685B689B009A42EBD1254B1B68F3
:102C080003F007033A689A420CD2224B3A68D2B2D0
:102C18001A70204B1B6803F007033A689A4201D0E8
:102C2800012332E07B681B6803F00403002B08D003
:102C3800194B9B6823F4E0527B68DB681649134301
:102C48008B607B681B6803F00803002B09D0124BCC
:102C58009B6823F460427B681B69DB000E491343C1
:102C68008B6000F021F802460B4B9B681B0903F0B0
:102C78000F030A49CB5C22FA03F3094A1360094B94
:102C88001B681846FFF7A2F9002318461037BD46FF
:102C980080BD00BF003C024000380240049500207F
:102CA800349500203C9500202DE9B04F90B000AF3E
:102CB80000237B630023FB6300233B630023BB6388
:102CC800594B9B6803F00C03082B0DD0082B00F21E
:102CD800A180002B02D0042B03D09BE0534BBB6395
:102CE8009BE0534BBB6398E04F4B5B6803F03F039B
:102CF8007B634D4B5B6803F48003002B28D04A4B61
:102D08005B689B0900223B627A623B6AC3F3080056
:102D18000021474B03FB01F2002300FB03F313449C
:102D2800434AA0FB0212FA620A46BA62FA6A1344DC
:102D3800FB627B6B0022BB61FA61D7E90623D7E906
:102D48000A01FDF745FA02460B461346FB6353E0BA
:102D5800354B5B689B0900223B617A613B69C3F391
:102D6800080A4FF0000B52465B464FF000004FF048
:102D78000001590141EAD261500102460B46B2EB0B
:102D88000A0863EB0B094FF000024FF000034FEA0B
:102D9800891343EA98634FEA8812B2EB080463EB9D
:102DA80009054FF000024FF00003EB0043EA5473AB
:102DB800E20014461D4614EB0A033B6045EB0B0387
:102DC8007B604FF000024FF00003D7E90045294629
:102DD8008B02214643EA915321468A02104619463E
:102DE8007B6B0022BB60FA60D7E90223FDF7F0F99C
:102DF80002460B461346FB630B4B5B681B0C03F048
:102E0800030301335B003B63FA6B3B6BB2FBF3F3E9
:102E1800BB6302E0054BBB6300BFBB6B1846403782
:102E2800BD46BDE8B08F00BF003802400024F40062
:102E380040787D0180B582B000AF78607B68002B58
:102E480001D101237BE07B685B6A002B08D17B689A
:102E58005B68B3F5827F09D07B680022DA6105E000
:102E68007B6800221A617B6800225A617B68002215
:102E78009A627B6893F85130DBB2002B06D17B68ED
:102E8800002283F850207868FEF79CFE7B680222B7
:102E980083F851207B681B681A687B681B6822F0DE
:102EA80040021A607B685B6803F482727B689B68E7
:102EB80003F404431A437B68DB6803F400631A4392
:102EC8007B681B6903F002031A437B685B6903F0A4
:102ED80001031A437B689B6903F400731A437B68F8
:102EE800DB6903F038031A437B681B6A03F080032D
:102EF80042EA03017B689B6A03F400527B681B6803
:102F08000A431A607B689B691B0C03F004017B6809
:102F18005B6A03F010027B681B680A435A607B688F
:102F28001B68DA697B681B6822F40062DA617B68D7
:102F380000225A657B68012283F851200023184635
:102F48000837BD4680BD80B588B000AFF860B9606D
:102F58003B601346FB800023FB77FB6893F85030F7
:102F6800012B01D1022326E1FB68012283F85020BE
:102F7800FFF770F8B861FB88FB82FB6893F8513063
:102F8800DBB2012B02D00223FB770BE1BB68002BDD
:102F980002D0FB88002B02D10123FB7702E1FB68FA
:102FA800032283F85120FB6800225A65FB68BA683F
:102FB8001A63FB68FA889A86FB68FA88DA86FB68DF
:102FC80000229A63FB6800229A87FB680022DA874E
:102FD800FB6800225A64FB6800221A64FB689B683D
:102FE800B3F5004F0FD1FB681B681A68FB681B68B4
:102FF80022F040021A60FB681B681A68FB681B68AD
:1030080042F480421A60FB681B681B6803F04003A7
:10301800402B07D0FB681B681A68FB681B6842F0E6
:1030280040021A60FB68DB68B3F5006F4BD1FB68A0
:103038005B68002B02D0FB8A012B3ED1FB681B6B1F
:103048001A88FB681B68DA60FB681B6B9A1CFB68B4
:103058001A63FB68DB8E9BB2013B9AB2FB68DA8687
:103068002BE0FB681B689B6803F00203022B12D15C
:10307800FB681B6B1A88FB681B68DA60FB681B6BB4
:103088009A1CFB681A63FB68DB8E9BB2013B9AB201
:10309800FB68DA8611E0FEF7DDFF0246BB69D31A4A
:1030A8003A689A4203D83B68B3F1FF3F02D13B68C4
:1030B800002B02D10323FB7774E0FB68DB8E9BB205
:1030C800002BCED14CE0FB685B68002B02D0FB8A5A
:1030D800012B40D1FB681A6BFB681B680C33127814
:1030E8001A70FB681B6B5A1CFB681A63FB68DB8E43
:1030F8009BB2013B9AB2FB68DA862CE0FB681B683E
:103108009B6803F00203022B13D1FB681A6BFB6860
:103118001B680C3312781A70FB681B6B5A1CFB680F
:103128001A63FB68DB8E9BB2013B9AB2FB68DA86B6
:1031380011E0FEF78FFF0246BB69D31A3A689A423C
:1031480003D83B68B3F1FF3F02D13B68002B02D1A3
:103158000323FB7726E0FB68DB8E9BB2002BCDD1E7
:10316800BA693968F86800F055FA0346002B02D0AE
:10317800FB6820225A65FB689B68002B0AD1002354
:103188003B61FB681B68DB683B61FB681B689B68ED
:103198003B613B69FB685B6D002B02D00123FB7729
:1031A80000E000BFFB68012283F85120FB68002281
:1031B80083F85020FB7F18462037BD4680BD80B578
:1031C8008CB000AFF860B9607A607B800123FB6245
:1031D800002387F82B30FB6893F85030012B01D17E
:1031E80002238AE1FB68012283F85020FEF732FFB0
:1031F8007862FB6893F8513087F82330FB685B6886
:10320800FB617B887B8397F82330012B0FD0FB6908
:10321800B3F5827F07D1FB689B68002B03D197F831
:103228002330042B03D0022387F82B305BE1BB68E3
:10323800002B05D07B68002B02D07B88002B03D1A4
:10324800012387F82B304EE1FB6893F85130DBB24D
:10325800042B03D0FB68052283F85120FB68002269
:103268005A65FB687A689A63FB687A88DA87FB682C
:103278007A889A87FB68BA681A63FB687A88DA865C
:10328800FB687A889A86FB6800221A64FB68002229
:103298005A64FB681B681B6803F04003402B07D087
:1032A800FB681B681A68FB681B6842F040021A60DA
:1032B800FB68DB68B3F5006F78D1FB685B68002BAF
:1032C80002D07B8B012B66D1FB681B6B1A88FB68CD
:1032D8001B68DA60FB681B6B9A1CFB681A63FB6847
:1032E800DB8E9BB2013B9AB2FB68DA8653E0FB683F
:1032F8001B689B6803F00203022B1BD1FB68DB8E63
:103308009BB2002B16D0FB6A012B13D1FB681B6BF9
:103318001A88FB681B68DA60FB681B6B9A1CFB68E1
:103328001A63FB68DB8E9BB2013B9AB2FB68DA86B4
:103338000023FB62FB681B689B6803F00103012BF9
:1033480019D1FB68DB8F9BB2002B14D0FB681B687C
:10335800DA68FB689B6B92B21A80FB689B6B9A1CBD
:10336800FB689A63FB68DB8F9BB2013B9AB2FB68F0
:10337800DA870123FB62FEF76DFE02467B6AD31AE9
:10338800BA6B9A4207D8BB6BB3F1FF3F03D0032354
:1033980087F82B30A7E0FB68DB8E9BB2002BA6D109
:1033A800FB68DB8F9BB2002BA1D17CE0FB685B68DC
:1033B800002B02D07B8B012B6BD1FB681A6BFB684F
:1033C8001B680C3312781A70FB681B6B5A1CFB685D
:1033D8001A63FB68DB8E9BB2013B9AB2FB68DA8604
:1033E80057E0FB681B689B6803F00203022B1CD1A3
:1033F800FB68DB8E9BB2002B17D0FB6A012B14D124
:10340800FB681A6BFB681B680C3312781A70FB6830
:103418001B6B5A1CFB681A63FB68DB8E9BB2013B73
:103428009AB2FB68DA860023FB62FB681B689B681C
:1034380003F00103012B19D1FB68DB8F9BB2002B32
:1034480014D0FB681B68DA68FB689B6BD2B21A70F1
:10345800FB689B6B5A1CFB689A63FB68DB8F9BB20B
:10346800013B9AB2FB68DA870123FB62FEF7F2FDA3
:1034780002467B6AD31ABA6B9A4203D8BB6BB3F184
:10348800FF3F02D1BB6B002B03D1032387F82B30FE
:1034980029E0FB68DB8E9BB2002BA2D1FB68DB8F97
:1034A8009BB2002B9DD17A6AB96BF86800F0B2F82C
:1034B8000346002B06D0012387F82B30FB68202217
:1034C8005A6510E0FB689B68002B0BD100237B61D9
:1034D800FB681B68DB687B61FB681B689B687B611A
:1034E8007B6900E000BFFB68012283F85120FB687C
:1034F800002283F8502097F82B3018463037BD4605
:1035080080BD000080B588B000AFF860B9603B604E
:103518001346FB71FEF79EFD0246BB6A9B1A3A688A
:103528001344FB61FEF796FDB861394B1B685B01DC
:103538001B0DFA6902FB03F37B6154E03B68B3F1AE
:10354800FF3F50D0FEF786FD0246BB69D31AFA69E1
:103558009A4202D9FB69002B3DD1FB681B685A6867
:10356800FB681B6822F0E0025A60FB685B68B3F5F1
:10357800827F11D1FB689B68B3F5004F04D0FB68CC
:103588009B68B3F5806F07D1FB681B681A68FB68F6
:103598001B6822F040021A60FB689B6AB3F5005F63
:1035A8000FD1FB681B681A68FB681B6822F400527D
:1035B8001A60FB681B681A68FB681B6842F40052B3
:1035C8001A60FB68012283F85120FB68002283F807
:1035D8005020032317E07B69002B01D10023FB61F6
:1035E8007B69013B7B61FB681B689A68BB68134079
:1035F800BA689A420CBF01230023DBB21A46FB7952
:103608009A429BD1002318462037BD4680BD00BF93
:103618003495002080B588B002AFF860B9607A6050
:103628001B4B1B681B4AA2FB03235B0D4FF47A72EA
:1036380002FB03F37B61FB685B68B3F5827F12D101
:103648007B680093BB6800228021F868FFF75AFF67
:103658000346002B16D0FB685B6D43F02002FB6825
:103668005A6503230FE07B69002B0AD07B69013B75
:103678007B61FB681B689B6803F08003802BF2D09A
:1036880000E000BF002318461837BD4680BD00BFC4
:1036980034950020819F5E1680B582B000AF7860B7
:1036A8007B68002B01D1012341E07B6893F83D3012
:1036B800DBB2002B06D17B68002283F83C207868B7
:1036C800FEF7FEFA7B68022283F83D207B681A68C1
:1036D8007B6804331946104600F08AF87B6801229B
:1036E80083F846207B68012283F83E207B6801220C
:1036F80083F83F207B68012283F840207B68012201
:1037080083F841207B68012283F842207B680122EC
:1037180083F843207B68012283F844207B680122D8
:1037280083F845207B68012283F83D200023184652
:103738000837BD4680BD000080B586B000AFF86090
:10374800B9607A600023FB75FB6893F83C30012B65
:1037580001D1022348E0FB68012283F83C207B6802
:103768000C2B39D801A252F823F000BFA93700204A
:10377800E1370020E1370020E1370020B73700208B
:10378800E1370020E1370020E1370020C53700206D
:10379800E1370020E1370020E1370020D33700204F
:1037A800FB681B68B968184600F0A2F817E0FB68C8
:1037B8001B68B968184600F001F910E0FB681B683F
:1037C800B968184600F066F909E0FB681B68B96833
:1037D800184600F0C9F902E00123FB7500BFFB6839
:1037E800002283F83C20FB7D18461837BD4680BD73
:1037F80080B485B000AF786039607B681B68FB6077
:103808007B68344A93420FD07B68B3F1804F0BD06A
:103818007B68314A934207D07B68304A934203D091
:103828007B682F4A934208D1FB6823F07003FB6042
:103838003B685B68FA681343FB607B68254A9342E0
:103848001BD07B68B3F1804F17D07B68224A934224
:1038580013D07B68214A93420FD07B68204A934259
:103868000BD07B681F4A934207D07B681E4A93425D
:1038780003D07B681D4A934208D1FB6823F4407348
:10388800FB603B68DB68FA681343FB60FB6823F066
:1038980080023B685B691343FB607B68FA681A60C7
:1038A8003B689A687B68DA623B681A687B689A6248
:1038B8007B68084A934203D13B681A697B681A639C
:1038C8007B6801225A6100BF1437BD465DF8047B4E
:1038D800704700BF0000014000040040000800409D
:1038E800000C0040004001400044014000480140F5
:1038F80080B487B000AF786039607B681B6A23F0BA
:1039080001027B681A627B681B6A7B617B685B6863
:103918003B617B689B69FB60FB6823F07003FB607D
:10392800FB6823F00303FB603B681B68FA681343DA
:10393800FB607B6923F002037B613B689B687A69C3
:1039480013437B617B681C4A93420CD17B6923F04B
:1039580008037B613B68DB687A6913437B617B6999
:1039680023F004037B617B68134A934211D13B69BE
:1039780023F480733B613B6923F400733B613B682C
:103988005B693A6913433B613B689B693A69134336
:103998003B617B683A695A607B68FA689A613B6860
:1039A8005A687B685A637B687A691A6200BF1C3759
:1039B800BD465DF8047B70470000014080B487B0C5
:1039C80000AF786039607B681B6A23F010027B685F
:1039D8001A627B681B6A7B617B685B683B617B68FA
:1039E8009B69FB60FB6823F4E043FB60FB6823F4FE
:1039F8004073FB603B681B681B02FA681343FB605B
:103A08007B6923F020037B613B689B681B017A6913
:103A180013437B617B681E4A93420DD17B6923F077
:103A280080037B613B68DB681B017A6913437B6118
:103A38007B6923F040037B617B68154A934213D16D
:103A48003B6923F480633B613B6923F400633B617A
:103A58003B685B699B003A6913433B613B689B6920
:103A68009B003A6913433B617B683A695A607B68FB
:103A7800FA689A613B685A687B689A637B687A69D6
:103A88001A6200BF1C37BD465DF8047B704700BF53
:103A98000000014080B487B000AF786039607B686F
:103AA8001B6A23F480727B681A627B681B6A7B61DD
:103AB8007B685B683B617B68DB69FB60FB6823F0C4
:103AC8007003FB60FB6823F00303FB603B681B6823
:103AD800FA681343FB607B6923F400737B613B68DE
:103AE8009B681B027A6913437B617B681D4A93427A
:103AF8000DD17B6923F400637B613B68DB681B02A3
:103B08007A6913437B617B6923F480637B617B68FB
:103B1800144A934213D13B6923F480533B613B69B8
:103B280023F400533B613B685B691B013A6913430B
:103B38003B613B689B691B013A6913433B617B68A6
:103B48003A695A607B68FA68DA613B685A687B6848
:103B5800DA637B687A691A6200BF1C37BD465DF874
:103B6800047B70470000014080B487B000AF7860E4
:103B780039607B681B6A23F480527B681A627B6811
:103B88001B6A3B617B685B687B617B68DB69FB6008
:103B9800FB6823F4E043FB60FB6823F44073FB609D
:103BA8003B681B681B02FA681343FB603B6923F4FC
:103BB80000533B613B689B681B033A6913433B61B5
:103BC8007B68104A934209D17B6923F480437B6167
:103BD8003B685B699B017A6913437B617B687A69FF
:103BE8005A607B68FA68DA613B685A687B681A64CD
:103BF8007B683A691A6200BF1C37BD465DF8047BD2
:103C0800704700BF0000014080B485B000AF786005
:103C180039607B6893F83C30012B01D1022350E0D6
:103C28007B68012283F83C207B68022283F83D20D0
:103C38007B681B685B68FB607B681B689B68BB6074
:103C4800FB6823F07003FB603B681B68FA6813434A
:103C5800FB607B681B68FA685A607B681B681C4AB3
:103C6800934218D07B681B68B3F1804F13D07B68F0
:103C78001B68184A93420ED07B681B68164A934209
:103C880009D07B681B68154A934204D07B681B687F
:103C9800134A93420CD1BB6823F08003BB603B6896
:103CA8005B68BA681343BB607B681B68BA689A6034
:103CB8007B68012283F83D207B68002283F83C2042
:103CC800002318461437BD465DF8047B704700BFD3
:103CD800000001400004004000080040000C0040C3
:103CE8000040014080B485B000AF7860396000239F
:103CF800FB607B6893F83C30012B01D102233DE047
:103D08007B68012283F83C20FB6823F0FF023B68B4
:103D1800DB681343FB60FB6823F440723B689B68D5
:103D28001343FB60FB6823F480623B685B681343C2
:103D3800FB60FB6823F400623B681B681343FB606D
:103D4800FB6823F480523B681B691343FB60FB68E4
:103D580023F400523B685B691343FB60FB6823F460
:103D680080423B68DB691343FB607B681B68FA6829
:103D78005A647B68002283F83C20002318461437D5
:103D8800BD465DF8047B704770B50D4D0D4C641B46
:103D9800A4100026A64209D10B4D0C4C00F020F8C7
:103DA800641BA4100026A64205D170BD55F8043B3B
:103DB80098470136EEE755F8043B98470136F2E795
:103DC8001C9500201C9500201C95002020950020A3
:103DD80002440346934200D1704703F8011BF9E7F8
:103DE800F8B500BFF8BC08BC9E467047F8B500BFE0
:083DF800F8BC08BC9E467047B0
:103E0000392C00340200000000C130008500780029
:103E1000088227000F312B0C0E084EF137071003D4
:103E20000E090000000E1403110731C148080F0CE1
:103E300031360F00757300006D7300007320200091
:103E4000446973706C61792063616C69627261743A
:103E5000696F6E2C20636C69636B00006F6E20616C
:103E60006C6C2074686520636972636C657320698B
:103E70006E207475726E0000204F4B2020202000B1
:103E800057616974000000004E6F7465212827296E
:103E9000000000004E6F746521287E29000000009C
:103EA00046726571203D2032354D68005420696DA1
:103EB000703A0000252D3364202573202000000077
:103EC0005420706175733A00436F756E743A000048
:103ED000727000007E20202025732020000000004A
:103EE00000000000000000000000000000000000D2
:103EF00000000000000000000000000000000000C2
:103F0000000000000000000000000000E03E002073
:103F100008002C0008000000000000000000000065
:103F20000000000000000000000000000F800F8073
:103F30000F800F800F800F800F800F800F800F8009
:103F40000F800F800F800F800F800F800700000010
:103F5000000007000F800F800F80070000000000A6
:103F60000000000000000000000000000000000051
:103F7000183F00200C002C0008000000000000008A
:103F80000000000000000000000000000000000031
:103F90003C783C783C783C783C783C783C783C7881
:103FA0003C7800000000000000000000000000005D
:103FB0000000000000000000000000000000000001
:103FC00000000000000000000000000000000000F1
:103FD000000000007C3F002010002C0008000000C2
:103FE00000000000000000000000000000000000D1
:103FF00000000000000000000000000000000000C1
:10400000000387000387000387000387000706007B
:10401000070E003FFFC03FFFC03FFFC0070E000775
:104020000E00070E000E1C000E1C007FFF807FFF9D
:10403000807FFF800E1C000E1C001C38001C380006
:104040001C38001C380000000000000000000000C8
:104050000000000000000000000000000000000060
:1040600000000000E03F002012002C0008000000CB
:104070000000000000000000000000000000000040
:10408000000000000000E00000E00000E00000E0B0
:104090000007F8001FFE003FFE003FFE007E060006
:1040A0007C00007C00007E00007F00003FC0003FDD
:1040B000F8000FFC0007FE0000FF00003F00001F9B
:1040C00000001F00601F00703F007FFE007FFC00AB
:1040D0003FF8000FE000070000070000070000079E
:1040E00000000000000000000000000000000000D0
:1040F000000000007040002012002C0008000000AA
:1041000000000000000000000000000000000000AF
:10411000000000000000000000000000000000009F
:1041200000000000000000000000000000000E0081
:104130000F801E003FE01C003FE0380078F0780060
:10414000707070007070E0007071C00078F3C00093
:104150003FE380003FE700000F8E0000000E3E00AE
:10416000001CFF800038FF800079E3C00071C1C0EF
:1041700000E1C1C001C1C1C003C1E3C00380FF8031
:104180000700FF800F003E000E000000000000004E
:10419000000000000000000000000000000000001F
:1041A000000000000000000000000000000000000F
:1041B000004100201A002C00080000000000000050
:1041C00000000000000000000000000000000000EF
:1041D00000000000000000000000000000000000DF
:1041E0000000000001FE000007FF00000FFF80003C
:1041F0001FFFC0001F8FC0001F07C0001F07C000A7
:104200001F8F80000F9F80000FFF000007FC000041
:1042100007F83C001FF83C003FFC3C003E7E3C00A1
:104220007C3F7C007C1FF8007C0FF8007E07F800C4
:104230007F07FC003FFFFF001FFFFF000FFF1F0075
:1042400003FC0F0000000000000000000000000060
:10425000000000000000000000000000000000005E
:10426000000000000000000000000000BC41002031
:1042700019002C00080000000000000000000000F1
:1042800000003C3C3C3C3C3C3C3C3C000000000012
:10429000000000000000000000000000000000001E
:1042A000000000007842002008002C0008000000F8
:1042B00000000000000000000000000000000000FE
:1042C000000003C007C0078007800F800F001F0099
:1042D0001F001F001E003E003E003E003E003E004C
:1042E0003E003E003E003E003E003E001F001F001C
:1042F0001F001F000F000F800780078007C003C04A
:104300000000000000000000B04200200B002C0064
:104310000800000000000000000000000000000095
:104320000000000000003C003E001E001E001F00B8
:104330000F000F800F800F80078007C007C007C0E5
:1043400007C007C007C007C007C007C007C007C035
:104350000F800F800F800F800F001F001E001E00B7
:104360003E003C000000000000000000144300205C
:104370000B002C00080000000000000000000000FE
:10438000000000000000000000000000000000002D
:1043900000000001C00001C00011C40039CE003F80
:1043A000FE003FFE0007F00007F0003FFE003FFE6A
:1043B0000039CE0011C40001C00001C0000000009F
:1043C00000000000000000000000000000000000ED
:1043D00000000000000000000000000000000000DD
:1043E00000000000000000000000000000000000CD
:1043F00000000000000000000000000078430020E2
:1044000012002C0008000000000000000000000066
:10441000000000000000000000000000000000009C
:10442000000000000000000000000000000000008C
:10443000000000000001E00001E00001E00001E0F8
:104440000001E00001E00001E0007FFF807FFF80CD
:104450007FFF807FFF8001E00001E00001E00001BC
:10446000E00001E00001E00001E0000000000000C9
:10447000000000000000000000000000000000003C
:1044800000000000000000000000000008440020C0
:1044900012002C00080000000000000000000000D6
:1044A000000000000000000000000000000000000C
:1044B00000000000000000000000000000000000FC
:1044C00000000000000000000000000000000000EC
:1044D00000001F001F001F001F001F001E003C00E7
:1044E0003C007800700000000000000000000000A8
:1044F0009844002009002C00080000000000000083
:1045000000000000000000000000000000000000AB
:10451000000000000000000000000000000000009B
:10452000000000000000000000007FC07FC07FC0CE
:104530007FC000000000000000000000000000003C
:10454000000000000000000000000000000000006B
:1045500000000000FC4400200B002C0008000000BC
:10456000000000000000000000000000000000004B
:10457000000000000000000000000000000000003B
:10458000000000000000000000000000000000002B
:10459000000000000000000000001E003E003E0081
:1045A0003E001E00000000000000000000000000AF
:1045B0000000000000000000604500200A002C0000
:1045C00008000000000000000000000000000000E3
:1045D00000000000001F001F003E003E003E007C67
:1045E000007C00FC00F800F801F001F001F003E0AD
:1045F00003E007E007C007C00F800F800F801F0097
:104600001F003F003E003E007C007C007C00F80064
:10461000F80000000000000000000000C445002079
:1046200010002C0008000000000000000000000046
:10463000000000000000000000000000000000007A
:1046400000000000000000000003F0000FFC001F4D
:10465000FE001FFF003E1F003E1F007C0F807C0FEE
:10466000807C0F807C0F807C0F807C0F807C0F8093
:104670007C0F807C0F807C0F807C0F803E1F003E73
:104680003F003FFE001FFE000FFC0003F000000093
:10469000000000000000000000000000000000001A
:1046A000000000000000000000000000284600207C
:1046B00012002C00080000000000000000000000B4
:1046C00000000000000000000000000000000000EA
:1046D00000000000000000000000F80003F80007E0
:1046E000F8001FF8001EF80018F80000F80000F8A5
:1046F0000000F80000F80000F80000F80000F800E2
:1047000000F80000F80000F80000F80000F80000D1
:10471000F8001FFF801FFF801FFF801FFF80000029
:104720000000000000000000000000000000000089
:10473000000000000000000000000000B84600205B
:1047400012002C0008000000000000000000000023
:104750000000000000000000000000000000000059
:1047600000000000000000000003F0000FFC003F0C
:10477000FE003FFF00383F00301F00001F00001FF9
:1047800000001F00003E00003E00007C0000F8001A
:1047900001F80003F00007E0000FC0001F80001FB9
:1047A00000003FFF803FFF803FFF803FFF80000011
:1047B00000000000000000000000000000000000F9
:1047C000000000000000000000000000484700203A
:1047D00012002C0008000000000000000000000093
:1047E00000000000000000000000000000000000C9
:1047F00000000000000000000003F8000FFC001F94
:10480000FE001FFF001C3F00101F00001F00001FC4
:1048100000007E000FFC000FF0000FFE000FFF00F5
:10482000003F00001F80000F80000F80000F8030CD
:104830003F803FFF003FFE003FFC000FF000000004
:104840000000000000000000000000000000000068
:10485000000000000000000000000000D847002019
:1048600012002C0008000000000000000000000002
:104870000000000000000000000000000000000038
:1048800000000000000000000000FE0000FE00012B
:10489000FE0001FE0003FE0007BE0007BE000F3E43
:1048A000000F3E001E3E001E3E003C3E003C3E000F
:1048B000783E007FFFC07FFFC07FFFC07FFFC0004A
:1048C0003E00003E00003E00003E00003E000000B2
:1048D00000000000000000000000000000000000D8
:1048E00000000000000000000000000068480020F8
:1048F00012002C0008000000000000000000000072
:1049000000000000000000000000000000000000A7
:104910000000000000000000001FFF001FFF001F3C
:10492000FF001FFF001E00001E00001E00001E00F2
:10493000001FF8001FFE001FFF001FFF00003F8048
:10494000000F80000F80000F80000F80001F80305C
:104950003F003FFF003FFE003FFC000FF000000063
:104960000000000000000000000000000000000047
:10497000000000000000000000000000F8480020D7
:1049800012002C00080000000000000000000000E1
:104990000000000000000000000000000000000017
:1049A00000000000000000000000FE0007FF000FF4
:1049B000FF001FFF001F83003E00003E00003C0080
:1049C000007C00007CFC007FFE007FFF007FFF80FA
:1049D0007E1F807C0F807C0F807C0F807E0F803E4E
:1049E0001F003FFF001FFE000FFC0003F00000004F
:1049F00000000000000000000000000000000000B7
:104A000000000000000000000000000088490020B5
:104A100012002C0008000000000000000000000050
:104A20000000000000000000000000000000000086
:104A30000000000000000000007FFF007FFF007FFB
:104A4000FF007FFF00001F00003E00003E00007CD2
:104A500000007C0000780000F80000F80001F00081
:104A600001F00003E00003E00007C00007C00007FA
:104A7000C0000F80000F80001F00001F000000001A
:104A80000000000000000000000000000000000026
:104A9000000000000000000000000000184A002094
:104AA00012002C00080000000000000000000000C0
:104AB00000000000000000000000000000000000F6
:104AC00000000000000000000003F8000FFC001FC1
:104AD000FE003FFF003F3F003E1F003E1F003E1F05
:104AE000001F3E001FFC000FF80007F8000FFE003B
:104AF0001F3F003E1F807C0F807C0F807C0F807EDC
:104B00001F807FFF003FFF001FFE0007F80000002E
:104B10000000000000000000000000000000000095
:104B2000000000000000000000000000A84A002073
:104B300012002C000800000000000000000000002F
:104B40000000000000000000000000000000000065
:104B500000000000000000000003F0000FFC001F38
:104B6000FE003FFF003E1F007C1F807C0F807C0FFB
:104B7000807C0F807E1F807FFF803FFF801FFF8033
:104B80000FEF80000F80000F00001F00001F00309B
:104B90007E003FFE003FFC003FF8000FE0000000F9
:104BA0000000000000000000000000000000000005
:104BB000000000000000000000000000384B002052
:104BC00012002C000800000000000000000000009F
:104BD00000000000000000000000000000000000D5
:104BE000000000000000000000000E001F001F0079
:104BF0001F000E0000000000000000000000000088
:104C000000000E001F001F001F000E00000000002B
:104C10000000000000000000000000000000000094
:104C2000C84B00200A002C00080000000000000013
:104C30000000000000000000000000000000000074
:104C400000000000000000000000000000000E0056
:104C50001F001F001F000E000000000000000000E9
:104C60000000000000001F001F001F001F001F00A9
:104C70001E003C003C0078007000000000000000B6
:104C8000000000002C4C00200A002C00080000004E
:104C90000000000000000000000000000000000014
:104CA0000000000000000000000000000000000004
:104CB00000000000000000000000000000000300F1
:104CC000000F00003F0000FF0003FC000FF0003F5A
:104CD000C0007E00007800007E00003F80000FF0E2
:104CE0000003FC0000FF00003F00000F0000030075
:104CF00000000000000000000000000000000000B4
:104D000000000000000000000000000000000000A3
:104D100000000000904C002012002C000800000051
:104D20000000000000000000000000000000000083
:104D30000000000000000000000000000000000073
:104D40000000000000000000000000000000000063
:104D50000000000000007FFF007FFF007FFF007F5A
:104D6000FF000000000000000000000000007FFFC6
:104D7000007FFF007FFF007FFF00000000000000B9
:104D80000000000000000000000000000000000023
:104D90000000000000000000000000000000000013
:104DA00000000000204D002012002C000800000030
:104DB00000000000000000000000000000000000F3
:104DC00000000000000000000000000000000000E3
:104DD00000000000000000000000000000300000A3
:104DE0003C00003F00003FC0000FF00003FC00004B
:104DF0007F00001F80000780001F8000FF0003FC71
:104E0000000FF0003FC0003F00003C0000300000F9
:104E10000000000000000000000000000000000092
:104E20000000000000000000000000000000000082
:104E300000000000B04D002012002C00080000000F
:104E40000000000000000000000000000000000062
:104E500000000000000000000000000000000FE063
:104E6000003FF8003FFC003FFC00307E00003E00A9
:104E7000003E00003E00003E00007E0007FC0007F0
:104E8000F80007F00007C00007C00007C00007C017
:104E90000000000000000003800007C00007C00001
:104EA00007C00003800000000000000000000000B8
:104EB00000000000000000000000000000000000F2
:104EC00000000000404E002011002C0008000000EF
:104ED00000000000000000000000000000000000D2
:104EE00000000000000000000000000000000000C2
:104EF00000000000000000000007FE00001FFF800F
:104F0000007FFFE001FFFFF003FC03F803E000F87F
:104F100007C7CE780F8FEE7C0F1FFE3C1F3FFE3C75
:104F20001E3E3C3C1E3C1C3C3C783C3C3C783C3CA3
:104F30003C783C783C7838783C78FCF83C7FFFF053
:104F40003C7FFFF03C3F9FE03E1E0F801E000000B4
:104F50001F8000000FE01C000FFFFC0007FFFC009B
:104F600001FFFC00003FF000000000000000000016
:104F70000000000000000000000000000000000031
:104F8000D04E002020002C0008000000000000008F
:104F90000000000000000000000000000000000011
:104FA0000000000000000000000000000000FC0005
:104FB00001FC0001FC0001FE0003DE0003DE000333
:104FC000DF00078F00078F00078F800F8F800F078C
:104FD000800F07C01F07C01FFFC01FFFE03FFFE09B
:104FE0003FFFE03C01F07C01F07801F07800F8F838
:104FF00000F80000000000000000000000000000B9
:1050000000000000000000000000000000000000A0
:105010008C4F002016002C0008000000000000004B
:105020000000000000000000000000000000000080
:10503000000000000000000000000000003FFC0035
:105040003FFF003FFF803FFFC03E0FC03E07C03E16
:1050500007C03E07C03E0F803FFF003FFE003FFFFE
:10506000803FFFC03E0FE03E03E03E03E03E03E032
:105070003E03E03E07E03FFFC03FFF803FFF003FB1
:10508000FC00000000000000000000000000000024
:105090000000000000000000000000000000000010
:1050A0001C50002014002C0008000000000000002C
:1050B00000000000000000000000000000000000F0
:1050C0000000000000000000000000000000FE00E2
:1050D00003FF8007FFC00FFFC01F81C03F00C03E1D
:1050E00000003E00007C00007C00007C00007C0092
:1050F000007C00007C00007C00007E00003E000080
:105100003F00C01F81C01FFFC00FFFC007FF80000E
:10511000FE00000000000000000000000000000091
:10512000000000000000000000000000000000007F
:10513000AC50002013002C0008000000000000000C
:10514000000000000000000000000000000000005F
:10515000000000000000000000000000003FFC0014
:105160003FFF003FFFC03FFFE03E0FE03E03F03E49
:1051700001F03E01F83E00F83E00F83E00F83E0027
:10518000F83E00F83E00F83E00F83E01F83E01F01F
:105190003E03F03E0FE03FFFE03FFFC03FFF003F18
:1051A000F800000000000000000000000000000007
:1051B00000000000000000000000000000000000EF
:1051C0003C51002017002C000800000000000000E7
:1051D00000000000000000000000000000000000CF
:1051E000000000000000000000000000003FFF0081
:1051F0003FFF003FFF003FFF003E00003E00003E3B
:1052000000003E00003E00003FFE003FFE003FFE6B
:10521000003FFE003E00003E00003E00003E000059
:105220003E00003E00003FFF003FFF003FFF003F09
:10523000FF0000000000000000000000000000006F
:10524000000000000000000000000000000000005E
:10525000CC51002012002C000800000000000000CB
:10526000000000000000000000000000000000003E
:10527000000000000000000000000000003FFE00F1
:105280003FFE003FFE003FFE003E00003E00003EAD
:1052900000003E00003E00003E00003FFC003FFEDC
:1052A000003FFE003FFC003E00003E00003E0000CC
:1052B0003E00003E00003E00003E00003E00003E7A
:1052C00000000000000000000000000000000000DE
:1052D00000000000000000000000000000000000CE
:1052E0005C52002011002C000800000000000000AB
:1052F00000000000000000000000000000000000AE
:1053000000000000000000000000000000007F809E
:1053100003FFE007FFF00FFFF01FC0F03F00303F3A
:1053200000003E00007C00007C00007C1FF07C1F21
:10533000F07C1FF07C1FF07C01F07E01F03E01F05C
:105340003F01F01FC1F00FFFF007FFF003FFF00077
:10535000FF800000000000000000000000000000CE
:10536000000000000000000000000000000000003D
:10537000EC52002017002C00080000000000000084
:10538000000000000000000000000000000000001D
:10539000000000000000000000000000003E01F0DE
:1053A0003E01F03E01F03E01F03E01F03E01F03ED4
:1053B00001F03E01F03E01F03FFFF03FFFF03FFF04
:1053C000F03FFFF03E01F03E01F03E01F03E01F003
:1053D0003E01F03E01F03E01F03E01F03E01F03EA4
:1053E00001F00000000000000000000000000000CC
:1053F00000000000000000000000000000000000AD
:105400007C53002017002C00080000000000000062
:10541000000000000000000000000000000000008C
:1054200000003E003E003E003E003E003E003E00CA
:105430003E003E003E003E003E003E003E003E007C
:105440003E003E003E003E003E003E003E003E006C
:10545000000000000000000000000000000000004C
:10546000000000000C5400200A002C00080000007E
:10547000000000000000000000000000000000002C
:1054800000000000000007C007C007C007C007C039
:1054900007C007C007C007C007C007C007C007C0D4
:1054A00007C007C007C007C007C0CFC0FFC0FF804C
:1054B000FF007E000000000000000000000000006F
:1054C0000000000000000000705400200C002C00C0
:1054D00008000000000000000000000000000000C4
:1054E00000000000000000000000000000000000BC
:1054F00000000000003E03E03E07E03E07C03E0F14
:10550000803E1F803E1F003E3E003E7C003EFC0071
:105510003EF8003FF0003FF8003EF8003EFC003E41
:105520007C003E3E003E3F003E1F003E0F803E0F8F
:10553000C03E07C03E03E03E03E000000000000064
:10554000000000000000000000000000000000005B
:105550000000000000000000D454002014002C00C3
:105560000800000000000000000000000000000033
:10557000000000000000000000003E003E003E0071
:105580003E003E003E003E003E003E003E003E002B
:105590003E003E003E003E003E003E003E003E001B
:1055A0003FFE3FFE3FFE3FFE000000000000000007
:1055B0000000000000000000000000006455002012
:1055C0000F002C0008000000000000000000000098
:1055D00000000000000000000000000000000000CB
:1055E00000000000000000000000000000000000BB
:1055F000000000003FC003F83FE007F83FE00FF86D
:105600003FE00FF83FF00FF83EF01EF83EF01EF8B6
:105610003EF81EF83E783CF83E783CF83E7C3CF87C
:105620003E7C78F83E3C78F83E3E78F83E3EF0F816
:105630003E1EF0F83E1FF0F83E1FE0F83E0FE0F887
:105640003E0FE0F83E0FC0F83E07C0F83E07C0F836
:10565000000000000000000000000000000000004A
:10566000000000000000000000000000000000003A
:105670000000000000000000C85500201F002C00A2
:105680000800000000000000000000000000000012
:10569000000000000000000000000000000000000A
:1056A00000000000003F00783F80783F80783FC0D6
:1056B000783FC0783DE0783DE0783CF0783CF07889
:1056C0003C78783C78783C3C783C3C783C1E783C94
:1056D0001E783C0F783C0F783C07783C07F83C0379
:1056E000F83C03F83C01F83C00F800000000000022
:1056F00000000000000000000000000000000000AA
:1057000000000000000000008456002018002C005B
:105710000800000000000000000000000000000081
:105720000000000000000000000000000000000079
:10573000000000000000FF0003FFE007FFF00FFF84
:10574000F81F81FC3F00FC3E007C3E007E7C003E5A
:105750007C003E7C003E7C003E7C003E7C003E7C2B
:10576000003E7E007C3E007C3F00FC3F81F81FFF36
:10577000F00FFFE007FFC000FF0000000000000086
:105780000000000000000000000000000000000019
:1057900000000000000000001457002018002C003A
:1057A00008000000000000000000000000000000F1
:1057B00000000000000000000000000000000000E9
:1057C00000000000003FF8003FFE003FFF003FFFE9
:1057D000803E0FC03E07C03E07C03E07C03E07C028
:1057E0003E0FC03E1F803FFF803FFF003FFE003F57
:1057F000F8003E00003E00003E00003E00003E007B
:10580000003E00003E00003E0000000000000000DE
:105810000000000000000000000000000000000088
:105820000000000000000000A457002013002C001E
:105830000800000000000000000000000000000060
:105840000000000000000000000000000000000058
:105850000000000000000000000000000000000048
:1058600000FF000003FFE0000FFFF0000FFFF80053
:105870001F81FC003F00FC003E007C007E007E009B
:105880007C003E007C003E007C003E007C003E0030
:105890007C003E007C003E007C003E007E007C00E0
:1058A0003E007C003F00FC003F81F8001FFFF0003D
:1058B0000FFFF00007FFFC0000FE7E0000003F80AD
:1058C00000001F8000000F80000003800000000027
:1058D00000000000000000000000000000000000C8
:1058E000000000003458002019002C0008000000BF
:1058F00000000000000000000000000000000000A8
:105900000000000000000000000000000000000097
:10591000003FFC003FFF003FFF803FFF803E0FC085
:105920003E07C03E07C03E07C03E07C03E0F803F57
:10593000FF803FFF003FFC003FFE003E3F003E1F58
:10594000003E0F803E0F803E07C03E07C03E07C0AE
:105950003E03E03E03E00000000000000000000005
:105960000000000000000000000000000000000037
:1059700000000000F058002014002C000800000077
:105980000000000000000000000000000000000017
:105990000000000000000000000000000000000007
:1059A0000003F8000FFE003FFE003FFE007E0600F1
:1059B0007C00007C00007E00007F00003FE0001FB4
:1059C000F8000FFC0003FE0000FF00003F00001F76
:1059D00000001F00601F00783F007FFE007FFC007A
:1059E0003FF8000FE0000000000000000000000091
:1059F00000000000000000000000000000000000A7
:105A0000000000008059002011002C000800000058
:105A10000000000000000000000000000000000086
:105A20000000000000000000000000000000000076
:105A3000007FFFC07FFFC07FFFC07FFFC001F0007D
:105A400001F00001F00001F00001F00001F00001A0
:105A5000F00001F00001F00001F00001F00001F0A1
:105A60000001F00001F00001F00001F00001F00081
:105A700001F00001F0000000000000000000000044
:105A80000000000000000000000000000000000016
:105A900000000000105A002012002C000800000036
:105AA00000000000000000000000000000000000F6
:105AB00000000000000000000000000000000000E6
:105AC000003E00F83E00F83E00F83E00F83E00F8C8
