:020000042000DA
:1000000000000220253B0020813800208738002096
:100010008D3800209338002099380020000000001F
:100020000000000000000000000000009F380020D9
:10003000AD38002000000000BB380020C938002087
:10004000753B0020753B0020753B0020753B002070
:10005000753B0020753B0020753B0020753B002060
:10006000753B0020753B0020753B0020753B002050
:10007000753B0020753B0020753B0020753B002040
:10008000753B0020753B0020753B00200000000000
:10009000000000000000000000000000753B002090
:1000A000753B0020753B0020753B0020753B002010
:1000B000753B0020753B0020753B0020753B002000
:1000C000753B0020753B0020753B0020753B0020F0
:1000D000753B0020753B0020753B002000000000B0
:1000E000753B0020753B0020753B002000000000A0
:1000F000000000000000000000000000753B002030
:1001000000000000753B00205D390020753B002099
:1001100000000000000000000000000000000000DF
:10012000753B0020753B0020753B0020753B00208F
:10013000753B0020000000000000000000000000EF
:10014000000000000000000000000000753B0020DF
:10015000753B0020753B0020753B0020753B00205F
:10016000753B0020753B00200000000000000000EF
:10017000000000000000000000000000000000007F
:1001800000000000753B002000000000000000009F
:08019000753B0020753B0020C7
:1001A00010B5054C237833B9044B13B10448AFF3B1
:1001B00000800123237010BD9C1901200000000065
:1001C0003470002008B5034B1BB103490348AFF35B
:1001D000008008BD00000000A0190120347000203C
:1001E00001F0FF01102A2BDB10F0070F08D010F8E8
:1001F000013B013A8B422DD010F0070F42B3F6D1EC
:10020000F0B441EA012141EA014122F007047FF004
:1002100000070023F0E80256083C85EA010586EA5B
:10022000010685FA47F5A3FA87F586FA47F6A5FA97
:1002300087F68EB9EED1F0BC01F0FF0102F00702A3
:1002400032B110F8013B013A83EA010313B1F8D14E
:100250000020704701387047002D06BF354603382F
:10026000073815F0010F07D1013015F4807F02BF68
:10027000013015F4C03F0130F0BC0138704700BFB9
:1002800053B94AB9002908BF00281CBF4FF0FF31FD
:100290004FF0FF3000F074B9ADF1080C6DE904CEF9
:1002A00000F006F8DDF804E0DDE9022304B0704751
:1002B0002DE9F047089D04468E46002B4DD18A4219
:1002C000944669D9B2FA82F252B101FA02F3C2F14C
:1002D000200120FA01F10CFA02FC41EA030E9440DD
:1002E0004FEA1C48210CBEFBF8F61FFA8CF708FBFE
:1002F00016E341EA034306FB07F199420AD91CEBD6
:10030000030306F1FF3080F01F81994240F21C8107
:10031000023E63445B1AA4B2B3FBF8F008FB10334F
:1003200044EA034400FB07F7A7420AD91CEB040484
:1003300000F1FF3380F00A81A74240F20781644454
:10034000023840EA0640E41B00261DB1D4400023D9
:10035000C5E900433146BDE8F0878B4209D9002D3D
:1003600000F0EF800026C5E9000130463146BDE8C7
:10037000F087B3FA83F6002E4AD18B4202D3824231
:1003800000F2F980841A61EB030301209E46002DE0
:10039000E0D0C5E9004EDDE702B9FFDEB2FA82F235
:1003A000002A40F09280A1EB0C014FEA1C471FFA93
:1003B0008CFE0126200CB1FBF7F307FB131140EA7A
:1003C00001410EFB03F0884208D91CEB010103F147
:1003D000FF3802D2884200F2CB804346091AA4B209
:1003E000B1FBF7F007FB101144EA01440EFB00FEDD
:1003F000A64508D91CEB040400F1FF3102D2A64542
:1004000000F2BB800846A4EB0E0440EA03409CE7E0
:10041000C6F12007B34022FA07FC4CEA030C20FA8D
:1004200007F401FA06F31C43F9404FEA1C4900FAAD
:1004300006F3B1FBF9F8200C1FFA8CFE09FB18112A
:1004400040EA014108FB0EF0884202FA06F20BD99D
:100450001CEB010108F1FF3A80F08880884240F2ED
:100460008580A8F102086144091AA4B2B1FBF9F031
:1004700009FB101144EA014100FB0EFE8E4508D92C
:100480001CEB010100F1FF346CD28E456AD90238B1
:10049000614440EA0840A0FB0294A1EB0E01A14296
:1004A000C846A64656D353D05DB1B3EB080261EB04
:1004B0000E0101FA07F722FA06F3F1401F43C5E9DE
:1004C000007100263146BDE8F087C2F12003D84014
:1004D0000CFA02FC21FA03F3914001434FEA1C4756
:1004E0001FFA8CFEB3FBF7F007FB10360B0C43EA48
:1004F000064300FB0EF69E4204FA02F408D91CEBF8
:10050000030300F1FF382FD29E422DD902386344F5
:100510009B1B89B2B3FBF7F607FB163341EA034195
:1005200006FB0EF38B4208D91CEB010106F1FF38E4
:1005300016D28B4214D9023E6144C91A46EA0046DB
:1005400038E72E46284605E70646E3E61846F8E66D
:100550004B45A9D2B9EB020864EB0C0E0138A3E7B6
:100560004646EAE7204694E74046D1E7D0467BE797
:10057000023B614432E7304609E76444023842E70F
:10058000704700BF80B483B000AF78600B467B80BB
:1005900010E07B681A78104BDA6000BF0E4B9B6846
:1005A00003F00203002BF9D07B6801337B607B886A
:1005B000013B7B807B88002BEBD100BF064B9B6807
:1005C00003F08003002BF9D100BF00BF0C37BD46FC
:1005D0005DF8047B704700BF0030014080B400AF7D
:1005E000054B9B69044A43F48023936100BFBD46D9
:1005F0005DF8047B704700BF0004024080B400AF88
:10060000054B9B69044A43F00403936100BFBD4658
:100610005DF8047B704700BF0004024080B500AF66
:1006200000220221064803F0B1FF052003F016FB6B
:1006300001220221024803F0A9FF00BF80BD00BFD4
:100640000004024080B582B000AF0346FB71074B47
:100650009B69064A43F480339361FB1D01211846D0
:10066000FFF790FF00BF0837BD4680BD0004024081
:1006700080B584B000AF78603960114B9B69104A37
:1006800043F00103936113E03B68B3F5004F28BFCB
:100690004FF40043FB81FB8919467868FFF772FF2E
:1006A000FB897A6813447B60FB893A68D31A3B6004
:1006B0003B68002BE8D100BF00BF1037BD4680BDAE
:1006C0000004024090B585B000AF044608461146CC
:1006D0001A462346FB800346BB800B467B801346AD
:1006E0003B802A20FFF7AEFFFB881B0A9BB2DBB2E0
:1006F0003B73FB88DBB27B737B881B0A9BB2DBB24C
:10070000BB737B88DBB2FB7307F10C030421184633
:10071000FFF7AEFF2B20FFF795FFBB881B0A9BB2AC
:10072000DBB23B72BB88DBB27B723B881B0A9BB29D
:10073000DBB2BB723B88DBB2FB7207F1080304211A
:100740001846FFF795FF2C20FFF77CFF00BF1437FA
:10075000BD4690BD90B59BB000AF012210219048DE
:1007600003F014FFFFF73AFFFFF758FF0120FFF7F0
:1007700069FF4FF47A7003F071FACB20FFF762FF44
:10078000884A07F1600392E8030018600433197087
:1007900007F1600305211846FFF76AFFCF20FFF736
:1007A00051FF814A07F15C03126811461980023338
:1007B000120C1A7007F15C0303211846FFF758FF6B
:1007C000E820FFF73FFF794A07F158031268114606
:1007D00019800233120C1A7007F1580303211846CE
:1007E000FFF746FFEA20FFF72DFF0023A7F854305C
:1007F00007F1540302211846FFF73AFFED20FFF7F7
:1008000021FF6B4B3B6507F1500304211846FFF7AE
:100810002FFFF720FFF716FF202387F84C3007F152
:100820004C0301211846FFF723FFC020FFF70AFF02
:10083000232387F8483007F1480301211846FFF7C2
:1008400017FFC120FFF7FEFE102387F8443007F1A1
:10085000440301211846FFF70BFFC520FFF7F2FE06
:1008600042F63E03A7F8403007F140030221184644
:10087000FFF7FEFEC720FFF7E5FE862387F83C3032
:1008800007F13C0301211846FFF7F2FE3620FFF77F
:10089000D9FE482387F8383007F13803012118467C
:1008A000FFF7E6FE3A20FFF7CDFE552387F83430F8
:1008B00007F1340301211846FFF7DAFEB120FFF7F4
:1008C000C1FE4FF4C0533B8607F1300302211846A6
:1008D000FFF7CEFEB620FFF7B5FE364A07F12C0330
:1008E0001268114619800233120C1A7007F12C039A
:1008F00003211846FFF7BCFEF220FFF7A3FE0023FA
:1009000087F8283007F1280301211846FFF7B0FEC9
:100910002620FFF797FE012387F8243007F12403F0
:1009200001211846FFF7A4FEE020FFF78BFE224BC3
:1009300007F114040FCB07C4238002341B0C23706F
:1009400007F114030F211846FFF792FEE120FFF78D
:1009500079FE1A4B3C1D0FCB07C4238002341B0CBD
:1009600023703B1D0F211846FFF782FE1120FFF771
:1009700069FE782003F072F92920FFF763FE362024
:10098000FFF760FEE8233B703B4601211846FFF766
:100990006FFEFFF733FE00BF6C37BD4690BD00BF52
:1009A000000002404C70002054700020587000205D
:1009B000640312815C700020607000207070002061
:1009C00080B584B000AF0346FB800B46BB80134666
:1009D0007B80FB88B3F5A07F1FD2BB88EF2B1CD890
:1009E000FFF7FCFDFB8801339AB2BB8801339BB251
:1009F000B988F888FFF766FE7B881B0A9BB2DBB2DA
:100A00003B737B88DBB27B7307F10C030221184632
:100A1000FFF72EFEFFF7F2FD00E000BF1037BD46E6
:100A200080BD000090B585B000AF04460846114671
:100A30001A462346FB800346BB800B467B80134649
:100A40003B80FB88B3F5A07F50D2BB88EF2B4DD8FD
:100A5000FA887B881344B3F5A07F03DDFB88C3F5D8
:100A6000A0737B80BA883B881344F02B03DDBB88DE
:100A7000C3F1F0033B80FFF7B1FDFA887B88134494
:100A80009BB2013B9CB2BA883B8813449BB2013BAA
:100A90009BB2B988F8882246FFF714FE3B8C1B0AEC
:100AA0009BB2DBB23B733B8CDBB27B730122012137
:100AB000104803F06BFD3B88BB8011E07B88FB8016
:100AC00008E007F10C0302211846FFF75BFDFB88E5
:100AD000013BFB80FB88002BF3D1BB88013BBB8033
:100AE000BB88002BEAD1FFF789FD00E000BF143777
:100AF000BD4690BD0004024080B584B002AF0346FD
:100B0000FB80FB880093F0234FF4A07200210020AB
:100B1000FFF788FF00BF0837BD4680BD90B589B09C
:100B200000AF0446084611461A462346FB8003469A
:100B3000BB800B46FB7013463B80FB78203B714A21
:100B4000DB0013445B689A88FB8813449BB2013B2B
:100B50009CB2FB78203B6B4ADB0013445B68DA886D
:100B6000BB8813449BB2013B9BB2B988F8882246EC
:100B7000FFF7A8FD01237B8380237B61FB78203B6B
:100B8000604ADB0013445B689B88082B04D902236E
:100B90007B834FF400437B61FB78203B594ADB00A9
:100BA00013445B689B88102B04D903237B834FF489
:100BB00000037B61FB78203B524ADB0013445B68F7
:100BC0009B88182B04D904237B834FF000437B615F
:100BD0000023FB8381E0FB78203B4A4ADB0013447F
:100BE0005B681A68FB8B13441B783B617B8B012B82
:100BF00011D93B691B023B61FB78203B414ADB007A
:100C000013445B681A68FB8B013313441B781A4644
:100C10003B6913433B617B8B022B11D93B691B0260
:100C20003B61FB78203B374ADB0013445B681A6862
:100C3000FB8B023313441B781A463B6913433B6119
:100C40007B8B032B11D93B691B023B61FB78203B5B
:100C50002C4ADB0013445B681A68FB8B0333134494
:100C60001B781A463B6913433B610023BB8326E094
:100C7000BB8B3A699A407B691340002B0ED03B88AE
:100C80001B0A9BB2DBB23B733B88DBB27B7307F181
:100C90000C0302211846FFF7EBFC0DE03B8E1B0A0C
:100CA0009BB2DBB23B723B8EDBB27B7207F1080377
:100CB00002211846FFF7DCFCBB8B0133BB83FB78BA
:100CC000203B104ADB0013445B689B88BA8B9A4236
:100CD000CED3FA8B7B8B1344FB83FA8BFB78203BC0
:100CE0000849DB000B445B68DB8819467B8B01FB02
:100CF00003F39A42FFF66FAF00BF00BF2437BD4633
:100D000090BD00BFC806012090B587B002AFBA60A1
:100D10001A460346FB810B46BB811346FB80FFF757
:100D20005DFC45E0FA89BB681B78203B2649DB0067
:100D30000B445B689B881344B3F5A07F20DB002342
:100D4000FB81BB681B78203B1F4ADB0013445B68B8
:100D5000DA88BB891344BB81BA89BB681B78203B06
:100D60001949DB000B445B68DB881344EF2B24DC60
:100D7000BB681B78202B03D1BB680133BB6017E035
:100D8000BB681A78FC88B989F8893B8C00932346A4
:100D9000FFF7C4FEBB681B78203B0B4ADB00134403
:100DA0005B689A88FB891344FB81BB680133BB6095
:100DB000BB681B78002BB5D100E000BFFFF71EFC1D
:100DC00000BF1437BD4690BDC806012082B090B563
:100DD00089B000AF7B630346FB800B46BB801346A4
:100DE000FB7097F834309AB2FB8813449BB2013BF6
:100DF0009CB297F835309AB2BB8813449BB2013B42
:100E00009BB2B988F8882246FFF75CFC0023FB619F
:100E100043E0BA6BFB78203B97F8351001FB03F3F6
:100E20001946FB690B445B0013441B887B6100235C
:100E3000BB6129E07A69BB6902FA03F303F400435A
:100E4000002B0ED0BB8F1B0A9BB2DBB23B74BB8F57
:100E5000DBB27B7407F1100302211846FFF708FC90
:100E60000FE0B7F840301B0A9BB2DBB23B73B7F818
:100E70004030DBB27B7307F10C0302211846FFF709
:100E8000F7FBBB690133BB6197F834301A46BB6985
:100E90009342CFD3FB690133FB6197F835301A4693
:100EA000FB699342B5D300BF00BF2437BD46BDE800
:100EB000904002B0704782B080B586B004AF3A600F
:100EC0007B610346FB800B46BB80FFF787FB2EE070
:100ED000FB883A7D1344B3F5A07F13DB0023FB802E
:100EE0007B7D9AB2BB881344BB80BB887A7D134458
:100EF000EF2B21DC3B681B78202B03D13B680133AF
:100F00003B6014E03B681A78B988F8883B8C029300
:100F1000BB8B0193BB6900937B69FFF757FF3B7D58
:100F20009AB2FB881344FB803B6801333B603B680B
:100F30001B78002BCCD100E000BFFFF75FFB00BFA8
:100F40000837BD46BDE8804002B0704790B583B019
:100F500000AF0446084611461A462346FB80034666
:100F6000BB800B467B8013463B80FB88B3F5A07F9C
:100F70002CD2BB88EF2B29D8FA887B881344B3F591
:100F8000A07F25DCBA883B881344F02B22DCFFF7D6
:100F900025FBFA887B8813449BB2013B9CB2BA883C
:100FA0003B8813449BB2013B9BB2B988F888224628
:100FB000FFF788FB7B883A8802FB03F35B00194646
:100FC000B869FFF755FBFFF719FB04E000BF02E02B
:100FD00000BF00E000BF0C37BD4690BD90B58BB0A0
:100FE00000AF0446084611461A462346FB800346D6
:100FF000BB800B467B8013463B80FB88B3F5A07F0C
:1010000079D2BB88EF2B76D8FB8F1BB2082118460C
:1010100002F0B3FA0346FB82BB8FFA8A12FB03F39A
:10102000BB82FFF7DBFABA8FFB8813449BB2013B0C
:101030009CB2FA8FBB8813449BB2013B9BB2B98828
:10104000F8882246FFF73EFB00233B624CE0BB8F53
:10105000FB840023FB613FE0BB6B396AFA690A44F9
:1010600013441B787B820023BB612DE0FB8C002B9B
:101070002ED0FB8C013BFB847A8ABB6902FA03F316
:1010800003F08003002B0ED07B881B0A9BB2DBB2DF
:101090003B747B88DBB27B7407F110030221184696
:1010A000FFF7E6FA0DE03B881B0A9BB2DBB23B730D
:1010B0003B88DBB27B7307F10C0302211846FFF774
:1010C000D7FABB690133BB61BB69072BCEDD00E0FA
:1010D00000BFFB690133FB61FB8AFA699A42BBDB03
:1010E000FB8A3A6A13443B62BB8A3A6A9A42AEDB95
:1010F000FFF784FA00E000BF2C37BD4690BD90B5E5
:1011000085B002AF0446084611461A462346FB80C6
:101110000346BB800B467B8013463B80FFF75EFA9D
:10112000F888B9887A883B88009313460122FFF734
:1011300079FCFFF763FA00BF0C37BD4690BD90B550
:1011400085B002AF0446084611461A462346FB8086
:101150000346BB800B467B8013463B80FFF73EFA7D
:10116000F888B9887A883B8800930123FFF75AFCF6
:10117000FFF744FA00BF0C37BD4690BD90B583B071
:1011800000AF0446084611461A462346FB80034634
:10119000BB800B467B8013463B803B8BB7F902201C
:1011A000B7F90410B7F90600FFF7C9FFBA883B8802
:1011B00013449BB2013B9BB219B23B8BB7F902209F
:1011C000B7F90600FFF7BBFF3B8BB7F90020B7F973
:1011D0000410B7F90600FFF792FFFA887B881344E2
:1011E0009BB2013B9BB218B23B8BB7F90020B7F919
:1011F0000410FFF784FF00BF0C37BD4690BD90B5CB
:1012000087B000AF0446084611461A462346FB80C5
:101210000346BB800B467B8013467B707B88C3F103
:1012200001039BB2FB820123BB827B881A46D20357
:10123000D31A5B009BB27B8200233B827B88FB81BD
:1012400095E0B7F91630002B0EDBB7F90E309BB2E4
:10125000013B9BB2FB817B8A02339BB27B82FA8A81
:101260007B8A13449BB2FB82B7F910309BB20133E7
:101270009BB23B82BB8A02339BB2BB82FA8ABB8A97
:1012800013449BB2FB827B7803F00403002B17D03E
:10129000FA883B8A134498B2BA88FB8913449BB2FC
:1012A0003A8D1946FFF78CFBFA88FB89134498B2F4
:1012B000BA883B8A13449BB23A8D1946FFF780FBEC
:1012C0007B7803F00203002B17D0FA883B8A134483
:1012D00098B2BA88FB89D31A9BB23A8D1946FFF7A8
:1012E0006FFBFA88FB89134498B2BA883B8AD31AF9
:1012F0009BB23A8D1946FFF763FB7B7803F0080336
:10130000002B17D0FA88FB89D31A98B2BA883B8A87
:1013100013449BB23A8D1946FFF752FBFA883B8A79
:10132000D31A98B2BA88FB8913449BB23A8D1946F6
:10133000FFF746FB7B7803F00103002B17D0FA88F8
:10134000FB89D31A98B2BA883B8AD31A9BB23A8DDA
:101350001946FFF735FBFA883B8AD31A98B2BA8848
:10136000FB89D31A9BB23A8D1946FFF729FBB7F9CF
:101370001020B7F90E309A42FFF663AF00BF00BFEE
:101380001C37BD4690BD90B587B000AF04460846F7
:1013900011461A462346FB800346BB800B467B80E2
:1013A00013467B707B88C3F101039BB2FB82012350
:1013B000BB827B881A46D203D31A5B009BB27B8226
:1013C00000233B827B88FB813B8ABB81FB897B813D
:1013D000B7F928309BB201339BB23B8595E0B7F952
:1013E0001630002B0EDBB7F90E309BB2013B9BB2DF
:1013F000FB817B8A02339BB27B82FA8A7B8A13440D
:101400009BB2FB82B7F910309BB201339BB23B8297
:10141000BB8A02339BB2BB82FA8ABB8A13449BB25B
:10142000FB82B7F90E20B7F910309A4231DB7B7896
:1014300003F00103002B13D0FA883B8A13449BB2BC
:1014400018B2BA88FB89D31A9BB219B2FB895B0028
:101450009AB23B8D13449BB21AB2BB8DFFF74FFE7D
:101460007B7803F00203002B13D0FA883B8AD31A4F
:101470009BB218B2BA88FB89D31A9BB219B2FB8906
:101480005B009AB23B8D13449BB21AB2BB8DFFF73F
:1014900036FEB7F90E20B7F90A309A4233D07B787E
:1014A00003F00103002B13D0FA887B8913449BB20D
:1014B00018B2BA88BB89D31A9BB219B2BB895B0038
:1014C0009AB23B8D13449BB21AB2BB8DFFF717FE45
:1014D0007B7803F00203002B13D0FA887B89D31AA0
:1014E0009BB218B2BA88BB89D31A9BB219B2BB8916
:1014F0005B009AB23B8D13449BB21AB2BB8DFFF7CF
:10150000FEFDFB897B813B8ABB81B7F91020B7F9CF
:101510000E309A42FFF663AF00BF00BF1C37BD46D6
:1015200090BD90B587B002AF0446084611461A46F2
:101530002346FB800346BB800B467B8013463B80E3
:101540000023FB81B7F90220B7F900309A4206DA8E
:10155000B7F90230DA0F13445B10FB8105E0B7F9ED
:101560000030DA0F13445B10FB81B7F92020B7F984
:101570000E309A4201DDFB893B84FFF72FF8FA8891
:101580003B8C13449BB218B27A883B8C5B009BB2B5
:10159000D31A9BB21AB2BB8CB7F90410FFF7CFFD78
:1015A000FA883B8C13449BB218B2BA883B88134428
:1015B0009BB2013B9BB219B27A883B8C5B009BB219
:1015C000D31A9BB21AB2BB8CFFF7B9FDBA883B8C19
:1015D00013449BB219B23A883B8C5B009BB2D31A7E
:1015E0009BB21AB2BB8CB7F90600FFF788FDFA88E8
:1015F0007B8813449BB2013B9BB218B2BA883B8CE8
:1016000013449BB219B23A883B8C5B009BB2D31A4D
:101610009BB21AB2BB8CFFF772FDFA883B8C134465
:101620009BB218B2BA883B8C13449BB219B2B7F97B
:101630002020BB8C00930123FFF7E1FDFA887B8813
:1016400013449AB23B8CD31A9BB2013B9BB218B2A3
:10165000BA883B8C13449BB219B2B7F92020BB8CDB
:1016600000930223FFF7CBFDFA887B8813449AB2DC
:101670003B8CD31A9BB2013B9BB218B2BA883B8811
:1016800013449AB23B8CD31A9BB2013B9BB219B262
:10169000B7F92020BB8C00930423FFF7B0FDFA8834
:1016A0003B8C13449BB218B2BA883B8813449AB25D
:1016B0003B8CD31A9BB2013B9BB219B2B7F92020E5
:1016C000BB8C00930823FFF79AFDFEF797FF00BF3E
:1016D0001437BD4690BD90B587B002AF04460846AA
:1016E00011461A462346FB800346BB800B467B808F
:1016F00013463B80B7F92430002B44DD0023FB6008
:101700003BE0FB68002B10D1B7F90040B7F902208D
:10171000B7F90410B7F906003B8D0193B7F92030F3
:1017200000932346FFF7FDFE24E0FB689AB2FB8896
:1017300013449BB218B2FB689AB2BB8813449BB2A5
:1017400019B27A88FB689BB25B009BB2D31A9BB23A
:101750001CB23A88FB689BB25B009BB2D31A9BB267
:101760001AB23B8D0193B7F92030009313462246FD
:10177000FFF7D7FEFB680133FB60B7F92430FA6846
:101780009A42BEDB00E000BF1437BD4690BD90B565
:1017900085B000AF0446084611461A462346FB8032
:1017A0000346BB800B467B8013463B80FB88FB8156
:1017B0000EE03B8CB7F90020B7F90410B7F90E0022
:1017C000FFF79DFCB7F90E309BB201339BB2FB8152
:1017D000B7F90E20B7F90610B7F902300B449A4258
:1017E000E7DB00BF00BF1437BD4690BD90B587B0A2
:1017F00002AF0446084611461A462346FB800346BC
:10180000BB800B467B8013463B80B7F90020B7F9BD
:1018100002309342A8BF13461BB2DA0F13445B1089
:10182000FB81B7F92020B7F90E309A4201DDFB8920
:101830003B84FEF7D3FEFA883B8C13449BB218B26C
:101840007A883B8C5B009BB2D31A9BB21AB2B7F971
:101850000040B7F90410BB8C00932346FFF797FFB5
:10186000FA887B8813449AB23B8CD31A9BB2013B13
:101870009BB218B2BA883B8C13449BB219B23A8817
:101880003B8C5B009BB2D31A9BB2013B9BB21BB259
:10189000B7F92040BA8C0192009301232246FFF74A
:1018A00072FDFA883B8C13449BB218B2BA883B8C09
:1018B00013449BB219B23A883B8C5B009BB2D31A9B
:1018C0009BB2013B9BB21BB2B7F92040BA8C01928C
:1018D000009302232246FFF756FDFEF78FFE00BF5E
:1018E0001437BD4690BD90B587B000AF044608469A
:1018F00011461A462346FB800346BB800B467B807D
:1019000013463B807B88C3F101039BB2FB8201231A
:10191000BB827B881A46D203D31A5B009BB27B82C0
:1019200000233B827B88FB81FEF758FEF888BA884B
:101930007B8813449BB23A881946FFF741F8F88830
:10194000BA887B88D31A9BB23A881946FFF738F8D1
:10195000FA887B8813449BB2B9883A881846FFF707
:101960002FF8FA887B88D31A9BB2B9883A88184630
:10197000FFF726F881E0B7F91630002B0EDBB7F938
:101980000E309BB2013B9BB2FB817B8A02339BB240
:101990007B82FA8A7B8A13449BB2FB82B7F91030B0
:1019A0009BB201339BB23B82BB8A02339BB2BB82A8
:1019B000FA8ABB8A13449BB2FB82FA883B8A13449F
:1019C00098B2BA88FB8913449BB23A881946FEF74D
:1019D000F7FFFA883B8AD31A98B2BA88FB89134476
:1019E0009BB23A881946FEF7EBFFFA883B8A13440C
:1019F00098B2BA88FB89D31A9BB23A881946FEF787
:101A0000DFFFFA883B8AD31A98B2BA88FB89D31AC7
:101A10009BB23A881946FEF7D3FFFA88FB89134434
:101A200098B2BA883B8A13449BB23A881946FEF7AB
:101A3000C7FFFA88FB89D31A98B2BA883B8A134445
:101A40009BB23A881946FEF7BBFFFA88FB8913441C
:101A500098B2BA883B8AD31A9BB23A881946FEF7E5
:101A6000AFFFFA88FB89D31A98B2BA883B8AD31A97
:101A70009BB23A881946FEF7A3FFB7F91020B7F9D1
:101A80000E309A42FFF677AFFEF7B8FD00BF1C3765
:101A9000BD4690BD80B483B000AF0F4B7B607B68C8
:101AA0001B680E4A13600E4B7B607B681B680D4AF7
:101AB00013600D4B7B607B681B680C4A13600C4BFA
:101AC0007B607B681B680B4A136000BF0C37BD4608
:101AD0005DF8047B704700BFF0FF0708B8190120CC
:101AE000F4FF0708BC190120F8FF0708C0190120FE
:101AF000FCFF0708C419012080B500AF00224FF495
:101B00008071024802F042FD00BF80BD000002402B
:101B100080B500AF01224FF48071024802F036FD1B
:101B200000BF80BD0000024080B500AF4FF480517F
:101B3000054802F013FD0346002B0CBF01230023D0
:101B4000DBB2184680BD00BF0004024080B58EB0F5
:101B500002AF78603960FFF7CFFF0023FB620023FC
:101B6000BB62002387F82730002387F826304BE03C
:101B7000FFF7DAFF034683F00103DBB2002B48D105
:101B800097F82730013387F827304FF0FF330122D1
:101B90004D494E4803F0C1F907F110024FF0FF33F1
:101BA000009302234A49494803F0F3FA4FF0FF3308
:101BB00001224849454803F0B0F907F10C024FF003
:101BC000FF33009302234249404803F0E2FA3B7B93
:101BD0001B027A7B1343BB61BB69DB08C3F30B03B6
:101BE000FA6A1344FB623B7C1B027A7C13437B61E1
:101BF0007B69DB08C3F30B03BA6A1344BB6297F833
:101C00002630013387F8263097F826300F2BAFD9CE
:101C100000E000BFFFF77CFF97F827300F2B01D8BB
:101C200000234CE0FB6A1B093B622B4B1B683A6AA2
:101C30009A4202D2284B1B683B62284B1B683A6AC7
:101C40009A4202D9254B1B683B62BB6A1B09FB61A8
:101C5000234B1B68FA699A4202D2214B1B68FB6135
:101C6000204B1B68FA699A4202D91E4B1B68FB6124
:101C7000194B1B683A6AD21A13469B0013449B0106
:101C80001946164B1A68144B1B68D31AB1FBF3F3B1
:101C90009AB27B681A80124B1B68FA69D21A1346F3
:101CA0001B019B1A1B0119460E4B1A680C4B1B6833
:101CB000D31AB1FBF3F39AB23B681A80012318469A
:101CC0003037BD4680BD00BF24170120541A0120C3
:101CD000281701202C170120B8190120BC19012058
:101CE000C0190120C419012080B483B000AF294B72
:101CF0001B685B08274A1360274B1B685B08264A52
:101D00001360264B1B685B08244A1360244B1B6836
:101D10005B08234A1360214B1A681E4B1B68D31AB9
:101D2000204AA2FB03235B097B601D4B1A681A4BF8
:101D30001B68D31A9B081C4AA2FB03235B083B6069
:101D40007A6813469B0013445B007B603A68134635
:101D50009B0013445B003B600E4B1A687B68D31AF0
:101D6000124A13600D4B1A687B681344104A1360C3
:101D7000094B1A683B68D31A0E4A1360084B1A685D
:101D80003B6813440C4A136000BF0C37BD465DF836
:101D9000047B7047C8190120D0190120CC190120FB
:101DA000D4190120B5814E1B95204F09B819012087
:101DB000BC190120C0190120C419012080B58EB0C2
:101DC00002AF0346FB7101E0FFF796FEFFF7ACFEA2
:101DD000034683F00103DBB2002BF5D10023FB6245
:101DE0000023BB62002387F82730002387F82630C2
:101DF0004BE0FFF799FE034683F00103DBB2002BB3
:101E000048D197F82730013387F827304FF0FF3358
:101E100001228149814803F080F807F110024FF058
:101E2000FF33009302237E497C4803F0B2F94FF060
:101E3000FF3301227B49794803F06FF807F10C0268
:101E40004FF0FF33009302237549744803F0A1F962
:101E50003B7B1B027A7B13433B623B6ADB08C3F389
:101E60000B03FA6A1344FB623B7C1B027A7C13432C
:101E7000FB61FB69DB08C3F30B03BA6A1344BB6263
:101E800097F82630013387F8263097F826300F2B45
:101E9000AFD900E000BFFFF73BFE97F827300F2BCC
:101EA00000D890E7FB6A1B09BB61BB6A1B097B6119
:101EB000FB79042B00F2AA8001A252F823F000BFA4
:101EC000D51E0020E91E0020031F00201D1F00203A
:101ED000411F0020544ABB691360544A7B69136058
:101EE000642001F08BFB91E0514ABB6913604F4BBA
:101EF0001A687B6913444D4A1360642001F07EFB2D
:101F000084E0494B1A68BB691344474A1360494A45
:101F10007B691360642001F071FB77E0444B1A6821
:101F2000BB691344424A1360424B1A687B691344ED
:101F3000404A1360642001F061FBFFF7D5FE65E0C5
:101F4000642001F05BFB3C4B1B687A69D21A134694
:101F50001B019B1A1B011946384B1A68364B1B682C
:101F6000D31AB1FBF3F37C2B4ED8334B1B687A6941
:101F7000D21A13461B019B1A1B0119462F4B1A68D4
:101F80002D4B1B68D31AB1FBF3F3732B3CD92C4BAD
:101F90001B68BA69D21A13469B0013449B01194669
:101FA000284B1A68264B1B68D31AB1FBF3F3A42BFA
:101FB0002AD8234B1B68BA69D21A13469B001344D4
:101FC0009B0119461F4B1A681D4B1B68D31AB1FBA6
:101FD000F3F39B2B18D91A4B1B6819461A4801F0CA
:101FE0002BFB184B1B681946184801F025FB124BB8
:101FF0001B681946164801F01FFB104B1B68194659
:10200000144801F019FB01E0002300E00123184609
:102010003037BD4680BD00BF30170120541A012063
:102020003417012038170120C8190120D0190120C8
:10203000CC190120D4190120C0190120C419012094
:10204000B8190120BC190120F0FF0708F4FF0708A8
:10205000F8FF0708FCFF070880B586B004AF034609
:10206000FB71FB79062B00F2008101A252F823F0EC
:102070008D200020E92000201B2100204B21002082
:102080007D210020EB2100202B2200200020FEF7E4
:1020900033FD784B002202924FF6E07201925A68AB
:1020A00000921B68744A32210F20FEF704FF714B27
:1020B000002202924FF6E07201925A6800921B6869
:1020C0006E4A46210F20FEF7F6FE4FF6E0730A2215
:1020D0000A210A20FFF707FC4FF6E07309220A21C4
:1020E0000A20FFF700FCC0E0002300931923192207
:1020F00000210020FEF796FC4FF6E0730A220A2129
:1021000040F23510FFF7EFFB4FF6E07309220A218A
:1021100040F23510FFF7E7FBA7E0002300931923F7
:102120001922002140F22B10FEF77CFC4FF6E073E1
:102130000A22E5210A20FFF7D6FB4FF6E0730922B9
:10214000E5210A20FFF7CFFB8FE00023009319233E
:102150001922DB210020FEF765FC4FF6E0730A220E
:10216000E52140F23510FFF7BEFB4FF6E073092280
:10217000E52140F23510FFF7B6FB76E0002300932F
:1021800019231922DB2140F22B10FEF74BFC002310
:10219000009328234FF4917232210F20FEF742FC66
:1021A0000023009314233C2264218C20FEF73AFC88
:1021B000304B002202924FF6E07201925A68009270
:1021C0001B682F4A14213C20FEF775FE4FF6E07382
:1021D0000A227821A020FFF786FB4FF6E073092240
:1021E0007821A020FFF77FFB3FE00023009314231A
:1021F0004FF4827214213C20FEF714FC002300935C
:102200001E231E226E219620FEF70CFC194B002285
:1022100002924FF6E07201925A6800921B68194AC6
:1022200014214B20FEF747FE1FE0002300931423E8
:102230004FF4827232213C20FEF7F4FB002300931E
:102240001E231E226E219620FEF7ECFB094B002276
:1022500002924FF6E07201925A6800921B680A4A95
:1022600014213C20FEF727FE00BF00BF0837BD4603
:1022700080BD00BFFC18012090700020AC700020D1
:10228000C8700020DC700020EC70002080B586B0A3
:1022900004AF0346FB71FB79002B0ED0104B0022DC
:1022A00002924FF6E07201925A6800921B680D4A42
:1022B00064218C20FEF7FFFD0DE0094B0022029205
:1022C0004FF6E07201925A6800921B68064A642138
:1022D0008C20FEF7F0FD00BF0837BD4680BD00BF73
:1022E000FC180120007100200871002080B500AFAB
:1022F000FFF70EFCFEF782F90A2001F0AFFC094B54
:102300001B68084A43F040031360FEF723FAFEF708
:1023100065F90020FEF7F0FB642001F09FFC00BF90
:1023200080BD00BF0030014080B584B004AF0B4BCE
:102330000B4A07CA83E807000A4B1F2202924FF696
:10234000FF7201925A6800921B68044A02210A2017
:10235000FEF7B1FD00BFBD4680BD00BFD81901200A
:1023600010710020FC18012090B585B004AF1F2328
:1023700000931623A0220021A020FEF753FB384B28
:102380009B7A002B16D0364BDB7A002B12D1354BC3
:10239000354A07CA03C31A70344B1F2202924FF604
:1023A000FF7201925A6800921B682E4A0221AA20ED
:1023B000FEF781FD2A4B9B7A002B17D0284BDB7A46
:1023C000002B13D0274A2A4B14460FCB07C4237087
:1023D000264B1F2202924FF6FF7201925A6800921A
:1023E0001B68204A0221AA20FEF765FD1C4B9B7A40
:1023F000002B16D11A4BDB7A002B12D0194B1D4A39
:1024000007CA03C31A70194B1F2202924FF6FF72BC
:1024100001925A6800921B68124A0221AA20FEF714
:102420004AFD0F4B9B7A002B16D10D4BDB7A002B0C
:1024300012D10C4B104A07CA83E807000B4B1F222E
:1024400002924FF6FF7201925A6800921B68054A89
:102450000221AA20FEF72FFD00BF0437BD4690BD24
:102460001C190120D81901201C710020FC18012022
:1024700028710020387100204471002080B582B09E
:1024800002AF164B164A92E8030018600433198015
:1024900002330A0C1A70002300934FF4FC630F4AB6
:1024A0001E210C20FEF730FC0E4B1B8819460D4BED
:1024B0001B7A1A460C4B53F822300A460B49074840
:1024C00004F04AF9002300934FF4FC63034A1E21F1
:1024D0007D20FEF719FC00BFBD4680BDD819012044
:1024E000507100201C19012004190120587100208E
:1024F00080B582B002AF144B144A92E8030083E81F
:102500000300002300934FF6E0730F4A4E210C2086
:10251000FEF7FAFB0E4B5B8819460D4B5B7A1A46A9
:102520000C4B53F822300A460B49074804F014F9C3
:10253000002300934FF6E073034A4E217D20FEF7FF
:10254000E3FB00BFBD4680BDD819012064710020A7
:102550001C190120041901205871002080B582B097
:1025600002AF1D4B1D4A92E8030018600433198026
:1025700002330A0C1A70002300934FF61F03164A09
:102580007E210C20FEF7C0FB154B9B88002B11D041
:10259000134B9B881A46134B13490F4804F0DCF881
:1025A000002300934FF61F030B4A7E217D20FEF788
:1025B000ABFB0DE00B4A0D49074804F0CDF80023B2
:1025C00000934FF61F03044A7E217D20FEF79CFBFB
:1025D00000BFBD4680BD00BFD81901206C7100202E
:1025E0001C1901207471002058710020787100209E
:1025F00090B585B002AF0446084611461A462346F8
:10260000FB800346BB800B467B8013463B803B8BA5
:10261000002B1CD1FB88013B9BB218B2BB88013B4D
:102620009BB219B27B8802339BB21AB23B88023349
:102630009BB21BB200240094FEF7A0FD3C887A8870
:10264000B988F888FB6900932346FEF77FFC3B8B33
:10265000012B1CD1B7F90600B7F904107B880233AF
:102660009BB21AB23B8802339BB21BB20024009487
:10267000FEF784FDFB88013398B2BB88013399B221
:102680003C887A88FB6900932346FEF75FFC00BF15
:102690000C37BD4690BD000080B584B004AF002368
:1026A00000931423DC2214214B20FEF7BBF91F23D7
:1026B000009316234FF4A07200210020FEF7B2F918
:1026C000FFF752FEFFF730FEFFF7D8FEFFF710FFCF
:1026D000FFF744FF1F4B0193002300933223322264
:1026E000B6211820FFF784FF1B4B019300230093B2
:1026F00032233222B6216220FFF77AFF174B019373
:102700000023009332233222B621AC20FFF770FF62
:10271000134B01930023009332233222B621F6207B
:10272000FFF766FF0F4A6B4607CA83E807000023DE
:102730004FF6E0722B214FF48270FEF74FFC01211F
:10274000012000F0C5FA0021002000F0C1FA00BF0E
:10275000BD4680BDA0980020DCC0002028AC002031
:10276000188500209C18012080B500AFFFF794FF6A
:1027700000BF80BD90B482B000AF04460846114649
:102780001A462346FB800346BB800B467B801346DC
:102790003B80FA887B889A4211D3FA8879883B8AF1
:1027A0000B449A420BDCBA883B889A4207D3BA881A
:1027B0003988BB8A0B449A4201DC012300E00023E4
:1027C00018460837BD4690BC7047000080B584B0FD
:1027D00004AF314B1B6803F00803002B0CD100231E
:1027E000029302230193042300933023F2221C213D
:1027F0000720FEF770FF0CE04FF6E0730293022310
:102800000193042300933023F2221C210720FEF7BA
:1028100062FF214B1B6803F01003002B0CD1002337
:10282000029302230193042300933023F2224C21CC
:102830000720FEF750FF0CE04FF6E07302930223EF
:102840000193042300933023F2224C210720FEF74A
:1028500042FF114B1B6803F02003002B0CD1002317
:10286000029302230193042300933023F2227C215C
:102870000720FEF730FF0CE04FF6E07302930223CF
:102880000193042300933023F2227C210720FEF7DA
:1028900022FF00BFBD4680BDF41A012080B586B07E
:1028A00004AF0346FB71FB79002B23D00023009378
:1028B0003C23B4223C212820FEF7B4F84FF6E07305
:1028C000029302230193032300933E23B6223A216D
:1028D0002620FEF700FF104B104A07CA03C31A70E8
:1028E000002300934FF478430B4A41213020FEF738
:1028F0000BFA0DE0002300933E23B6223A21262056
:10290000FEF790F8FFF7BAFDFFF7F2FDFFF75EFF65
:1029100000BF0837BD4680BDD81901208471002052
:1029200080B582B002AF1C4B1B6803F00203002B82
:102930002ED1194B1B6843F00203174A1360174B43
:102940001B7B002B10D0154B00221A73144B0193E4
:102950000123009332233222B621F620FFF748FEEE
:102960000020FFF79BFF13E00C4B01221A730B4B67
:102970009A880A4BDA800B4B019300230093322391
:102980003222B621F620FFF733FE0120FFF786FF43
:1029900000BFBD4680BD00BFF41A01201C190120F4
:1029A000188500209071002080B485B000AFF860D9
:1029B000084611461A4603467B810B463B81134667
:1029C000FB803B89012B1BD1FB681B881A467B8946
:1029D0001A443B8B9A4207DAFB681A887B891344B6
:1029E0009AB2FB681A8026E0FB681B883A8B9A42F1
:1029F00021D9FB681B8801339AB2FB681A801AE060
:102A0000FB681B881A467B89D21AFB889A4207DD2D
:102A1000FB681A887B89D31A9AB2FB681A800AE08D
:102A2000FB681B88FA889A4205D2FB681B88013B29
:102A30009AB2FB681A8000BF1437BD465DF8047B6C
:102A40007047000080B584B002AF03460A46FB80A1
:102A50001346BB80274B1B6803F00803002B17D0DD
:102A6000254B1B7A022B09D0BA88F98840F2E7334C
:102A7000009301232048FFF797FF07E0BA88F98801
:102A80001423009301231C48FFF78EFFFFF7F6FC89
:102A9000184B1B6803F01003002B17D0164B5B7A02
:102AA000022B09D0BA88F98840F2E733009301235A
:102AB0001248FFF779FF07E0BA88F98814230093DA
:102AC00001230E48FFF770FFFFF712FD094B1B684B
:102AD00003F02003002B09D0BA88F988FF23009364
:102AE00000230748FFF760FFFFF738FD00BF0837F6
:102AF000BD4680BDF41A01201C1901201E190120B9
:102B00002019012080B400AF1B4B1B6841F28732B3
:102B1000934207D8184B1B68B3F57A6F02D9174B4D
:102B200002221A80144B1B68B3F57A6F08D2124B3D
:102B30001B6840F6B832934202D9104B05221A8026
:102B40000D4B1B6840F6B732934207D80A4B1B68FF
:102B5000B3F5FA6F02D9094B0A221A80064B1B689B
:102B6000B3F5FA6F02D2054B19221A8000BFBD4699
:102B70005DF8047B704700BFF8190120101901208F
:102B800080B582B000AF0346FB80214B1B6803F089
:102B90000103002B09D11E4B1B6843F001031C4AA3
:102BA00013601C4B41F27C521A60194B1B6803F0F6
:102BB0000203002B05D1FB8819460120FFF742FFD5
:102BC00013E0154B1B88012B0FD9134B1B88FA8878
:102BD00011461846FFF736FF0F4B1B88C3F16403FD
:102BE0009BB21BB2184600F009FD094B1B6803F0AD
:102BF0000203002B05D1064B1B6843F00203044A75
:102C00001360FFF77FFF00BF0837BD4680BD00BFE0
:102C1000F41A0120F81901201019012080B500AF25
:102C2000294B1B6803F00203002B4BD1264B1B687A
:102C300043F00203244A1360234B1B6803F008038C
:102C4000002B1CD0214B1B7A012B06D81F4B1B7A63
:102C50000133DAB21D4B1A7202E01C4B00221A72C9
:102C6000FFF70CFC194B1B7A022B08D1174B1B8862
:102C7000142B04D9154B14221A80FFF7FFFB124BBB
:102C80001B6803F01003002B1CD0104B5B7A012B48
:102C900006D80E4B5B7A0133DAB20C4B5A7202E063
:102CA0000A4B00225A72094B5B7A022B08D1074B60
:102CB0005B88142B04D9054B14225A80FFF718FCAB
:102CC000FFF716FC00BF80BDF41A01201C1901207B
:102CD00080B586B004AF03460A46FB711346BB714C
:102CE000FB79002B45D0BB79002B21D0464B01222C
:102CF0009A72464B464A1A604FF6E07301930323DB
:102D000000931A23322266214FF48270FEF76EFD83
:102D1000404B4FF6E0720292002201925A680092F4
:102D20001B683A4A6A214FF48770FEF7C4F865E0E1
:102D3000354B00229A72354B354A1A601F23019396
:102D4000032300931A23322266214FF48270FEF788
:102D50004DFD304B1F2202924FF6FF7201925A68CE
:102D600000921B68294A6A214FF48770FEF7A3F886
:102D700044E0BB79002B21D0234B0122DA72234B94
:102D8000254A1A604FF6E0730193032300931A2338
:102D900032228C214FF48270FEF728FD1D4B4FF636
:102DA000E0720292002201925A6800921B68174A50
:102DB00090214FF48770FEF77EF81FE0124B00223F
:102DC000DA72124B144A1A601F23019303230093F3
:102DD0001A2332228C214FF48270FEF707FD0D4B2F
:102DE0001F2202924FF6FF7201925A6800921B68EE
:102DF000064A90214FF48770FEF75DF8FFF7B4FAAA
:102E000000BF0837BD4680BD1C190120D81901201C
:102E10004E504E00FC180120504E500080B582B03C
:102E200000AF0346FB71184B1B6803F00203002B35
:102E300025D1154B1B6843F00203134A1360FB793D
:102E4000012B0CD1114B9B7A002B04D000210120C7
:102E5000FFF73EFF03E001210120FFF739FFFB7977
:102E6000002B0CD1094BDB7A002B04D00021002071
:102E7000FFF72EFF03E001210020FFF729FF00BF2D
:102E80000837BD4680BD00BFF41A01201C1901207F
:102E900080B582B002AF894B1B6903F48053002BCD
:102EA00040F0008186498748FEF750FE0346002B1C
:102EB00000F0F080844B1B6803F00403002B08D162
:102EC000814B1B6843F004037F4A1360642000F0C9
:102ED00095FB7C4B18887A4B198823230193EB23AD
:102EE00000931E230F22FFF745FC0346002B0DD055
:102EF000754B1B6823F03003734A1360724B1B68D9
:102F000043F00803704A1360FFF760FC6D4B1888AC
:102F10006B4B198823230193EB2300934E230F223D
:102F2000FFF728FC0346002B0DD0674B1B6823F0EE
:102F30002803654A1360644B1B6843F01003624A20
:102F40001360FFF743FC5F4B18885D4B1988232300
:102F50000193EB2300937E230F22FFF70BFC034624
:102F6000002B0DD0584B1B6823F01803564A1360F2
:102F7000554B1B6843F02003534A1360FFF726FCB0
:102F8000504B18884E4B19883223019332230093FB
:102F9000B6231822FFF7EEFB0346002B0CD04B4B59
:102FA00001930123009332233222B6211820FFF728
:102FB0001FFB0120FFF7E4FD424B1888404B1988A6
:102FC0003223019332230093B623AC22FFF7D2FBC6
:102FD0000346002B0CD03E4B019301230093322378
:102FE0003222B621AC20FFF703FB0020FFF7C8FD1B
:102FF000344B1888324B19883223019332230093C3
:10300000B6236222FFF7B6FB0346002B0BD0314BF1
:1030100001930123009332233222B6216220FFF76D
:10302000E7FAFFF7FBFD274B1888254B1988322359
:10303000019332230093B623F622FFF79BFB03464E
:10304000002B01D0FFF76CFC1E4B18881C4B198815
:103050001A2301933223009366234FF48272FFF701
:1030600089FB0346002B02D00120FFF7D7FE154B4A
:103070001888134B19881A230193322300938C2349
:103080004FF48272FFF776FB0346002B02D000203C
:10309000FFF7C4FE104B41F288321A600F4B322208
:1030A0001A6005E0084B1B6823F00403064A13600E
:1030B00000F016F800BFBD4680BD00BF000402400E
:1030C000EE190120EC190120F41A0120A09800202B
:1030D00028AC0020DCC00020F0190120F4190120E8
:1030E00080B582B002AF264B1B68002B0DD1254B5B
:1030F0001B6803F03803002B07D0224B1B6823F01A
:103100003803204A1360FFF761FB1F4B1B68002B3D
:1031100032D11C4B1B6803F00203002B2CD01B4B3D
:1031200001930023009332233222B6211820FFF7A7
:103130005FFA174B01930023009332233222B6210A
:10314000AC20FFF755FA134B019300230093322371
:103150003222B6216220FFF74BFA0A4B1B6823F09C
:103160000103084A1360074B1B6823F00203054A5A
:103170001360094B01221A8000BFBD4680BD00BF0D
:10318000F0190120F41A0120F4190120A098002060
:1031900028AC0020DCC000201019012080B500AF51
:1031A000114B03221A6000F0E7FC00F021F800F058
:1031B0005DF900F085F800F0B9F800F0EDF80B4B80
:1031C0001B686FF001021A61084802F04FFA0421EF
:1031D000064802F02FFC0821044802F017FB00F01B
:1031E00029FC00F033FCFCE700380140AC1A012058
:1031F00080B594B000AF07F12003302200211846BB
:1032000003F0A2FA07F10C0300221A605A609A60D8
:10321000DA601A610023BB60274B1B6C264A43F01F
:1032200080531364244B1B6C03F08053BB60BB685A
:1032300000237B60214B1B68204A43F4404313600A
:103240001E4B1B6803F440437B607B6801233B6299
:103250004FF480337B620223BB634FF48003FB6334
:103260000C233B6460237B640223BB640423FB6464
:1032700007F12003184601F0A3F90346002B01D003
:1032800000F076F90F23FB6002233B6180237B6112
:103290004FF48053BB610023FB6107F10C03012154
:1032A000184601F005FC0346002B01D000F060F940
:1032B00000BF5037BD4680BD00380240007000405E
:1032C00080B500AF174B184A1A60164B4FF4827244
:1032D0005A60144B00229A60124B0022DA60114BA4
:1032E00000221A610F4B00225A610E4B4FF40072FC
:1032F0009A610C4B0022DA610A4B00221A62094BD8
:1033000000225A62074B00229A62064B0A22DA62B6
:10331000044801F079FD0346002B01D000F028F9A4
:1033200000BF80BDFC1901200030014080B500AF16
:10333000174B184A1A60164B4FF482725A60144B9E
:1033400000229A60124B0022DA60114B00221A61AF
:103350000F4B00225A610E4B4FF400729A610C4BD6
:103360003822DA610A4B00221A62094B00225A62A3
:10337000074B00229A62064B0A22DA62044801F0E7
:1033800043FD0346002B01D000F0F2F800BF80BDE2
:10339000541A01200038004080B58AB000AF07F110
:1033A000200300221A605A603B1D00221A605A60F6
:1033B0009A60DA601A615A619A61294B294A1A6047
:1033C000274B00225A60264B00229A60244B264A43
:1033D000DA60234B00221A61214B80229A61204837
:1033E00002F0C5F90346002B01D000F0C1F800231C
:1033F0003B6200237B6207F120031946184803F063
:10340000F7F80346002B01D000F0B2F860237B6090
:1034100046F2A813BB600023FB6000237B613B1DC9
:10342000042219460E4802F0BDFD0346002B01D0D0
:1034300000F09EF840F63403BB603B1D082219469D
:10344000074802F0AFFD0346002B01D000F090F8D2
:10345000034800F0DBF900BF2837BD4680BD00BF40
:10346000AC1A0120000C0040A086010080B588B095
:1034700000AF07F10C0300221A605A609A60DA600C
:103480001A610023BB60374B1B6B364A43F0800345
:103490001363344B1B6B03F08003BB60BB680023DA
:1034A0007B60304B1B6B2F4A43F0010313632D4BA2
:1034B0001B6B03F001037B607B6800233B60294B9F
:1034C0001B6B284A43F002031363264B1B6B03F06C
:1034D00002033B603B68002240F21111224801F0D8
:1034E00055F800220721214801F050F80123FB6024
:1034F00001233B6100237B610323BB6107F10C03C4
:103500001946194800F0A6FE4FF48873FB600123AA
:103510003B6100237B610023BB6107F10C0319466B
:10352000114800F097FE0723FB6001233B61002355
:103530007B610023BB6107F10C0319460B4800F0C7
:1035400089FE4FF48053FB6000233B6100237B61C5
:1035500007F10C031946054800F07CFE00BF203738
:10356000BD4680BD00380240000002400004024019
:1035700080B400AF72B600BFFEE780B487B000AF82
:1035800003460A46FB801346BB800023FB82B7F943
:103590000620B7F9043092FBF3F39BB201339BB2E0
:1035A000FB8100233B6113E0B7F90620B7F9043033
:1035B0009A4213DDFA88BB88D31A9BB2FB80B7F915
:1035C00016309BB201339BB2FB823B6901333B61F6
:1035D000B7F90E303A699A42E6DB00E000BFB7F96E
:1035E00016309BB201339BB2FB82B7F916301846F6
:1035F0001C37BD465DF8047B7047000080B483B083
:1036000000AF0346FB800A4B1B68002B09D1B7F9BA
:103610000630074A1360074B9B69064A43F00103D3
:10362000936100BF0C37BD465DF8047B704700BF57
:10363000F81A012000000240B0B582B000AF7860F7
:10364000396000F095FC094BF322DA603B680022F8
:103650001C46154622462B467968022000F034FCB1
:1036600000F0A8FC00BF0837BD46B0BD003C0240DA
:1036700080B483B000AF00237B60104B5B6C0F4ABB
:1036800043F4804353640D4B5B6C03F480437B60D5
:103690007B6800233B60094B1B6C084A43F0805356
:1036A0001364064B1B6C03F080533B603B6800BF08
:1036B0000C37BD465DF8047B704700BF0038024000
:1036C00080B58CB000AF786007F11C0300221A604F
:1036D0005A609A60DA601A617B681B68324A9342CA
:1036E0002CD10023BB61314B5B6C304A43F48053D7
:1036F00053642E4B5B6C03F48053BB61BB690023A6
:103700007B612A4B1B6B294A43F001031363274B50
:103710001B6B03F001037B617B69E023FB610223E8
:103720003B6200237B620323BB620523FB6207F13C
:103730001C0319461E4800F08DFD31E07B681B68B4
:103740001C4A93422CD100233B61184B1B6C174A37
:1037500043F480431364154B1B6C03F480433B61BB
:103760003B690023FB60114B1B6B104A43F00203C3
:1037700013630E4B1B6B03F00203FB60FB684FF4FB
:103780006043FB6102233B6200237B620323BB6235
:103790000523FB6207F11C031946074800F05AFD98
:1037A00000BF3037BD4680BD0030014000380240C8
:1037B00000000240003800400004024080B584B0A0
:1037C00000AF78607B681B680E4A934215D10023D6
:1037D000FB600D4B1B6C0C4A43F0080313640A4B4F
:1037E0001B6C03F00803FB60FB6800220021322001
:1037F00000F033FB322000F04CFB00BF1037BD4619
:1038000080BD00BF000C00400038024080B588B089
:1038100000AF786007F10C0300221A605A609A60CA
:10382000DA601A617B681B68124A93421DD100233B
:10383000BB60114B1B6B104A43F0010313630E4B2B
:103840001B6B03F00103BB60BB680623FB60022314
:103850003B6100237B610023BB610223FB6107F115
:103860000C031946054800F0F5FC00BF2037BD46A3
:1038700080BD00BF000C0040003802400000024044
:1038800080B400AFFEE780B400AFFEE780B400AFC5
:10389000FEE780B400AFFEE780B400AFFEE780B47F
:1038A00000AF00BFBD465DF8047B704780B400AF39
:1038B00000BFBD465DF8047B704780B400AF00BF19
:1038C000BD465DF8047B704780B500AF1D4B1B689B
:1038D000002B04D01B4B1B68013B1A4A13601A4B88
:1038E0001B68002B04D0184B1B68013B164A136061
:1038F000164B1B68002B04D0144B1B68013B134A6A
:103900001360134B1B68002B04D0114B1B68013B49
:103910000F4A13600F4B1B68002B04D00D4B1B6824
:10392000013B0C4A13600B4B1B680A2B05D10A4B59
:103930009B69094A43F48033936100F06FF900BF3B
:1039400080BD00BFF0190120F4190120F8190120F1
:10395000001B0120F81A01200000024080B500AFD2
:103960000E4802F017FA0E4B1B68002B04D00C4BCC
:103970001B68013B0A4A1360094B1B68002B0AD1E4
:103980000421064802F054F90821044801F0EEFF32
:10399000024801F0C5FE00BF80BD00BFAC1A012087
:1039A0001419012080B586B000AF7860144A154B19
:1039B000D31A7B617B693B61134B1B68002B02D1DF
:1039C000114B124A1A60104B1A687B6813443A690B
:1039D0009A4207D202F08EFE03460C221A604FF084
:1039E000FF3309E0084B1B68FB60074B1A687B68D4
:1039F0001344054A1360FB6818461837BD4680BD5E
:103A00000000022000040000FC1A0120381B0120E5
:103A100080B400AF064BD3F88830054A43F47003F6
:103A2000C2F8883000BFBD465DF8047B704700BF18
:103A300000ED00E080B500AFFEF758FC00F00CF898
:103A4000FEF728F8FEF790FE00BF80BD80B500AFFE
:103A5000FFF71EFA00BF80BD80B500AF304B1B687A
:103A60001B68B3F1FF3F59D100BF0020FEF7F4FA05
:103A70000020FEF70BFC0020FEF7A0F90120FEF766
:103A800005FC4FF47A7000F0E9F80120FEF7E4FA43
:103A90000020FEF7FBFB0120FEF790F90120FEF766
:103AA000F5FB4FF47A7000F0D9F80220FEF7D4FA53
:103AB0000020FEF7EBFB0220FEF780F90120FEF765
:103AC000E5FB4FF47A7000F0C9F80320FEF7C4FA62
:103AD0000020FEF7DBFB0320FEF770F90120FEF764
:103AE000D5FB4FF47A7000F0B9F80420FEF7B4FA71
:103AF0000420FEF763F90346002B07D00520FEF7EC
:103B0000ABFA4FF47A7000F0A9F807E00620FEF750
:103B1000A3FA4FF47A7000F0A1F8A6E700BF80BDC9
:103B20002C190120DFF834D00D480E490E4A00232D
:103B300002E0D458C4500433C4188C42F9D30B4A61
:103B40000B4C002301E013600432A242FBD3FFF7C9
:103B50005FFF02F0D5FDFFF721FB70470000022058
:103B6000FC1801209C190120FC1801209C1901203F
:103B7000381B0120FEE7000080B500AF0E4B1B682C
:103B80000D4A43F4007313600B4B1B680A4A43F45D
:103B900080631360084B1B68074A43F4807313600B
:103BA000032000F04FF90F2000F008F8FFF760FD48
:103BB0000023184680BD00BF003C024080B582B0A3
:103BC00000AF7860124B1A68124B1B7819464FF4FD
:103BD0007A73B3FBF1F3B2FBF3F3184600F067F925
:103BE0000346002B01D001230EE07B680F2B0AD87F
:103BF000002279684FF0FF3000F02FF9064A7B6809
:103C00001360002300E0012318460837BD4680BD3D
:103C100018190120341901203019012080B400AF97
:103C2000064B1B781A46064B1B681344044A136064
:103C300000BFBD465DF8047B704700BF341901200A
:103C4000041B012080B400AF034B1B681846BD461F
:103C50005DF8047B704700BF041B012080B584B071
:103C600000AF7860FFF7EEFFB8607B68FB60FB6831
:103C7000B3F1FF3F05D00A4B1B781A46FB6813448B
:103C8000FB6000BFFFF7DEFF0246BB68D31AFA688D
:103C90009A42F7D800BF00BF1037BD4680BD00BFB5
:103CA0003419012080B485B000AF78607B6803F0E0
:103CB0000703FB600C4BDB68BB60BA684FF6FF0381
:103CC0001340BB60FB681A02BB68134343F0BF6339
:103CD00043F40033BB60044ABB68D36000BF1437B1
:103CE000BD465DF8047B704700ED00E080B400AF96
:103CF000044BDB681B0A03F007031846BD465DF85A
:103D0000047B704700ED00E080B483B000AF034651
:103D1000FB7197F90730002B0BDBFB7903F01F02D7
:103D2000074997F907305B09012000FA02F241F8D0
:103D3000232000BF0C37BD465DF8047B704700BFF1
:103D400000E100E080B483B000AF03463960FB714E
:103D500097F90730002B0ADB3B68DAB20C4997F978
:103D600007301201D2B20B4483F800230AE03B680B
:103D7000DAB20849FB7903F00F03043B1201D2B217
:103D80000B441A7600BF0C37BD465DF8047B7047C4
:103D900000E100E000ED00E080B489B000AFF86021
:103DA000B9607A60FB6803F00703FB61FB69C3F14C
:103DB0000703042B28BF0423BB61FB690433062BD4
:103DC00002D9FB69033B00E000237B614FF0FF3227
:103DD000BB6902FA03F3DA43BB681A407B699A4075
:103DE0004FF0FF317B6901FA03F3D9437B680B4045
:103DF000134318462437BD465DF8047B7047000026
:103E000080B582B000AF78607B68013BB3F1807F02
:103E100001D301230FE00A4A7B68013B53600F2165
:103E20004FF0FF30FFF78EFF054B00229A60044BE6
:103E300007221A60002318460837BD4680BD00BF20
:103E400010E000E080B582B000AF78607868FFF7DE
:103E500029FF00BF0837BD4680BD80B586B000AFE2
:103E60000346B9607A60FB7300237B61FFF73EFF76
:103E700078617A68B9687869FFF78EFF024697F92A
:103E80000F3011461846FFF75DFF00BF1837BD46DB
:103E900080BD80B582B000AF0346FB7197F9073053
:103EA0001846FFF731FF00BF0837BD4680BD80B51B
:103EB00082B000AF78607868FFF7A2FF034618462B
:103EC0000837BD4680BD000080B586B000AFF86001
:103ED000B960C7E900230123FB75234B1B7E012B2F
:103EE00001D102233BE0204B01221A764CF25030E4
:103EF00000F070F80346FB75FB7D002B2BD1FB68AF
:103F0000002B05D13B781946B86800F01BF916E084
:103F1000FB68012B05D13B881946B86800F0EEF824
:103F20000DE0FB68022B05D13B681946B86800F02C
:103F3000C3F804E0D7E90023B86800F08BF84CF22E
:103F4000503000F047F80346FB75084B1B69074AE1
:103F500023F001031361044B00221A76FB7D1846FF
:103F60001837BD4680BD00BF081B0120003C024041
:103F700080B483B000AF0023FB710B4B1B69002B97
:103F80000BDA094B094A5A60074B094A5A60064B3B
:103F90001B69002B01DA0123FB71FB7918460C37F2
:103FA000BD465DF8047B7047003C02402301674535
:103FB000AB89EFCD80B400AF054B1B69044A43F0D9
:103FC0000043136100231846BD465DF8047B70472B
:103FD000003C024080B584B000AF78600023FB60F5
:103FE0001A4B0022DA61FFF72DFEF86010E07B68C3
:103FF000B3F1FF3F0CD07B68002B07D0FFF722FE08
:104000000246FB68D31A7A689A4201D2032319E068
:104010000F4BDB6803F48033002BE8D10C4BDB68DB
:1040200003F00103002B02D0094B0122DA60084B98
:10403000DB6803F4F973002B03D000F0A5F801232B
:1040400000E0002318461037BD4680BD081B012044
:10405000003C024080B485B000AFF860C7E900239F
:10406000144B1B69134A23F440731361114B1B69F2
:10407000104A43F4407313610E4B1B690D4A43F021
:1040800001031361FB683A681A60BFF36F8F00BFCA
:10409000D7E900014FF000024FF000030A000023AF
:1040A000F968043113460B6000BF1437BD465DF854
:1040B000047B7047003C024080B483B000AF78605E
:1040C00039600D4B1B690C4A23F4407313610A4B92
:1040D0001B69094A43F400731361074B1B69064AC5
:1040E00043F0010313617B683A681A6000BF0C3724
:1040F000BD465DF8047B7047003C024080B483B04D
:1041000000AF78600B467B800D4B1B690C4A23F493
:10411000407313610A4B1B69094A43F480731361AE
:10412000074B1B69064A43F0010313617B687A88D9
:104130001A8000BF0C37BD465DF8047B704700BF96
:10414000003C024080B483B000AF78600B46FB7047
:104150000C4B1B690B4A23F440731361094B094A4A
:104160001B691361074B1B69064A43F00103136186
:104170007B68FA781A7000BF0C37BD465DF8047B87
:10418000704700BF003C024080B400AF2F4BDB689B
:1041900003F01003002B08D02D4BDB6943F0100314
:1041A0002B4AD361294B1022DA60284BDB6803F0DD
:1041B0002003002B08D0264BDB6943F00803244A78
:1041C000D361224B2022DA60204BDB6803F04003EE
:1041D000002B08D01E4BDB6943F004031C4AD3615B
:1041E0001A4B4022DA60194BDB6803F08003002B86
:1041F00008D0174BDB6943F00203154AD361134B18
:104200008022DA60114BDB6803F48073002B09D045
:104210000F4BDB6943F001030D4AD3610B4B4FF4A5
:104220008072DA60094BDB6803F00203002B08D0D0
:10423000074BDB6943F02003054AD361034B02229D
:10424000DA6000BFBD465DF8047B7047003C024069
:10425000081B012080B489B000AF7860396000236A
:104260007B6100233B610023BB610023FB6159E1BB
:104270000122FB6902FA03F37B613B681B687A69E0
:1042800013403B613A697B699A4240F048813B6840
:104290005B6803F00303012B05D03B685B6803F008
:1042A0000303022B30D17B689B68BB61FB695B0019
:1042B000032202FA03F3DB43BA691340BB613B6894
:1042C000DA68FB695B0002FA03F3BA691343BB6166
:1042D0007B68BA699A607B685B68BB610122FB6995
:1042E00002FA03F3DB43BA691340BB613B685B68C6
:1042F0001B0903F00102FB6902FA03F3BA691343D5
:10430000BB617B68BA695A603B685B6803F0030372
:10431000032B17D07B68DB68BB61FB695B00032262
:1043200002FA03F3DB43BA691340BB613B689A6846
:10433000FB695B0002FA03F3BA691343BB617B6854
:10434000BA69DA603B685B6803F00303022B23D190
:10435000FB69DA087B68083253F82230BB61FB69DD
:1043600003F007039B000F2202FA03F3DB43BA6951
:104370001340BB613B681A69FB6903F007039B00AC
:1043800002FA03F3BA691343BB61FB69DA087B687D
:104390000832B96943F822107B681B68BB61FB696E
:1043A0005B00032202FA03F3DB43BA691340BB61EB
:1043B0003B685B6803F00302FB695B0002FA03F3EE
:1043C000BA691343BB617B68BA691A603B685B6872
:1043D00003F44033002B00F0A2800023FB60574B16
:1043E0005B6C564A43F480435364544B5B6C03F458
:1043F0008043FB60FB68524AFB699B08023352F81A
:104400002330BB61FB6903F003039B000F2202FA18
:1044100003F3DB43BA691340BB617B68494A9342AB
:1044200019D07B68484A934213D07B68474A93422D
:104430000DD07B68464A934207D07B68454A934239
:1044400001D1042308E0072306E0032304E002234C
:1044500002E0012300E00023FA6902F00302920067
:104460009340BA691343BB613549FB699B0802332A
:10447000BA6941F82320384B9B68BB613B69DB4339
:10448000BA691340BB613B685B6803F48013002B7F
:1044900003D0BA693B691343BB612F4ABB69936080
:1044A0002D4BDB68BB613B69DB43BA691340BB61E1
:1044B0003B685B6803F40013002B03D0BA693B69C7
:1044C0001343BB61244ABB69D360234B5B68BB6168
:1044D0003B69DB43BA691340BB613B685B6803F42B
:1044E0000033002B03D0BA693B691343BB611A4AFE
:1044F000BB695360184B1B68BB613B69DB43BA69FE
:104500001340BB613B685B6803F48033002B03D02E
:10451000BA693B691343BB610F4ABB691360FB690E
:104520000133FB61FB690F2B7FF6A2AE00BF00BF1A
:104530002437BD465DF8047B704700BF0038024059
:104540000038014000000240000402400008024020
:10455000000C024000100240003C014080B485B0D5
:1045600000AF78600B467B807B681A697B881340BC
:10457000002B02D00123FB7301E00023FB73FB7BC4
:1045800018461437BD465DF8047B704780B483B08D
:1045900000AF78600B467B8013467B707B78002BE6
:1045A00003D07A887B689A6103E07B881A047B6871
:1045B0009A6100BF0C37BD465DF8047B7047000070
:1045C00080B586B000AF78607B68002B01D10123F5
:1045D00067E27B681B6803F00103002B75D0884BF2
:1045E0009B6803F00C03042B0CD0854B9B6803F0F5
:1045F0000C03082B12D1824B5B6803F48003B3F5E4
:10460000800F0BD17E4B1B6803F40033002B5BD073
:104610007B685B68002B57D1012342E27B685B68B3
:10462000B3F5803F06D1764B1B68754A43F480335F
:1046300013601DE07B685B68B3F5A02F0CD1704B55
:104640001B686F4A43F4802313606D4B1B686C4AF0
:1046500043F4803313600BE0694B1B68684A23F412
:1046600080331360664B1B68654A23F48023136014
:104670007B685B68002B13D0FFF7E4FA386108E031
:10468000FFF7E0FA02463B69D31A642B01D90323F2
:1046900007E25B4B1B6803F40033002BF0D014E0FF
:1046A000FFF7D0FA386108E0FFF7CCFA02463B6921
:1046B000D31A642B01D90323F3E1514B1B6803F494
:1046C0000033002BF0D100E000BF7B681B6803F0D3
:1046D0000203002B63D04A4B9B6803F00C03002BB2
:1046E0000BD0474B9B6803F00C03082B1CD1444BA9
:1046F0005B6803F48003002B16D1414B1B6803F069
:104700000203002B05D07B68DB68012B01D001235D
:10471000C7E13B4B1B6823F0F8027B681B69DB0099
:10472000374913430B603AE07B68DB68002B20D0ED
:10473000344B01221A60FFF785FA386108E0FFF771
:1047400081FA02463B69D31A022B01D90323A8E15F
:104750002B4B1B6803F00203002BF0D0284B1B6887
:1047600023F0F8027B681B69DB00254913430B60CB
:1047700015E0244B00221A60FFF764FA386108E064
:10478000FFF760FA02463B69D31A022B01D90323D3
:1047900087E11B4B1B6803F00203002BF0D17B6801
:1047A0001B6803F00803002B36D07B685B69002B85
:1047B00016D0154B01221A60FFF744FA386108E061
:1047C000FFF740FA02463B69D31A022B01D90323B3
:1047D00067E10B4B5B6F03F00203002BF0D01BE093
:1047E000094B00221A60FFF72DFA38610EE0FFF73F
:1047F00029FA02463B69D31A022B07D9032350E159
:104800000038024000004742800E4742884B5B6FF1
:1048100003F00203002BEAD17B681B6803F004035A
:10482000002B00F097800023FB75814B1B6C03F07D
:104830008053002B0FD10023BB607D4B1B6C7C4A47
:1048400043F0805313647A4B1B6C03F08053BB60BE
:10485000BB680123FB75774B1B6803F48073002B47
:1048600018D1744B1B68734A43F480731360FFF7CD
:10487000E9F9386108E0FFF7E5F902463B69D31A28
:10488000022B01D903230CE16A4B1B6803F48073EC
:10489000002BF0D07B689B68012B06D1644B1B6F0B
:1048A000634A43F0010313671CE07B689B68052B98
:1048B0000CD15F4B1B6F5E4A43F0040313675C4BE4
:1048C0001B6F5B4A43F0010313670BE0584B1B6FF0
:1048D000574A23F001031367554B1B6F544A23F0CB
:1048E000040313677B689B68002B15D0FFF7AAF9B8
:1048F00038610AE0FFF7A6F902463B69D31A41F294
:104900008832934201D90323CBE0494B1B6F03F05C
:104910000203002BEED014E0FFF794F938610AE0AF
:10492000FFF790F902463B69D31A41F2883293426D
:1049300001D90323B5E03E4B1B6F03F00203002BAC
:10494000EED1FB7D012B05D1394B1B6C384A23F08E
:10495000805313647B689B69002B00F0A180344B6B
:104960009B6803F00C03082B5CD07B689B69022BCF
:1049700041D1314B00221A60FFF764F9386108E039
:10498000FFF760F902463B69D31A022B01D90323D2
:1049900087E0274B1B6803F00073002BF0D17B6886
:1049A000DA697B681B6A1A437B685B6A9B011A435E
:1049B0007B689B6A5B08013B1B041A437B68DB6ACC
:1049C0001B061B4913434B601B4B01221A60FFF768
:1049D00039F9386108E0FFF735F902463B69D31A27
:1049E000022B01D903235CE0114B1B6803F0007319
:1049F000002BF0D054E0104B00221A60FFF722F990
:104A0000386108E0FFF71EF902463B69D31A022B12
:104A100001D9032345E0064B1B6803F00073002B0C
:104A2000F0D13DE07B689B69012B07D1012338E081
:104A30000038024000700040600047421B4B5B683A
:104A4000FB607B689B69012B28D0FB6803F4800224
:104A50007B68DB699A4221D1FB6803F03F027B68E7
:104A60001B6A9A421AD1FA6847F6C07313407A68F3
:104A7000526A9201934211D1FB6803F440327B6881
:104A80009B6A5B08013B1B049A4207D1FB6803F059
:104A900070627B68DB6A1B069A4201D0012300E04A
:104AA000002318461837BD4680BD00BF00380240BD
:104AB00080B584B000AF786039607B68002B01D18D
:104AC0000123CCE0684B1B6803F007033A689A4265
:104AD0000CD9654B3A68D2B21A70634B1B6803F06D
:104AE00007033A689A4201D00123B8E07B681B684B
:104AF00003F00203002B20D07B681B6803F0040343
:104B0000002B05D0594B9B68584A43F4E0539360FF
:104B10007B681B6803F00803002B05D0534B9B6890
:104B2000524A43F460439360504B9B6823F0F00279
:104B30007B689B684D4913438B607B681B6803F05F
:104B40000103002B44D07B685B68012B07D1474BE6
:104B50001B6803F40033002B19D101237FE07B682D
:104B60005B68022B03D07B685B68032B07D13F4B4C
:104B70001B6803F00073002B09D101236FE03B4B4E
:104B80001B6803F00203002B01D1012367E0374BC0
:104B90009B6823F003027B685B68344913438B6096
:104BA000FFF750F8F8600AE0FFF74CF80246FB68A0
:104BB000D31A41F28832934201D903234FE02B4BA1
:104BC0009B6803F00C027B685B689B009A42EBD108
:104BD000254B1B6803F007033A689A420CD2224B1C
:104BE0003A68D2B21A70204B1B6803F007033A6888
:104BF0009A4201D0012332E07B681B6803F0040372
:104C0000002B08D0194B9B6823F4E0527B68DB68CB
:104C1000164913438B607B681B6803F00803002B65
:104C200009D0124B9B6823F460427B681B69DB0050
:104C30000E4913438B6000F021F802460B4B9B6832
:104C40001B0903F00F030A49CB5C22FA03F3094A5C
:104C50001360094B1B681846FEF7B0FF0023184687
:104C60001037BD4680BD00BF003C02400038024006
:104C7000A818012018190120301901202DE9B04F82
:104C800090B000AF00237B630023FB6300233B63F2
:104C90000023BB63594B9B6803F00C03082B0DD01A
:104CA000082B00F2A180002B02D0042B03D09BE044
:104CB000534BBB639BE0534BBB6398E04F4B5B682C
:104CC00003F03F037B634D4B5B6803F48003002BD1
:104CD00028D04A4B5B689B0900223B627A623B6AA0
:104CE000C3F308000021474B03FB01F2002300FB44
:104CF00003F31344434AA0FB0212FA620A46BA6263
:104D0000FA6A1344FB627B6B0022BB61FA61D7E94C
:104D10000623D7E90A01FBF7B3FA02460B4613460E
:104D2000FB6353E0354B5B689B0900223B617A6172
:104D30003B69C3F3080A4FF0000B52465B464FF045
:104D400000004FF00001590141EAD26150010246D2
:104D50000B46B2EB0A0863EB0B094FF000024FF071
:104D600000034FEA891343EA98634FEA8812B2EBD3
:104D7000080463EB09054FF000024FF00003EB005D
:104D800043EA5473E20014461D4614EB0A033B60E9
:104D900045EB0B037B604FF000024FF00003D7E9B7
:104DA000004529468B02214643EA915321468A0257
:104DB000104619467B6B0022BB60FA60D7E90223DC
:104DC000FBF75EFA02460B461346FB630B4B5B6830
:104DD0001B0C03F0030301335B003B63FA6B3B6B7B
:104DE000B2FBF3F3BB6302E0054BBB6300BFBB6BDD
:104DF00018464037BD46BDE8B08F00BF00380240BE
:104E00000024F40040787D0180B582B000AF786066
:104E10007B68002B01D101237BE07B685B6A002B60
:104E200008D17B685B68B3F5827F09D07B6800227C
:104E3000DA6105E07B6800221A617B6800225A6112
:104E40007B6800229A627B6893F85130DBB2002BBA
:104E500006D17B68002283F850207868FEF730FC8A
:104E60007B68022283F851207B681B681A687B6884
:104E70001B6822F040021A607B685B6803F4827250
:104E80007B689B6803F404431A437B68DB6803F484
:104E900000631A437B681B6903F002031A437B68B3
:104EA0005B6903F001031A437B689B6903F4007399
:104EB0001A437B68DB6903F038031A437B681B6A7B
:104EC00003F0800342EA03017B689B6A03F400520B
:104ED0007B681B680A431A607B689B691B0C03F0A4
:104EE00004017B685B6A03F010027B681B680A435D
:104EF0005A607B681B68DA697B681B6822F4006271
:104F0000DA617B6800225A657B68012283F85120B0
:104F1000002318460837BD4680BD80B588B000AF75
:104F2000F860B9603B601346FB800023FB77FB68A9
:104F300093F85030012B01D1022326E1FB680122B6
:104F400083F85020FEF77EFEB861FB88FB82FB6889
:104F500093F85130DBB2012B02D00223FB770BE137
:104F6000BB68002B02D0FB88002B02D10123FB770A
:104F700002E1FB68032283F85120FB6800225A6596
:104F8000FB68BA681A63FB68FA889A86FB68FA8835
:104F9000DA86FB6800229A63FB6800229A87FB6826
:104FA0000022DA87FB6800225A64FB6800221A6438
:104FB000FB689B68B3F5004F0FD1FB681B681A684C
:104FC000FB681B6822F040021A60FB681B681A68C5
:104FD000FB681B6842F480421A60FB681B681B6810
:104FE00003F04003402B07D0FB681B681A68FB687E
:104FF0001B6842F040021A60FB68DB68B3F5006F83
:105000004BD1FB685B68002B02D0FB8A012B3ED1A1
:10501000FB681B6B1A88FB681B68DA60FB681B6BFC
:105020009A1CFB681A63FB68DB8E9BB2013B9AB249
:10503000FB68DA862BE0FB681B689B6803F00203C1
:10504000022B12D1FB681B6B1A88FB681B68DA60A5
:10505000FB681B6B9A1CFB681A63FB68DB8E9BB2B8
:10506000013B9AB2FB68DA8611E0FEF7EBFD0246DF
:10507000BB69D31A3A689A4203D83B68B3F1FF3F41
:1050800002D13B68002B02D10323FB7774E0FB685D
:10509000DB8E9BB2002BCED14CE0FB685B68002B13
:1050A00002D0FB8A012B40D1FB681A6BFB681B689E
:1050B0000C3312781A70FB681B6B5A1CFB681A635E
:1050C000FB68DB8E9BB2013B9AB2FB68DA862CE070
:1050D000FB681B689B6803F00203022B13D1FB687B
:1050E0001A6BFB681B680C3312781A70FB681B6B19
:1050F0005A1CFB681A63FB68DB8E9BB2013B9AB2B9
:10510000FB68DA8611E0FEF79DFD0246BB69D31A03
:105110003A689A4203D83B68B3F1FF3F02D13B683B
:10512000002B02D10323FB7726E0FB68DB8E9BB2CA
:10513000002BCDD1BA693968F86800F055FA0346FA
:10514000002B02D0FB6820225A65FB689B68002B6D
:105150000AD100233B61FB681B68DB683B61FB688D
:105160001B689B683B613B69FB685B6D002B02D051
:105170000123FB7700E000BFFB68012283F8512088
:10518000FB68002283F85020FB7F18462037BD467D
:1051900080BD80B58CB000AFF860B9607A607B806C
:1051A0000123FB62002387F82B30FB6893F8503013
:1051B000012B01D102238AE1FB68012283F85020F0
:1051C000FEF740FD7862FB6893F8513087F8233092
:1051D000FB685B68FB617B887B8397F82330012B3E
:1051E0000FD0FB69B3F5827F07D1FB689B68002B6A
:1051F00003D197F82330042B03D0022387F82B30F8
:105200005BE1BB68002B05D07B68002B02D07B885C
:10521000002B03D1012387F82B304EE1FB6893F874
:105220005130DBB2042B03D0FB68052283F85120F8
:10523000FB6800225A65FB687A689A63FB687A8883
:10524000DA87FB687A889A87FB68BA681A63FB6812
:105250007A88DA86FB687A889A86FB6800221A6464
:10526000FB6800225A64FB681B681B6803F040035C
:10527000402B07D0FB681B681A68FB681B6842F06C
:1052800040021A60FB68DB68B3F5006F78D1FB68F9
:105290005B68002B02D07B8B012B66D1FB681B6BFC
:1052A0001A88FB681B68DA60FB681B6B9A1CFB683A
:1052B0001A63FB68DB8E9BB2013B9AB2FB68DA860D
:1052C00053E0FB681B689B6803F00203022B1BD1B1
:1052D000FB68DB8E9BB2002B16D0FB6A012B13D12F
:1052E000FB681B6B1A88FB681B68DA60FB681B6B2A
:1052F0009A1CFB681A63FB68DB8E9BB2013B9AB277
:10530000FB68DA860023FB62FB681B689B6803F07E
:105310000103012B19D1FB68DB8F9BB2002B14D04A
:10532000FB681B68DA68FB689B6B92B21A80FB68AB
:105330009B6B9A1CFB689A63FB68DB8F9BB2013BFB
:105340009AB2FB68DA870123FB62FEF77BFC024618
:105350007B6AD31ABA6B9A4207D8BB6BB3F1FF3F93
:1053600003D0032387F82B30A7E0FB68DB8E9BB2CA
:10537000002BA6D1FB68DB8F9BB2002BA1D17CE078
:10538000FB685B68002B02D07B8B012B6BD1FB6829
:105390001A6BFB681B680C3312781A70FB681B6B66
:1053A0005A1CFB681A63FB68DB8E9BB2013B9AB206
:1053B000FB68DA8657E0FB681B689B6803F0020312
:1053C000022B1CD1FB68DB8E9BB2002B17D0FB6A33
:1053D000012B14D1FB681A6BFB681B680C33127825
:1053E0001A70FB681B6B5A1CFB681A63FB68DB8E28
:1053F0009BB2013B9AB2FB68DA860023FB62FB6832
:105400001B689B6803F00103012B19D1FB68DB8F3C
:105410009BB2002B14D0FB681B68DA68FB689B6B9F
:10542000D2B21A70FB689B6B5A1CFB689A63FB68CC
:10543000DB8F9BB2013B9AB2FB68DA870123FB62E8
:10544000FEF700FC02467B6AD31ABA6B9A4203D875
:10545000BB6BB3F1FF3F02D1BB6B002B03D1032326
:1054600087F82B3029E0FB68DB8E9BB2002BA2D1A2
:10547000FB68DB8F9BB2002B9DD17A6AB96BF86811
:1054800000F0B2F80346002B06D0012387F82B303A
:10549000FB6820225A6510E0FB689B68002B0BD14B
:1054A00000237B61FB681B68DB687B61FB681B6812
:1054B0009B687B617B6900E000BFFB68012283F889
:1054C0005120FB68002283F8502097F82B301846B3
:1054D0003037BD4680BD000080B588B000AFF860B1
:1054E000B9603B601346FB71FEF7ACFB0246BB6A3A
:1054F0009B1A3A681344FB61FEF7A4FBB861394B71
:105500001B685B011B0DFA6902FB03F37B6154E02E
:105510003B68B3F1FF3F50D0FEF794FB0246BB69F6
:10552000D31AFA699A4202D9FB69002B3DD1FB6874
:105530001B685A68FB681B6822F0E0025A60FB682F
:105540005B68B3F5827F11D1FB689B68B3F5004FB0
:1055500004D0FB689B68B3F5806F07D1FB681B68BC
:105560001A68FB681B6822F040021A60FB689B6A9D
:10557000B3F5005F0FD1FB681B681A68FB681B68F6
:1055800022F400521A60FB681B681A68FB681B68EB
:1055900042F400521A60FB68012283F85120FB6834
:1055A000002283F85020032317E07B69002B01D1F0
:1055B0000023FB617B69013B7B61FB681B689A6888
:1055C000BB681340BA689A420CBF01230023DBB2C8
:1055D0001A46FB799A429BD1002318462037BD46D4
:1055E00080BD00BF1819012080B588B002AFF860F7
:1055F000B9607A601B4B1B681B4AA2FB03235B0D3F
:105600004FF47A7202FB03F37B61FB685B68B3F5CE
:10561000827F12D17B680093BB6800228021F868EA
:10562000FFF75AFF0346002B16D0FB685B6D43F073
:105630002002FB685A6503230FE07B69002B0AD028
:105640007B69013B7B61FB681B689B6803F08003FF
:10565000802BF2D000E000BF002318461837BD466B
:1056600080BD00BF18190120819F5E1680B485B0EF
:1056700000AF78607B6893F83D30DBB2012B01D03E
:1056800001233CE07B68022283F83D207B681B6895
:105690001E4A934218D07B681B68B3F1804F13D029
:1056A0007B681B681A4A93420ED07B681B68194AB4
:1056B000934209D07B681B68174A934204D07B68E9
:1056C0001B68164A934211D17B681B689B6803F0E4
:1056D0000703FB60FB68062B10D07B681B681A6809
:1056E0007B681B6842F001021A6007E07B681B6858
:1056F0001A687B681B6842F001021A600023184692
:105700001437BD465DF8047B704700BF00000140C0
:105710000004004000080040000C00400040014030
:1057200080B483B000AF78607B681B681A6A41F26E
:1057300011131340002B0FD17B681B681A6A40F2CB
:1057400044431340002B07D17B681B681A687B68B1
:105750001B6822F001021A607B68012283F83D2059
:10576000002318460C37BD465DF8047B704780B5B2
:1057700082B000AF78607B68002B01D1012341E04B
:105780007B6893F83D30DBB2002B06D17B680022AA
:1057900083F83C207868FEF711F87B68022283F8D2
:1057A0003D207B681A687B6804331946104600F078
:1057B000EDFC7B68012283F846207B68012283F898
:1057C0003E207B68012283F83F207B68012283F81A
:1057D00040207B68012283F841207B68012283F806
:1057E00042207B68012283F843207B68012283F8F2
:1057F00044207B68012283F845207B68012283F8DE
:105800003D20002318460837BD4680BD80B584B0D2
:1058100000AF786039603B68002B09D17B6893F852
:105820003E30DBB2012B14BF01230023DBB222E0A8
:105830003B68042B09D17B6893F83F30DBB2012B26
:1058400014BF01230023DBB215E03B68082B09D10C
:105850007B6893F84030DBB2012B14BF0123002397
:10586000DBB208E07B6893F84130DBB2012B14BF58
:1058700001230023DBB2002B01D0012368E03B6849
:10588000002B04D17B68022283F83E2013E03B68A2
:10589000042B04D17B68022283F83F200BE03B6895
:1058A000082B04D17B68022283F8402003E07B6848
:1058B000022283F841207B681B6801223968184660
:1058C00000F070FE7B681B68234A934207D17B6817
:1058D0001B685A6C7B681B6842F400425A647B6800
:1058E0001B681D4A934218D07B681B68B3F1804F38
:1058F00013D07B681B68194A93420ED07B681B68E3
:10590000174A934209D07B681B68164A934204D019
:105910007B681B68144A934211D17B681B689B68A3
:1059200003F00703FB60FB68062B10D07B681B6845
:105930001A687B681B6842F001021A6007E07B6806
:105940001B681A687B681B6842F001021A6000231A
:1059500018461037BD4680BD0000014000040040DD
:1059600000080040000C00400040014080B582B0BB
:1059700000AF786039607B681B6800223968184680
:1059800000F010FE7B681B68294A934217D17B68A0
:105990001B681A6A41F211131340002B0FD17B6868
:1059A0001B681A6A40F244431340002B07D17B68FE
:1059B0001B685A6C7B681B6822F400425A647B683F
:1059C0001B681A6A41F211131340002B0FD17B6838
:1059D0001B681A6A40F244431340002B07D17B68CE
:1059E0001B681A687B681B6822F001021A603B681A
:1059F000002B04D17B68012283F83E2013E03B6832
:105A0000042B04D17B68012283F83F200BE03B6824
:105A1000082B04D17B68012283F8402003E07B68D7
:105A2000012283F84120002318460837BD4680BD77
:105A30000000014080B584B000AF78603960002379
:105A4000FB733B68002B09D17B6893F83E30DBB2D7
:105A5000012B14BF01230023DBB222E03B68042B9F
:105A600009D17B6893F83F30DBB2012B14BF0123CF
:105A70000023DBB215E03B68082B09D17B6893F863
:105A80004030DBB2012B14BF01230023DBB208E05E
:105A90007B6893F84130DBB2012B14BF0123002354
:105AA000DBB2002B01D00123B3E03B68002B04D113
:105AB0007B68022283F83E2013E03B68042B04D16C
:105AC0007B68022283F83F200BE03B68082B04D15F
:105AD0007B68022283F8402003E07B68022283F87F
