:020000040800F2
:100000000000022089100108090601080F060108F6
:10001000150601081B060108210601080000000062
:10002000000000000000000000000000270601089A
:1000300035060108000000004306010851060108CA
:10004000D9100108D9100108D9100108D9100108E8
:10005000D9100108D9100108D9100108D9100108D8
:10006000D9100108D9100108D9100108D9100108C8
:10007000D9100108D9100108D9100108D9100108B8
:10008000D9100108D9100108D9100108000000009A
:10009000000000000000000000000000D91001086E
:1000A000D9100108D9100108D9100108D910010888
:1000B000D9100108D9100108D9100108D910010878
:1000C000D9100108D9100108D9100108D910010868
:1000D000D9100108D9100108D9100108000000004A
:1000E000D9100108D9100108D9100108000000003A
:1000F000000000000000000000000000D91001080E
:1001000000000000D910010811070108D9100108EA
:1001100000000000000000000000000000000000DF
:10012000D9100108D9100108D9100108D910010807
:10013000D9100108000000000000000000000000CD
:10014000000000000000000000000000D9100108BD
:10015000D9100108D9100108D9100108D9100108D7
:10016000D9100108D91001080000000000000000AB
:10017000000000000000000000000000000000007F
:1001800000000000D910010800000000000000007D
:08019000D9100108D910010883
:10C0000010B5054C237833B9044B13B10448AFF392
:10C0100000800123237010BD3C02002000000000BE
:10C020009070010808B5034B1BB103490348AFF3F7
:10C03000008008BD00000000400200209070010850
:10C04000034613F8012B002AFBD1181A0138704758
:10C0500001F0FF01102A2BDB10F0070F08D010F8B9
:10C06000013B013A8B422DD010F0070F42B3F6D1BD
:10C07000F0B441EA012141EA014122F007047FF0D6
:10C0800000070023F0E80256083C85EA010586EA2D
:10C09000010685FA47F5A3FA87F586FA47F6A5FA69
:10C0A00087F68EB9EED1F0BC01F0FF0102F0070275
:10C0B00032B110F8013B013A83EA010313B1F8D120
:10C0C0000020704701387047002D06BF3546033801
:10C0D000073815F0010F07D1013015F4807F02BF3A
:10C0E000013015F4C03F0130F0BC0138704700BF8B
:10C0F00081F0004102E000BF83F0004330B54FEA19
:10C1000041044FEA430594EA050F08BF90EA020F85
:10C110001FBF54EA000C55EA020C7FEA645C7FEA18
:10C12000655C00F0E2804FEA5454D4EB5555B8BF3B
:10C130006D420CDD2C4480EA020281EA030382EAAC
:10C14000000083EA010180EA020281EA0303362D3E
:10C1500088BF30BD11F0004F4FEA01314FF4801C11
:10C160004CEA113102D0404261EB410113F0004F23
:10C170004FEA03334CEA133302D0524263EB4303DA
:10C1800094EA050F00F0A780A4F10104D5F1200E78
:10C190000DDB02FA0EFC22FA05F2801841F10001D3
:10C1A00003FA0EF2801843FA05F359410EE0A5F1A7
:10C1B00020050EF1200E012A03FA0EFC28BF4CF0D8
:10C1C000020C43FA05F3C01851EBE37101F000458E
:10C1D00007D54FF0000EDCF1000C7EEB00006EEB9B
:10C1E0000101B1F5801F1BD3B1F5001F0CD3490825
:10C1F0005FEA30004FEA3C0C04F101044FEA44527C
:10C2000012F5800F80F09A80BCF1004F08BF5FEA02
:10C21000500C50F1000041EB045141EA050130BDE2
:10C220005FEA4C0C404141EB0101013C28BFB1F5F4
:10C23000801FE9D291F0000F04BF01460020B1FA3F
:10C2400081F308BF2033A3F10B03B3F120020CDA12
:10C250000C3208DD02F1140CC2F10C0201FA0CF0F0
:10C2600021FA02F10CE002F11402D8BFC2F1200C55
:10C2700001FA02F120FA0CFCDCBF41EA0C0190400B
:10C28000E41AA2BF01EB0451294330BD6FEA040454
:10C290001F3C1CDA0C340EDC04F11404C4F120023F
:10C2A00020FA04F001FA02F340EA030021FA04F351
:10C2B00045EA030130BDC4F10C04C4F1200220FAA8
:10C2C00002F001FA04F340EA0300294630BD21FAE6
:10C2D00004F0294630BD94F0000F83F4801306BFAC
:10C2E00081F480110134013D4EE77FEA645C18BFA0
:10C2F0007FEA655C29D094EA050F08BF90EA020F37
:10C3000005D054EA000C04BF1946104630BD91EA2E
:10C31000030F1EBF0021002030BD5FEA545C05D131
:10C320004000494128BF41F0004130BD14F5800470
:10C330003CBF01F5801130BD01F0004545F0FE41E4
:10C3400041F470014FF0000030BD7FEA645C1ABF19
:10C35000194610467FEA655C1CBF0B46024650EA50
:10C36000013406BF52EA033591EA030F41F400217C
:10C3700030BD00BF90F0000F04BF0021704730B502
:10C380004FF4806404F132044FF000054FF00001D7
:10C3900050E700BF90F0000F04BF0021704730B598
:10C3A0004FF4806404F1320410F0004548BF40426D
:10C3B0004FF000013EE700BF42004FEAE2014FEAC2
:10C3C00031014FEA02701FBF12F07F4393F07F4F9D
:10C3D00081F06051704732F07F4208BF704793F0A0
:10C3E0007F4F04BF41F40021704730B54FF46074B3
:10C3F00001F0004521F000411CE700BF50EA0102B6
:10C4000008BF704730B54FF000050AE050EA01025E
:10C4100008BF704730B511F0004502D5404261EBCE
:10C4200041014FF4806404F132045FEA915C3FF40F
:10C43000D8AE4FF003025FEADC0C18BF03325FEAAC
:10C44000DC0C18BF033202EBDC02C2F1200300FA5D
:10C4500003FC20FA02F001FA03FE40EA0E0021FA82
:10C4600002F11444BDE600BF70B54FF0FF0C4CF470
:10C47000E06C1CEA11541DBF1CEA135594EA0C0F22
:10C4800095EA0C0F00F0DEF82C4481EA030621EA5D
:10C490004C5123EA4C5350EA013518BF52EA033598
:10C4A00041F4801143F4801338D0A0FB02CE4FF04A
:10C4B0000005E1FB02E506F00042E0FB03E54FF07A
:10C4C0000006E1FB03569CF0000F18BF4EF0010E72
:10C4D000A4F1FF04B6F5007F64F5407404D25FEA6E
:10C4E0004E0E6D4146EB060642EAC62141EA555121
:10C4F0004FEAC52040EA5E504FEACE2EB4F1FD0C63
:10C5000088BFBCF5E06F1ED8BEF1004F08BF5FEAE0
:10C51000500E50F1000041EB045170BD06F0004692
:10C5200046EA010140EA020081EA0301B4EB5C043F
:10C53000C2BFD4EB0C0541EA045170BD41F4801137
:10C540004FF0000E013C00F3AB8014F1360FDEBF5C
:10C55000002001F0004170BDC4F10004203C35DA38
:10C560000C341BDC04F11404C4F1200500FA05F3BB
:10C5700020FA04F001FA05F240EA020001F000425C
:10C5800021F0004110EBD37021FA04F642EB0601D2
:10C590005EEA430E08BF20EAD37070BDC4F10C04FC
:10C5A000C4F1200500FA04F320FA05F001FA04F2C0
:10C5B00040EA020001F0004110EBD37041F10001AC
:10C5C0005EEA430E08BF20EAD37070BDC4F12005B7
:10C5D00000FA05F24EEA020E20FA04F301FA05F21F
:10C5E00043EA020321FA04F001F0004121FA04F2C7
:10C5F00020EA020000EBD3705EEA430E08BF20EA97
:10C60000D37070BD94F0000F0FD101F000464000D0
:10C6100041EB010111F4801F08BF013CF7D041EA52
:10C62000060195F0000F18BF704703F00046520056
:10C6300043EB030313F4801F08BF013DF7D043EA27
:10C640000603704794EA0C0F0CEA135518BF95EADD
:10C650000C0F0CD050EA410618BF52EA4306D1D164
:10C6600081EA030101F000414FF0000070BD50EA83
:10C67000410606BF1046194652EA430619D094EA0D
:10C680000C0F02D150EA013613D195EA0C0F05D1F7
:10C6900052EA03361CBF104619460AD181EA03014B
:10C6A00001F0004141F0FE4141F470014FF0000003
:10C6B00070BD41F0FE4141F4780170BD70B54FF09E
:10C6C000FF0C4CF4E06C1CEA11541DBF1CEA13551E
:10C6D00094EA0C0F95EA0C0F00F0A7F8A4EB050400
:10C6E00081EA030E52EA03354FEA013100F08880F7
:10C6F0004FEA03334FF0805545EA131343EA1263C0
:10C700004FEA022245EA111545EA10654FEA002674
:10C710000EF000419D4208BF964244F1FD0404F52D
:10C72000407402D25B084FEA3202B61A65EB030589
:10C730005B084FEA32024FF480104FF4002CB6EB46
:10C74000020E75EB030E22BFB61A754640EA0C00C6
:10C750005B084FEA3202B6EB020E75EB030E22BF06
:10C76000B61A754640EA5C005B084FEA3202B6EB47
:10C77000020E75EB030E22BFB61A754640EA9C0006
:10C780005B084FEA3202B6EB020E75EB030E22BFD6
:10C79000B61A754640EADC0055EA060E18D04FEA94
:10C7A000051545EA16754FEA06164FEAC30343EA34
:10C7B00052734FEAC2025FEA1C1CC0D111F4801F01
:10C7C0000BD141EA00014FF000004FF0004CB6E7FA
:10C7D00011F4801F04BF01430020B4F1FD0C88BF99
:10C7E000BCF5E06F3FF6AFAEB5EB030C04BFB6EBA4
:10C7F000020C5FEA500C50F1000041EB045170BD97
:10C800000EF0004E4EEA113114EB5C04C2BFD4EBC3
:10C810000C0541EA045170BD41F480114FF0000E47
:10C82000013C90E645EA060E8DE60CEA135594EAC3
:10C830000C0F08BF95EA0C0F3FF43BAF94EA0C0FC6
:10C840000AD150EA01347FF434AF95EA0C0F7FF43B
:10C8500025AF104619462CE795EA0C0F06D152EA8F
:10C8600003353FF4FDAE1046194622E750EA410673
:10C8700018BF52EA43067FF4C5AE50EA41047FF484
:10C880000DAF52EA43057FF4EBAE12E74FF0FF3CE9
:10C8900006E000BF4FF0010C02E000BF4FF0010CBA
:10C8A0004DF804CD4FEA410C7FEA6C5C4FEA430C33
:10C8B00018BF7FEA6C5C1BD001B050EA410C0CBF82
:10C8C00052EA430C91EA030F02BF90EA020F0020E4
:10C8D000704710F1000F91EA030F58BF994208BF4B
:10C8E00090422CBFD8176FEAE37040F00100704708
:10C8F0004FEA410C7FEA6C5C02D150EA013C07D15F
:10C900004FEA430C7FEA6C5CD6D152EA033CD3D0A9
:10C910005DF8040B704700BF8446104662468C46A3
:10C920001946634600E000BF01B5FFF7B7FF0028D6
:10C9300048BF10F1000F01BD4DF808EDFFF7F4FFFF
:10C940000CBF012000205DF808FB00BF4DF808ED8A
:10C95000FFF7EAFF34BF012000205DF808FB00BFAD
:10C960004DF808EDFFF7E0FF94BF012000205DF8CF
:10C9700008FB00BF4DF808EDFFF7CEFF94BF012084
:10C9800000205DF808FB00BF4DF808EDFFF7C4FF7D
:10C9900034BF012000205DF808FB00BF4FEA410CC6
:10C9A0007FEA6C5C02D150EA013C0AD14FEA430CA9
:10C9B0007FEA6C5C02D152EA033C02D14FF00000E6
:10C9C00070474FF0010070474FEA410212F5001224
:10C9D00015D211D56FF47873B3EB625212D94FEAC6
:10C9E000C12343F0004343EA505311F0004F23FAB0
:10C9F00002F018BF404270474FF00000704750EA05
:10CA0000013005D111F0004008BF6FF000407047C1
:10CA10004FF00000704700BF4FEA4102B2F1E0431F
:10CA200024BFB3F5001CDCF1FE5C0DD901F0004C15
:10CA30004FEAC0024CEA5070B2F1004F40EB830065
:10CA400008BF20F00100704711F0804F21D113F191
:10CA50003872BCBF01F00040704741F480114FEACA
:10CA60005252C2F11802C2F1200C10FA0CF320FA53
:10CA700002F018BF40F001004FEAC1234FEAD32370
:10CA800003FA0CFC40EA0C0023FA02F34FEA4303DA
:10CA9000CCE77FEA625307D150EA01331EBF4FF063
:10CAA000FE4040F44000704701F0004040F0FE407E
:10CAB00040F40000704700BF53B94AB9002908BFCD
:10CAC00000281CBF4FF0FF314FF0FF3000F074B969
:10CAD000ADF1080C6DE904CE00F006F8DDF804E0D5
:10CAE000DDE9022304B070472DE9F047089D0446B4
:10CAF0008E46002B4DD18A42944669D9B2FA82F211
:10CB000052B101FA02F3C2F1200120FA01F10CFA4C
:10CB100002FC41EA030E94404FEA1C48210CBEFB84
:10CB2000F8F61FFA8CF708FB16E341EA034306FB0D
:10CB300007F199420AD91CEB030306F1FF3080F09C
:10CB40001F81994240F21C81023E63445B1AA4B2E9
:10CB5000B3FBF8F008FB103344EA034400FB07F78B
:10CB6000A7420AD91CEB040400F1FF3380F00A81CC
:10CB7000A74240F207816444023840EA0640E41BC1
:10CB800000261DB1D4400023C5E900433146BDE86D
:10CB9000F0878B4209D9002D00F0EF800026C5E90F
:10CBA000000130463146BDE8F087B3FA83F6002E27
:10CBB0004AD18B4202D3824200F2F980841A61EB9F
:10CBC000030301209E46002DE0D0C5E9004EDDE7BD
:10CBD00002B9FFDEB2FA82F2002A40F09280A1EBA5
:10CBE0000C014FEA1C471FFA8CFE0126200CB1FBFA
:10CBF000F7F307FB131140EA01410EFB03F08842F3
:10CC000008D91CEB010103F1FF3802D2884200F27F
:10CC1000CB804346091AA4B2B1FBF7F007FB101111
:10CC200044EA01440EFB00FEA64508D91CEB0404AF
:10CC300000F1FF3102D2A64500F2BB800846A4EB0A
:10CC40000E0440EA03409CE7C6F12007B34022FAF5
:10CC500007FC4CEA030C20FA07F401FA06F31C4324
:10CC6000F9404FEA1C4900FA06F3B1FBF9F8200C31
:10CC70001FFA8CFE09FB181140EA014108FB0EF077
:10CC8000884202FA06F20BD91CEB010108F1FF3AC7
:10CC900080F08880884240F28580A8F102086144D3
:10CCA000091AA4B2B1FBF9F009FB101144EA0141E1
:10CCB00000FB0EFE8E4508D91CEB010100F1FF348C
:10CCC0006CD28E456AD90238614440EA0840A0FB24
:10CCD0000294A1EB0E01A142C846A64656D353D0FA
:10CCE0005DB1B3EB080261EB0E0101FA07F722FA1E
:10CCF00006F3F1401F43C5E9007100263146BDE847
:10CD0000F087C2F12003D8400CFA02FC21FA03F3A9
:10CD1000914001434FEA1C471FFA8CFEB3FBF7F02A
:10CD200007FB10360B0C43EA064300FB0EF69E424F
:10CD300004FA02F408D91CEB030300F1FF382FD2E8
:10CD40009E422DD9023863449B1B89B2B3FBF7F690
:10CD500007FB163341EA034106FB0EF38B4208D969
:10CD60001CEB010106F1FF3816D28B4214D9023EAA
:10CD70006144C91A46EA004638E72E46284605E7C8
:10CD80000646E3E61846F8E64B45A9D2B9EB020899
:10CD900064EB0C0E0138A3E74646EAE7204694E729
:10CDA0004046D1E7D0467BE7023B614432E730465C
:10CDB00009E76444023842E7704700BF80B483B09B
:10CDC00000AF78600B467B8010E07B681A78104BD0
:10CDD000DA6000BF0E4B9B6803F00203002BF9D012
:10CDE0007B6801337B607B88013B7B807B88002BE9
:10CDF000EBD100BF064B9B6803F08003002BF9D1F9
:10CE000000BF00BF0C37BD465DF8047B704700BF14
:10CE10000030014080B400AF054B9B69044A43F4E5
:10CE20008023936100BFBD465DF8047B704700BF5F
:10CE30000004024080B400AF054B9B69044A43F0F4
:10CE40000403936100BFBD465DF8047B704700BFDB
:10CE50000004024080B500AF00220221064805F020
:10CE600077FC052004F0ACF901220221024805F00C
:10CE70006FFC00BF80BD00BF0004024080B582B0DF
:10CE800000AF0346FB71074B9B69064A43F48033AE
:10CE90009361FB1D01211846FFF790FF00BF083783
:10CEA000BD4680BD0004024080B584B000AF78600C
:10CEB0003960114B9B69104A43F00103936113E001
:10CEC0003B68B3F5004F28BF4FF40043FB81FB895B
:10CED00019467868FFF772FFFB897A6813447B6014
:10CEE000FB893A68D31A3B603B68002BE8D100BF4E
:10CEF00000BF1037BD4680BD0004024090B585B02C
:10CF000000AF0446084611461A462346FB800346F6
:10CF1000BB800B467B8013463B802A20FFF7AEFF89
:10CF2000FB881B0A9BB2DBB23B73FB88DBB27B73D3
:10CF30007B881B0A9BB2DBB2BB737B88DBB2FB73C3
:10CF400007F10C0304211846FFF7AEFF2B20FFF773
:10CF500095FFBB881B0A9BB2DBB23B72BB88DBB27E
:10CF60007B723B881B0A9BB2DBB2BB723B88DBB295
:10CF7000FB7207F1080304211846FFF795FF2C20E8
:10CF8000FFF77CFF00BF1437BD4690BD90B59BB046
:10CF900000AF01224FF480518F4805F0D9FBFFF715
:10CFA00039FFFFF757FF0120FFF768FF4FF47A7052
:10CFB00004F006F9CB20FFF761FF884A07F1600310
:10CFC00092E8030018600433197007F1600305212B
:10CFD0001846FFF769FFCF20FFF750FF804A07F19F
:10CFE0005C031268114619800233120C1A7007F1A3
:10CFF0005C0303211846FFF757FFE820FFF73EFFC9
:10D00000784A07F158031268114619800233120C4E
:10D010001A7007F1580303211846FFF745FFEA206D
:10D02000FFF72CFF0023A7F8543007F15403022127
:10D030001846FFF739FFED20FFF720FF6A4B3B65ED
:10D0400007F1500304211846FFF72EFFF720FFF7E2
:10D0500015FF202387F84C3007F14C0301211846B7
:10D06000FFF722FFC020FFF709FF232387F848308E
:10D0700007F1480301211846FFF716FFC120FFF70B
:10D08000FDFE102387F8443007F1440301211846C0
:10D09000FFF70AFFC520FFF7F1FE42F63E03A7F8AF
:10D0A000403007F1400302211846FFF7FDFEC7207C
:10D0B000FFF7E4FE862387F83C3007F13C030121AB
:10D0C0001846FFF7F1FE3620FFF7D8FE482387F811
:10D0D000383007F1380301211846FFF7E5FE3A2002
:10D0E000FFF7CCFE552387F8343007F134030121D4
:10D0F0001846FFF7D9FEB120FFF7C0FE4FF4C0532A
:10D100003B8607F1300302211846FFF7CDFEB6201B
:10D11000FFF7B4FE354A07F12C0312681146198057
:10D120000233120C1A7007F12C0303211846FFF783
:10D13000BBFEF220FFF7A2FE002387F8283007F19C
:10D14000280301211846FFF7AFFE2620FFF796FEC1
:10D15000012387F8243007F1240301211846FFF743
:10D16000A3FEE020FFF78AFE214B07F114040FCB4A
:10D1700007C4238002341B0C237007F114030F2112
:10D180001846FFF791FEE120FFF778FE194B3C1D92
:10D190000FCB07C4238002341B0C23703B1D0F21CF
:10D1A0001846FFF781FE1120FFF768FE782004F093
:10D1B00007F82920FFF762FE3620FFF75FFE2823DD
:10D1C0003B703B4601211846FFF76EFEFFF732FE2B
:10D1D00000BF6C37BD4690BD00040240A870010836
:10D1E000B0700108B470010864031281B8700108BE
:10D1F000BC700108CC70010880B584B000AF034654
:10D20000FB800B46BB8013467B80FB88B3F5A07F79
:10D210001FD2BB88EF2B1CD8FFF7FCFDFB88013326
:10D220009AB2BB8801339BB2B988F888FFF766FED3
:10D230007B881B0A9BB2DBB23B737B88DBB27B73C0
:10D2400007F10C0302211846FFF72EFEFFF7F2FD4F
:10D2500000E000BF1037BD4680BD000090B585B02E
:10D2600000AF0446084611461A462346FB80034693
:10D27000BB800B467B8013463B80FB88B3F5A07FC9
:10D2800050D2BB88EF2B4DD8FA887B881344B3F576
:10D29000A07F03DDFB88C3F5A0737B80BA883B8841
:10D2A0001344F02B03DDBB88C3F1F0033B80FFF791
:10D2B000B1FDFA887B8813449BB2013B9CB2BA88CB
:10D2C0003B8813449BB2013B9BB2B988F888224645
:10D2D000FFF714FE3B8C1B0A9BB2DBB23B733B8C0B
:10D2E000DBB27B7301220121104805F031FA3B8843
:10D2F000BB8011E07B88FB8008E007F10C03022172
:10D300001846FFF75BFDFB88013BFB80FB88002B89
:10D31000F3D1BB88013BBB80BB88002BEAD1FFF770
:10D3200089FD00E000BF1437BD4690BD00040240F7
:10D3300080B584B002AF0346FB80FB880093F023E6
:10D340004FF4A07200210020FFF788FF00BF0837CC
:10D35000BD4680BD90B589B000AF04460846114671
:10D360001A462346FB800346BB800B46FB701346E0
:10D370003B80FB78203B714ADB0013445B689A8852
:10D38000FB8813449BB2013B9CB2FB78203B6B4A69
:10D39000DB0013445B68DA88BB8813449BB2013B13
:10D3A0009BB2B988F8882246FFF7A8FD01237B834A
:10D3B00080237B61FB78203B604ADB0013445B6881
:10D3C0009B88082B04D902237B834FF400437B61A5
:10D3D000FB78203B594ADB0013445B689B88102B89
:10D3E00004D903237B834FF400037B61FB78203B4C
:10D3F000524ADB0013445B689B88182B04D9042332
:10D400007B834FF000437B610023FB8381E0FB784B
:10D41000203B4A4ADB0013445B681A68FB8B1344C9
:10D420001B783B617B8B012B11D93B691B023B6154
:10D43000FB78203B414ADB0013445B681A68FB8B96
:10D44000013313441B781A463B6913433B617B8BC2
:10D45000022B11D93B691B023B61FB78203B374A09
:10D46000DB0013445B681A68FB8B023313441B78A0
:10D470001A463B6913433B617B8B032B11D93B69F4
:10D480001B023B61FB78203B2C4ADB0013445B68AA
:10D490001A68FB8B033313441B781A463B6913430A
:10D4A0003B610023BB8326E0BB8B3A699A407B69D2
:10D4B0001340002B0ED03B881B0A9BB2DBB23B73A0
:10D4C0003B88DBB27B7307F10C0302211846FFF7A0
:10D4D000EBFC0DE03B8E1B0A9BB2DBB23B723B8E3A
:10D4E000DBB27B7207F1080302211846FFF7DCFC70
:10D4F000BB8B0133BB83FB78203B104ADB0013441A
:10D500005B689B88BA8B9A42CED3FA8B7B8B134491
:10D51000FB83FA8BFB78203B0849DB000B445B68FC
:10D52000DB8819467B8B01FB03F39A42FFF66FAF52
:10D5300000BF00BF2437BD4690BD00BF7007020882
:10D5400090B587B002AFBA601A460346FB810B461E
:10D55000BB811346FB80FFF75DFC45E0FA89BB68A1
:10D560001B78203B2649DB000B445B689B881344F7
:10D57000B3F5A07F20DB0023FB81BB681B78203B39
:10D580001F4ADB0013445B68DA88BB891344BB8104
:10D59000BA89BB681B78203B1949DB000B445B68E8
:10D5A000DB881344EF2B24DCBB681B78202B03D1D2
:10D5B000BB680133BB6017E0BB681A78FC88B98987
:10D5C000F8893B8C00932346FFF7C4FEBB681B78A9
:10D5D000203B0B4ADB0013445B689A88FB891344A9
:10D5E000FB81BB680133BB60BB681B78002BB5D1E6
:10D5F00000E000BFFFF71EFC00BF1437BD4690BD22
:10D600007007020882B090B589B000AF7B63034613
:10D61000FB800B46BB801346FB7097F834309AB200
:10D62000FB8813449BB2013B9CB297F835309AB209
:10D63000BB8813449BB2013B9BB2B988F888224651
:10D64000FFF75CFC0023FB6143E0BA6BFB78203BF7
:10D6500097F8351001FB03F31946FB690B445B0097
:10D6600013441B887B610023BB6129E07A69BB6995
:10D6700002FA03F303F40043002B0ED0BB8F1B0A06
:10D680009BB2DBB23B74BB8FDBB27B7407F1100340
:10D6900002211846FFF708FC0FE0B7F840301B0ADC
:10D6A0009BB2DBB23B73B7F84030DBB27B7307F160
:10D6B0000C0302211846FFF7F7FBBB690133BB617E
:10D6C00097F834301A46BB699342CFD3FB690133D4
:10D6D000FB6197F835301A46FB699342B5D300BF1A
:10D6E00000BF2437BD46BDE8904002B0704782B00D
:10D6F00080B586B004AF3A607B610346FB800B4681
:10D70000BB80FFF787FB2EE0FB883A7D1344B3F51F
:10D71000A07F13DB0023FB807B7D9AB2BB88134480
:10D72000BB80BB887A7D1344EF2B21DC3B681B78E0
:10D73000202B03D13B6801333B6014E03B681A782F
:10D74000B988F8883B8C0293BB8B0193BB6900932B
:10D750007B69FFF757FF3B7D9AB2FB881344FB8040
:10D760003B6801333B603B681B78002BCCD100E069
:10D7700000BFFFF75FFB00BF0837BD46BDE8804034
:10D7800002B0704790B583B000AF0446084611461A
:10D790001A462346FB800346BB800B467B8013461C
:10D7A0003B80FB88B3F5A07F2CD2BB88EF2B29D818
:10D7B000FA887B881344B3F5A07F25DCBA883B88C0
:10D7C0001344F02B22DCFFF725FBFA887B881344F7
:10D7D0009BB2013B9CB2BA883B8813449BB2013B8D
:10D7E0009BB2B988F8882246FFF788FB7B883A8885
:10D7F00002FB03F35B001946B869FFF755FBFFF71F
:10D8000019FB04E000BF02E000BF00E000BF0C37DE
:10D81000BD4690BD90B58BB000AF0446084611469A
:10D820001A462346FB800346BB800B467B8013468B
:10D830003B80FB88B3F5A07F79D2BB88EF2B76D8ED
:10D84000FB8F1BB20821184602F0E3FC0346FB8263
:10D85000BB8FFA8A12FB03F3BB82FFF7DBFABA8FA6
:10D86000FB8813449BB2013B9CB2FA8FBB881344E4
:10D870009BB2013B9BB2B988F8882246FFF73EFB7A
:10D8800000233B624CE0BB8FFB840023FB613FE045
:10D89000BB6B396AFA690A4413441B787B82002304
:10D8A000BB612DE0FB8C002B2ED0FB8C013BFB845D
:10D8B0007A8ABB6902FA03F303F08003002B0ED0CF
:10D8C0007B881B0A9BB2DBB23B747B88DBB27B7428
:10D8D00007F1100302211846FFF7E6FA0DE03B8836
:10D8E0001B0A9BB2DBB23B733B88DBB27B7307F155
:10D8F0000C0302211846FFF7D7FABB690133BB615D
:10D90000BB69072BCEDD00E000BFFB690133FB6183
:10D91000FB8AFA699A42BBDBFB8A3A6A13443B6290
:10D92000BB8A3A6A9A42AEDBFFF784FA00E000BF96
:10D930002C37BD4690BD90B585B002AF0446084671
:10D9400011461A462346FB800346BB800B467B806C
:10D9500013463B80FFF75EFAF888B9887A883B88DF
:10D96000009313460122FFF779FCFFF763FA00BF2B
:10D970000C37BD4690BD90B585B002AF0446084651
:10D9800011461A462346FB800346BB800B467B802C
:10D9900013463B80FFF73EFAF888B9887A883B88BF
:10D9A00000930123FFF75AFCFFF744FA00BF0C373E
:10D9B000BD4690BD90B583B000AF04460846114601
:10D9C0001A462346FB800346BB800B467B801346EA
:10D9D0003B803B8BB7F90220B7F90410B7F906007A
:10D9E000FFF7C9FFBA883B8813449BB2013B9BB247
:10D9F00019B23B8BB7F90220B7F90600FFF7BBFF5E
:10DA00003B8BB7F90020B7F90410B7F90600FFF710
:10DA100092FFFA887B8813449BB2013B9BB218B2F9
:10DA20003B8BB7F90020B7F90410FFF784FF00BF64
:10DA30000C37BD4690BD90B587B000AF0446084690
:10DA400011461A462346FB800346BB800B467B806B
:10DA500013467B707B88C3F101039BB2FB820123D9
:10DA6000BB827B881A46D203D31A5B009BB27B82AF
:10DA700000233B827B88FB8195E0B7F91630002BB1
:10DA80000EDBB7F90E309BB2013B9BB2FB817B8A68
:10DA900002339BB27B82FA8A7B8A13449BB2FB825D
:10DAA000B7F910309BB201339BB23B82BB8A023381
:10DAB0009BB2BB82FA8ABB8A13449BB2FB827B78FF
:10DAC00003F00403002B17D0FA883B8A134498B262
:10DAD000BA88FB8913449BB23A8D1946FFF78CFB39
:10DAE000FA88FB89134498B2BA883B8A13449BB2E4
:10DAF0003A8D1946FFF780FB7B7803F00203002B79
:10DB000017D0FA883B8A134498B2BA88FB89D31A93
:10DB10009BB23A8D1946FFF76FFBFA88FB891344D5
:10DB200098B2BA883B8AD31A9BB23A8D1946FFF74E
:10DB300063FB7B7803F00803002B17D0FA88FB897E
:10DB4000D31A98B2BA883B8A13449BB23A8D1946CD
:10DB5000FFF752FBFA883B8AD31A98B2BA88FB893E
:10DB600013449BB23A8D1946FFF746FB7B7803F0CE
:10DB70000103002B17D0FA88FB89D31A98B2BA8810
:10DB80003B8AD31A9BB23A8D1946FFF735FBFA88C8
:10DB90003B8AD31A98B2BA88FB89D31A9BB23A8DC2
:10DBA0001946FFF729FBB7F91020B7F90E309A4252
:10DBB000FFF663AF00BF00BF1C37BD4690BD90B5F8
:10DBC00087B000AF0446084611461A462346FB803C
:10DBD0000346BB800B467B8013467B707B88C3F17A
:10DBE00001039BB2FB820123BB827B881A46D203CE
:10DBF000D31A5B009BB27B8200233B827B88FB8134
:10DC00003B8ABB81FB897B81B7F928309BB201330A
:10DC10009BB23B8595E0B7F91630002B0EDBB7F9C8
:10DC20000E309BB2013B9BB2FB817B8A02339BB2DD
:10DC30007B82FA8A7B8A13449BB2FB82B7F910304D
:10DC40009BB201339BB23B82BB8A02339BB2BB8245
:10DC5000FA8ABB8A13449BB2FB82B7F90E20B7F94C
:10DC600010309A4231DB7B7803F00103002B13D094
:10DC7000FA883B8A13449BB218B2BA88FB89D31A3C
:10DC80009BB219B2FB895B009AB23B8D13449BB2E5
:10DC90001AB2BB8DFFF74FFE7B7803F00203002B17
:10DCA00013D0FA883B8AD31A9BB218B2BA88FB8980
:10DCB000D31A9BB219B2FB895B009AB23B8D134415
:10DCC0009BB21AB2BB8DFFF736FEB7F90E20B7F93B
:10DCD0000A309A4233D07B7803F00103002B13D033
:10DCE000FA887B8913449BB218B2BA88BB89D31ACD
:10DCF0009BB219B2BB895B009AB23B8D13449BB2B5
:10DD00001AB2BB8DFFF717FE7B7803F00203002BDE
:10DD100013D0FA887B89D31A9BB218B2BA88BB8910
:10DD2000D31A9BB219B2BB895B009AB23B8D1344E4
:10DD30009BB21AB2BB8DFFF7FEFDFB897B813B8A4C
:10DD4000BB81B7F91020B7F90E309A42FFF663AFE6
:10DD500000BF00BF1C37BD4690BD90B587B002AF75
:10DD60000446084611461A462346FB800346BB80FC
:10DD70000B467B8013463B800023FB81B7F90220D2
:10DD8000B7F900309A4206DAB7F90230DA0F1344D5
:10DD90005B10FB8105E0B7F90030DA0F13445B102C
:10DDA000FB81B7F92020B7F90E309A4201DDFB89DB
:10DDB0003B84FFF72FF8FA883B8C13449BB218B2D0
:10DDC0007A883B8C5B009BB2D31A9BB21AB2BB8C95
:10DDD000B7F90410FFF7CFFDFA883B8C13449BB2D0
:10DDE00018B2BA883B8813449BB2013B9BB219B26C
:10DDF0007A883B8C5B009BB2D31A9BB21AB2BB8C65
:10DE0000FFF7B9FDBA883B8C13449BB219B23A882C
:10DE10003B8C5B009BB2D31A9BB21AB2BB8CB7F996
:10DE20000600FFF788FDFA887B8813449BB2013B0C
:10DE30009BB218B2BA883B8C13449BB219B23A8891
:10DE40003B8C5B009BB2D31A9BB21AB2BB8CFFF720
:10DE500072FDFA883B8C13449BB218B2BA883B8C93
:10DE600013449BB219B2B7F92020BB8C0093012355
:10DE7000FFF7E1FDFA887B8813449AB23B8CD31AF2
:10DE80009BB2013B9BB218B2BA883B8C13449BB245
:10DE900019B2B7F92020BB8C00930223FFF7CBFD0A
:10DEA000FA887B8813449AB23B8CD31A9BB2013B0D
:10DEB0009BB218B2BA883B8813449AB23B8CD31AEF
:10DEC0009BB2013B9BB219B2B7F92020BB8C0093E7
:10DED0000423FFF7B0FDFA883B8C13449BB218B2C1
:10DEE000BA883B8813449AB23B8CD31A9BB2013B4D
:10DEF0009BB219B2B7F92020BB8C00930823FFF71F
:10DF00009AFDFEF797FF00BF1437BD4690BD90B550
:10DF100087B002AF0446084611461A462346FB80E6
:10DF20000346BB800B467B8013463B80B7F9243009
:10DF3000002B44DD0023FB603BE0FB68002B10D18D
:10DF4000B7F90040B7F90220B7F90410B7F9060095
:10DF50003B8D0193B7F9203000932346FFF7FDFE78
:10DF600024E0FB689AB2FB8813449BB218B2FB68AA
:10DF70009AB2BB8813449BB219B27A88FB689BB2F1
:10DF80005B009BB2D31A9BB21CB23A88FB689BB26F
:10DF90005B009BB2D31A9BB21AB23B8D0193B7F9C7
:10DFA0002030009313462246FFF7D7FEFB6801336B
:10DFB000FB60B7F92430FA689A42BEDB00E000BF8C
:10DFC0001437BD4690BD90B585B000AF04460846F5
:10DFD00011461A462346FB800346BB800B467B80D6
:10DFE00013463B80FB88FB810EE03B8CB7F9002099
:10DFF000B7F90410B7F90E00FFF79DFCB7F90E3022
:10E000009BB201339BB2FB81B7F90E20B7F9061022
:10E01000B7F902300B449A42E7DB00BF00BF143768
:10E02000BD4690BD90B587B002AF04460846114684
:10E030001A462346FB800346BB800B467B80134673
:10E040003B80B7F90020B7F902309342A8BF1346CE
:10E050001BB2DA0F13445B10FB81B7F92020B7F92C
:10E060000E309A4201DDFB893B84FEF7D3FEFA882D
:10E070003B8C13449BB218B27A883B8C5B009BB2FA
:10E08000D31A9BB21AB2B7F90040B7F90410BB8C8F
:10E0900000932346FFF797FFFA887B8813449AB2D0
:10E0A0003B8CD31A9BB2013B9BB218B2BA883B8C13
:10E0B00013449BB219B23A883B8C5B009BB2D31AD3
:10E0C0009BB2013B9BB21BB2B7F92040BA8C0192C4
:10E0D000009301232246FFF772FDFA883B8C13441C
:10E0E0009BB218B2BA883B8C13449BB219B23A88DF
:10E0F0003B8C5B009BB2D31A9BB2013B9BB21BB221
:10E10000B7F92040BA8C0192009302232246FFF710
:10E1100056FDFEF78FFE00BF1437BD4690BD90B58B
:10E1200087B000AF0446084611461A462346FB80D6
:10E130000346BB800B467B8013463B807B88C3F144
:10E1400001039BB2FB820123BB827B881A46D20368
:10E15000D31A5B009BB27B8200233B827B88FB81CE
:10E16000FEF758FEF888BA887B8813449BB23A8839
:10E170001946FFF741F8F888BA887B88D31A9BB212
:10E180003A881946FFF738F8FA887B8813449BB21F
:10E19000B9883A881846FFF72FF8FA887B88D31A8F
:10E1A0009BB2B9883A881846FFF726F881E0B7F99C
:10E1B0001630002B0EDBB7F90E309BB2013B9BB241
:10E1C000FB817B8A02339BB27B82FA8A7B8A13446F
:10E1D0009BB2FB82B7F910309BB201339BB23B82FA
:10E1E000BB8A02339BB2BB82FA8ABB8A13449BB2BE
:10E1F000FB82FA883B8A134498B2BA88FB8913449D
:10E200009BB23A881946FEF7F7FFFA883B8AD31A81
:10E2100098B2BA88FB8913449BB23A881946FEF734
:10E22000EBFFFA883B8A134498B2BA88FB89D31A69
:10E230009BB23A881946FEF7DFFFFA883B8AD31A69
:10E2400098B2BA88FB89D31A9BB23A881946FEF76E
:10E25000D3FFFA88FB89134498B2BA883B8A1344E7
:10E260009BB23A881946FEF7C7FFFA88FB89D31A92
:10E2700098B2BA883B8A13449BB23A881946FEF793
:10E28000BBFFFA88FB89134498B2BA883B8AD31A39
:10E290009BB23A881946FEF7AFFFFA88FB89D31A7A
:10E2A00098B2BA883B8AD31A9BB23A881946FEF7CD
:10E2B000A3FFB7F91020B7F90E309A42FFF677AFF7
:10E2C000FEF7B8FD00BF1C37BD4690BD80B483B0DB
:10E2D00000AF0F4B7B607B681B680E4A13600E4BD0
:10E2E0007B607B681B680D4A13600D4B7B607B680D
:10E2F0001B680C4A13600C4B7B607B681B680B4AE5
:10E30000136000BF0C37BD465DF8047B704700BF4B
:10E310000040000858020020044000085C02002071
:10E3200008400008600200200C4000086402002041
:10E3300080B500AF00224FF48071024804F008FA63
:10E3400000BF80BD0000024080B500AF01224FF445
:10E350008071024804F0FCF900BF80BD000002405B
:10E3600080B483B000AF78607B68C3F5A0731846B3
:10E370000C37BD465DF8047B704780B483B000AFB6
:10E3800078607B68C3F1F00318460C37BD465DF832
:10E39000047B704780B500AF4FF40071054804F06E
:10E3A000BFF90346002B0CBF01230023DBB2184644
:10E3B00080BD00BF0000024080B58EB002AF786023
:10E3C0003960FFF7B5FF0023FB620023BB62002327
:10E3D00087F82730002387F826304BE0FFF7DAFF75
:10E3E000034683F00103DBB2002B48D197F82730B6
:10E3F000013387F827304FF0FF330122514952484B
:10E4000004F0ADFE07F110024FF0FF33009302233A
:10E410004E494D4804F0DFFF4FF0FF3301224C49D5
:10E42000494804F09CFE07F10C024FF0FF330093C3
:10E4300002234649444804F0CEFF3B7B1B027A7B13
:10E440001343BB61BB69DB08C3F30B03FA6A1344D4
:10E45000FB623B7C1B027A7C13437B617B69DB089C
:10E46000C3F30B03BA6A1344BB6297F82630013337
:10E4700087F8263097F826300F2BAFD900E000BF81
:10E48000FFF762FF97F827300F2B01D8002354E0E5
:10E49000FB6A1B093B622F4B1B683A6A9A4202D205
:10E4A0002C4B1B683B622C4B1B683A6A9A4202D980
:10E4B000294B1B683B62BB6A1B09FB61274B1B682E
:10E4C000FA699A4202D2254B1B68FB61244B1B68F8
:10E4D000FA699A4202D9224B1B68FB611D4B1B68EB
:10E4E0003A6AD21A13469B0013449B0119461A4BF1
:10E4F0001A68184B1B68D31AB1FBF3F31846FFF7E1
:10E500002FFF03469AB27B681A80144B1B68FA6986
:10E51000D21A13461B019B1A1B011946104B1A688D
:10E520000E4B1B68D31AB1FBF3F31846FFF725FF18
:10E5300003469AB23B681A80012318463037BD461D
:10E5400080BD00BFCC170208B0030020D01702081E
:10E55000D4170208580200205C020020600200204C
:10E560006402002080B483B000AF294B1B685B08B5
:10E57000274A1360274B1B685B08264A1360264B0B
:10E580001B685B08244A1360244B1B685B08234A02
:10E590001360214B1A681E4B1B68D31A204AA2FB3A
:10E5A00003235B097B601D4B1A681A4B1B68D31A47
:10E5B0009B081C4AA2FB03235B083B607A68134656
:10E5C0009B0013445B007B603A6813469B00134436
:10E5D0005B003B600E4B1A687B68D31A124A1360CB
:10E5E0000D4B1A687B681344104A1360094B1A6874
:10E5F0003B68D31A0E4A1360084B1A683B681344F1
:10E600000C4A136000BF0C37BD465DF8047B7047B1
:10E6100068020020700200206C02002074020020BA
:10E62000B5814E1B95204F09580200205C02002046
:10E63000600200206402002080B58EB002AF034665
:10E64000FB7101E0FFF774FEFFF7A4FE034683F0C1
:10E650000103DBB2002BF5D10023FB620023BB6278
:10E66000002387F82730002387F826304BE0FFF798
:10E6700091FE034683F00103DBB2002B48D197F8EB
:10E680002730013387F827304FF0FF3301228949C3
:10E69000894804F064FD07F110024FF0FF33009346
:10E6A00002238649844804F096FE4FF0FF3301228E
:10E6B0008349814804F053FD07F10C024FF0FF330A
:10E6C000009302237D497C4804F085FE3B7B1B02BE
:10E6D0007A7B13433B623B6ADB08C3F30B03FA6AA2
:10E6E0001344FB623B7C1B027A7C1343FB61FB6996
:10E6F000DB08C3F30B03BA6A1344BB6297F82630F6
:10E70000013387F8263097F826300F2BAFD900E079
:10E7100000BFFFF719FE97F827300F2B00D890E7BE
:10E72000FB6A1B09BB61BB6A1B097B61FB79042B7C
:10E7300000F2BA8001A252F823F000BF51E70008AE
:10E7400065E700087FE7000899E70008BDE70008D3
:10E750005C4ABB6913605C4A7B691360642001F00A
:10E7600099FDA1E0594ABB691360574B1A687B6950
:10E770001344554A1360642001F08CFD94E0514B22
:10E780001A68BB6913444F4A1360514A7B6913608E
:10E79000642001F07FFD87E04C4B1A68BB6913448D
:10E7A0004A4A13604A4B1A687B691344484A13600B
:10E7B000642001F06FFDFFF7D5FE75E0642001F0E5
:10E7C00069FD444B1B687A69D21A13461B019B1AD8
:10E7D0001B011946404B1A683E4B1B68D31AB1FB0C
:10E7E000F3F31846FFF7C9FD03467C2B5AD8394B83
:10E7F0001B687A69D21A13461B019B1A1B01194622
:10E80000354B1A68334B1B68D31AB1FBF3F3184628
:10E81000FFF7B3FD0346732B44D9304B1B68BA692D
:10E82000D21A13469B0013449B0119462C4B1A68BD
:10E830002A4B1B68D31AB1FBF3F31846FFF790FD80
:10E840000346A42B2ED8254B1B68BA69D21A13464F
:10E850009B0013449B011946214B1A681F4B1B68F0
:10E86000D31AB1FBF3F31846FFF77AFD03469B2B4F
:10E8700018D91A4B1B6819461A4801F029FD184B84
:10E880001B681946184801F023FD124B1B681946F6
:10E89000164801F01DFD104B1B681946144801F085
:10E8A00017FD01E0002300E0012318463037BD4684
:10E8B00080BD00BFD8170208B0030020DC17020893
:10E8C000E01702086C020020740200206802002099
:10E8D0007002002060020020640200205802002024
:10E8E0005C020020004000080440000808400008C6
:10E8F0000C40000880B584B004AF0020FEF718FD7E
:10E90000214B224A92E80300186004331980002347
:10E9100000934FF4FC631C4A4C216920FEF710FE63
:10E92000194B1B4A07CA03C31A80002300934FF4F4
:10E93000FC63154A78214120FEF702FE154B0022A8
:10E9400002924FF6E07201925A6800921B68124AD6
:10E95000DC21FA20FEF7CBFE4FF6E0730293022390
:10E960000193042300936C23F02242212820FFF717
:10E97000CEFA4FF4FA6002F023FC642001F08AFC26
:10E9800000BFBD4680BD00BF78020020F8700108BE
:10E9900000710108000000200C71010880B586B0EC
:10E9A00004AF0346FB71FB79062B00F2008101A244
:10E9B00052F823F0D1E900082DEA00085FEA0008C8
:10E9C0008FEA0008C1EA00082FEB00086FEB00088F
:10E9D0000020FEF7ADFC784B002202924FF6E07269
:10E9E00001925A6800921B68744A32210F20FEF788
:10E9F0007EFE714B002202924FF6E07201925A683D
:10EA000000921B686E4A46210F20FEF770FE4FF6FB
:10EA1000E0730A220A210A20FFF781FB4FF6E07318
:10EA200009220A210A20FFF77AFBC0E000230093A5
:10EA30001923192200210020FEF710FC4FF6E07385
:10EA40000A220A2140F23510FFF769FB4FF6E07306
:10EA500009220A2140F23510FFF761FBA7E00023ED
:10EA6000009319231922002140F22B10FEF7F6FB28
:10EA70004FF6E0730A22E5210A20FFF750FB4FF61C
:10EA8000E0730922E5210A20FFF749FB8FE000230C
:10EA9000009319231922DB210020FEF7DFFB4FF63C
:10EAA000E0730A22E52140F23510FFF738FB4FF6FC
:10EAB000E0730922E52140F23510FFF730FB76E0E4
:10EAC0000023009319231922DB2140F22B10FEF7BB
:10EAD000C5FB0023009328234FF4917232210F20AD
:10EAE000FEF7BCFB0023009314233C2264218C20FE
:10EAF000FEF7B4FB304B002202924FF6E072019217
:10EB00005A6800921B682F4A14213C20FEF7EFFD43
:10EB10004FF6E0730A227821A020FFF700FB4FF6A2
:10EB2000E07309227821A020FFF7F9FA3FE00023E3
:10EB3000009314234FF4827214213C20FEF78EFBC5
:10EB4000002300931E231E226E219620FEF786FBD3
:10EB5000194B002202924FF6E07201925A6800921D
:10EB60001B68194A14214B20FEF7C1FD1FE000234A
:10EB7000009314234FF4827232213C20FEF76EFB87
:10EB8000002300931E231E226E219620FEF766FBB3
:10EB9000094B002202924FF6E07201925A680092ED
:10EBA0001B680A4A14213C20FEF7A1FD00BF00BFEC
:10EBB0000837BD4680BD00BF000000201471010869
:10EBC000307101084C710108607101087071010811
:10EBD00080B586B004AF0346FB71FB79002B0ED0E5
:10EBE000104B002202924FF6E07201925A68009296
:10EBF0001B680D4A64218C20FEF779FD0DE0094B5E
:10EC0000002202924FF6E07201925A6800921B684D
:10EC1000064A64218C20FEF76AFD00BF0837BD4616
:10EC200080BD00BF00000020847101088C710108C4
:10EC300080B500AFFFF788FBFEF7FCF80A2002F072
:10EC4000BFFA084B1B68074A43F040031360FEF706
:10EC50009DF90020FEF76CFB642002F0B1FA00BFC2
:10EC600080BD00BF0030014080B586B004AF0023F6
:10EC7000FB714FF000033B60424B1B6807EE903A7C
:10EC8000F8EEE76A3F4B1B693F4A52F8233007EE24
:10EC9000903AF8EE677A86EEA77A3A4B5B6807EE11
:10ECA000903AB8EEE76A374B5B69374A52F823303F
:10ECB00007EE903AF8EE676AC6EE267A37EE277AC4
:10ECC000F7EE006AC6EE877AC7ED007AD7ED007AD4
:10ECD0009FED2E7AF4EEC77AF1EE10FA09DB0223EB
:10ECE000FB7197ED007ADFED296AC7EE267AC7ED52
:10ECF000007AD7ED007A9FED267AF4EEC77AF1EE2E
:10ED000010FA09DB0123FB7197ED007ADFED206A31
:10ED1000C7EE267AC7ED007A1E4B1F4A92E8030021
:10ED20001860043319801D4B1F2202924FF6FF72A8
:10ED300001925A6800921B68164A02210A20FEF7C7
:10ED4000D6FC3868FDF738FB02460B46F9791448C3
:10ED500050F82110009113490E4805F01FFF0F4B8A
:10ED60001F2202924FF6FF7201925A6800921B68AE
:10ED7000084A02214120FEF7BAFC00BF0837BD4611
:10ED800080BD00BF40000020200000200024744906
:10ED900000007A44780200209471010800000020ED
:10EDA000140000209C71010880B586B004AF87ED87
:10EDB000010A1A4B1A4A92E80300186004331980BA
:10EDC00002330A0C1A70174B1F2202924FF6FF7281
:10EDD00001925A6800921B68104A0221BE20FEF779
:10EDE00086FC7868FDF7E8FA02460B460E4900916A
:10EDF0000E490A4805F0D2FE0A4B1F2202924FF636
:10EE0000FF7201925A6800921B68044A0221F520A1
:10EE1000FEF76DFC00BF0837BD4680BD78020020BC
:10EE2000A871010800000020BC710108B071010840
:10EE300080B582B002AF164B164A92E80300186004
:10EE40000433198002330A0C1A70002300934FF424
:10EE5000FC630F4A1E210C20FEF772FB0E4B1B6851
:10EE600019460D4B1B690D4A52F823300A460C49CE
:10EE7000074805F093FE002300934FF4FC63044A17
:10EE80001E217D20FEF75CFB00BFBD4680BD00BF9C
:10EE900078020020C0710108400000200800002016
:10EEA000C871010880B582B002AF144B144A92E8D1
:10EEB000030083E80300002300934FF6E0730F4A3A
:10EEC0004E210C20FEF73CFB0E4B5B6819460D4BA8
:10EED0005B690D4A52F823300A460C49074805F091
:10EEE0005DFE002300934FF6E073044A4E217D201F
:10EEF000FEF726FB00BFBD4680BD00BF78020020A4
:10EF0000D47101084000002008000020C8710108E9
:10EF1000B0B584B002AF78607B68002B10D0314A66
:10EF2000314B14461D460FCD0FC42B6823800023A0
:10EF300000934FF61F032B4A7E217D20FEF700FB36
:10EF4000284B2A4A92E803001860043319800233E0
:10EF50000A0C1A70002300934FF61F03214A7E21EA
:10EF60000C20FEF7EDFA224B9B68002B27D0204B9C
:10EF70009B69002B11D01E4B9B681A461D4B1E49E6
:10EF8000184805F00BFE002300934FF61F03154AA7
:10EF90007E217D20FEF7D4FA1FE0154B9B681A46B0
:10EFA000164B15490F4805F0F9FD002300934FF665
:10EFB0001F030C4A7E217D20FEF7C2FA0DE0104AA5
:10EFC0001049084805F0EAFD002300934FF61F039F
:10EFD000044A7E217D20FEF7B3FA00BF0837BD4604
:10EFE000B0BD00BF78020020DC710108F07101089B
:10EFF00040000020F8710108007201080872010841
:10F00000107201081472010880B584B002AF7860F4
:10F010001E4B9B68002B27D07B68B3F57A7F13D3F8
:10F020007B681B4AA2FB03239A091A4B1A491B4807
:10F0300005F0B4FD002300934FF61F03174A7E210D
:10F040007D20FEF77DFA1DE0154B7A6812491348C2
:10F0500005F0A4FD002300934FF61F030F4A7E2105
:10F060007D20FEF76DFA0DE00E4A0F490B4805F0C2
:10F0700095FD002300934FF61F03084A7E217D2053
:10F08000FEF75EFA00BF0837BD4680BD4000002095
:10F09000D34D6210F8710108007201087802002057
:10F0A00008720108107201081472010890B585B049
:10F0B00002AF0446084611461A462346FB80034623
:10F0C000BB800B467B8013463B803B8B002B1CD1C7
:10F0D000FB88013B9BB218B2BB88013B9BB219B2C3
:10F0E0007B8802339BB21AB23B8802339BB21BB2BD
:10F0F00000240094FEF75EFC3C887A88B988F88882
:10F10000FB6900932346FEF73DFB3B8B012B1CD193
:10F11000B7F90600B7F904107B8802339BB21AB224
:10F120003B8802339BB21BB200240094FEF742FCE2
:10F13000FB88013398B2BB88013399B23C887A8846
:10F14000FB6900932346FEF71DFB00BF0C37BD464D
:10F1500090BD000080B584B004AF0020FEF7E8F851
:10F160001F23009316234FF4A07200210020FEF706
:10F1700075F8FFF779FDFFF75BFEFFF793FE0020C0
:10F18000FFF7C6FE1F4B0193002300933223322268
:10F19000B6211820FFF78AFF1B4B01930023009331
:10F1A00032233222B6216220FFF780FF174B0193F2
:10F1B0000023009332233222B621AC20FFF776FFE2
:10F1C000134B01930023009332233222B621F62001
:10F1D000FFF76CFF0F4A6B4607CA83E8070000235E
:10F1E0004FF6E0722B214FF48270FEF713FB0121E2
:10F1F000012000F039FB0021002000F035FB00BFAA
:10F20000BD4680BD4899010884C10108D0AC010801
:10F21000C08501084419020890B482B000AF0446CA
:10F22000084611461A462346FB800346BB800B4620
:10F230007B8013463B80FA887B889A4211D3FA88F8
:10F2400079883B8A0B449A420BDCBA883B889A4205
:10F2500007D3BA883988BB8A0B449A4201DC012360
:10F2600000E0002318460837BD4690BC70470000F8
:10F2700080B584B004AF314B1B6803F00803002B4A
:10F280000CD1002302930223019304230093302323
:10F29000F5221C210720FEF73AFE0CE04FF6E07342
:10F2A000029302230193042300933023F5221C21AF
:10F2B0000720FEF72CFE214B1B6803F01003002BE8
:10F2C0000CD10023029302230193042300933023E3
:10F2D000F5224C210720FEF71AFE0CE04FF6E073F2
:10F2E000029302230193042300933023F5224C213F
:10F2F0000720FEF70CFE114B1B6803F02003002BC8
:10F300000CD10023029302230193042300933023A2
:10F31000F5227C210720FEF7FAFD0CE04FF6E073A2
:10F32000029302230193042300933023F5227C21CE
:10F330000720FEF7ECFD00BFBD4680BDD0040020D5
:10F3400080B586B004AF0346FB71FB79002B23D058
:10F35000002300933C23B4223C212820FDF77EFFAC
:10F360004FF6E073029302230193032300933E239D
:10F37000B6223A212620FEF7CAFD104B104A07CAD2
:10F3800003C31A70002300934FF478430B4A4121C2
:10F390003020FEF7D5F80DE0002300933E23B6227F
:10F3A0003A212620FDF75AFFFFF742FDFFF77AFDCD
:10F3B000FFF75EFF00BF0837BD4680BD7802002022
:10F3C0002072010880B586B004AF0346FB71FB795B
:10F3D000002B23D0002300933C23B4223C2128207F
:10F3E000FDF73CFF4FF6E0730293022301930323E2
:10F3F00000933E23B6223A212620FEF788FD104BCB
:10F40000104A07CA03C31A70002300934FF47843CD
:10F410000B4A41213020FEF793F80DE000230093C2
:10F420003E23B6223A212620FDF718FFFFF700FD04
:10F43000FFF738FDFFF71CFF00BF0837BD4680BD52
:10F44000780200202C72010880B582B002AF234BF5
:10F450001B6803F00203002B3CD1214B1B68002BDF
:10F4600038D1204B1B68002B34D11C4B1B6843F058
:10F4700002031A4A1360194B1B6823F03803174A1A
:10F480001360FFF7F5FE184B5B7F002B03D1164B83
:10F490009B7F002B1ED0144BDB7F002B0DD0124B1B
:10F4A0000022DA77114B019300230093322332229A
:10F4B000B621F620FFF7FAFD0CE00B4B0122DA77BC
:10F4C0000B4B01930123009332233222B621F62005
:10F4D000FFF7ECFD00BFBD4680BD00BFD00400209B
:10F4E000E8040020E004002040000020C08501085E
:10F4F0003872010880B582B002AF084B0193002337
:10F50000009332233222B621F620FFF7CFFD0120EF
:10F51000FFF7FEFC00BFBD4680BD00BFC0850108EF
:10F5200080B485B000AFF860B9607A603B607B68FA
:10F53000012B18D1FB681A68BB681344BA699A4258
:10F5400006DDFB681A68BB681A44FB681A6022E093
:10F55000FB681B68BA699A421DDDFB681B685A1C70
:10F56000FB681A6017E0FB681A68BB68D31A3A6830
:10F570009A4206DAFB681A68BB68D21AFB681A60FE
:10F5800009E0FB681B683A689A4204DAFB681B686A
:10F590005A1EFB681A6000BF1437BD465DF8047B35
:10F5A0007047000080B584B002AF03460A46FB8076
:10F5B0001346BB802A4B1B6803F00803002B19D0AD
:10F5C000284B1B69022B09D0F988BA8840F2E7332F
:10F5D000009301232348FFF7A3FF07E0F988BA88C7
:10F5E0001423009301231F48FFF79AFFFFF720FC25
:10F5F000FFF73AFB1A4B1B6803F01003002B19D0DE
:10F60000184B5B69022B09D0F988BA8840F2E733BE
:10F61000009301231448FFF783FF07E0F988BA88B5
:10F620001423009301231048FFF77AFFFFF73AFCF9
:10F63000FFF71AFB0A4B1B6803F02003002B0BD0CB
:10F64000F988BA8840F2E733009300230748FFF7B0
:10F6500067FF0020FFF75CFC00BF0837BD4680BD98
:10F66000D00400204000002044000020480000207A
:10F6700080B400AF1B4B1B6841F28732934207D81E
:10F68000184B1B68B3F57A6F02D9174B02221A8008
:10F69000144B1B68B3F57A6F08D2124B1B6840F607
:10F6A000B832934202D9104B05221A800D4B1B68C9
:10F6B00040F6B732934207D80A4B1B68B3F5FA6F8E
:10F6C00002D9094B0A221A80064B1B68B3F5FA6F60
:10F6D00002D2054B19221A8000BFBD465DF8047B9B
:10F6E000704700BFAC0200202C00002080B582B023
:10F6F00000AF0346FB80214B1B6803F00103002B86
:10F7000009D11E4B1B6843F001031C4A13601C4BBC
:10F7100041F27C521A60194B1B6803F00203002B64
:10F7200005D1FB8819460120FFF73CFF13E0154B7C
:10F730001B88012B0FD9134B1B88FA8811461846DA
:10F74000FFF730FF0F4B1B88C3F164039BB21BB262
:10F75000184600F09FFD094B1B6803F00203002BC5
:10F7600005D1064B1B6843F00203044A1360FFF700
:10F770007FFF00BF0837BD4680BD00BFD00400201A
:10F78000AC0200202C00002080B500AF344B1B6879
:10F7900003F00203002B61D1314B1B6843F00203DD
:10F7A0002F4A13602E4B1B6803F00803002B1DD05B
:10F7B0002C4B1B69012B05D82A4B1B690133294AA5
:10F7C000136102E0274B00221A61FFF731FB254B42
:10F7D0001B69022B06D1234B1B68142B02DD214B26
:10F7E00014221A60FFF724FBFFF73EFA1C4B1B683C
:10F7F00003F01003002B1BD01A4B5B69012B05D8BB
:10F80000184B5B690133174A536102E0154B002224
:10F810005A61144B5B69022B06D1124B5B68142BA7
:10F8200002DD104B14225A60FFF73CFBFFF71CFA75
:10F830000B4B1B6803F02003002B0FD0094B9B6977
:10F84000002B05D1074B9B690133064A936102E007
:10F85000044B00229A610020FFF75AFB00BF80BDD5
:10F86000D00400204000002080B586B004AF0346DD
:10F870000A46FB711346BB71FB79002B45D0BB795F
:10F88000002B21D0454B01225A77454B454A1A603F
:10F890004FF6E0730193032300931A23322266216B
:10F8A0004FF48270FEF7BEFB3F4B4FF6E0720292C0
:10F8B000002201925A6800921B68394A6A214FF46B
:10F8C0008770FDF714FF65E0344B00225A77344B04
:10F8D000344A1A601F230193032300931A23322210
:10F8E00066214FF48270FEF79DFB2F4B1F22029280
:10F8F0004FF6FF7201925A6800921B68284A6A21EB
:10F900004FF48770FDF7F3FE44E0BB79002B21D064
:10F91000224B01229A77224B244A1A604FF6E07359
:10F920000193032300931A2332228C214FF4827017
:10F93000FEF778FB1C4B4FF6E07202920022019218
:10F940005A6800921B68164A90214FF48770FDF7A1
:10F95000CEFE1FE0114B00229A77114B134A1A601A
:10F960001F230193032300931A2332228C214FF487
:10F970008270FEF757FB0C4B1F2202924FF6FF726C
:10F9800001925A6800921B68054A90214FF48770D3
:10F99000FDF7ADFE00BF0837BD4680BD400000202A
:10F9A000780200204E504E0000000020504E5000C3
:10F9B00080B582B000AF0346FB71184B1B6803F0A3
:10F9C0000203002B25D1154B1B6843F00203134A99
:10F9D0001360FB79012B0CD1114B5B7F002B04D002
:10F9E00000210120FFF740FF03E001210120FFF784
:10F9F0003BFFFB79002B0CD1094B9B7F002B04D0E4
:10FA000000210020FFF730FF03E001210020FFF775
:10FA10002BFF00BF0837BD4680BD00BFD0040020CB
:10FA20004000002080B582B002AF8B4B1B6903F40D
:10FA30000073002B40F0058188498948FEF7BCFC23
:10FA40000346002B00F0F580864B1B6803F004038F
:10FA5000002B08D1834B1B6843F00403814A1360D9
:10FA6000642000F017FC7E4B18887C4B19883223E9
:10FA7000019332230093B623F622FFF7CDFB034612
:10FA8000002B01D0FFF7E0FC774BDB7F002B40F031
:10FA9000D080734B1888714B198823230193EB2373
:10FAA00000931E230F22FFF7B7FB0346002B0DD058
:10FAB0006C4B1B6823F030036A4A1360694B1B6868
:10FAC00043F00803674A1360FFF7D2FB644B1888C2
:10FAD000624B198823230193EB2300934E230F22BB
:10FAE000FFF79AFB0346002B0DD05E4B1B6823F0FB
:10FAF00028035C4A13605B4B1B6843F01003594AB0
:10FB00001360FFF7B5FB564B1888544B1988232315
:10FB10000193EB2300937E230F22FFF77DFB034627
:10FB2000002B0DD04F4B1B6823F018034D4A136078
:10FB30004C4B1B6843F020034A4A1360FFF798FBC5
:10FB4000474B1888454B1988322301933223009381
:10FB5000B6231822FFF760FB0346002B0CD0434B63
:10FB600001930123009332233222B6211820FFF79C
:10FB70009DFA0120FFF7BAFD394B1888374B1988D9
:10FB80003223019332230093B623AC22FFF744FBC8
:10FB90000346002B0CD0364B0193012300933223F4
:10FBA0003222B621AC20FFF781FA0020FFF79EFD3C
:10FBB0002B4B1888294B1988322301933223009349
:10FBC000B6236222FFF728FB0346002B0BD0294BFC
:10FBD00001930123009332233222B6216220FFF7E2
:10FBE00065FAFFF7D1FD1E4B18881C4B19881A23A4
:10FBF00001933223009366234FF48272FFF70CFBCC
:10FC00000346002B02D00120FFF7D2FE144B1888C8
:10FC1000124B19881A230193322300938C234FF43B
:10FC20008272FFF7F9FA0346002B02D00020FFF79B
:10FC3000BFFE114B41F288321A60104B32221A601B
:10FC400005E0084B1B6823F00403064A136000F02C
:10FC500017F800BFBD4680BD00000240A202002090
:10FC6000A0020020D0040020400000204899010894
:10FC7000D0AC010884C10108A4020020A802002021
:10FC800080B582B002AF264B1B68002B0DD1254BEF
:10FC90001B6803F03803002B07D0224B1B6823F0AE
:10FCA0003803204A1360FFF7E3FA1F4B1B68002B51
:10FCB00032D11C4B1B6803F00203002B2CD01B4BD2
:10FCC00001930023009332233222B6211820FFF73C
:10FCD000EDF9174B01930023009332233222B62112
:10FCE000AC20FFF7E3F9134B019300230093322379
:10FCF0003222B6216220FFF7D9F90A4B1B6823F0A4
:10FD00000103084A1360074B1B6823F00203054AEE
:10FD10001360094B01221A8000BFBD4680BD00BFA1
:10FD2000A4020020D0040020A80200204899010865
:10FD3000D0AC010884C101082C00002080B500AFC0
:10FD400001F0CCF900F040F800F0E8F900F0CCF94F
:10FD500000F0F4F800F028F900F05CF900F09CF8ED
:10FD6000164B1B6A154A43F010031362134B1B6AB0
:10FD7000124A43F480731362104B9B690F4A23F4B9
:10FD8000E04393610D4BDB690C4A23F07003D361B0
:10FD90000A4B9B69094A43F480439361074BDB6933
:10FDA000064A43F04003D36140220549054801F06B
:10FDB0006FFA00F0BFFE00F0D5FEFCE7000C00403B
:10FDC00050040020B002002080B594B000AF07F1CD
:10FDD000200330220021184604F06EFA07F10C03CC
:10FDE00000221A605A609A60DA601A610023BB60D0
:10FDF000274B1B6C264A43F080531364244B1B6C27
:10FE000003F08053BB60BB6800237B60214B1B6801
:10FE1000204A43F4404313601E4B1B6803F44043E5
:10FE20007B607B6801233B624FF480337B6202235B
:10FE3000BB634FF48003FB6304233B6464237B6454
:10FE40000223BB640423FB6407F12003184602F07D
:10FE500099FC0346002B01D000F0D6F90F23FB607C
:10FE600002233B6100237B614FF48053BB6100237D
:10FE7000FB6107F10C030321184602F0FBFE034669
:10FE8000002B01D000F0C0F900BF5037BD4680BD47
:10FE9000003802400070004080B584B000AF3B469F
:10FEA00000221A605A609A60DA60214B214A1A6077
:10FEB0001F4B4FF400325A601D4B00229A601C4BBE
:10FEC00000221A611A4B01221A76194B002283F87C
:10FED0002020174B0022DA62154B174A9A62144B06
:10FEE0000022DA60124B0122DA61114B012283F801
:10FEF00030200F4B01225A610D4801F085F903466D
:10FF0000002B01D000F080F903233B6001237B60CC
:10FF10000723BB603B461946054801F0C7FA034674
:10FF2000002B01D000F070F900BF1037BD4680BD36
:10FF3000B0020020002001400100000F80B500AF9A
:10FF4000174B184A1A60164B4FF482725A60144BC2
:10FF500000229A60124B0022DA60114B00221A61D3
:10FF60000F4B00225A610E4B4FF400729A610C4BFA
:10FF70000022DA610A4B00221A62094B00225A62FF
:10FF8000074B00229A62064B0A22DA62044803F009
:10FF90005DF80346002B01D000F036F900BF80BDAC
:10FFA000580300200030014080B500AF174B184ABD
:10FFB0001A60164B4FF482725A60144B00229A60FA
:10FFC000124B0022DA60114B00221A610F4B002203
:10FFD0005A610E4B4FF400729A610C4B3822DA6171
:10FFE0000A4B00221A62094B00225A62074B002278
:10FFF0009A62064B0A22DA62044803F027F80346A5
:020000040801F1
:10000000002B01D000F000F900BF80BDB00300203C
:100010000038004080B58AB000AF07F1200300220D
:100020001A605A603B1D00221A605A609A60DA60BA
:100030001A615A619A61294B294A1A60274B00229A
:100040005A60264B00229A60244B264ADA60234BE2
:1000500000221A61214B80229A61204803F028FC7B
:100060000346002B01D000F0CFF800233B620023B1
:100070007B6207F120031946184804F071F8034623
:10008000002B01D000F0C0F860237B6046F2A8137B
:10009000BB600023FB6000237B613B1D04221946EB
:1000A0000E4803F05DFD0346002B01D000F0ACF8D4
:1000B00040F63403BB603B1D08221946074803F095
:1000C0004FFD0346002B01D000F09EF8034800F0DE
:1000D00061FA00BF2837BD4680BD00BF080400207C
:1000E000000C0040A086010080B483B000AF002364
:1000F0007B60094B1B6B084A43F480031363064B78
:100100001B6B03F480037B607B6800BF0C37BD462C
:100110005DF8047B704700BF0038024080B588B0AE
:1001200000AF07F10C0300221A605A609A60DA608F
:100130001A610023BB60314B1B6B304A43F08003D4
:1001400013632E4B1B6B03F08003BB60BB68002363
:100150007B602A4B1B6B294A43F001031363274B37
:100160001B6B03F001037B607B6800233B60234B28
:100170001B6B224A43F002031363204B1B6B03F0FB
:1001800002033B603B68002241F207211C4802F059
:10019000DFFA00224FF4A0611A4802F0D9FA41F2C6
:1001A0000723FB6001233B6100237B610023BB61CC
:1001B00007F10C031946124802F02EF94FF4A06320
:1001C000FB6001233B6100237B610023BB6107F1DE
:1001D0000C0319460B4802F01FF94FF40073FB6043
:1001E00000233B6100237B6107F10C03194605489E
:1001F00002F012F900BF2037BD4680BD0038024032
:10020000000402400000024080B400AF72B600BF9C
:10021000FEE780B487B000AF03460A46FB80134672
:10022000BB800023FB82B7F90620B7F9043092FBAC
:10023000F3F39BB201339BB2FB8100233B6113E0DC
:10024000B7F90620B7F904309A4213DDFA88BB8863
:10025000D31A9BB2FB80B7F916309BB201339BB225
:10026000FB823B6901333B61B7F90E303A699A4230
:10027000E6DB00E000BFB7F916309BB201339BB25A
:10028000FB82B7F9163018461C37BD465DF8047B73
:100290007047000080B483B000AF0346FB800A4B78
:1002A0001B68002B09D1B7F90630074A1360074BCA
:1002B0009B69064A43F40073936100BF0C37BD4647
:1002C0005DF8047B704700BFD404002000040240A6
:1002D000B0B582B000AF7860396001F0E3FE094B41
:1002E000F322DA603B6800221C46154622462B4664
:1002F0007968022001F082FE01F0F6FE00BF0837A7
:10030000BD46B0BD003C024080B483B000AF0023C6
:100310007B60104B5B6C0F4A43F4804353640D4B7E
:100320005B6C03F480437B607B6800233B60094B7C
:100330001B6C084A43F080531364064B1B6C03F09C
:1003400080533B603B6800BF0C37BD465DF8047BC3
:10035000704700BF0038024080B58AB000AF7860B7
:1003600007F1140300221A605A609A60DA601A6179
:100370007B681B682F4A934257D100233B612E4B69
:100380005B6C2D4A43F4807353642B4B5B6C03F41A
:1003900080733B613B690023FB60274B1B6B264A44
:1003A00043F001031363244B1B6B03F00103FB6059
:1003B000FB6808237B610323BB610023FB6107F11A
:1003C000140319461D4802F027F81D4B1D4A1A60F8
:1003D0001B4B00225A601A4B00229A60184B0022D5
:1003E000DA60174B4FF480621A61154B4FF40062CC
:1003F0005A61134B4FF400529A61114B4FF48072C3
:10040000DA610F4B00221A620D4B00225A620C482F
:1004100001F00EFC0346002B01D0FFF7F5FE7B68D0
:10042000074A9A63064A7B68936300BF2837BD4634
:1004300080BD00BF002001400038024000000240A3
:10044000F80200201064024080B58CB000AF7860E4
:1004500007F11C0300221A605A609A60DA601A6180
:100460007B681B68324A93422CD10023BB61314B1D
:100470005B6C304A43F4805353642E4B5B6C03F443
:100480008053BB61BB6900237B612A4B1B6B294AEC
:1004900043F001031363274B1B6B03F001037B61E4
:1004A0007B69E023FB6102233B6200237B62032321
:1004B000BB620523FB6207F11C0319461E4801F0CD
:1004C000ABFF31E07B681B681C4A93422CD10023B0
:1004D0003B61184B1B6C174A43F480431364154B64
:1004E0001B6C03F480433B613B690023FB60114BB1
:1004F0001B6B104A43F0020313630E4B1B6B03F09C
:100500000203FB60FB684FF46043FB6102233B6224
:1005100000237B620323BB620523FB6207F11C03FC
:100520001946074801F078FF00BF3037BD4680BD4F
:100530000030014000380240000002400038004016
:100540000004024080B584B000AF78607B681B680F
:100550000E4A934215D10023FB600D4B1B6C0C4AD5
:1005600043F0080313640A4B1B6C03F00803FB60A1
:10057000FB6800220021322001F023FB322001F031
:100580003CFB00BF1037BD4680BD00BF000C0040E3
:100590000038024080B588B000AF786007F10C03E6
:1005A00000221A605A609A60DA601A617B681B68E0
:1005B000124A93421DD10023BB60114B1B6B104AA2
:1005C00043F0010313630E4B1B6B03F00103BB608D
:1005D000BB680623FB6002233B6100237B61002391
:1005E000BB610223FB6107F10C031946054801F0CA
:1005F00013FF00BF2037BD4680BD00BF000C004088
:10060000003802400000024080B400AFFEE780B432
:1006100000AFFEE780B400AFFEE780B400AFFEE7B6
:1006200080B400AFFEE780B400AF00BFBD465DF808
:10063000047B704780B400AF00BFBD465DF8047B0B
:10064000704780B400AF00BFBD465DF8047B7047C3
:1006500080B500AF264B1B68002B04D0244B1B68D1
:10066000013B234A1360234B1B68002B04D0214B12
:100670001B68013B1F4A13601F4B1B68002B04D0F3
:100680001D4B1B68013B1C4A13601C4B1B68012B54
:1006900004D91A4B1B68013B184A1360184B1B689E
:1006A000012B04D9164B1B68013B154A1360154BEF
:1006B0001B68002B04D0134B1B68013B114A1360CD
:1006C000114B1B68002B04D00F4B1B68013B0E4ADB
:1006D00013600D4B1B680A2B05D10C4B9B690B4A11
:1006E00043F00073936100F04BFD00BF80BD00BF7D
:1006F000A4020020A8020020AC020020E004002098
:10070000E8040020E4040020D40400200004024097
:1007100080B500AF254803F01AF9254B1B69244A20
:1007200023F00C031361234BDB68002B04D0214B17
:10073000DB68013B1F4AD3601E4BDB68002B33D1C3
:100740001C4B1B7F002B2FD11B4B1B6803F080031E
:10075000002B29D1164B9B69154A23F4E043936182
:10076000134BDB69124A23F07003D361104B9B6972
:100770000F4A43F4804393610D4BDB690C4A43F00D
:100780004003D3610A4BDB68094A23F00C03D360B2
:10079000074B1B68064A23F001031360064B1B68D6
:1007A00043F08003044A136000BF80BD08040020AA
:1007B000000C004040000020D004002080B400AFB6
:1007C00001231846BD465DF8047B704780B582B0B2
:1007D00000AF7860396003F045FD034616221A60C9
:1007E0004FF0FF3318460837BD4680BD80B582B054
:1007F00000AF78604FF0FF317868FFF7E7FFFEE762
:1008000080B586B000AFF860B9607A6000237B6184
:100810000AE0AFF300800146BB685A1CBA60CAB256
:100820001A707B6901337B617A697B689A42F0DBDD
:100830007B6818461837BD4680BD80B586B000AFCE
:10084000F860B9607A6000237B6109E0BB685A1CDC
:10085000BA601B781846AFF300807B6901337B6177
:100860007A697B689A42F1DB7B6818461837BD4687
:1008700080BD80B483B000AF78604FF0FF3318467E
:100880000C37BD465DF8047B704780B483B000AF81
:10089000786039603B684FF400525A600023184674
:1008A0000C37BD465DF8047B704780B483B000AF61
:1008B0007860012318460C37BD465DF8047B70470D
:1008C00080B485B000AFF860B9607A600023184644
:1008D0001437BD465DF8047B7047000080B586B0D4
:1008E00000AF7860144A154BD31A7B617B693B617A
:1008F000134B1B68002B02D1114B124A1A60104B8C
:100900001A687B6813443A699A4207D203F0AAFC3A
:1009100003460C221A604FF0FF3309E0084B1B68B6
:10092000FB60074B1A687B681344054A1360FB6839
:1009300018461837BD4680BD0000022000040000A4
:10094000D80400202005002080B400AF064BD3F867
:100950008830054A43F47003C2F8883000BFBD46B2
:100960005DF8047B704700BF00ED00E080B400AF8D
:10097000544B9B681946534B9B694FF47A7202FBA8
:1009800003F3013301FB03F34E4AD3604E4B9B69E3
:100990004D4A23F4E04393614B4BDB694A4A23F011
:1009A0007003D361484B1B69474A23F00C03136162
:1009B000444B1B681946434B1B69444A52F8233089
:1009C00003FB01F23F4B5B6818463E4B5B693F49B6
:1009D00051F8233000FB03F33B491344CB62394BFE
:1009E0001B681946374B1B69384A52F82330364A80
:1009F00001FB03F39363334B1B681946314B1B69AF
:100A0000324A52F82330304A01FB03F3D3632E4BB2
:100A100000225A622C4B5B692B4A43F0010353615D
:100A2000284BDB68002B02D1264B01221A77254B7D
:100A30009B7F002B13D0234B5B7F002B0FD1214BCF
:100A40001B7F002B05D1204BDB681F4A43F00803B6
:100A5000D3601D4B9B691C4A43F4C0439361194BFF
:100A60005B7F002B0FD0174B1B7F002B05D1164B44
:100A7000DB68154A43F00403D360134BDB69124A69
:100A800043F06003D3610F4B9B7F002B0FD00D4BC6
:100A90005B7F002B0BD00C4B9B690B4A43F4C0438C
:100AA0009361094BDB69084A43F06003D361064B4D
:100AB0001B68054A43F00103136000BFBD465DF8A3
:100AC000047B704740000020000C004034000020F0
:100AD00080B400AF154B9B69144A23F4E043936143
:100AE000124BDB69114A23F07003D3610F4B9B69F2
:100AF0000E4A43F4804393610C4BDB690B4A43F08D
:100B00004003D361094BDB68084A23F00C03D36030
:100B1000064B1B68054A23F001031360044B0022B7
:100B20001A7700BFBD465DF8047B7047000C00409B
:100B30004000002080B500AFFEF77AF800F036F9EB
:100B4000FDF7C4FB00F098F9FDF7D4FEFEF702FBB9
:100B5000024B1A88024B1A8000BF80BD500400204F
:100B6000DC04002080B500AFFEF75CFF374BDB7F75
:100B7000002B0FD0364B1B6803F48073002B09D178
:100B800000F0E8F9324B1B6843F48073304A13607D
:100B9000FFF7ECFE2E4B1B6803F08003002B15D0F3
:100BA0002B4B1B6803F48073002B0FD0284B1B6862
:100BB00023F08003264A13600120FEF7C1FB254B7A
:100BC0004FF47A721A606420FFF764FB204B1B68B5
:100BD00003F48073002B14D01E4B1B68012B10D123
:100BE0001C4B00221A601A4B1B6823F48073184AAE
:100BF0001360FEF77FFC154B0022DA770020FEF72A
:100C00009FFB124BDB7F002B10D1114B1B6803F4B1
:100C10008073002B0AD0FFF75BFF0D4B1B6823F49A
:100C200080730B4A13600120FEF772F900F014F88C
:100C3000074B1B6803F48073002B04D0034BDB6865
:100C40001846FEF7E1F900BF80BD00BF400000205C
:100C5000D0040020E804002080B584B000AF002359
:100C6000FB604FF000037B600023BB600AE0484A52
:100C7000BB6832F813301A46FB681344FB60BB684C
:100C80000133BB60BB683F2BF1DDFB68002B00DA52
:100C90003F339B11FB603F4B1B881A46FB689B1A36
:100CA000002B02DC0023FB6005E03A4B1B881A4650
:100CB000FB689B1AFB60FB6807EE903AF8EEE77A58
:100CC00017EE900AFBF778FB2DA3D3E90023FBF77F
:100CD000CBFB02460B46104619462BA3D3E9002353
:100CE000FBF7C2FB02460B46104619464FF00002C6
:100CF000294BFBF7B9FB02460B4610461946FBF79A
:100D00008BFE03467B60254B1B68002B07D1234BD2
:100D10004FF4FA721A6097ED010AFEF745F8D7ED25
:100D2000017AB1EE047AF4EEC77AF1EE10FA0BDD37
:100D3000FFF7CEFE0120FEF745FB194B4FF47A7208
:100D40001A606420FFF7A6FA154B1B68012B10D11F
:100D5000134B00221A600020FEF734FB114B1B6876
:100D600023F480730F4A1360FEF7C4FB0E4B00227E
:100D7000DA7700BF1037BD4680BD00BFAFF30080FB
:100D80002D431CEBE2364A3F52B81E85EB51F83F2B
:100D900050040020DC04002000002640E404002071
:100DA000E0040020D00400204000002080B500AF07
:100DB000304B1B681B68B3F1FF3F59D100BF0020C7
:100DC000FDF7ECFD0020FDF703FF0020FDF734FCEC
:100DD0000120FDF7FDFE4FF47A7000F0F1F90120DB
:100DE000FDF7DCFD0020FDF7F3FE0120FDF724FCFC
:100DF0000120FDF7EDFE4FF47A7000F0E1F90220DA
:100E0000FDF7CCFD0020FDF7E3FE0220FDF714FC0A
:100E10000120FDF7DDFE4FF47A7000F0D1F90320D8
:100E2000FDF7BCFD0020FDF7D3FE0320FDF704FC19
:100E30000120FDF7CDFE4FF47A7000F0C1F90420D7
:100E4000FDF7ACFD0420FDF7F7FB0346002B07D0B0
:100E50000520FDF7A3FD4FF47A7000F0B1F907E02B
:100E60000620FDF79BFD4FF47A7000F0A9F9A6E784
:100E700000BF80BD6000002080B483B000AF0023BD
:100E80007B60324B3B600AE03B681B68B3F1FF3F7D
:100E90000AD03B6818333B607B6801337B607B681A
:100EA000B3F52A7FF0D300E000BF7B68002B12D19E
:100EB000274B64221A60264B64225A60244B00227E
:100EC0009A60234B00221A61214B00225A61204B69
:100ED00000229A6134E07A6813465B001344DB0019
:100EE000183B03F1006303F500433B603B681B685C
:100EF0001A46174B1A603B6804333B603B681B681B
:100F00001A46134B5A603B6804333B603B681B68CE
:100F10001A460F4B9A603B6804333B603B681B6882
:100F20000B4A13613B6804333B603B681B68084A0B
:100F300053613B6804333B603B681B68044A936120
:100F400000BF0C37BD465DF8047B70470080000889
:100F5000400000202DE9B04F8AB000AF00237B6233
:100F60000023FB61454B3B620AE03B6A1B68B3F11F
:100F7000FF3F0AD03B6A18333B627B6A01337B62D6
:100F80007B6AB3F52A7FF0D300E000BF7B6AB3F53C
:100F90002A7F0CD101F086F8394BF322DA60022166
:100FA000022001F0F1F901F09FF800237B627A6AD8
:100FB00013465B001344DB0003F1006303F50043B9
:100FC000FB6101F06FF82E4BF322DA602D4B1B68AA
:100FD000DA171C46154622462B46F969022001F015
:100FE0000DF8FB690433FB61264B5B68DA17984602
:100FF000914642464B46F969022000F0FFFFFB692B
:101000000433FB611F4B9B68DA173B617A61D7E9B8
:101010000423F969022000F0F1FFFB690433FB614E
:10102000184B1B690022BB60FA60D7E90223F969FB
:10103000022000F0E3FFFB690433FB61114B5B69A5
:1010400000223B607A60D7E90023F969022000F0B2
:10105000D5FFFB690433FB610A4B9B6900229A466A
:10106000934652465B46F969022000F0C7FF01F043
:101070003BF800BF2837BD46BDE8B08F00800008B0
:10108000003C024040000020DFF834D00D480E49FB
:101090000E4A002302E0D458C4500433C4188C42D2
:1010A000F9D30B4A0B4C002301E013600432A24237
:1010B000FBD3FFF749FC03F0DBF8FEF73FFE704778
:1010C00000000220000000203C020020541D020805
:1010D0003C02002020050020FEE7000080B500AFA4
:1010E0000E4B1B680D4A43F4007313600B4B1B68D7
:1010F0000A4A43F480631360084B1B68074A43F4B1
:1011000080731360032000F051FD0F2000F008F8F9
:10111000FFF7FAF80023184680BD00BF003C0240EC
:1011200080B582B000AF7860124B1A68124B1B7802
:1011300019464FF47A73B3FBF1F3B2FBF3F318469D
:1011400000F069FD0346002B01D001230EE07B680F
:101150000F2B0AD8002279684FF0FF3000F031FDE4
:10116000064A7B681360002300E001231846083715
:10117000BD4680BD300000206800002064000020D3
:1011800080B400AF064B1B781A46064B1B6813440D
:10119000044A136000BFBD465DF8047B704700BF82
:1011A00068000020EC04002080B400AF034B1B68F3
:1011B0001846BD465DF8047B704700BFEC04002074
:1011C00080B584B000AF7860FFF7EEFFB8607B6851
:1011D000FB60FB68B3F1FF3F05D00A4B1B781A4652
:1011E000FB681344FB6000BFFFF7DEFF0246BB68ED
:1011F000D31AFA689A42F7D800BF00BF1037BD462D
:1012000080BD00BF6800002080B584B000AF78606A
:101210000023FB737B68002B01D1012333E07B6843
:101220001B6C002B09D17868FFF796F87B680022C9
:101230005A647B68002283F83C207B681B6C03F0B7
:101240001003002B18D17B681B6C23F4885323F008
:10125000020343F002027B681A64786800F058FACF
:101260007B6800225A647B681B6C23F0030343F005
:1012700001027B681A6401E00123FB737B68002292
:1012800083F83C20FB7B18461037BD4680BD00002C
:1012900080B586B000AFF860B9607A6000233B612A
:1012A000FB6893F83C30012B01D10223CEE0FB68B0
:1012B000012283F83C20FB681B689B6803F0010354
:1012C000012B18D0FB681B689A68FB681B6842F00A
:1012D00001029A605F4B1B685F4AA2FB03239A0CD2
:1012E00013465B0013443B6102E03B69013B3B61F9
:1012F0003B69002BF9D1FB681B689B6803F4807382
:10130000B3F5807F07D1FB681B689A68FB681B6890
:1013100022F480729A60FB681B689B6803F00103EB
:10132000012B40F08680FB681B6C23F4E06323F004
:10133000010343F48072FB681A64FB681B685B68F6
:1013400003F48063002B07D0FB681B6C23F440532D
:1013500043F48052FB681A64FB681B6C03F48053EF
:10136000B3F5805F06D1FB685B6C23F00602FB6877
:101370005A6402E0FB6800225A64FB68002283F88A
:101380003C20364B7B61FB689B6B354ADA63FB681C
:101390009B6B344A1A64FB689B6B334ADA64FB68C4
:1013A0001B686FF022021A60FB681B685A68FB68B2
:1013B0001B6842F080625A60FB681B689A68FB6891
:1013C0001B6842F480729A60FB68986BFB681B682C
:1013D0004C331946BA687B6800F0D8FC7B695B68BF
:1013E00003F01F03002B0FD1FB681B689B6803F001
:1013F0004053002B29D1FB681B689A68FB681B6867
:1014000042F080429A6020E0FB681B68174A9342D2
:101410001BD1FB681B689B6803F04053002B14D161
:10142000FB681B689A68FB681B6842F080429A6000
:101430000BE0FB681B6C43F01002FB681A64FB684E
:101440005B6C43F00102FB685A64002318461837AE
:10145000BD4680BD3000002083DE1B4300230140D9
:1014600009190108C3190108DF190108002001400A
:1014700080B483B000AF786000BF0C37BD465DF824
:10148000047B704780B483B000AF786000BF0C3736
:10149000BD465DF8047B704780B483B000AF7860D0
:1014A00000BF0C37BD465DF8047B704780B485B043
:1014B00000AF786039600023BB607B6893F83C30F4
:1014C000012B01D1022313E17B68012283F83C2028
:1014D0003B681B68092B25D97B681B68D9683B686A
:1014E0001B689BB21A4613465B0013441E3B07223F
:1014F00002FA03F3DA437B681B680A40DA607B6810
:101500001B68D9683B689A683B681B689BB21846A1
:1015100003465B0003441E3B9A407B681B680A43FA
:10152000DA6022E07B681B6819693B681B689BB224
:101530001A4613465B001344072202FA03F3DA4308
:101540007B681B680A401A617B681B6819693B68E5
:101550009A683B681B689BB2184603465B000344CD
:101560009A407B681B680A431A613B685B68062BDC
:1015700024D87B681B68596B3B685A6813469B00EC
:101580001344053B1F2202FA03F3DA437B681B680E
:101590000A405A637B681B68596B3B681B689BB2A7
:1015A00018463B685A6813469B001344053B00FAF3
:1015B00003F27B681B680A435A634CE03B685B6834
:1015C0000C2B24D87B681B68196B3B685A68134640
:1015D0009B001344233B1F2202FA03F3DA437B6888
:1015E0001B680A401A637B681B68196B3B681B68A1
:1015F0009BB218463B685A6813469B001344233B32
:1016000000FA03F27B681B680A431A6323E07B68D5
:101610001B68D96A3B685A6813469B001344413BD8
:101620001F2202FA03F3DA437B681B680A40DA627E
:101630007B681B68D96A3B681B689BB218463B688D
:101640005A6813469B001344413B00FA03F27B683F
:101650001B680A43DA62294BFB607B681B68284AD7
:1016600093420FD13B681B68122B0BD1FB685B6860
:1016700023F40002FB685A60FB685B6843F4800255
:10168000FB685A607B681B681D4A93422BD13B68FC
:101690001B681C4A934203D03B681B68112B22D164
:1016A000FB685B6823F48002FB685A60FB685B6838
:1016B00043F40002FB685A603B681B68114A93427E
:1016C00011D1114B1B68114AA2FB03239A0C13463C
:1016D0009B0013445B00BB6002E0BB68013BBB6046
:1016E000BB68002BF9D17B68002283F83C200023E3
:1016F00018461437BD465DF8047B7047002301404F
:1017000000200140120000103000002083DE1B4347
:1017100080B485B000AF7860794BFB60FB685B6894
:1017200023F44032FB685A60FB685A687B685B6848
:101730001A43FB685A607B681B685A687B681B68A1
:1017400022F480725A607B681B6859687B681B6949
:101750001A027B681B680A435A607B681B685A68D8
:101760007B681B6822F040725A607B681B6859686E
:101770007B689A687B681B680A435A607B681B68B1
:101780009A687B681B6822F400629A607B681B6819
:1017900099687B68DA687B681B680A439A607B6893
:1017A0009B6A584A934222D07B681B689A687B6880
:1017B0001B6822F070629A607B681B6899687B687E
:1017C0009A6A7B681B680A439A607B681B689A6800
:1017D0007B681B6822F040529A607B681B6899689E
:1017E0007B68DA6A7B681B680A439A600FE07B6853
:1017F0001B689A687B681B6822F070629A607B683D
:101800001B689A687B681B6822F040529A607B686C
:101810001B689A687B681B6822F002029A607B68EA
:101820001B6899687B681B7E5A007B681B680A43AB
:101830009A607B6893F82030002B1BD07B681B6874
:101840005A687B681B6842F400625A607B681B68B8
:101850005A687B681B6822F460425A607B681B6888
:1018600059687B685B6A013B5A037B681B680A43C3
:101870005A6007E07B681B685A687B681B6822F423
:1018800000625A607B681B68DA6A7B681B6822F416
:101890007002DA627B681B68D96A7B68DB69013B8E
:1018A0001A057B681B680A43DA627B681B689A68C2
:1018B0007B681B6822F400729A607B681B689968D9
:1018C0007B6893F830305A027B681B680A439A6041
:1018D0007B681B689A687B681B6822F480629A6048
:1018E0007B681B6899687B685B699A027B681B68E8
:1018F0000A439A6000BF1437BD465DF8047B704709
:10190000002301400100000F80B584B000AF786073
:101910007B689B6BFB60FB681B6C03F05003002B28
:101920003CD1FB681B6C43F40072FB681A64FB68D3
:101930001B689B6803F04053002B2BD1FB681B7E78
