:020000040800F2
:1000000000000220694E0008254600082B46000823
:1000100031460008374600083D4600080000000051
:10002000000000000000000000000000434600083F
:1000300051460008000000005F4600086D460008B9
:10004000B94E0008B94E0008B94E0008B94E000874
:10005000B94E0008B94E0008B94E0008B94E000864
:10006000B94E0008B94E0008B94E0008B94E000854
:10007000B94E0008B94E0008B94E0008B94E000844
:10008000B94E0008B94E0008B94E00080000000043
:10009000000000000000000000000000B94E000851
:1000A000B94E0008B94E0008B94E0008B94E000814
:1000B000B94E0008B94E0008B94E0008B94E000804
:1000C000B94E0008B94E0008B94E0008B94E0008F4
:1000D000B94E0008B94E0008B94E000800000000F3
:1000E000B94E0008B94E0008B94E000800000000E3
:1000F000000000000000000000000000B94E0008F1
:1001000000000000B94E00082D470008B94E000855
:1001100000000000000000000000000000000000DF
:10012000B94E0008B94E0008B94E0008B94E000893
:10013000B94E0008000000000000000000000000B0
:10014000000000000000000000000000B94E0008A0
:10015000B94E0008B94E0008B94E0008B94E000863
:10016000B94E0008B94E0008000000000000000071
:10017000000000000000000000000000000000007F
:1001800000000000B94E0008000000000000000060
:08019000B94E0008B94E000849
:1001A00010B5054C237833B9044B13B10448AFF3B1
:1001B00000800123237010BD2C02002000000000ED
:1001C000E0AD000808B5034B1BB103490348AFF38A
:1001D000008008BD0000000030020020E0AD0008F3
:1001E000034613F8012B002AFBD1181A0138704777
:1001F00001F0FF01102A2BDB10F0070F08D010F8D8
:10020000013B013A8B422DD010F0070F42B3F6D1DB
:10021000F0B441EA012141EA014122F007047FF0F4
:1002200000070023F0E80256083C85EA010586EA4B
:10023000010685FA47F5A3FA87F586FA47F6A5FA87
:1002400087F68EB9EED1F0BC01F0FF0102F0070293
:1002500032B110F8013B013A83EA010313B1F8D13E
:100260000020704701387047002D06BF354603381F
:10027000073815F0010F07D1013015F4807F02BF58
:10028000013015F4C03F0130F0BC0138704700BFA9
:1002900081F0004102E000BF83F0004330B54FEA37
:1002A00041044FEA430594EA050F08BF90EA020FA4
:1002B0001FBF54EA000C55EA020C7FEA645C7FEA37
:1002C000655C00F0E2804FEA5454D4EB5555B8BF5A
:1002D0006D420CDD2C4480EA020281EA030382EACB
:1002E000000083EA010180EA020281EA0303362D5D
:1002F00088BF30BD11F0004F4FEA01314FF4801C30
:100300004CEA113102D0404261EB410113F0004F41
:100310004FEA03334CEA133302D0524263EB4303F8
:1003200094EA050F00F0A780A4F10104D5F1200E96
:100330000DDB02FA0EFC22FA05F2801841F10001F1
:1003400003FA0EF2801843FA05F359410EE0A5F1C5
:1003500020050EF1200E012A03FA0EFC28BF4CF0F6
:10036000020C43FA05F3C01851EBE37101F00045AC
:1003700007D54FF0000EDCF1000C7EEB00006EEBB9
:100380000101B1F5801F1BD3B1F5001F0CD3490843
:100390005FEA30004FEA3C0C04F101044FEA44529A
:1003A00012F5800F80F09A80BCF1004F08BF5FEA21
:1003B000500C50F1000041EB045141EA050130BD01
:1003C0005FEA4C0C404141EB0101013C28BFB1F513
:1003D000801FE9D291F0000F04BF01460020B1FA5E
:1003E00081F308BF2033A3F10B03B3F120020CDA31
:1003F0000C3208DD02F1140CC2F10C0201FA0CF00F
:1004000021FA02F10CE002F11402D8BFC2F1200C73
:1004100001FA02F120FA0CFCDCBF41EA0C01904029
:10042000E41AA2BF01EB0451294330BD6FEA040472
:100430001F3C1CDA0C340EDC04F11404C4F120025D
:1004400020FA04F001FA02F340EA030021FA04F36F
:1004500045EA030130BDC4F10C04C4F1200220FAC6
:1004600002F001FA04F340EA0300294630BD21FA04
:1004700004F0294630BD94F0000F83F4801306BFCA
:1004800081F480110134013D4EE77FEA645C18BFBE
:100490007FEA655C29D094EA050F08BF90EA020F55
:1004A00005D054EA000C04BF1946104630BD91EA4D
:1004B000030F1EBF0021002030BD5FEA545C05D150
:1004C0004000494128BF41F0004130BD14F580048F
:1004D0003CBF01F5801130BD01F0004545F0FE4103
:1004E00041F470014FF0000030BD7FEA645C1ABF38
:1004F000194610467FEA655C1CBF0B46024650EA6F
:10050000013406BF52EA033591EA030F41F400219A
:1005100030BD00BF90F0000F04BF0021704730B520
:100520004FF4806404F132044FF000054FF00001F5
:1005300050E700BF90F0000F04BF0021704730B5B6
:100540004FF4806404F1320410F0004548BF40428B
:100550004FF000013EE700BF42004FEAE2014FEAE0
:1005600031014FEA02701FBF12F07F4393F07F4FBB
:1005700081F06051704732F07F4208BF704793F0BE
:100580007F4F04BF41F40021704730B54FF46074D1
:1005900001F0004521F000411CE700BF50EA0102D4
:1005A00008BF704730B54FF000050AE050EA01027D
:1005B00008BF704730B511F0004502D5404261EBED
:1005C00041014FF4806404F132045FEA915C3FF42E
:1005D000D8AE4FF003025FEADC0C18BF03325FEACB
:1005E000DC0C18BF033202EBDC02C2F1200300FA7C
:1005F00003FC20FA02F001FA03FE40EA0E0021FAA1
:1006000002F11444BDE600BF70B54FF0FF0C4CF48E
:10061000E06C1CEA11541DBF1CEA135594EA0C0F40
:1006200095EA0C0F00F0DEF82C4481EA030621EA7B
:100630004C5123EA4C5350EA013518BF52EA0335B6
:1006400041F4801143F4801338D0A0FB02CE4FF068
:100650000005E1FB02E506F00042E0FB03E54FF098
:100660000006E1FB03569CF0000F18BF4EF0010E90
:10067000A4F1FF04B6F5007F64F5407404D25FEA8C
:100680004E0E6D4146EB060642EAC62141EA55513F
:100690004FEAC52040EA5E504FEACE2EB4F1FD0C81
:1006A00088BFBCF5E06F1ED8BEF1004F08BF5FEAFF
:1006B000500E50F1000041EB045170BD06F00046B1
:1006C00046EA010140EA020081EA0301B4EB5C045E
:1006D000C2BFD4EB0C0541EA045170BD41F4801156
:1006E0004FF0000E013C00F3AB8014F1360FDEBF7B
:1006F000002001F0004170BDC4F10004203C35DA57
:100700000C341BDC04F11404C4F1200500FA05F3D9
:1007100020FA04F001FA05F240EA020001F000427A
:1007200021F0004110EBD37021FA04F642EB0601F0
:100730005EEA430E08BF20EAD37070BDC4F10C041A
:10074000C4F1200500FA04F320FA05F001FA04F2DE
:1007500040EA020001F0004110EBD37041F10001CA
:100760005EEA430E08BF20EAD37070BDC4F12005D5
:1007700000FA05F24EEA020E20FA04F301FA05F23D
:1007800043EA020321FA04F001F0004121FA04F2E5
:1007900020EA020000EBD3705EEA430E08BF20EAB5
:1007A000D37070BD94F0000F0FD101F000464000EF
:1007B00041EB010111F4801F08BF013CF7D041EA71
:1007C000060195F0000F18BF704703F00046520075
:1007D00043EB030313F4801F08BF013DF7D043EA46
:1007E0000603704794EA0C0F0CEA135518BF95EAFC
:1007F0000C0F0CD050EA410618BF52EA4306D1D183
:1008000081EA030101F000414FF0000070BD50EAA1
:10081000410606BF1046194652EA430619D094EA2B
:100820000C0F02D150EA013613D195EA0C0F05D115
:1008300052EA03361CBF104619460AD181EA030169
:1008400001F0004141F0FE4141F470014FF0000021
:1008500070BD41F0FE4141F4780170BD70B54FF0BC
:10086000FF0C4CF4E06C1CEA11541DBF1CEA13553C
:1008700094EA0C0F95EA0C0F00F0A7F8A4EB05041E
:1008800081EA030E52EA03354FEA013100F0888015
:100890004FEA03334FF0805545EA131343EA1263DE
:1008A0004FEA022245EA111545EA10654FEA002693
:1008B0000EF000419D4208BF964244F1FD0404F54C
:1008C000407402D25B084FEA3202B61A65EB0305A8
:1008D0005B084FEA32024FF480104FF4002CB6EB65
:1008E000020E75EB030E22BFB61A754640EA0C00E5
:1008F0005B084FEA3202B6EB020E75EB030E22BF25
:10090000B61A754640EA5C005B084FEA3202B6EB65
:10091000020E75EB030E22BFB61A754640EA9C0024
:100920005B084FEA3202B6EB020E75EB030E22BFF4
:10093000B61A754640EADC0055EA060E18D04FEAB2
:10094000051545EA16754FEA06164FEAC30343EA52
:1009500052734FEAC2025FEA1C1CC0D111F4801F1F
:100960000BD141EA00014FF000004FF0004CB6E718
:1009700011F4801F04BF01430020B4F1FD0C88BFB7
:10098000BCF5E06F3FF6AFAEB5EB030C04BFB6EBC2
:10099000020C5FEA500C50F1000041EB045170BDB5
:1009A0000EF0004E4EEA113114EB5C04C2BFD4EBE2
:1009B0000C0541EA045170BD41F480114FF0000E66
:1009C000013C90E645EA060E8DE60CEA135594EAE2
:1009D0000C0F08BF95EA0C0F3FF43BAF94EA0C0FE5
:1009E0000AD150EA01347FF434AF95EA0C0F7FF45A
:1009F00025AF104619462CE795EA0C0F06D152EAAE
:100A000003353FF4FDAE1046194622E750EA410691
:100A100018BF52EA43067FF4C5AE50EA41047FF4A2
:100A20000DAF52EA43057FF4EBAE12E74FF0FF3C07
:100A300006E000BF4FF0010C02E000BF4FF0010CD8
:100A40004DF804CD4FEA410C7FEA6C5C4FEA430C51
:100A500018BF7FEA6C5C1BD001B050EA410C0CBFA0
:100A600052EA430C91EA030F02BF90EA020F002002
:100A7000704710F1000F91EA030F58BF994208BF69
:100A800090422CBFD8176FEAE37040F00100704726
:100A90004FEA410C7FEA6C5C02D150EA013C07D17D
:100AA0004FEA430C7FEA6C5CD6D152EA033CD3D0C8
:100AB0005DF8040B704700BF8446104662468C46C2
:100AC0001946634600E000BF01B5FFF7B7FF0028F5
:100AD00048BF10F1000F01BD4DF808EDFFF7F4FF1E
:100AE0000CBF012000205DF808FB00BF4DF808EDA9
:100AF000FFF7EAFF34BF012000205DF808FB00BFCC
:100B00004DF808EDFFF7E0FF94BF012000205DF8ED
:100B100008FB00BF4DF808EDFFF7CEFF94BF0120A2
:100B200000205DF808FB00BF4DF808EDFFF7C4FF9B
:100B300034BF012000205DF808FB00BF4FEA410CE4
:100B40007FEA6C5C02D150EA013C0AD14FEA430CC7
:100B50007FEA6C5C02D152EA033C02D14FF0000004
:100B600070474FF0010070474FEA410212F5001242
:100B700015D211D56FF47873B3EB625212D94FEAE4
:100B8000C12343F0004343EA505311F0004F23FACE
:100B900002F018BF404270474FF00000704750EA23
:100BA000013005D111F0004008BF6FF000407047E0
:100BB0004FF00000704700BF4FEA4102B2F1E0433E
:100BC00024BFB3F5001CDCF1FE5C0DD901F0004C34
:100BD0004FEAC0024CEA5070B2F1004F40EB830084
:100BE00008BF20F00100704711F0804F21D113F1B0
:100BF0003872BCBF01F00040704741F480114FEAE9
:100C00005252C2F11802C2F1200C10FA0CF320FA71
:100C100002F018BF40F001004FEAC1234FEAD3238E
:100C200003FA0CFC40EA0C0023FA02F34FEA4303F8
:100C3000CCE77FEA625307D150EA01331EBF4FF081
:100C4000FE4040F44000704701F0004040F0FE409C
:100C500040F40000704700BF53B94AB9002908BFEB
:100C600000281CBF4FF0FF314FF0FF3000F074B987
:100C7000ADF1080C6DE904CE00F006F8DDF804E0F3
:100C8000DDE9022304B070472DE9F047089D0446D2
:100C90008E46002B4DD18A42944669D9B2FA82F22F
:100CA00052B101FA02F3C2F1200120FA01F10CFA6B
:100CB00002FC41EA030E94404FEA1C48210CBEFBA3
:100CC000F8F61FFA8CF708FB16E341EA034306FB2C
:100CD00007F199420AD91CEB030306F1FF3080F0BB
:100CE0001F81994240F21C81023E63445B1AA4B208
:100CF000B3FBF8F008FB103344EA034400FB07F7AA
:100D0000A7420AD91CEB040400F1FF3380F00A81EA
:100D1000A74240F207816444023840EA0640E41BDF
:100D200000261DB1D4400023C5E900433146BDE88B
:100D3000F0878B4209D9002D00F0EF800026C5E92D
:100D4000000130463146BDE8F087B3FA83F6002E45
:100D50004AD18B4202D3824200F2F980841A61EBBD
:100D6000030301209E46002DE0D0C5E9004EDDE7DB
:100D700002B9FFDEB2FA82F2002A40F09280A1EBC3
:100D80000C014FEA1C471FFA8CFE0126200CB1FB18
:100D9000F7F307FB131140EA01410EFB03F0884211
:100DA00008D91CEB010103F1FF3802D2884200F29E
:100DB000CB804346091AA4B2B1FBF7F007FB101130
:100DC00044EA01440EFB00FEA64508D91CEB0404CE
:100DD00000F1FF3102D2A64500F2BB800846A4EB29
:100DE0000E0440EA03409CE7C6F12007B34022FA14
:100DF00007FC4CEA030C20FA07F401FA06F31C4343
:100E0000F9404FEA1C4900FA06F3B1FBF9F8200C4F
:100E10001FFA8CFE09FB181140EA014108FB0EF095
:100E2000884202FA06F20BD91CEB010108F1FF3AE5
:100E300080F08880884240F28580A8F102086144F1
:100E4000091AA4B2B1FBF9F009FB101144EA0141FF
:100E500000FB0EFE8E4508D91CEB010100F1FF34AA
:100E60006CD28E456AD90238614440EA0840A0FB42
:100E70000294A1EB0E01A142C846A64656D353D018
:100E80005DB1B3EB080261EB0E0101FA07F722FA3C
:100E900006F3F1401F43C5E9007100263146BDE865
:100EA000F087C2F12003D8400CFA02FC21FA03F3C8
:100EB000914001434FEA1C471FFA8CFEB3FBF7F049
:100EC00007FB10360B0C43EA064300FB0EF69E426E
:100ED00004FA02F408D91CEB030300F1FF382FD207
:100EE0009E422DD9023863449B1B89B2B3FBF7F6AF
:100EF00007FB163341EA034106FB0EF38B4208D988
:100F00001CEB010106F1FF3816D28B4214D9023EC8
:100F10006144C91A46EA004638E72E46284605E7E6
:100F20000646E3E61846F8E64B45A9D2B9EB0208B7
:100F300064EB0C0E0138A3E74646EAE7204694E747
:100F40004046D1E7D0467BE7023B614432E730467A
:100F500009E76444023842E7704700BF80B483B0B9
:100F600000AF78600B467B8010E07B681A78104BEE
:100F7000DA6000BF0E4B9B6803F00203002BF9D030
:100F80007B6801337B607B88013B7B807B88002B07
:100F9000EBD100BF064B9B6803F08003002BF9D117
:100FA00000BF00BF0C37BD465DF8047B704700BF33
:100FB0000030014080B400AF054B9B69044A43F404
:100FC0008023936100BFBD465DF8047B704700BF7E
:100FD0000004024080B400AF054B9B69044A43F013
:100FE0000403936100BFBD465DF8047B704700BFFA
:100FF0000004024080B500AF00220221064805F03F
:101000004FFA052003F0CCFF01220221024805F02F
:1010100047FA00BF80BD00BF0004024080B582B027
:1010200000AF0346FB71074B9B69064A43F48033CC
:101030009361FB1D01211846FFF790FF00BF0837A1
:10104000BD4680BD0004024080B584B000AF78602A
:101050003960114B9B69104A43F00103936113E01F
:101060003B68B3F5004F28BF4FF40043FB81FB8979
:1010700019467868FFF772FFFB897A6813447B6032
:10108000FB893A68D31A3B603B68002BE8D100BF6C
:1010900000BF1037BD4680BD0004024090B585B04A
:1010A00000AF0446084611461A462346FB80034615
:1010B000BB800B467B8013463B802A20FFF7AEFFA8
:1010C000FB881B0A9BB2DBB23B73FB88DBB27B73F2
:1010D0007B881B0A9BB2DBB2BB737B88DBB2FB73E2
:1010E00007F10C0304211846FFF7AEFF2B20FFF792
:1010F00095FFBB881B0A9BB2DBB23B72BB88DBB29D
:101100007B723B881B0A9BB2DBB2BB723B88DBB2B3
:10111000FB7207F1080304211846FFF795FF2C2006
:10112000FFF77CFF00BF1437BD4690BD90B59BB064
:1011300000AF01224FF480518F4805F0B1F9FFF75D
:1011400039FFFFF757FF0120FFF768FF4FF47A7070
:1011500003F026FFCB20FFF761FF884A07F1600309
:1011600092E8030018600433197007F16003052149
:101170001846FFF769FFCF20FFF750FF804A07F1BD
:101180005C031268114619800233120C1A7007F1C1
:101190005C0303211846FFF757FFE820FFF73EFFE7
:1011A000784A07F158031268114619800233120C6D
:1011B0001A7007F1580303211846FFF745FFEA208C
:1011C000FFF72CFF0023A7F8543007F15403022146
:1011D0001846FFF739FFED20FFF720FF6A4B3B650C
:1011E00007F1500304211846FFF72EFFF720FFF701
:1011F00015FF202387F84C3007F14C0301211846D6
:10120000FFF722FFC020FFF709FF232387F84830AC
:1012100007F1480301211846FFF716FFC120FFF729
:10122000FDFE102387F8443007F1440301211846DE
:10123000FFF70AFFC520FFF7F1FE42F63E03A7F8CD
:10124000403007F1400302211846FFF7FDFEC7209A
:10125000FFF7E4FE862387F83C3007F13C030121C9
:101260001846FFF7F1FE3620FFF7D8FE482387F82F
:10127000383007F1380301211846FFF7E5FE3A2020
:10128000FFF7CCFE552387F8343007F134030121F2
:101290001846FFF7D9FEB120FFF7C0FE4FF4C05348
:1012A0003B8607F1300302211846FFF7CDFEB6203A
:1012B000FFF7B4FE354A07F12C0312681146198076
:1012C0000233120C1A7007F12C0303211846FFF7A2
:1012D000BBFEF220FFF7A2FE002387F8283007F1BB
:1012E000280301211846FFF7AFFE2620FFF796FEE0
:1012F000012387F8243007F1240301211846FFF762
:10130000A3FEE020FFF78AFE214B07F114040FCB68
:1013100007C4238002341B0C237007F114030F2130
:101320001846FFF791FEE120FFF778FE194B3C1DB0
:101330000FCB07C4238002341B0C23703B1D0F21ED
:101340001846FFF781FE1120FFF768FE782003F0B2
:1013500027FE2920FFF762FE3620FFF75FFEE82315
:101360003B703B4601211846FFF76EFEFFF732FE49
:1013700000BF6C37BD4690BD00040240F8AD0008C8
:1013800000AE000804AE00086403128108AE000835
:101390000CAE00081CAE000880B584B000AF034658
:1013A000FB800B46BB8013467B80FB88B3F5A07F98
:1013B0001FD2BB88EF2B1CD8FFF7FCFDFB88013345
:1013C0009AB2BB8801339BB2B988F888FFF766FEF2
:1013D0007B881B0A9BB2DBB23B737B88DBB27B73DF
:1013E00007F10C0302211846FFF72EFEFFF7F2FD6E
:1013F00000E000BF1037BD4680BD000090B585B04D
:1014000000AF0446084611461A462346FB800346B1
:10141000BB800B467B8013463B80FB88B3F5A07FE7
:1014200050D2BB88EF2B4DD8FA887B881344B3F594
:10143000A07F03DDFB88C3F5A0737B80BA883B885F
:101440001344F02B03DDBB88C3F1F0033B80FFF7AF
:10145000B1FDFA887B8813449BB2013B9CB2BA88E9
:101460003B8813449BB2013B9BB2B988F888224663
:10147000FFF714FE3B8C1B0A9BB2DBB23B733B8C29
:10148000DBB27B7301220121104805F009F83B888B
:10149000BB8011E07B88FB8008E007F10C03022190
:1014A0001846FFF75BFDFB88013BFB80FB88002BA8
:1014B000F3D1BB88013BBB80BB88002BEAD1FFF78F
:1014C00089FD00E000BF1437BD4690BD0004024016
:1014D00080B584B002AF0346FB80FB880093F02305
:1014E0004FF4A07200210020FFF788FF00BF0837EB
:1014F000BD4680BD90B589B000AF04460846114690
:101500001A462346FB800346BB800B46FB701346FE
:101510003B80FB78203B714ADB0013445B689A8870
:10152000FB8813449BB2013B9CB2FB78203B6B4A87
:10153000DB0013445B68DA88BB8813449BB2013B31
:101540009BB2B988F8882246FFF7A8FD01237B8368
:1015500080237B61FB78203B604ADB0013445B689F
:101560009B88082B04D902237B834FF400437B61C3
:10157000FB78203B594ADB0013445B689B88102BA7
:1015800004D903237B834FF400037B61FB78203B6A
:10159000524ADB0013445B689B88182B04D9042350
:1015A0007B834FF000437B610023FB8381E0FB786A
:1015B000203B4A4ADB0013445B681A68FB8B1344E8
:1015C0001B783B617B8B012B11D93B691B023B6173
:1015D000FB78203B414ADB0013445B681A68FB8BB5
:1015E000013313441B781A463B6913433B617B8BE1
:1015F000022B11D93B691B023B61FB78203B374A28
:10160000DB0013445B681A68FB8B023313441B78BE
:101610001A463B6913433B617B8B032B11D93B6912
:101620001B023B61FB78203B2C4ADB0013445B68C8
:101630001A68FB8B033313441B781A463B69134328
:101640003B610023BB8326E0BB8B3A699A407B69F0
:101650001340002B0ED03B881B0A9BB2DBB23B73BE
:101660003B88DBB27B7307F10C0302211846FFF7BE
:10167000EBFC0DE03B8E1B0A9BB2DBB23B723B8E58
:10168000DBB27B7207F1080302211846FFF7DCFC8E
:10169000BB8B0133BB83FB78203B104ADB00134438
:1016A0005B689B88BA8B9A42CED3FA8B7B8B1344B0
:1016B000FB83FA8BFB78203B0849DB000B445B681B
:1016C000DB8819467B8B01FB03F39A42FFF66FAF71
:1016D00000BF00BF2437BD4690BD00BF9444010841
:1016E00090B587B002AFBA601A460346FB810B463D
:1016F000BB811346FB80FFF75DFC45E0FA89BB68C0
:101700001B78203B2649DB000B445B689B88134415
:10171000B3F5A07F20DB0023FB81BB681B78203B57
:101720001F4ADB0013445B68DA88BB891344BB8122
:10173000BA89BB681B78203B1949DB000B445B6806
:10174000DB881344EF2B24DCBB681B78202B03D1F0
:10175000BB680133BB6017E0BB681A78FC88B989A5
:10176000F8893B8C00932346FFF7C4FEBB681B78C7
:10177000203B0B4ADB0013445B689A88FB891344C7
:10178000FB81BB680133BB60BB681B78002BB5D104
:1017900000E000BFFFF71EFC00BF1437BD4690BD40
:1017A0009444010882B090B589B000AF7B630346D2
:1017B000FB800B46BB801346FB7097F834309AB21F
:1017C000FB8813449BB2013B9CB297F835309AB228
:1017D000BB8813449BB2013B9BB2B988F888224670
:1017E000FFF75CFC0023FB6143E0BA6BFB78203B16
:1017F00097F8351001FB03F31946FB690B445B00B6
:1018000013441B887B610023BB6129E07A69BB69B3
:1018100002FA03F303F40043002B0ED0BB8F1B0A24
:101820009BB2DBB23B74BB8FDBB27B7407F110035E
:1018300002211846FFF708FC0FE0B7F840301B0AFA
:101840009BB2DBB23B73B7F84030DBB27B7307F17E
:101850000C0302211846FFF7F7FBBB690133BB619C
:1018600097F834301A46BB699342CFD3FB690133F2
:10187000FB6197F835301A46FB699342B5D300BF38
:1018800000BF2437BD46BDE8904002B0704782B02B
:1018900080B586B004AF3A607B610346FB800B469F
:1018A000BB80FFF787FB2EE0FB883A7D1344B3F53E
:1018B000A07F13DB0023FB807B7D9AB2BB8813449F
:1018C000BB80BB887A7D1344EF2B21DC3B681B78FF
:1018D000202B03D13B6801333B6014E03B681A784E
:1018E000B988F8883B8C0293BB8B0193BB6900934A
:1018F0007B69FFF757FF3B7D9AB2FB881344FB805F
:101900003B6801333B603B681B78002BCCD100E087
:1019100000BFFFF75FFB00BF0837BD46BDE8804052
:1019200002B0704790B583B000AF04460846114638
:101930001A462346FB800346BB800B467B8013463A
:101940003B80FB88B3F5A07F2CD2BB88EF2B29D836
:10195000FA887B881344B3F5A07F25DCBA883B88DE
:101960001344F02B22DCFFF725FBFA887B88134415
:101970009BB2013B9CB2BA883B8813449BB2013BAB
:101980009BB2B988F8882246FFF788FB7B883A88A3
:1019900002FB03F35B001946B869FFF755FBFFF73D
:1019A00019FB04E000BF02E000BF00E000BF0C37FD
:1019B000BD4690BD90B58BB000AF044608461146B9
:1019C0001A462346FB800346BB800B467B801346AA
:1019D0003B80FB88B3F5A07F79D2BB88EF2B76D80C
:1019E000FB8F1BB20821184602F021FC0346FB8244
:1019F000BB8FFA8A12FB03F3BB82FFF7DBFABA8FC5
:101A0000FB8813449BB2013B9CB2FA8FBB88134402
:101A10009BB2013B9BB2B988F8882246FFF73EFB98
:101A200000233B624CE0BB8FFB840023FB613FE063
:101A3000BB6B396AFA690A4413441B787B82002322
:101A4000BB612DE0FB8C002B2ED0FB8C013BFB847B
:101A50007A8ABB6902FA03F303F08003002B0ED0ED
:101A60007B881B0A9BB2DBB23B747B88DBB27B7446
:101A700007F1100302211846FFF7E6FA0DE03B8854
:101A80001B0A9BB2DBB23B733B88DBB27B7307F173
:101A90000C0302211846FFF7D7FABB690133BB617B
:101AA000BB69072BCEDD00E000BFFB690133FB61A2
:101AB000FB8AFA699A42BBDBFB8A3A6A13443B62AF
:101AC000BB8A3A6A9A42AEDBFFF784FA00E000BFB5
:101AD0002C37BD4690BD90B585B002AF0446084690
:101AE00011461A462346FB800346BB800B467B808B
:101AF00013463B80FFF75EFAF888B9887A883B88FE
:101B0000009313460122FFF779FCFFF763FA00BF49
:101B10000C37BD4690BD90B585B002AF044608466F
:101B200011461A462346FB800346BB800B467B804A
:101B300013463B80FFF73EFAF888B9887A883B88DD
:101B400000930123FFF75AFCFFF744FA00BF0C375C
:101B5000BD4690BD90B583B000AF0446084611461F
:101B60001A462346FB800346BB800B467B80134608
:101B70003B803B8BB7F90220B7F90410B7F9060098
:101B8000FFF7C9FFBA883B8813449BB2013B9BB265
:101B900019B23B8BB7F90220B7F90600FFF7BBFF7C
:101BA0003B8BB7F90020B7F90410B7F90600FFF72F
:101BB00092FFFA887B8813449BB2013B9BB218B218
:101BC0003B8BB7F90020B7F90410FFF784FF00BF83
:101BD0000C37BD4690BD90B587B000AF04460846AF
:101BE00011461A462346FB800346BB800B467B808A
:101BF00013467B707B88C3F101039BB2FB820123F8
:101C0000BB827B881A46D203D31A5B009BB27B82CD
:101C100000233B827B88FB8195E0B7F91630002BCF
:101C20000EDBB7F90E309BB2013B9BB2FB817B8A86
:101C300002339BB27B82FA8A7B8A13449BB2FB827B
:101C4000B7F910309BB201339BB23B82BB8A02339F
:101C50009BB2BB82FA8ABB8A13449BB2FB827B781D
:101C600003F00403002B17D0FA883B8A134498B280
:101C7000BA88FB8913449BB23A8D1946FFF78CFB57
:101C8000FA88FB89134498B2BA883B8A13449BB202
:101C90003A8D1946FFF780FB7B7803F00203002B97
:101CA00017D0FA883B8A134498B2BA88FB89D31AB2
:101CB0009BB23A8D1946FFF76FFBFA88FB891344F4
:101CC00098B2BA883B8AD31A9BB23A8D1946FFF76D
:101CD00063FB7B7803F00803002B17D0FA88FB899D
:101CE000D31A98B2BA883B8A13449BB23A8D1946EC
:101CF000FFF752FBFA883B8AD31A98B2BA88FB895D
:101D000013449BB23A8D1946FFF746FB7B7803F0EC
:101D10000103002B17D0FA88FB89D31A98B2BA882E
:101D20003B8AD31A9BB23A8D1946FFF735FBFA88E6
:101D30003B8AD31A98B2BA88FB89D31A9BB23A8DE0
:101D40001946FFF729FBB7F91020B7F90E309A4270
:101D5000FFF663AF00BF00BF1C37BD4690BD90B516
:101D600087B000AF0446084611461A462346FB805A
:101D70000346BB800B467B8013467B707B88C3F198
:101D800001039BB2FB820123BB827B881A46D203EC
:101D9000D31A5B009BB27B8200233B827B88FB8152
:101DA0003B8ABB81FB897B81B7F928309BB2013329
:101DB0009BB23B8595E0B7F91630002B0EDBB7F9E7
:101DC0000E309BB2013B9BB2FB817B8A02339BB2FC
:101DD0007B82FA8A7B8A13449BB2FB82B7F910306C
:101DE0009BB201339BB23B82BB8A02339BB2BB8264
:101DF000FA8ABB8A13449BB2FB82B7F90E20B7F96B
:101E000010309A4231DB7B7803F00103002B13D0B2
:101E1000FA883B8A13449BB218B2BA88FB89D31A5A
:101E20009BB219B2FB895B009AB23B8D13449BB203
:101E30001AB2BB8DFFF74FFE7B7803F00203002B35
:101E400013D0FA883B8AD31A9BB218B2BA88FB899E
:101E5000D31A9BB219B2FB895B009AB23B8D134433
:101E60009BB21AB2BB8DFFF736FEB7F90E20B7F959
:101E70000A309A4233D07B7803F00103002B13D051
:101E8000FA887B8913449BB218B2BA88BB89D31AEB
:101E90009BB219B2BB895B009AB23B8D13449BB2D3
:101EA0001AB2BB8DFFF717FE7B7803F00203002BFD
:101EB00013D0FA887B89D31A9BB218B2BA88BB892F
:101EC000D31A9BB219B2BB895B009AB23B8D134403
:101ED0009BB21AB2BB8DFFF7FEFDFB897B813B8A6B
:101EE000BB81B7F91020B7F90E309A42FFF663AF05
:101EF00000BF00BF1C37BD4690BD90B587B002AF94
:101F00000446084611461A462346FB800346BB801A
:101F10000B467B8013463B800023FB81B7F90220F0
:101F2000B7F900309A4206DAB7F90230DA0F1344F3
:101F30005B10FB8105E0B7F90030DA0F13445B104A
:101F4000FB81B7F92020B7F90E309A4201DDFB89F9
:101F50003B84FFF72FF8FA883B8C13449BB218B2EE
:101F60007A883B8C5B009BB2D31A9BB21AB2BB8CB3
:101F7000B7F90410FFF7CFFDFA883B8C13449BB2EE
:101F800018B2BA883B8813449BB2013B9BB219B28A
:101F90007A883B8C5B009BB2D31A9BB21AB2BB8C83
:101FA000FFF7B9FDBA883B8C13449BB219B23A884B
:101FB0003B8C5B009BB2D31A9BB21AB2BB8CB7F9B5
:101FC0000600FFF788FDFA887B8813449BB2013B2B
:101FD0009BB218B2BA883B8C13449BB219B23A88B0
:101FE0003B8C5B009BB2D31A9BB21AB2BB8CFFF73F
:101FF00072FDFA883B8C13449BB218B2BA883B8CB2
:1020000013449BB219B2B7F92020BB8C0093012373
:10201000FFF7E1FDFA887B8813449AB23B8CD31A10
:102020009BB2013B9BB218B2BA883B8C13449BB263
:1020300019B2B7F92020BB8C00930223FFF7CBFD28
:10204000FA887B8813449AB23B8CD31A9BB2013B2B
:102050009BB218B2BA883B8813449AB23B8CD31A0D
:102060009BB2013B9BB219B2B7F92020BB8C009305
:102070000423FFF7B0FDFA883B8C13449BB218B2DF
:10208000BA883B8813449AB23B8CD31A9BB2013B6B
:102090009BB219B2B7F92020BB8C00930823FFF73D
:1020A0009AFDFEF797FF00BF1437BD4690BD90B56F
:1020B00087B002AF0446084611461A462346FB8005
:1020C0000346BB800B467B8013463B80B7F9243028
:1020D000002B44DD0023FB603BE0FB68002B10D1AC
:1020E000B7F90040B7F90220B7F90410B7F90600B4
:1020F0003B8D0193B7F9203000932346FFF7FDFE97
:1021000024E0FB689AB2FB8813449BB218B2FB68C8
:102110009AB2BB8813449BB219B27A88FB689BB20F
:102120005B009BB2D31A9BB21CB23A88FB689BB28D
:102130005B009BB2D31A9BB21AB23B8D0193B7F9E5
:102140002030009313462246FFF7D7FEFB68013389
:10215000FB60B7F92430FA689A42BEDB00E000BFAA
:102160001437BD4690BD90B585B000AF0446084613
:1021700011461A462346FB800346BB800B467B80F4
:1021800013463B80FB88FB810EE03B8CB7F90020B7
:10219000B7F90410B7F90E00FFF79DFCB7F90E3040
:1021A0009BB201339BB2FB81B7F90E20B7F9061041
:1021B000B7F902300B449A42E7DB00BF00BF143787
:1021C000BD4690BD90B587B002AF044608461146A3
:1021D0001A462346FB800346BB800B467B80134692
:1021E0003B80B7F90020B7F902309342A8BF1346ED
:1021F0001BB2DA0F13445B10FB81B7F92020B7F94B
:102200000E309A4201DDFB893B84FEF7D3FEFA884B
:102210003B8C13449BB218B27A883B8C5B009BB218
:10222000D31A9BB21AB2B7F90040B7F90410BB8CAD
:1022300000932346FFF797FFFA887B8813449AB2EE
:102240003B8CD31A9BB2013B9BB218B2BA883B8C31
:1022500013449BB219B23A883B8C5B009BB2D31AF1
:102260009BB2013B9BB21BB2B7F92040BA8C0192E2
:10227000009301232246FFF772FDFA883B8C13443A
:102280009BB218B2BA883B8C13449BB219B23A88FD
:102290003B8C5B009BB2D31A9BB2013B9BB21BB23F
:1022A000B7F92040BA8C0192009302232246FFF72F
:1022B00056FDFEF78FFE00BF1437BD4690BD90B5AA
:1022C00087B000AF0446084611461A462346FB80F5
:1022D0000346BB800B467B8013463B807B88C3F163
:1022E00001039BB2FB820123BB827B881A46D20387
:1022F000D31A5B009BB27B8200233B827B88FB81ED
:10230000FEF758FEF888BA887B8813449BB23A8857
:102310001946FFF741F8F888BA887B88D31A9BB230
:102320003A881946FFF738F8FA887B8813449BB23D
:10233000B9883A881846FFF72FF8FA887B88D31AAD
:102340009BB2B9883A881846FFF726F881E0B7F9BA
:102350001630002B0EDBB7F90E309BB2013B9BB25F
:10236000FB817B8A02339BB27B82FA8A7B8A13448D
:102370009BB2FB82B7F910309BB201339BB23B8218
:10238000BB8A02339BB2BB82FA8ABB8A13449BB2DC
:10239000FB82FA883B8A134498B2BA88FB891344BB
:1023A0009BB23A881946FEF7F7FFFA883B8AD31AA0
:1023B00098B2BA88FB8913449BB23A881946FEF753
:1023C000EBFFFA883B8A134498B2BA88FB89D31A88
:1023D0009BB23A881946FEF7DFFFFA883B8AD31A88
:1023E00098B2BA88FB89D31A9BB23A881946FEF78D
:1023F000D3FFFA88FB89134498B2BA883B8A134406
:102400009BB23A881946FEF7C7FFFA88FB89D31AB0
:1024100098B2BA883B8A13449BB23A881946FEF7B1
:10242000BBFFFA88FB89134498B2BA883B8AD31A57
:102430009BB23A881946FEF7AFFFFA88FB89D31A98
:1024400098B2BA883B8AD31A9BB23A881946FEF7EB
:10245000A3FFB7F91020B7F90E309A42FFF677AF15
:10246000FEF7B8FD00BF1C37BD4690BD80B483B0F9
:1024700000AF0F4B7B607B681B680E4A13600E4BEE
:102480007B607B681B680D4A13600D4B7B607B682B
:102490001B680C4A13600C4B7B607B681B680B4A03
:1024A000136000BF0C37BD465DF8047B704700BF6A
:1024B000F0FF070848020020F4FF07084C02002044
:1024C000F8FF070850020020FCFF07085402002014
:1024D00080B500AF00224FF48071024803F0E0FFA6
:1024E00000BF80BD0000024080B500AF01224FF464
:1024F0008071024803F0D4FF00BF80BD000002409D
:1025000080B500AF4FF40071054803F0B1FF0346FA
:10251000002B0CBF01230023DBB2184680BD00BF97
:102520000000024080B58EB002AF78603960FFF7DE
:10253000CFFF0023FB620023BB62002387F8273014
:10254000002387F826304BE0FFF7DAFF034683F0DD
:102550000103DBB2002B48D197F82730013387F80D
:1025600027304FF0FF3301224D494E4804F09FFCC5
:1025700007F110024FF0FF33009302234A49494804
:1025800004F0D1FD4FF0FF3301224849454804F0E3
:102590008EFC07F10C024FF0FF33009302234249F7
:1025A000404804F0C0FD3B7B1B027A7B1343BB61B8
:1025B000BB69DB08C3F30B03FA6A1344FB623B7C81
:1025C0001B027A7C13437B617B69DB08C3F30B033B
:1025D000BA6A1344BB6297F82630013387F8263075
:1025E00097F826300F2BAFD900E000BFFFF77CFF34
:1025F00097F827300F2B01D800234CE0FB6A1B090A
:102600003B622B4B1B683A6A9A4202D2284B1B68EA
:102610003B62284B1B683A6A9A4202D9254B1B68D9
:102620003B62BB6A1B09FB61234B1B68FA699A4238
:1026300002D2214B1B68FB61204B1B68FA699A424E
:1026400002D91E4B1B68FB61194B1B683A6AD21AF0
:1026500013469B0013449B011946164B1A68144BF2
:102660001B68D31AB1FBF3F39AB27B681A80124B42
:102670001B68FA69D21A13461B019B1A1B011946E3
:102680000E4B1A680C4B1B68D31AB1FBF3F39AB2CA
:102690003B681A80012318463037BD4680BD00BF15
:1026A000F0540108A0030020F4540108F854010874
:1026B000480200204C02002050020020540200205A
:1026C00080B483B000AF294B1B685B08274A1360B6
:1026D000274B1B685B08264A1360264B1B685B0868
:1026E000244A1360244B1B685B08234A1360214B68
:1026F0001A681E4B1B68D31A204AA2FB03235B09EE
:102700007B601D4B1A681A4B1B68D31A9B081C4A26
:10271000A2FB03235B083B607A6813469B001344CB
:102720005B007B603A6813469B0013445B003B6090
:102730000E4B1A687B68D31A124A13600D4B1A6845
:102740007B681344104A1360094B1A683B68D31A1C
:102750000E4A1360084B1A683B6813440C4A136016
:1027600000BF0C37BD465DF8047B7047580200205F
:10277000600200205C02002064020020B5814E1B34
:1027800095204F09480200204C02002050020020F2
:102790005402002080B58EB002AF0346FB7101E009
:1027A000FFF796FEFFF7ACFE034683F00103DBB2B2
:1027B000002BF5D10023FB620023BB62002387F8C6
:1027C0002730002387F826304BE0FFF799FE0346B9
:1027D00083F00103DBB2002B48D197F82730013397
:1027E00087F827304FF0FF3301228149814804F0F8
:1027F0005EFB07F110024FF0FF33009302237E4986
:102800007C4804F090FC4FF0FF3301227B4979486B
:1028100004F04DFB07F10C024FF0FF33009302234D
:102820007549744804F07FFC3B7B1B027A7B1343A1
:102830003B623B6ADB08C3F30B03FA6A1344FB6297
:102840003B7C1B027A7C1343FB61FB69DB08C3F30F
:102850000B03BA6A1344BB6297F82630013387F83A
:10286000263097F826300F2BAFD900E000BFFFF7D6
:102870003BFE97F827300F2B00D890E7FB6A1B0927
:10288000BB61BB6A1B097B61FB79042B00F2AA8048
:1028900001A252F823F000BFAD280008C1280008AB
:1028A000DB280008F528000819290008544ABB69EC
:1028B0001360544A7B691360642001F0F9FC91E0D5
:1028C000514ABB6913604F4B1A687B6913444D4AE8
:1028D0001360642001F0ECFC84E0494B1A68BB698A
:1028E0001344474A1360494A7B691360642001F02E
:1028F000DFFC77E0444B1A68BB691344424A13601B
:10290000424B1A687B691344404A1360642001F00B
:10291000CFFCFFF7D5FE65E0642001F0C9FC3C4B1D
:102920001B687A69D21A13461B019B1A1B011946B0
:10293000384B1A68364B1B68D31AB1FBF3F37C2B68
:102940004ED8334B1B687A69D21A13461B019B1A67
:102950001B0119462F4B1A682D4B1B68D31AB1FB6C
:10296000F3F3732B3CD92C4B1B68BA69D21A13466C
:102970009B0013449B011946284B1A68264B1B6881
:10298000D31AB1FBF3F3A42B2AD8234B1B68BA69E3
:10299000D21A13469B0013449B0119461F4B1A6819
:1029A0001D4B1B68D31AB1FBF3F39B2B18D91A4BA1
:1029B0001B6819461A4801F099FC184B1B68194608
:1029C000184801F093FC124B1B681946164801F099
:1029D0008DFC104B1B681946144801F087FC01E080
:1029E000002300E0012318463037BD4680BD00BFFC
:1029F000FC540108A00300200055010804550108FB
:102A000058020020600200205C02002064020020C6
:102A10005002002054020020480200204C020020F6
:102A2000F0FF0708F4FF0708F8FF0708FCFF070896
:102A300080B584B004AF0020FEF74AFD214B224A46
:102A400092E80300186004331980002300934FF4C8
:102A5000FC631C4A4C216920FEF742FE194B1B4ABD
:102A600007CA03C31A80002300934FF4FC63154A7E
:102A700078214120FEF734FE154B002202924FF6DA
:102A8000E07201925A6800921B68124ADC21FA2017
:102A9000FEF7FDFE4FF6E073029302230193042339
:102AA00000936C23F02242212820FFF700FB4FF413
:102AB000FA6002F075FA642001F0FAFB00BFBD462F
:102AC00080BD00BF6802002048AE000850AE00087C
:102AD000000000205CAE000880B586B004AF03465D
:102AE000FB71FB79062B00F2008101A252F823F062
:102AF0000D2B0008692B00089B2B0008CB2B00082E
:102B0000FD2B00086B2C0008AB2C00080020FEF702
:102B1000DFFC784B002202924FF6E07201925A6875
:102B200000921B68744A32210F20FEF7B0FE714BF1
:102B3000002202924FF6E07201925A6800921B68DE
:102B40006E4A46210F20FEF7A2FE4FF6E0730A22DE
:102B50000A210A20FFF7B3FB4FF6E07309220A218E
:102B60000A20FFF7ACFBC0E00023009319231922D1
:102B700000210020FEF742FC4FF6E0730A220A21F2
:102B800040F23510FFF79BFB4FF6E07309220A2154
:102B900040F23510FFF793FBA7E0002300931923C1
:102BA0001922002140F22B10FEF728FC4FF6E073AB
:102BB0000A22E5210A20FFF782FB4FF6E073092283
:102BC000E5210A20FFF77BFB8FE000230093192308
:102BD0001922DB210020FEF711FC4FF6E0730A22D8
:102BE000E52140F23510FFF76AFB4FF6E07309224A
:102BF000E52140F23510FFF762FB76E000230093F9
:102C000019231922DB2140F22B10FEF7F7FB0023DA
:102C1000009328234FF4917232210F20FEF7EEFB30
:102C20000023009314233C2264218C20FEF7E6FB52
:102C3000304B002202924FF6E07201925A680092E5
:102C40001B682F4A14213C20FEF721FE4FF6E0734B
:102C50000A227821A020FFF732FB4FF6E073092209
:102C60007821A020FFF72BFB3FE0002300931423E3
:102C70004FF4827214213C20FEF7C0FB0023009326
:102C80001E231E226E219620FEF7B8FB194B002250
:102C900002924FF6E07201925A6800921B68194A3C
:102CA00014214B20FEF7F3FD1FE0002300931423B3
:102CB0004FF4827232213C20FEF7A0FB00230093E8
:102CC0001E231E226E219620FEF798FB094B002240
:102CD00002924FF6E07201925A6800921B680A4A0B
:102CE00014213C20FEF7D3FD00BF00BF0837BD46CE
:102CF00080BD00BF0000002064AE000880AE000868
:102D00009CAE0008B0AE0008C0AE000880B586B02A
:102D100004AF0346FB71FB79002B0ED0104B002251
:102D200002924FF6E07201925A6800921B680D4AB7
:102D300064218C20FEF7ABFD0DE0094B00220292CE
:102D40004FF6E07201925A6800921B68064A6421AD
:102D50008C20FEF79CFD00BF0837BD4680BD00BF3C
:102D600000000020D4AE0008DCAE000880B500AF43
:102D7000FFF7BAFBFEF72EF90A2002F011F9084B13
:102D80001B68074A43F040031360FEF7CFF90020A9
:102D9000FEF79EFB642002F003F900BF80BD00BF78
:102DA0000030014080B586B004AF0023FB714FF0C6
:102DB00000033B60434B1B8807EE903AF8EE676ACE
:102DC000404B1B7A1A46404B53F8223007EE903A9C
:102DD000F8EE677A86EEA77A3A4B5B8807EE903A70
:102DE000B8EE676A374B5B7A1A46374B53F8223096
:102DF00007EE903AF8EE676AC6EE267A37EE277A43
:102E0000F7EE006AC6EE877AC7ED007AD7ED007A52
:102E10009FED2E7AF4EEC77AF1EE10FA09DB022369
:102E2000FB7197ED007ADFED296AC7EE267AC7EDD0
:102E3000007AD7ED007A9FED267AF4EEC77AF1EEAC
:102E400010FA09DB0123FB7197ED007ADFED206AB0
:102E5000C7EE267AC7ED007A1E4B1F4A92E80300A0
:102E60001860043319801D4B1F2202924FF6FF7227
:102E700001925A6800921B68164A02210A20FEF746
:102E800006FD3868FDF768FB02460B46F9791448E1
:102E900050F82110009113490E4805F027FD0F4B03
:102EA0001F2202924FF6FF7201925A6800921B682D
:102EB000084A02214120FEF7EAFC00BF0837BD4660
:102EC00080BD00BF40000020200000200024744985
:102ED00000007A4468020020E4AE000800000020F0
:102EE00014000020ECAE000880B586B004AF87ED7A
:102EF000010A1A4B1A4A92E8030018600433198039
:102F000002330A0C1A70174B1F2202924FF6FF72FF
:102F100001925A6800921B68104A0221BE20FEF7F7
:102F2000B6FC7868FDF718FB02460B460E49009187
:102F30000E490A4805F0DAFC0A4B1F2202924FF6AE
:102F4000FF7201925A6800921B68044A0221F52020
:102F5000FEF79DFC00BF0837BD4680BD680200201B
:102F6000F8AE0008000000200CAF000800AF000819
:102F700080B582B002AF164B164A92E80300186083
:102F80000433198002330A0C1A70002300934FF4A3
:102F9000FC630F4A1E210C20FEF7A2FB0E4B1B8880
:102FA00019460D4B1B7A1A460C4B53F822300A4631
:102FB0000B49074805F09AFC002300934FF4FC638B
:102FC000034A1E217D20FEF78BFB00BFBD4680BD5E
:102FD0006802002010AF0008400000200800002018
:102FE00018AF000880B582B002AF144B144A92E8C3
:102FF000030083E80300002300934FF6E0730F4AB9
:103000004E210C20FEF76CFB0E4B5B8819460D4BD6
:103010005B7A1A460C4B53F822300A460B49074894
:1030200005F064FC002300934FF6E073034A4E2141
:103030007D20FEF755FB00BFBD4680BD6802002025
:1030400024AF0008400000200800002018AF00084E
:1030500080B582B002AF1D4B1D4A92E80300186094
:103060000433198002330A0C1A70002300934FF6C0
:103070001F03164A7E210C20FEF732FB154B9B885E
:10308000002B11D0134B9B881A46134B13490F4842
:1030900005F02CFC002300934FF61F030B4A7E2102
:1030A0007D20FEF71DFB0DE00B4A0D49074805F09A
:1030B0001DFC002300934FF61F03044A7E217D2050
:1030C000FEF70EFB00BFBD4680BD00BF68020020BA
:1030D0002CAF00084000002034AF000818AF0008F3
:1030E00038AF000890B585B002AF044608461146D7
:1030F0001A462346FB800346BB800B467B80134663
:103100003B803B8B002B1CD1FB88013B9BB218B250
:10311000BB88013B9BB219B27B8802339BB21AB2C7
:103120003B8802339BB21BB200240094FEF712FDD1
:103130003C887A88B988F888FB6900932346FEF7B3
:10314000F1FB3B8B012B1CD1B7F90600B7F904103A
:103150007B8802339BB21AB23B8802339BB21BB20C
:1031600000240094FEF7F6FCFB88013398B2BB887C
:10317000013399B23C887A88FB6900932346FEF7B5
:10318000D1FB00BF0C37BD4690BD000080B584B0B8
:1031900004AF0020FEF79CF91F23009316234FF481
:1031A000A07200210020FEF729F9FFF7FBFDFFF7D1
:1031B000DFFEFFF717FFFFF74BFF204B01930023C4
:1031C000009332233222B6211820FFF78BFF1C4BCD
:1031D00001930023009332233222B6216220FFF7AD
:1031E00081FF184B01930023009332233222B62132
:1031F000AC20FFF777FF144B019300230093322399
:103200003222B621F620FFF76DFF104A6B4607CA3F
:1032100083E8070000234FF6E0722B214FF4827001
:10322000FEF7C8FB0121012000F02CFB002100204B
:1032300000F028FB00BFBD4680BD00BF6CD6000873
:10324000A8FE0008F4E90008E4C200086856010876
:1032500090B482B000AF0446084611461A46234691
:10326000FB800346BB800B467B8013463B80FA887D
:103270007B889A4211D3FA8879883B8A0B449A4218
:103280000BDCBA883B889A4207D3BA883988BB8A54
:103290000B449A4201DC012300E000231846083762
:1032A000BD4690BC7047000080B584B004AF314B80
:1032B0001B6803F00803002B0CD1002302930223A8
:1032C0000193042300933023F2221C210720FEF7F0
:1032D000EEFE0CE04FF6E073029302230193042309
:1032E00000933023F2221C210720FEF7E0FE214B41
:1032F0001B6803F01003002B0CD100230293022360
:103300000193042300933023F2224C210720FEF77F
:10331000CEFE0CE04FF6E0730293022301930423E8
:1033200000933023F2224C210720FEF7C0FE114B00
:103330001B6803F02003002B0CD10023029302230F
:103340000193042300933023F2227C210720FEF70F
:10335000AEFE0CE04FF6E0730293022301930423C8
:1033600000933023F2227C210720FEF7A0FE00BF4D
:10337000BD4680BDC004002080B586B004AF0346C2
:10338000FB71FB79002B23D0002300933C23B42254
:103390003C212820FEF732F84FF6E0730293022317
:1033A0000193032300933E23B6223A212620FEF701
:1033B0007EFE104B104A07CA03C31A700023009305
:1033C0004FF478430B4A41213020FEF789F90DE094
:1033D000002300933E23B6223A212620FEF70EF862
:1033E000FFF7C6FDFFF7FEFDFFF75EFF00BF0837E2
:1033F000BD4680BD6802002044AF000880B586B09D
:1034000004AF0346FB71FB79002B23D0002300930C
:103410003C23B4223C212820FDF7F0FF4FF6E07357
:10342000029302230193032300933E23B6223A2101
:103430002620FEF73CFE104B104A07CA03C31A7041
:10344000002300934FF478430B4A41213020FEF7CC
:1034500047F90DE0002300933E23B6223A212620AF
:10346000FDF7CCFFFFF784FDFFF7BCFDFFF71CFF66
:1034700000BF0837BD4680BD6802002050AF00087D
:1034800080B582B002AF234B1B6803F00203002B10
:103490003CD1214B1B68002B38D1204B1B68002BE3
:1034A00034D11C4B1B6843F002031A4A1360194BBA
:1034B0001B6823F03803174A1360FFF7F5FE184B1B
:1034C000DB7A002B03D1164B1B7B002B1ED0144B39
:1034D0005B7B002B0DD0124B00225A73114B0193D2
:1034E0000023009332233222B621F620FFF7FAFDA3
:1034F0000CE00B4B01225A730B4B019301230093F9
:1035000032233222B621F620FFF7ECFD00BFBD4684
:1035100080BD00BFC0040020D8040020D0040020DB
:1035200040000020E4C200085CAF000880B582B013
:1035300002AF064B01930023009332233222B621BF
:10354000F620FFF7CFFD00BFBD4680BDE4C20008F6
:1035500080B485B000AFF860084611461A460346AD
:103560007B810B463B811346FB803B89012B1BD1A2
:10357000FB681B881A467B891A443B8B9A4207DA00
:10358000FB681A887B8913449AB2FB681A8026E08C
:10359000FB681B883A8B9A4221D9FB681B88013350
:1035A0009AB2FB681A801AE0FB681B881A467B896E
:1035B000D21AFB889A4207DDFB681A887B89D31AE6
:1035C0009AB2FB681A800AE0FB681B88FA889A4264
:1035D00005D2FB681B88013B9AB2FB681A8000BFCA
:1035E0001437BD465DF8047B7047000080B584B099
:1035F00002AF03460A46FB801346BB80294B1B687B
:1036000003F00803002B19D0274B1B7A022B09D09B
:10361000BA88F98840F2E733009301232248FFF784
:1036200097FF07E0BA88F9881423009301231E4806
:10363000FFF78EFFFFF79CFCFFF7B4FB194B1B68ED
:1036400003F01003002B19D0174B5B7A022B09D023
:10365000BA88F98840F2E733009301231348FFF753
:1036600077FF07E0BA88F9881423009301230F48F5
:10367000FFF76EFFFFF7B6FCFFF794FB094B1B68E3
:1036800003F02003002B09D0BA88F988FF230093A8
:1036900000230748FFF75CFFFFF7DAFC00BF08379D
:1036A000BD4680BDC0040020400000204200002034
:1036B0004400002080B400AF1B4B1B6841F28732EE
:1036C000934207D8184B1B68B3F57A6F02D9174B92
:1036D00002221A80144B1B68B3F57A6F08D2124B82
:1036E0001B6840F6B832934202D9104B05221A806B
:1036F0000D4B1B6840F6B732934207D80A4B1B6844
:10370000B3F5FA6F02D9094B0A221A80064B1B68DF
:10371000B3F5FA6F02D2054B19221A8000BFBD46DD
:103720005DF8047B704700BF9C0200202C00002045
:1037300080B582B000AF0346FB80214B1B6803F0CD
:103740000103002B09D11E4B1B6843F001031C4AE7
:1037500013601C4B41F27C521A60194B1B6803F03A
:103760000203002B05D1FB8819460120FFF73EFF1D
:1037700013E0154B1B88012B0FD9134B1B88FA88BC
:1037800011461846FFF732FF0F4B1B88C3F1640345
:103790009BB21BB2184600F08BFD094B1B6803F06F
:1037A0000203002B05D1064B1B6843F00203044AB9
:1037B0001360FFF77FFF00BF0837BD4680BD00BF25
:1037C000C00400209C0200202C00002080B500AF27
:1037D0002A4B1B6803F00203002B4DD1274B1B68BB
:1037E00043F00203254A1360244B1B6803F00803CF
:1037F000002B1ED0224B1B7A012B06D8204B1B7AA4
:103800000133DAB21E4B1A7202E01D4B00221A720B
:10381000FFF7AEFB1A4B1B7A022B06D1184B1B8805
:10382000142B02D9164B14221A80FFF7A1FBFFF7C5
:10383000B9FA124B1B6803F01003002B1CD0104B7D
:103840005B7A012B06D80E4B5B7A0133DAB20C4B54
:103850005A7202E00A4B00225A72094B5B7A022B21
:1038600006D1074B5B88142B02D9054B14225A80D2
:10387000FFF7B8FBFFF796FA00BF80BDC004002039
:103880004000002080B586B004AF03460A46FB71B5
:103890001346BB71FB79002B45D0BB79002B21D09F
:1038A000454B0122DA72454B454A1A604FF6E073E8
:1038B0000193032300931A23322266214FF482706E
:1038C000FEF780FC3F4B4FF6E0720292002201921D
:1038D0005A6800921B68394A6A214FF48770FDF7D5
:1038E000D6FF65E0344B0022DA72344B344A1A605A
:1038F0001F230193032300931A23322266214FF4DE
:103900008270FEF75FFC2F4B1F2202924FF6FF7270
:1039100001925A6800921B68284A6A214FF4877006
:10392000FDF7B5FF44E0BB79002B21D0224B0122EB
:103930001A73224B244A1A604FF6E0730193032353
:1039400000931A2332228C214FF48270FEF73AFC46
:103950001C4B4FF6E0720292002201925A680092CC
:103960001B68164A90214FF48770FDF790FF1FE007
:10397000114B00221A73114B134A1A601F23019333
:10398000032300931A2332228C214FF48270FEF716
:1039900019FC0C4B1F2202924FF6FF7201925A68DB
:1039A00000921B68054A90214FF48770FDF76FFF66
:1039B00000BF0837BD4680BD4000002068020020DF
:1039C0004E504E0000000020504E500080B582B096
:1039D00000AF0346FB71184B1B6803F00203002B7A
:1039E00025D1154B1B6843F00203134A1360FB7982
:1039F000012B0CD1114BDB7A002B04D000210120CC
:103A0000FFF740FF03E001210120FFF73BFFFB79B7
:103A1000002B0CD1094B1B7B002B04D00021002074
:103A2000FFF730FF03E001210020FFF72BFF00BF6D
:103A30000837BD4680BD00BFC00400204000002004
:103A400080B582B002AF8B4B1B6903F40073002B6F
:103A500040F0058188498948FEF764FD0346002B44
:103A600000F0F580864B1B6803F00403002B08D19F
:103A7000834B1B6843F00403814A1360642000F009
:103A800017FC7E4B18887C4B198832230193322314
:103A90000093B623F622FFF7DBFB0346002B01D091
:103AA000FFF7EEFC774B5B7B002B40F0D080734B35
:103AB0001888714B198823230193EB2300931E234D
:103AC0000F22FFF7C5FB0346002B0DD06C4B1B6884
:103AD00023F030036A4A1360694B1B6843F0080304
:103AE000674A1360FFF7E0FB644B1888624B198844
:103AF00023230193EB2300934E230F22FFF7A8FB10
:103B00000346002B0DD05E4B1B6823F028035C4A54
:103B100013605B4B1B6843F01003594A1360FFF7B7
:103B2000C3FB564B1888544B198823230193EB236E
:103B300000937E230F22FFF78BFB0346002B0DD053
:103B40004F4B1B6823F018034D4A13604C4B1B6806
:103B500043F020034A4A1360FFF7A6FB474B18883F
:103B6000454B19883223019332230093B623182240
:103B7000FFF76EFB0346002B0CD0434B0193012350
:103B8000009332233222B6211820FFF7ABFA01202E
:103B9000FFF7CEFD394B1888374B19883223019334
:103BA00032230093B623AC22FFF752FB0346002BCF
:103BB0000CD0364B01930123009332233222B621DD
:103BC000AC20FFF78FFA0020FFF7B2FD2B4B1888CF
:103BD000294B19883223019332230093B6236222A2
:103BE000FFF736FB0346002B0BD0294B0193012333
:103BF000009332233222B6216220FFF773FAFFF7D7
:103C0000E5FD1E4B18881C4B19881A23019332239B
:103C1000009366234FF48272FFF71AFB0346002BD2
:103C200002D00120FFF7D2FE144B1888124B1988DE
:103C30001A230193322300938C234FF48272FFF7EF
:103C400007FB0346002B02D00020FFF7BFFE114BFD
:103C500041F288321A60104B32221A6005E0084B9C
:103C60001B6823F00403064A136000F017F800BF36
:103C7000BD4680BD0000024092020020900200205C
:103C8000C0040020400000206CD60008F4E90008C1
:103C9000A8FE0008940200209802002080B582B09F
:103CA00002AF264B1B68002B0DD1254B1B6803F080
:103CB0003803002B07D0224B1B6823F03803204A1F
:103CC0001360FFF7F1FA1F4B1B68002B32D11C4B1E
:103CD0001B6803F00203002B2CD01B4B0193002325
:103CE000009332233222B6211820FFF7FBF9174B3D
:103CF00001930023009332233222B621AC20FFF738
:103D0000F1F9134B01930023009332233222B621A1
:103D10006220FFF7E7F90A4B1B6823F00103084A0A
:103D20001360074B1B6823F00203054A1360094B1D
:103D300001221A8000BFBD4680BD00BF9402002052
:103D4000C0040020980200206CD60008F4E90008A6
:103D5000A8FE00082C00002080B500AF01F0AEF8EE
:103D600000F040F800F0E8F900F0CCF900F0F4F8C9
:103D700000F028F900F05CF900F09CF8164B1B6A83
:103D8000154A43F010031362134B1B6A124A43F4A3
:103D900080731362104B9B690F4A23F4E0439361D5
:103DA0000D4BDB690C4A23F07003D3610A4B9B690E
:103DB000094A43F480439361074BDB69064A43F0A9
:103DC0004003D36140220549054801F051F900F054
:103DD000BBFE00F0CFFEFCE7000C004040040020DA
:103DE000A002002080B594B000AF07F1200330227C
:103DF0000021184604F008F907F10C0300221A60AC
:103E00005A609A60DA601A610023BB60274B1B6C12
:103E1000264A43F080531364244B1B6C03F08053F9
:103E2000BB60BB6800237B60214B1B68204A43F4C6
:103E3000404313601E4B1B6803F440437B607B6868
:103E400001233B624FF480337B620223BB634FF458
:103E50008003FB6304233B6464237B640223BB6411
:103E60000423FB6407F12003184602F033FB0346EA
:103E7000002B01D000F0D6F90F23FB6002233B6139
:103E800000237B614FF48053BB610023FB6107F18A
:103E90000C030321184602F095FD0346002B01D0C8
:103EA00000F0C0F900BF5037BD4680BD0038024069
:103EB0000070004080B584B000AF3B4600221A601D
:103EC0005A609A60DA60214B214A1A601F4B4FF406
:103ED00000325A601D4B00229A601C4B00221A616E
:103EE0001A4B01221A76194B002283F82020174B17
:103EF0000022DA62154B174A9A62144B0022DA60EC
:103F0000124B0122DA61114B012283F830200F4B52
:103F100001225A610D4801F067F80346002B01D0D9
:103F200000F080F903233B6001237B600723BB6023
:103F30003B461946054801F0A9F90346002B01D07C
:103F400000F070F900BF1037BD4680BDA002002010
:103F5000002001400100000F80B500AF174B184A48
:103F60001A60164B4FF482725A60144B00229A600A
:103F7000124B0022DA60114B00221A610F4B002213
:103F80005A610E4B4FF400729A610C4B0022DA61B9
:103F90000A4B00221A62094B00225A62074B002288
:103FA0009A62064B0A22DA62044802F0F7FE0346E0
:103FB000002B01D000F036F900BF80BD480300207F
:103FC0000030014080B500AF174B184A1A60164BFD
:103FD0004FF482725A60144B00229A60124B0022F6
:103FE000DA60114B00221A610F4B00225A610E4B0E
:103FF0004FF400729A610C4B3822DA610A4B0022AE
:104000001A62094B00225A62074B00229A62064B41
:104010000A22DA62044802F0C1FE0346002B01D0F6
:1040200000F000F900BF80BDA00300200038004070
:1040300080B58AB000AF07F1200300221A605A60F1
:104040003B1D00221A605A609A60DA601A615A6158
:104050009A61294B294A1A60274B00225A60264B45
:1040600000229A60244B264ADA60234B00221A6110
:10407000214B80229A61204803F0C2FA0346002BAC
:1040800001D000F0CFF800233B6200237B6207F1F0
:1040900020031946184803F00BFF0346002B01D0FC
:1040A00000F0C0F860237B6046F2A813BB600023D9
:1040B000FB6000237B613B1D042219460E4803F080
:1040C000F7FB0346002B01D000F0ACF840F63403B8
:1040D000BB603B1D08221946074803F0E9FB034675
:1040E000002B01D000F09EF8034800F061FA00BFF9
:1040F0002837BD4680BD00BFF8030020000C0040FB
:10410000A086010080B483B000AF00237B60094B20
:104110001B6B084A43F480031363064B1B6B03F4C9
:1041200080037B607B6800BF0C37BD465DF8047B75
:10413000704700BF0038024080B588B000AF07F17B
:104140000C0300221A605A609A60DA601A61002338
:10415000BB60314B1B6B304A43F0800313632E4B23
:104160001B6B03F08003BB60BB6800237B602A4BA2
:104170001B6B294A43F001031363274B1B6B03F0AE
:1041800001037B607B6800233B60234B1B6B224A4F
:1041900043F002031363204B1B6B03F002033B60ED
:1041A0003B68002241F207211C4802F079F9002205
:1041B0004FF4A0611A4802F073F941F20723FB6043
:1041C00001233B6100237B610023BB6107F10C03EA
:1041D0001946124801F0C8FF4FF4A063FB600123A9
:1041E0003B6100237B610023BB6107F10C0319468F
:1041F0000B4801F0B9FF4FF40073FB6000233B61F3
:1042000000237B6107F10C031946054801F0ACFF60
:1042100000BF2037BD4680BD003802400004024088
:104220000000024080B400AF72B600BFFEE780B469
:1042300087B000AF03460A46FB801346BB800023CD
:10424000FB82B7F90620B7F9043092FBF3F39BB277
:1042500001339BB2FB8100233B6113E0B7F90620D9
:10426000B7F904309A4213DDFA88BB88D31A9BB29F
:10427000FB80B7F916309BB201339BB2FB823B69DE
:1042800001333B61B7F90E303A699A42E6DB00E050
:1042900000BFB7F916309BB201339BB2FB82B7F96E
:1042A000163018461C37BD465DF8047B7047000089
:1042B00080B483B000AF0346FB800A4B1B68002B21
:1042C00009D1B7F90630074A1360074B9B69064AC4
:1042D00043F40073936100BF0C37BD465DF8047B67
:1042E000704700BFC404002000040240B0B582B093
:1042F00000AF7860396001F0C5FD094BF322DA6048
:104300003B6800221C46154622462B46796802204F
:1043100001F064FD01F0D8FD00BF0837BD46B0BD17
:10432000003C024080B483B000AF00237B60104BA0
:104330005B6C0F4A43F4804353640D4B5B6C03F496
:1043400080437B607B6800233B60094B1B6C084A01
:1043500043F080531364064B1B6C03F080533B60A7
:104360003B6800BF0C37BD465DF8047B704700BF5B
:104370000038024080B58AB000AF786007F11403BE
:1043800000221A605A609A60DA601A617B681B68C2
:104390002F4A934257D100233B612E4B5B6C2D4A31
:1043A00043F4807353642B4B5B6C03F480733B6169
:1043B0003B690023FB60274B1B6B264A43F001033C
:1043C0001363244B1B6B03F00103FB60FB680823A2
:1043D0007B610323BB610023FB6107F114031946D2
:1043E0001D4801F0C1FE1D4B1D4A1A601B4B0022E7
:1043F0005A601A4B00229A60184B0022DA60174B61
:104400004FF480621A61154B4FF400625A61134BEE
:104410004FF400529A61114B4FF48072DA610F4BE6
:1044200000221A620D4B00225A620C4801F0F0FA89
:104430000346002B01D0FFF7F5FE7B68074A9A631D
:10444000064A7B68936300BF2837BD4680BD00BF26
:10445000002001400038024000000240E802002035
:104460001064024080B58CB000AF786007F11C0387
:1044700000221A605A609A60DA601A617B681B68D1
:10448000324A93422CD10023BB61314B5B6C304AE2
:1044900043F4805353642E4B5B6C03F48053BB6135
:1044A000BB6900237B612A4B1B6B294A43F0010344
:1044B0001363274B1B6B03F001037B617B69E023D4
:1044C000FB6102233B6200237B620323BB62052363
:1044D000FB6207F11C0319461E4801F045FE31E05E
:1044E0007B681B681C4A93422CD100233B61184B0C
:1044F0001B6C174A43F480431364154B1B6C03F485
:1045000080433B613B690023FB60114B1B6B104AEE
:1045100043F0020313630E4B1B6B03F00203FB60BB
:10452000FB684FF46043FB6102233B6200237B6224
:104530000323BB620523FB6207F11C0319460748EE
:1045400001F012FE00BF3037BD4680BD0030014093
:1045500000380240000002400038004000040240E1
:1045600080B584B000AF78607B681B680E4A9342C8
:1045700015D10023FB600D4B1B6C0C4A43F0080364
:1045800013640A4B1B6C03F00803FB60FB680022FA
:104590000021322001F005FA322001F01EFA00BF9E
:1045A0001037BD4680BD00BF000C004000380240FF
:1045B00080B588B000AF786007F10C0300221A6064
:1045C0005A609A60DA601A617B681B68124A9342EB
:1045D0001DD10023BB60114B1B6B104A43F001033C
:1045E00013630E4B1B6B03F00103BB60BB68062318
:1045F000FB6002233B6100237B610023BB6102233C
:10460000FB6107F10C031946054801F0ADFD00BF41
:104610002037BD4680BD00BF000C0040003802407E
:104620000000024080B400AFFEE780B400AFFEE7B8
:1046300080B400AFFEE780B400AFFEE780B400AF07
:10464000FEE780B400AF00BFBD465DF8047B704755
:1046500080B400AF00BFBD465DF8047B704780B4F6
:1046600000AF00BFBD465DF8047B704780B500AF6A
:10467000264B1B68002B04D0244B1B68013B234AAC
:104680001360234B1B68002B04D0214B1B68013B9C
:104690001F4A13601F4B1B68002B04D01D4B1B6867
:1046A000013B1C4A13601C4B1B68012B04D91A4B9D
:1046B0001B68013B184A1360184B1B68012B04D977
:1046C000164B1B68013B154A1360154B1B68002BEA
:1046D00004D0134B1B68013B114A1360114B1B683C
:1046E000002B04D00F4B1B68013B0E4A13600D4B8F
:1046F0001B680A2B05D10C4B9B690B4A43F00073D6
:10470000936100F02DFC00BF80BD00BF940200202B
:10471000980200209C020020D0040020D804002031
:10472000D4040020C40400200004024080B500AF7F
:10473000264802F0B4FF264B1B69254A23F00C03E0
:104740001361244BDB88002B05D0224BDB88013B17
:104750009AB2204BDA801F4BDB88002B33D11D4BE4
:104760009B7A002B2FD11C4B1B6803F08003002B7E
:1047700029D1174B9B69164A23F4E0439361144BEC
:10478000DB69134A23F07003D361114B9B69104A14
:1047900043F4804393610E4BDB690D4A43F04003C1
:1047A000D3610B4BDB680A4A23F00C03D360084B40
:1047B0001B68074A23F001031360074B1B6843F093
:1047C0008003054A136000BF80BD00BFF8030020CE
:1047D000000C004040000020C004002080B400AF66
:1047E00001231846BD465DF8047B704780B582B052
:1047F00000AF7860396003F0DDFB034616221A60D3
:104800004FF0FF3318460837BD4680BD80B582B0F3
:1048100000AF78604FF0FF317868FFF7E7FFFEE701
:1048200080B586B000AFF860B9607A6000237B6124
:104830000AE0AFF300800146BB685A1CBA60CAB2F6
:104840001A707B6901337B617A697B689A42F0DB7D
:104850007B6818461837BD4680BD80B586B000AF6E
:10486000F860B9607A6000237B6109E0BB685A1C7C
:10487000BA601B781846AFF300807B6901337B6117
:104880007A697B689A42F1DB7B6818461837BD4627
:1048900080BD80B483B000AF78604FF0FF3318461E
:1048A0000C37BD465DF8047B704780B483B000AF21
:1048B000786039603B684FF400525A600023184614
:1048C0000C37BD465DF8047B704780B483B000AF01
:1048D0007860012318460C37BD465DF8047B7047AD
:1048E00080B485B000AFF860B9607A6000231846E4
:1048F0001437BD465DF8047B7047000080B586B074
:1049000000AF7860144A154BD31A7B617B693B6119
:10491000134B1B68002B02D1114B124A1A60104B2B
:104920001A687B6813443A699A4207D203F042FB43
:1049300003460C221A604FF0FF3309E0084B1B6856
:10494000FB60074B1A687B681344054A1360FB68D9
:1049500018461837BD4680BD000002200004000044
:10496000C80400201005002080B400AF064BD3F827
:104970008830054A43F47003C2F8883000BFBD4652
:104980005DF8047B704700BF00ED00E080B400AF2D
:10499000514B9A88504BDA80504B9B694F4A23F415
:1049A000E04393614D4BDB694C4A23F07003D361C4
:1049B0004A4B1B69494A23F00C031361464B1B8881
:1049C0001A46454B1B7A1946454B53F8213003FBD9
:1049D00002F2414B5B8819463F4B5B7A1846404BCD
:1049E00053F8203001FB03F33C491344CB623A4BAC
:1049F0001B881946384B1B7A1A46394B53F822301C
:104A0000364A01FB03F39363334B1B881946324B41
:104A10001B7A1A46324B53F82230304A01FB03F31B
:104A2000D3632E4B00225A622C4B5B692B4A43F016
:104A300001035361284BDB88002B02D1264B012256
:104A40009A72254B1B7B002B13D0234BDB7A002B58
:104A50000FD1214B9B7A002B05D1204BDB681F4ADD
:104A600043F00803D3601D4B9B691C4A43F4C043C9
:104A70009361194BDB7A002B0FD0174B9B7A002BDD
:104A800005D1164BDB68154A43F00403D360134B82
:104A9000DB69124A43F06003D3610F4B1B7B002B91
:104AA0000FD00D4BDB7A002B0BD00C4B9B690B4AC4
:104AB00043F4C0439361094BDB69084A43F0600348
:104AC000D361064B1B68054A43F00103136000BF26
:104AD000BD465DF8047B704740000020000C00409C
:104AE0003400002080B400AF154B9B69144A23F4B6
:104AF000E0439361124BDB69114A23F07003D361E9
:104B00000F4B9B690E4A43F4804393610C4BDB6966
:104B10000B4A43F04003D361094BDB68084A23F09A
:104B20000C03D360064B1B68054A23F00103136096
:104B3000044B00229A7200BFBD465DF8047B7047AB
:104B4000000C00404000002080B500AFFEF70EF9D9
:104B500000F024F9FDF78AFCFDF76AFFFEF716FB6B
:104B6000024B1A88024B1A8000BF80BD400400200F
:104B7000CC04002080B500AFFEF762FF2F4B5B7BBB
:104B8000002B0DD02E4B1B6803F48073002B07D134
:104B90002B4B1B6843F48073294A1360FFF7F6FE22
:104BA000274B1B6803F08003002B15D0244B1B6898
:104BB00003F48073002B0FD0214B1B6823F080037C
:104BC0001F4A13600120FEF7D7FB1E4B4FF47A7289
:104BD0001A606420FFF76CFB194B1B6803F48073A9
:104BE000002B14D0174B1B68012B10D1154B002242
:104BF0001A60134B1B6823F48073114A1360FEF78D
:104C000095FC0E4B00225A730020FEF7B5FB0B4BB0
:104C10005B7B002B0DD10A4B1B6803F48073002BC8
:104C200007D0FFF75FFF064B1B6823F48073044A2D
:104C3000136000F009F800BF80BD00BF40000020F5
:104C4000C0040020D804002080B584B000AF002349
:104C5000FB604FF000037B600023BB600AE0484A22
:104C6000BB6832F813301A46FB681344FB60BB681C
:104C70000133BB60BB683F2BF1DDFB68002B00DA22
:104C80003F339B11FB603F4B1B881A46FB689B1A06
:104C9000002B02DC0023FB6005E03A4B1B881A4620
:104CA000FB689B1AFB60FB6807EE903AF8EEE77A28
:104CB00017EE900AFBF750FC2DA3D3E90023FBF776
:104CC000A3FC02460B46104619462BA3D3E900234A
:104CD000FBF79AFC02460B46104619464FF00002BD
:104CE000294BFBF791FC02460B4610461946FBF791
:104CF00063FF03467B60254B1B68002B07D1234BCA
:104D00004FF4FA721A6097ED010AFEF7EDF8D7ED4D
:104D1000017AB0EE007AF4EEC77AF1EE10FA0BDD0C
:104D2000FFF7E0FE0120FEF769FB194B4FF47A72A2
:104D30001A606420FFF7BCFA154B1B68012B10D1D9
:104D4000134B00221A600020FEF758FB114B1B6822
:104D500023F480730F4A1360FEF7E8FB0E4B00222A
:104D60005A7300BF1037BD4680BD00BFAFF300804F
:104D70002D431CEBE2364A3F52B81E85EB51F83FFB
:104D800040040020CC04002000002640D404002071
:104D9000D0040020C00400204000002080B500AFF7
:104DA000304B1B681B68B3F1FF3F59D100BF002097
:104DB000FDF792FE0020FDF7A9FF0020FDF7EAFCB9
:104DC0000120FDF7A3FF4FF47A7000F0E9F801200D
:104DD000FDF782FE0020FDF799FF0120FDF7DAFCC8
:104DE0000120FDF793FF4FF47A7000F0D9F802200C
:104DF000FDF772FE0020FDF789FF0220FDF7CAFCD7
:104E00000120FDF783FF4FF47A7000F0C9F803200A
:104E1000FDF762FE0020FDF779FF0320FDF7BAFCE5
:104E20000120FDF773FF4FF47A7000F0B9F8042009
:104E3000FDF752FE0420FDF7ADFC0346002B07D022
:104E40000520FDF749FE4FF47A7000F0A9F807E05D
:104E50000620FDF741FE4FF47A7000F0A1F8A6E7B6
:104E600000BF80BD50000020DFF834D00D480E494F
:104E70000E4A002302E0D458C4500433C4188C42B4
:104E8000F9D30B4A0B4C002301E013600432A24219
:104E9000FBD3FFF769FD03F093F8FEF75DFF704762
:104EA00000000220000000202C020020745A01089B
:104EB0002C02002010050020FEE7000080B500AFA6
:104EC0000E4B1B680D4A43F4007313600B4B1B68B9
:104ED0000A4A43F480631360084B1B68074A43F493
:104EE00080731360032000F051FD0F2000F008F8DC
:104EF000FFF718FA0023184680BD00BF003C0240AF
:104F000080B582B000AF7860124B1A68124B1B78E4
:104F100019464FF47A73B3FBF1F3B2FBF3F318467F
:104F200000F069FD0346002B01D001230EE07B68F1
:104F30000F2B0AD8002279684FF0FF3000F031FDC6
:104F4000064A7B681360002300E0012318460837F7
:104F5000BD4680BD300000205800002054000020D5
:104F600080B400AF064B1B781A46064B1B681344EF
:104F7000044A136000BFBD465DF8047B704700BF64
:104F800058000020DC04002080B400AF034B1B68F5
:104F90001846BD465DF8047B704700BFDC04002066
:104FA00080B584B000AF7860FFF7EEFFB8607B6833
:104FB000FB60FB68B3F1FF3F05D00A4B1B781A4634
:104FC000FB681344FB6000BFFFF7DEFF0246BB68CF
:104FD000D31AFA689A42F7D800BF00BF1037BD460F
:104FE00080BD00BF5800002080B584B000AF78605D
:104FF0000023FB737B68002B01D1012333E07B6826
:105000001B6C002B09D17868FFF7B4F97B6800228C
:105010005A647B68002283F83C207B681B6C03F099
:105020001003002B18D17B681B6C23F4885323F0EA
:10503000020343F002027B681A64786800F058FAB1
:105040007B6800225A647B681B6C23F0030343F0E7
:1050500001027B681A6401E00123FB737B68002274
:1050600083F83C20FB7B18461037BD4680BD00000E
:1050700080B586B000AFF860B9607A6000233B610C
:10508000FB6893F83C30012B01D10223CEE0FB6892
:10509000012283F83C20FB681B689B6803F0010336
:1050A000012B18D0FB681B689A68FB681B6842F0EC
:1050B00001029A605F4B1B685F4AA2FB03239A0CB4
:1050C00013465B0013443B6102E03B69013B3B61DB
:1050D0003B69002BF9D1FB681B689B6803F4807364
:1050E000B3F5807F07D1FB681B689A68FB681B6873
:1050F00022F480729A60FB681B689B6803F00103CE
:10510000012B40F08680FB681B6C23F4E06323F0E6
:10511000010343F48072FB681A64FB681B685B68D8
:1051200003F48063002B07D0FB681B6C23F440530F
:1051300043F48052FB681A64FB681B6C03F48053D1
:10514000B3F5805F06D1FB685B6C23F00602FB6859
:105150005A6402E0FB6800225A64FB68002283F86C
:105160003C20364B7B61FB689B6B354ADA63FB68FE
:105170009B6B344A1A64FB689B6B334ADA64FB68A6
:105180001B686FF022021A60FB681B685A68FB6894
:105190001B6842F080625A60FB681B689A68FB6873
:1051A0001B6842F480729A60FB68986BFB681B680E
:1051B0004C331946BA687B6800F0D8FC7B695B68A1
:1051C00003F01F03002B0FD1FB681B689B6803F0E3
:1051D0004053002B29D1FB681B689A68FB681B6849
:1051E00042F080429A6020E0FB681B68174A9342B5
:1051F0001BD1FB681B689B6803F04053002B14D144
:10520000FB681B689A68FB681B6842F080429A60E2
:105210000BE0FB681B6C43F01002FB681A64FB6830
:105220005B6C43F00102FB685A6400231846183790
:10523000BD4680BD3000002083DE1B4300230140BB
:10524000E9560008A3570008BF5700080020014096
:1052500080B483B000AF786000BF0C37BD465DF806
:10526000047B704780B483B000AF786000BF0C3718
:10527000BD465DF8047B704780B483B000AF7860B2
:1052800000BF0C37BD465DF8047B704780B485B025
:1052900000AF786039600023BB607B6893F83C30D6
:1052A000012B01D1022313E17B68012283F83C200A
:1052B0003B681B68092B25D97B681B68D9683B684C
:1052C0001B689BB21A4613465B0013441E3B072221
:1052D00002FA03F3DA437B681B680A40DA607B68F2
:1052E0001B68D9683B689A683B681B689BB2184684
:1052F00003465B0003441E3B9A407B681B680A43DD
:10530000DA6022E07B681B6819693B681B689BB206
:105310001A4613465B001344072202FA03F3DA43EA
:105320007B681B680A401A617B681B6819693B68C7
:105330009A683B681B689BB2184603465B000344AF
:105340009A407B681B680A431A613B685B68062BBE
:1053500024D87B681B68596B3B685A6813469B00CE
:105360001344053B1F2202FA03F3DA437B681B68F0
:105370000A405A637B681B68596B3B681B689BB289
:1053800018463B685A6813469B001344053B00FAD5
:1053900003F27B681B680A435A634CE03B685B6816
:1053A0000C2B24D87B681B68196B3B685A68134622
:1053B0009B001344233B1F2202FA03F3DA437B686A
:1053C0001B680A401A637B681B68196B3B681B6883
:1053D0009BB218463B685A6813469B001344233B14
:1053E00000FA03F27B681B680A431A6323E07B68B8
:1053F0001B68D96A3B685A6813469B001344413BBB
:105400001F2202FA03F3DA437B681B680A40DA6260
:105410007B681B68D96A3B681B689BB218463B686F
:105420005A6813469B001344413B00FA03F27B6821
:105430001B680A43DA62294BFB607B681B68284AB9
:1054400093420FD13B681B68122B0BD1FB685B6842
:1054500023F40002FB685A60FB685B6843F4800237
:10546000FB685A607B681B681D4A93422BD13B68DE
:105470001B681C4A934203D03B681B68112B22D146
:10548000FB685B6823F48002FB685A60FB685B681A
:1054900043F40002FB685A603B681B68114A934260
:1054A00011D1114B1B68114AA2FB03239A0C13461E
:1054B0009B0013445B00BB6002E0BB68013BBB6028
:1054C000BB68002BF9D17B68002283F83C200023C5
:1054D00018461437BD465DF8047B70470023014031
:1054E00000200140120000103000002083DE1B432A
:1054F00080B485B000AF7860794BFB60FB685B6877
:1055000023F44032FB685A60FB685A687B685B682A
:105510001A43FB685A607B681B685A687B681B6883
:1055200022F480725A607B681B6859687B681B692B
:105530001A027B681B680A435A607B681B685A68BA
:105540007B681B6822F040725A607B681B68596850
:105550007B689A687B681B680A435A607B681B6893
:105560009A687B681B6822F400629A607B681B68FB
:1055700099687B68DA687B681B680A439A607B6875
:105580009B6A584A934222D07B681B689A687B6862
:105590001B6822F070629A607B681B6899687B6860
:1055A0009A6A7B681B680A439A607B681B689A68E2
:1055B0007B681B6822F040529A607B681B68996880
:1055C0007B68DA6A7B681B680A439A600FE07B6835
:1055D0001B689A687B681B6822F070629A607B681F
:1055E0001B689A687B681B6822F040529A607B684F
:1055F0001B689A687B681B6822F002029A607B68CD
:105600001B6899687B681B7E5A007B681B680A438D
:105610009A607B6893F82030002B1BD07B681B6856
:105620005A687B681B6842F400625A607B681B689A
:105630005A687B681B6822F460425A607B681B686A
:1056400059687B685B6A013B5A037B681B680A43A5
:105650005A6007E07B681B685A687B681B6822F405
:1056600000625A607B681B68DA6A7B681B6822F4F8
:105670007002DA627B681B68D96A7B68DB69013B70
:105680001A057B681B680A43DA627B681B689A68A4
:105690007B681B6822F400729A607B681B689968BB
:1056A0007B6893F830305A027B681B680A439A6023
:1056B0007B681B689A687B681B6822F480629A602A
:1056C0007B681B6899687B685B699A027B681B68CA
:1056D0000A439A6000BF1437BD465DF8047B7047EB
:1056E000002301400100000F80B584B000AF786056
:1056F0007B689B6BFB60FB681B6C03F05003002B0B
:105700003CD1FB681B6C43F40072FB681A64FB68B5
:105710001B689B6803F04053002B2BD1FB681B7E5A
:10572000002B27D1FB681B68DB6A03F47003002B96
:1057300006D0FB681B689B6803F48063002B19D1BB
:10574000FB681B685A68FB681B6822F020025A60DD
:10575000FB681B6C23F48072FB681A64FB681B6C8B
:1057600003F48053002B05D1FB681B6C43F001024E
:10577000FB681A64F868FFF76BFD0EE0FB681B6CB2
:1057800003F01003002B03D0F868FFF775FD04E069
:10579000FB689B6BDB6C7868984700BF1037BD4691
:1057A00080BD80B584B000AF78607B689B6BFB6088
:1057B000F868FFF757FD00BF1037BD4680BD80B5C4
:1057C00084B000AF78607B689B6BFB60FB68402215
:1057D0001A64FB685B6C43F00402FB685A64F86867
:1057E000FFF74AFD00BF1037BD4680BD80B485B0CD
:1057F00000AF78607B6803F00703FB600C4BDB684D
:10580000BB60BA684FF6FF031340BB60FB681A0227
:10581000BB68134343F0BF6343F40033BB60044AE7
:10582000BB68D36000BF1437BD465DF8047B70478A
:1058300000ED00E080B400AF044BDB681B0A03F00E
:1058400007031846BD465DF8047B704700ED00E095
:1058500080B483B000AF0346FB7197F90730002B8B
:105860000BDBFB7903F01F02074997F907305B094F
:10587000012000FA02F241F8232000BF0C37BD4698
:105880005DF8047B704700BF00E100E080B483B0A6
:1058900000AF03463960FB7197F90730002B0ADB34
:1058A0003B68DAB20C4997F907301201D2B20B44C7
:1058B00083F800230AE03B68DAB20849FB7903F079
:1058C0000F03043B1201D2B20B441A7600BF0C370F
:1058D000BD465DF8047B704700E100E000ED00E0AC
:1058E00080B489B000AFF860B9607A60FB6803F0FB
:1058F0000703FB61FB69C3F10703042B28BF0423E3
:10590000BB61FB690433062B02D9FB69033B00E052
:1059100000237B614FF0FF32BB6902FA03F3DA43E5
:10592000BB681A407B699A404FF0FF317B6901FAEE
:1059300003F3D9437B680B40134318462437BD4615
:105940005DF8047B7047000080B582B000AF7860DE
:105950007B68013BB3F1807F01D301230FE00A4A4A
:105960007B68013B53600F214FF0FF30FFF78EFF44
:10597000054B00229A60044B07221A600023184648
:105980000837BD4680BD00BF10E000E080B582B0A2
:1059900000AF78607868FFF729FF00BF0837BD4681
:1059A00080BD80B586B000AF0346B9607A60FB73F6
:1059B00000237B61FFF73EFF78617A68B9687869F8
:1059C000FFF78EFF024697F90F3011461846FFF792
:1059D0005DFF00BF1837BD4680BD80B582B000AF07
:1059E0000346FB7197F907301846FFF731FF00BFF8
:1059F0000837BD4680BD80B582B000AF786078685A
:105A0000FFF7A2FF034618460837BD4680BD0000D9
:105A100080B586B000AF786000237B61FFF7B4FAF1
:105A200038617B68002B01D1012399E07B68022259
:105A300083F835207B68002283F834207B681B685C
:105A40001A687B681B6822F001021A600FE0FFF7FA
:105A50009BFA02463B69D31A052B08D97B682022A2
:105A60005A657B68032283F83520032378E07B683E
:105A70001B681B6803F00103002BE8D17B681B68DF
:105A80001B687B617A69384B13407B617B685A687D
:105A90007B689B681A437B68DB681A437B681B69D9
:105AA0001A437B685B691A437B689B691A437B686E
:105AB000DB691A437B681B6A13437A6913437B6172
:105AC0007B685B6A042B07D17B68DA6A7B681B6B97
:105AD00013437A6913437B617B681B687A691A6098
