:020000042000DA
:10000000000002200D4A00206D43002073430020B1
:10001000794300207F43002085430020000000003A
:100020000000000000000000000000008B430020E2
:100030009943002000000000A7430020B5430020A2
:100040005D4A00205D4A00205D4A00205D4A002094
:100050005D4A00205D4A00205D4A00205D4A002084
:100060005D4A00205D4A00205D4A00205D4A002074
:100070005D4A00205D4A00205D4A00205D4A002064
:100080005D4A00205D4A00205D4A0020000000001B
:100090000000000000000000000000005D4A002099
:1000A0005D4A00205D4A00205D4A00205D4A002034
:1000B0005D4A00205D4A00205D4A00205D4A002024
:1000C0005D4A00205D4A00205D4A00205D4A002014
:1000D0005D4A00205D4A00205D4A002000000000CB
:1000E0005D4A00205D4A00205D4A002000000000BB
:1000F0000000000000000000000000005D4A002039
:10010000000000005D4A00205D4400205D4A0020A0
:1001100000000000000000000000000000000000DF
:100120005D4A00205D4A00205D4A00205D4A0020B3
:100130005D4A0020000000000000000000000000F8
:100140000000000000000000000000005D4A0020E8
:100150005D4A00205D4A00205D4A00205D4A002083
:100160005D4A00205D4A0020000000000000000001
:10017000000000000000000000000000000000007F
:10018000000000005D4A00200000000000000000A8
:080190005D4A00205D4A0020D9
:1001A00010B5054C237833B9044B13B10448AFF3B1
:1001B00000800123237010BD584901200000000079
:1001C000989A002008B5034B1BB103490348AFF3CD
:1001D000008008BD000000005C490120989A0020C2
:1001E000034613F8012B002AFBD1181A0138704777
:1001F00001F0FF01102A2BDB10F0070F08D010F8D8
:10020000013B013A8B422DD010F0070F42B3F6D1DB
:10021000F0B441EA012141EA014122F007047FF0F4
:1002200000070023F0E80256083C85EA010586EA4B
:10023000010685FA47F5A3FA87F586FA47F6A5FA87
:1002400087F68EB9EED1F0BC01F0FF0102F0070293
:1002500032B110F8013B013A83EA010313B1F8D13E
:100260000020704701387047002D06BF354603381F
:10027000073815F0010F07D1013015F4807F02BF58
:10028000013015F4C03F0130F0BC0138704700BFA9
:1002900081F0004102E000BF83F0004330B54FEA37
:1002A00041044FEA430594EA050F08BF90EA020FA4
:1002B0001FBF54EA000C55EA020C7FEA645C7FEA37
:1002C000655C00F0E2804FEA5454D4EB5555B8BF5A
:1002D0006D420CDD2C4480EA020281EA030382EACB
:1002E000000083EA010180EA020281EA0303362D5D
:1002F00088BF30BD11F0004F4FEA01314FF4801C30
:100300004CEA113102D0404261EB410113F0004F41
:100310004FEA03334CEA133302D0524263EB4303F8
:1003200094EA050F00F0A780A4F10104D5F1200E96
:100330000DDB02FA0EFC22FA05F2801841F10001F1
:1003400003FA0EF2801843FA05F359410EE0A5F1C5
:1003500020050EF1200E012A03FA0EFC28BF4CF0F6
:10036000020C43FA05F3C01851EBE37101F00045AC
:1003700007D54FF0000EDCF1000C7EEB00006EEBB9
:100380000101B1F5801F1BD3B1F5001F0CD3490843
:100390005FEA30004FEA3C0C04F101044FEA44529A
:1003A00012F5800F80F09A80BCF1004F08BF5FEA21
:1003B000500C50F1000041EB045141EA050130BD01
:1003C0005FEA4C0C404141EB0101013C28BFB1F513
:1003D000801FE9D291F0000F04BF01460020B1FA5E
:1003E00081F308BF2033A3F10B03B3F120020CDA31
:1003F0000C3208DD02F1140CC2F10C0201FA0CF00F
:1004000021FA02F10CE002F11402D8BFC2F1200C73
:1004100001FA02F120FA0CFCDCBF41EA0C01904029
:10042000E41AA2BF01EB0451294330BD6FEA040472
:100430001F3C1CDA0C340EDC04F11404C4F120025D
:1004400020FA04F001FA02F340EA030021FA04F36F
:1004500045EA030130BDC4F10C04C4F1200220FAC6
:1004600002F001FA04F340EA0300294630BD21FA04
:1004700004F0294630BD94F0000F83F4801306BFCA
:1004800081F480110134013D4EE77FEA645C18BFBE
:100490007FEA655C29D094EA050F08BF90EA020F55
:1004A00005D054EA000C04BF1946104630BD91EA4D
:1004B000030F1EBF0021002030BD5FEA545C05D150
:1004C0004000494128BF41F0004130BD14F580048F
:1004D0003CBF01F5801130BD01F0004545F0FE4103
:1004E00041F470014FF0000030BD7FEA645C1ABF38
:1004F000194610467FEA655C1CBF0B46024650EA6F
:10050000013406BF52EA033591EA030F41F400219A
:1005100030BD00BF90F0000F04BF0021704730B520
:100520004FF4806404F132044FF000054FF00001F5
:1005300050E700BF90F0000F04BF0021704730B5B6
:100540004FF4806404F1320410F0004548BF40428B
:100550004FF000013EE700BF42004FEAE2014FEAE0
:1005600031014FEA02701FBF12F07F4393F07F4FBB
:1005700081F06051704732F07F4208BF704793F0BE
:100580007F4F04BF41F40021704730B54FF46074D1
:1005900001F0004521F000411CE700BF50EA0102D4
:1005A00008BF704730B54FF000050AE050EA01027D
:1005B00008BF704730B511F0004502D5404261EBED
:1005C00041014FF4806404F132045FEA915C3FF42E
:1005D000D8AE4FF003025FEADC0C18BF03325FEACB
:1005E000DC0C18BF033202EBDC02C2F1200300FA7C
:1005F00003FC20FA02F001FA03FE40EA0E0021FAA1
:1006000002F11444BDE600BF70B54FF0FF0C4CF48E
:10061000E06C1CEA11541DBF1CEA135594EA0C0F40
:1006200095EA0C0F00F0DEF82C4481EA030621EA7B
:100630004C5123EA4C5350EA013518BF52EA0335B6
:1006400041F4801143F4801338D0A0FB02CE4FF068
:100650000005E1FB02E506F00042E0FB03E54FF098
:100660000006E1FB03569CF0000F18BF4EF0010E90
:10067000A4F1FF04B6F5007F64F5407404D25FEA8C
:100680004E0E6D4146EB060642EAC62141EA55513F
:100690004FEAC52040EA5E504FEACE2EB4F1FD0C81
:1006A00088BFBCF5E06F1ED8BEF1004F08BF5FEAFF
:1006B000500E50F1000041EB045170BD06F00046B1
:1006C00046EA010140EA020081EA0301B4EB5C045E
:1006D000C2BFD4EB0C0541EA045170BD41F4801156
:1006E0004FF0000E013C00F3AB8014F1360FDEBF7B
:1006F000002001F0004170BDC4F10004203C35DA57
:100700000C341BDC04F11404C4F1200500FA05F3D9
:1007100020FA04F001FA05F240EA020001F000427A
:1007200021F0004110EBD37021FA04F642EB0601F0
:100730005EEA430E08BF20EAD37070BDC4F10C041A
:10074000C4F1200500FA04F320FA05F001FA04F2DE
:1007500040EA020001F0004110EBD37041F10001CA
:100760005EEA430E08BF20EAD37070BDC4F12005D5
:1007700000FA05F24EEA020E20FA04F301FA05F23D
:1007800043EA020321FA04F001F0004121FA04F2E5
:1007900020EA020000EBD3705EEA430E08BF20EAB5
:1007A000D37070BD94F0000F0FD101F000464000EF
:1007B00041EB010111F4801F08BF013CF7D041EA71
:1007C000060195F0000F18BF704703F00046520075
:1007D00043EB030313F4801F08BF013DF7D043EA46
:1007E0000603704794EA0C0F0CEA135518BF95EAFC
:1007F0000C0F0CD050EA410618BF52EA4306D1D183
:1008000081EA030101F000414FF0000070BD50EAA1
:10081000410606BF1046194652EA430619D094EA2B
:100820000C0F02D150EA013613D195EA0C0F05D115
:1008300052EA03361CBF104619460AD181EA030169
:1008400001F0004141F0FE4141F470014FF0000021
:1008500070BD41F0FE4141F4780170BD70B54FF0BC
:10086000FF0C4CF4E06C1CEA11541DBF1CEA13553C
:1008700094EA0C0F95EA0C0F00F0A7F8A4EB05041E
:1008800081EA030E52EA03354FEA013100F0888015
:100890004FEA03334FF0805545EA131343EA1263DE
:1008A0004FEA022245EA111545EA10654FEA002693
:1008B0000EF000419D4208BF964244F1FD0404F54C
:1008C000407402D25B084FEA3202B61A65EB0305A8
:1008D0005B084FEA32024FF480104FF4002CB6EB65
:1008E000020E75EB030E22BFB61A754640EA0C00E5
:1008F0005B084FEA3202B6EB020E75EB030E22BF25
:10090000B61A754640EA5C005B084FEA3202B6EB65
:10091000020E75EB030E22BFB61A754640EA9C0024
:100920005B084FEA3202B6EB020E75EB030E22BFF4
:10093000B61A754640EADC0055EA060E18D04FEAB2
:10094000051545EA16754FEA06164FEAC30343EA52
:1009500052734FEAC2025FEA1C1CC0D111F4801F1F
:100960000BD141EA00014FF000004FF0004CB6E718
:1009700011F4801F04BF01430020B4F1FD0C88BFB7
:10098000BCF5E06F3FF6AFAEB5EB030C04BFB6EBC2
:10099000020C5FEA500C50F1000041EB045170BDB5
:1009A0000EF0004E4EEA113114EB5C04C2BFD4EBE2
:1009B0000C0541EA045170BD41F480114FF0000E66
:1009C000013C90E645EA060E8DE60CEA135594EAE2
:1009D0000C0F08BF95EA0C0F3FF43BAF94EA0C0FE5
:1009E0000AD150EA01347FF434AF95EA0C0F7FF45A
:1009F00025AF104619462CE795EA0C0F06D152EAAE
:100A000003353FF4FDAE1046194622E750EA410691
:100A100018BF52EA43067FF4C5AE50EA41047FF4A2
:100A20000DAF52EA43057FF4EBAE12E74FF0FF3C07
:100A300006E000BF4FF0010C02E000BF4FF0010CD8
:100A40004DF804CD4FEA410C7FEA6C5C4FEA430C51
:100A500018BF7FEA6C5C1BD001B050EA410C0CBFA0
:100A600052EA430C91EA030F02BF90EA020F002002
:100A7000704710F1000F91EA030F58BF994208BF69
:100A800090422CBFD8176FEAE37040F00100704726
:100A90004FEA410C7FEA6C5C02D150EA013C07D17D
:100AA0004FEA430C7FEA6C5CD6D152EA033CD3D0C8
:100AB0005DF8040B704700BF8446104662468C46C2
:100AC0001946634600E000BF01B5FFF7B7FF0028F5
:100AD00048BF10F1000F01BD4DF808EDFFF7F4FF1E
:100AE0000CBF012000205DF808FB00BF4DF808EDA9
:100AF000FFF7EAFF34BF012000205DF808FB00BFCC
:100B00004DF808EDFFF7E0FF94BF012000205DF8ED
:100B100008FB00BF4DF808EDFFF7CEFF94BF0120A2
:100B200000205DF808FB00BF4DF808EDFFF7C4FF9B
:100B300034BF012000205DF808FB00BF4FEA410CE4
:100B40007FEA6C5C02D150EA013C0AD14FEA430CC7
:100B50007FEA6C5C02D152EA033C02D14FF0000004
:100B600070474FF0010070474FEA410212F5001242
:100B700015D211D56FF47873B3EB625212D94FEAE4
:100B8000C12343F0004343EA505311F0004F23FACE
:100B900002F018BF404270474FF00000704750EA23
:100BA000013005D111F0004008BF6FF000407047E0
:100BB0004FF00000704700BF53B94AB9002908BF81
:100BC00000281CBF4FF0FF314FF0FF3000F074B928
:100BD000ADF1080C6DE904CE00F006F8DDF804E094
:100BE000DDE9022304B070472DE9F047089D044673
:100BF0008E46002B4DD18A42944669D9B2FA82F2D0
:100C000052B101FA02F3C2F1200120FA01F10CFA0B
:100C100002FC41EA030E94404FEA1C48210CBEFB43
:100C2000F8F61FFA8CF708FB16E341EA034306FBCC
:100C300007F199420AD91CEB030306F1FF3080F05B
:100C40001F81994240F21C81023E63445B1AA4B2A8
:100C5000B3FBF8F008FB103344EA034400FB07F74A
:100C6000A7420AD91CEB040400F1FF3380F00A818B
:100C7000A74240F207816444023840EA0640E41B80
:100C800000261DB1D4400023C5E900433146BDE82C
:100C9000F0878B4209D9002D00F0EF800026C5E9CE
:100CA000000130463146BDE8F087B3FA83F6002EE6
:100CB0004AD18B4202D3824200F2F980841A61EB5E
:100CC000030301209E46002DE0D0C5E9004EDDE77C
:100CD00002B9FFDEB2FA82F2002A40F09280A1EB64
:100CE0000C014FEA1C471FFA8CFE0126200CB1FBB9
:100CF000F7F307FB131140EA01410EFB03F08842B2
:100D000008D91CEB010103F1FF3802D2884200F23E
:100D1000CB804346091AA4B2B1FBF7F007FB1011D0
:100D200044EA01440EFB00FEA64508D91CEB04046E
:100D300000F1FF3102D2A64500F2BB800846A4EBC9
:100D40000E0440EA03409CE7C6F12007B34022FAB4
:100D500007FC4CEA030C20FA07F401FA06F31C43E3
:100D6000F9404FEA1C4900FA06F3B1FBF9F8200CF0
:100D70001FFA8CFE09FB181140EA014108FB0EF036
:100D8000884202FA06F20BD91CEB010108F1FF3A86
:100D900080F08880884240F28580A8F10208614492
:100DA000091AA4B2B1FBF9F009FB101144EA0141A0
:100DB00000FB0EFE8E4508D91CEB010100F1FF344B
:100DC0006CD28E456AD90238614440EA0840A0FBE3
:100DD0000294A1EB0E01A142C846A64656D353D0B9
:100DE0005DB1B3EB080261EB0E0101FA07F722FADD
:100DF00006F3F1401F43C5E9007100263146BDE806
:100E0000F087C2F12003D8400CFA02FC21FA03F368
:100E1000914001434FEA1C471FFA8CFEB3FBF7F0E9
:100E200007FB10360B0C43EA064300FB0EF69E420E
:100E300004FA02F408D91CEB030300F1FF382FD2A7
:100E40009E422DD9023863449B1B89B2B3FBF7F64F
:100E500007FB163341EA034106FB0EF38B4208D928
:100E60001CEB010106F1FF3816D28B4214D9023E69
:100E70006144C91A46EA004638E72E46284605E787
:100E80000646E3E61846F8E64B45A9D2B9EB020858
:100E900064EB0C0E0138A3E74646EAE7204694E7E8
:100EA0004046D1E7D0467BE7023B614432E730461B
:100EB00009E76444023842E7704700BF80B483B05A
:100EC00000AF78600B467B8010E07B681A78104B8F
:100ED000DA6000BF0E4B9B6803F00203002BF9D0D1
:100EE0007B6801337B607B88013B7B807B88002BA8
:100EF000EBD100BF064B9B6803F08003002BF9D1B8
:100F000000BF00BF0C37BD465DF8047B704700BFD3
:100F10000030014080B400AF054B9B69044A43F4A4
:100F20008023936100BFBD465DF8047B704700BF1E
:100F30000004024080B400AF054B9B69044A43F0B3
:100F40000403936100BFBD465DF8047B704700BF9A
:100F50000004024080B500AF00220221064804F0E0
:100F600089FA052003F0EEFD01220221024804F077
:100F700081FA00BF80BD00BF0004024080B582B08E
:100F800000AF0346FB71074B9B69064A43F480336D
:100F90009361FB1D01211846FFF790FF00BF083742
:100FA000BD4680BD0004024080B584B000AF7860CB
:100FB0003960114B9B69104A43F00103936113E0C0
:100FC0003B68B3F5004F28BF4FF40043FB81FB891A
:100FD00019467868FFF772FFFB897A6813447B60D3
:100FE000FB893A68D31A3B603B68002BE8D100BF0D
:100FF00000BF1037BD4680BD0004024090B585B0EB
:1010000000AF0446084611461A462346FB800346B5
:10101000BB800B467B8013463B802A20FFF7AEFF48
:10102000FB881B0A9BB2DBB23B73FB88DBB27B7392
:101030007B881B0A9BB2DBB2BB737B88DBB2FB7382
:1010400007F10C0304211846FFF7AEFF2B20FFF732
:1010500095FFBB881B0A9BB2DBB23B72BB88DBB23D
:101060007B723B881B0A9BB2DBB2BB723B88DBB254
:10107000FB7207F1080304211846FFF795FF2C20A7
:10108000FFF77CFF00BF1437BD4690BD90B59BB005
:1010900000AF01221021904804F0ECF9FFF73AFF6D
:1010A000FFF758FF0120FFF769FF4FF47A7003F054
:1010B00049FDCB20FFF762FF884A07F1600392E801
:1010C000030018600433197007F160030521184606
:1010D000FFF76AFFCF20FFF751FF814A07F15C035A
:1010E0001268114619800233120C1A7007F15C0362
:1010F00003211846FFF758FFE820FFF73FFF794A22
:1011000007F158031268114619800233120C1A7045
:1011100007F1580303211846FFF746FFEA20FFF7BF
:101120002DFF0023A7F8543007F15403022118467D
:10113000FFF73AFFED20FFF721FF6B4B3B6507F10F
:10114000500304211846FFF72FFFF720FFF716FF83
:10115000202387F84C3007F14C0301211846FFF794
:1011600023FFC020FFF70AFF232387F8483007F149
:10117000480301211846FFF717FFC120FFF7FEFEC5
:10118000102387F8443007F1440301211846FFF784
:101190000BFFC520FFF7F2FE42F63E03A7F84030F2
:1011A00007F1400302211846FFF7FEFEC720FFF7B4
:1011B000E5FE862387F83C3007F13C030121184601
:1011C000FFF7F2FE3620FFF7D9FE482387F83830C4
:1011D00007F1380301211846FFF7E6FE3A20FFF732
:1011E000CDFE552387F8343007F13403012118462A
:1011F000FFF7DAFEB120FFF7C1FE4FF4C0533B8684
:1012000007F1300302211846FFF7CEFEB620FFF7A4
:10121000B5FE364A07F12C031268114619800233D5
:10122000120C1A7007F12C0303211846FFF7BCFEBD
:10123000F220FFF7A3FE002387F8283007F12803E8
:1012400001211846FFF7B0FE2620FFF797FE012385
:1012500087F8243007F1240301211846FFF7A4FE84
:10126000E020FFF78BFE224B07F114040FCB07C4DD
:10127000238002341B0C237007F114030F2118463E
:10128000FFF792FEE120FFF779FE1A4B3C1D0FCBD2
:1012900007C4238002341B0C23703B1D0F2118460A
:1012A000FFF782FE1120FFF769FE782003F04AFC69
:1012B0002920FFF763FE3620FFF760FEE8233B702E
:1012C0003B4601211846FFF76FFEFFF733FE00BFD4
:1012D0006C37BD4690BD00BF00000240B09A0020B0
:1012E000B89A0020BC9A002064031281C09A0020A2
:1012F000C49A0020D49A002080B584B000AF034681
:10130000FB800B46BB8013467B80FB88B3F5A07F38
:101310001FD2BB88EF2B1CD8FFF7FCFDFB880133E5
:101320009AB2BB8801339BB2B988F888FFF766FE92
:101330007B881B0A9BB2DBB23B737B88DBB27B737F
:1013400007F10C0302211846FFF72EFEFFF7F2FD0E
:1013500000E000BF1037BD4680BD000090B585B0ED
:1013600000AF0446084611461A462346FB80034652
:10137000BB800B467B8013463B80FB88B3F5A07F88
:1013800050D2BB88EF2B4DD8FA887B881344B3F535
:10139000A07F03DDFB88C3F5A0737B80BA883B8800
:1013A0001344F02B03DDBB88C3F1F0033B80FFF750
:1013B000B1FDFA887B8813449BB2013B9CB2BA888A
:1013C0003B8813449BB2013B9BB2B988F888224604
:1013D000FFF714FE3B8C1B0A9BB2DBB23B733B8CCA
:1013E000DBB27B7301220121104804F043F83B88F3
:1013F000BB8011E07B88FB8008E007F10C03022131
:101400001846FFF75BFDFB88013BFB80FB88002B48
:10141000F3D1BB88013BBB80BB88002BEAD1FFF72F
:1014200089FD00E000BF1437BD4690BD00040240B6
:1014300080B584B002AF0346FB80FB880093F023A5
:101440004FF4A07200210020FFF788FF00BF08378B
:10145000BD4680BD90B589B000AF04460846114630
:101460001A462346FB800346BB800B46FB7013469F
:101470003B80FB78203B714ADB0013445B689A8811
:10148000FB8813449BB2013B9CB2FB78203B6B4A28
:10149000DB0013445B68DA88BB8813449BB2013BD2
:1014A0009BB2B988F8882246FFF7A8FD01237B8309
:1014B00080237B61FB78203B604ADB0013445B6840
:1014C0009B88082B04D902237B834FF400437B6164
:1014D000FB78203B594ADB0013445B689B88102B48
:1014E00004D903237B834FF400037B61FB78203B0B
:1014F000524ADB0013445B689B88182B04D90423F1
:101500007B834FF000437B610023FB8381E0FB780A
:10151000203B4A4ADB0013445B681A68FB8B134488
:101520001B783B617B8B012B11D93B691B023B6113
:10153000FB78203B414ADB0013445B681A68FB8B55
:10154000013313441B781A463B6913433B617B8B81
:10155000022B11D93B691B023B61FB78203B374AC8
:10156000DB0013445B681A68FB8B023313441B785F
:101570001A463B6913433B617B8B032B11D93B69B3
:101580001B023B61FB78203B2C4ADB0013445B6869
:101590001A68FB8B033313441B781A463B691343C9
:1015A0003B610023BB8326E0BB8B3A699A407B6991
:1015B0001340002B0ED03B881B0A9BB2DBB23B735F
:1015C0003B88DBB27B7307F10C0302211846FFF75F
:1015D000EBFC0DE03B8E1B0A9BB2DBB23B723B8EF9
:1015E000DBB27B7207F1080302211846FFF7DCFC2F
:1015F000BB8B0133BB83FB78203B104ADB001344D9
:101600005B689B88BA8B9A42CED3FA8B7B8B134450
:10161000FB83FA8BFB78203B0849DB000B445B68BB
:10162000DB8819467B8B01FB03F39A42FFF66FAF11
:1016300000BF00BF2437BD4690BD00BF5031012020
:1016400090B587B002AFBA601A460346FB810B46DD
:10165000BB811346FB80FFF75DFC45E0FA89BB6860
:101660001B78203B2649DB000B445B689B881344B6
:10167000B3F5A07F20DB0023FB81BB681B78203BF8
:101680001F4ADB0013445B68DA88BB891344BB81C3
:10169000BA89BB681B78203B1949DB000B445B68A7
:1016A000DB881344EF2B24DCBB681B78202B03D191
:1016B000BB680133BB6017E0BB681A78FC88B98946
:1016C000F8893B8C00932346FFF7C4FEBB681B7868
:1016D000203B0B4ADB0013445B689A88FB89134468
:1016E000FB81BB680133BB60BB681B78002BB5D1A5
:1016F00000E000BFFFF71EFC00BF1437BD4690BDE1
:101700005031012082B090B589B000AF7B630346B1
:10171000FB800B46BB801346FB7097F834309AB2BF
:10172000FB8813449BB2013B9CB297F835309AB2C8
:10173000BB8813449BB2013B9BB2B988F888224610
:10174000FFF75CFC0023FB6143E0BA6BFB78203BB6
:1017500097F8351001FB03F31946FB690B445B0056
:1017600013441B887B610023BB6129E07A69BB6954
:1017700002FA03F303F40043002B0ED0BB8F1B0AC5
:101780009BB2DBB23B74BB8FDBB27B7407F11003FF
:1017900002211846FFF708FC0FE0B7F840301B0A9B
:1017A0009BB2DBB23B73B7F84030DBB27B7307F11F
:1017B0000C0302211846FFF7F7FBBB690133BB613D
:1017C00097F834301A46BB699342CFD3FB69013393
:1017D000FB6197F835301A46FB699342B5D300BFD9
:1017E00000BF2437BD46BDE8904002B0704782B0CC
:1017F00080B586B004AF3A607B610346FB800B4640
:10180000BB80FFF787FB2EE0FB883A7D1344B3F5DE
:10181000A07F13DB0023FB807B7D9AB2BB8813443F
:10182000BB80BB887A7D1344EF2B21DC3B681B789F
:10183000202B03D13B6801333B6014E03B681A78EE
:10184000B988F8883B8C0293BB8B0193BB690093EA
:101850007B69FFF757FF3B7D9AB2FB881344FB80FF
:101860003B6801333B603B681B78002BCCD100E028
:1018700000BFFFF75FFB00BF0837BD46BDE88040F3
:1018800002B0704790B583B000AF044608461146D9
:101890001A462346FB800346BB800B467B801346DB
:1018A0003B80FB88B3F5A07F2CD2BB88EF2B29D8D7
:1018B000FA887B881344B3F5A07F25DCBA883B887F
:1018C0001344F02B22DCFFF725FBFA887B881344B6
:1018D0009BB2013B9CB2BA883B8813449BB2013B4C
:1018E0009BB2B988F8882246FFF788FB7B883A8844
:1018F00002FB03F35B001946B869FFF755FBFFF7DE
:1019000019FB04E000BF02E000BF00E000BF0C379D
:10191000BD4690BD90B58BB000AF04460846114659
:101920001A462346FB800346BB800B467B8013464A
:101930003B80FB88B3F5A07F79D2BB88EF2B76D8AC
:10194000FB8F1BB20821184602F08DFB0346FB8279
:10195000BB8FFA8A12FB03F3BB82FFF7DBFABA8F65
:10196000FB8813449BB2013B9CB2FA8FBB881344A3
:101970009BB2013B9BB2B988F8882246FFF73EFB39
:1019800000233B624CE0BB8FFB840023FB613FE004
:10199000BB6B396AFA690A4413441B787B820023C3
:1019A000BB612DE0FB8C002B2ED0FB8C013BFB841C
:1019B0007A8ABB6902FA03F303F08003002B0ED08E
:1019C0007B881B0A9BB2DBB23B747B88DBB27B74E7
:1019D00007F1100302211846FFF7E6FA0DE03B88F5
:1019E0001B0A9BB2DBB23B733B88DBB27B7307F114
:1019F0000C0302211846FFF7D7FABB690133BB611C
:101A0000BB69072BCEDD00E000BFFB690133FB6142
:101A1000FB8AFA699A42BBDBFB8A3A6A13443B624F
:101A2000BB8A3A6A9A42AEDBFFF784FA00E000BF55
:101A30002C37BD4690BD90B585B002AF0446084630
:101A400011461A462346FB800346BB800B467B802B
:101A500013463B80FFF75EFAF888B9887A883B889E
:101A6000009313460122FFF779FCFFF763FA00BFEA
:101A70000C37BD4690BD90B585B002AF0446084610
:101A800011461A462346FB800346BB800B467B80EB
:101A900013463B80FFF73EFAF888B9887A883B887E
:101AA00000930123FFF75AFCFFF744FA00BF0C37FD
:101AB000BD4690BD90B583B000AF044608461146C0
:101AC0001A462346FB800346BB800B467B801346A9
:101AD0003B803B8BB7F90220B7F90410B7F9060039
:101AE000FFF7C9FFBA883B8813449BB2013B9BB206
:101AF00019B23B8BB7F90220B7F90600FFF7BBFF1D
:101B00003B8BB7F90020B7F90410B7F90600FFF7CF
:101B100092FFFA887B8813449BB2013B9BB218B2B8
:101B20003B8BB7F90020B7F90410FFF784FF00BF23
:101B30000C37BD4690BD90B587B000AF044608464F
:101B400011461A462346FB800346BB800B467B802A
:101B500013467B707B88C3F101039BB2FB82012398
:101B6000BB827B881A46D203D31A5B009BB27B826E
:101B700000233B827B88FB8195E0B7F91630002B70
:101B80000EDBB7F90E309BB2013B9BB2FB817B8A27
:101B900002339BB27B82FA8A7B8A13449BB2FB821C
:101BA000B7F910309BB201339BB23B82BB8A023340
:101BB0009BB2BB82FA8ABB8A13449BB2FB827B78BE
:101BC00003F00403002B17D0FA883B8A134498B221
:101BD000BA88FB8913449BB23A8D1946FFF78CFBF8
:101BE000FA88FB89134498B2BA883B8A13449BB2A3
:101BF0003A8D1946FFF780FB7B7803F00203002B38
:101C000017D0FA883B8A134498B2BA88FB89D31A52
:101C10009BB23A8D1946FFF76FFBFA88FB89134494
:101C200098B2BA883B8AD31A9BB23A8D1946FFF70D
:101C300063FB7B7803F00803002B17D0FA88FB893D
:101C4000D31A98B2BA883B8A13449BB23A8D19468C
:101C5000FFF752FBFA883B8AD31A98B2BA88FB89FD
:101C600013449BB23A8D1946FFF746FB7B7803F08D
:101C70000103002B17D0FA88FB89D31A98B2BA88CF
:101C80003B8AD31A9BB23A8D1946FFF735FBFA8887
:101C90003B8AD31A98B2BA88FB89D31A9BB23A8D81
:101CA0001946FFF729FBB7F91020B7F90E309A4211
:101CB000FFF663AF00BF00BF1C37BD4690BD90B5B7
:101CC00087B000AF0446084611461A462346FB80FB
:101CD0000346BB800B467B8013467B707B88C3F139
:101CE00001039BB2FB820123BB827B881A46D2038D
:101CF000D31A5B009BB27B8200233B827B88FB81F3
:101D00003B8ABB81FB897B81B7F928309BB20133C9
:101D10009BB23B8595E0B7F91630002B0EDBB7F987
:101D20000E309BB2013B9BB2FB817B8A02339BB29C
:101D30007B82FA8A7B8A13449BB2FB82B7F910300C
:101D40009BB201339BB23B82BB8A02339BB2BB8204
:101D5000FA8ABB8A13449BB2FB82B7F90E20B7F90B
:101D600010309A4231DB7B7803F00103002B13D053
:101D7000FA883B8A13449BB218B2BA88FB89D31AFB
:101D80009BB219B2FB895B009AB23B8D13449BB2A4
:101D90001AB2BB8DFFF74FFE7B7803F00203002BD6
:101DA00013D0FA883B8AD31A9BB218B2BA88FB893F
:101DB000D31A9BB219B2FB895B009AB23B8D1344D4
:101DC0009BB21AB2BB8DFFF736FEB7F90E20B7F9FA
:101DD0000A309A4233D07B7803F00103002B13D0F2
:101DE000FA887B8913449BB218B2BA88BB89D31A8C
:101DF0009BB219B2BB895B009AB23B8D13449BB274
:101E00001AB2BB8DFFF717FE7B7803F00203002B9D
:101E100013D0FA887B89D31A9BB218B2BA88BB89CF
:101E2000D31A9BB219B2BB895B009AB23B8D1344A3
:101E30009BB21AB2BB8DFFF7FEFDFB897B813B8A0B
:101E4000BB81B7F91020B7F90E309A42FFF663AFA5
:101E500000BF00BF1C37BD4690BD90B587B002AF34
:101E60000446084611461A462346FB800346BB80BB
:101E70000B467B8013463B800023FB81B7F9022091
:101E8000B7F900309A4206DAB7F90230DA0F134494
:101E90005B10FB8105E0B7F90030DA0F13445B10EB
:101EA000FB81B7F92020B7F90E309A4201DDFB899A
:101EB0003B84FFF72FF8FA883B8C13449BB218B28F
:101EC0007A883B8C5B009BB2D31A9BB21AB2BB8C54
:101ED000B7F90410FFF7CFFDFA883B8C13449BB28F
:101EE00018B2BA883B8813449BB2013B9BB219B22B
:101EF0007A883B8C5B009BB2D31A9BB21AB2BB8C24
:101F0000FFF7B9FDBA883B8C13449BB219B23A88EB
:101F10003B8C5B009BB2D31A9BB21AB2BB8CB7F955
:101F20000600FFF788FDFA887B8813449BB2013BCB
:101F30009BB218B2BA883B8C13449BB219B23A8850
:101F40003B8C5B009BB2D31A9BB21AB2BB8CFFF7DF
:101F500072FDFA883B8C13449BB218B2BA883B8C52
:101F600013449BB219B2B7F92020BB8C0093012314
:101F7000FFF7E1FDFA887B8813449AB23B8CD31AB1
:101F80009BB2013B9BB218B2BA883B8C13449BB204
:101F900019B2B7F92020BB8C00930223FFF7CBFDC9
:101FA000FA887B8813449AB23B8CD31A9BB2013BCC
:101FB0009BB218B2BA883B8813449AB23B8CD31AAE
:101FC0009BB2013B9BB219B2B7F92020BB8C0093A6
:101FD0000423FFF7B0FDFA883B8C13449BB218B280
:101FE000BA883B8813449AB23B8CD31A9BB2013B0C
:101FF0009BB219B2B7F92020BB8C00930823FFF7DE
:102000009AFDFEF797FF00BF1437BD4690BD90B50F
:1020100087B002AF0446084611461A462346FB80A5
:102020000346BB800B467B8013463B80B7F92430C8
:10203000002B44DD0023FB603BE0FB68002B10D14C
:10204000B7F90040B7F90220B7F90410B7F9060054
:102050003B8D0193B7F9203000932346FFF7FDFE37
:1020600024E0FB689AB2FB8813449BB218B2FB6869
:102070009AB2BB8813449BB219B27A88FB689BB2B0
:102080005B009BB2D31A9BB21CB23A88FB689BB22E
:102090005B009BB2D31A9BB21AB23B8D0193B7F986
:1020A0002030009313462246FFF7D7FEFB6801332A
:1020B000FB60B7F92430FA689A42BEDB00E000BF4B
:1020C0001437BD4690BD90B585B000AF04460846B4
:1020D00011461A462346FB800346BB800B467B8095
:1020E00013463B80FB88FB810EE03B8CB7F9002058
:1020F000B7F90410B7F90E00FFF79DFCB7F90E30E1
:102100009BB201339BB2FB81B7F90E20B7F90610E1
:10211000B7F902300B449A42E7DB00BF00BF143727
:10212000BD4690BD90B587B002AF04460846114643
:102130001A462346FB800346BB800B467B80134632
:102140003B80B7F90020B7F902309342A8BF13468D
:102150001BB2DA0F13445B10FB81B7F92020B7F9EB
:102160000E309A4201DDFB893B84FEF7D3FEFA88EC
:102170003B8C13449BB218B27A883B8C5B009BB2B9
:10218000D31A9BB21AB2B7F90040B7F90410BB8C4E
:1021900000932346FFF797FFFA887B8813449AB28F
:1021A0003B8CD31A9BB2013B9BB218B2BA883B8CD2
:1021B00013449BB219B23A883B8C5B009BB2D31A92
:1021C0009BB2013B9BB21BB2B7F92040BA8C019283
:1021D000009301232246FFF772FDFA883B8C1344DB
:1021E0009BB218B2BA883B8C13449BB219B23A889E
:1021F0003B8C5B009BB2D31A9BB2013B9BB21BB2E0
:10220000B7F92040BA8C0192009302232246FFF7CF
:1022100056FDFEF78FFE00BF1437BD4690BD90B54A
:1022200087B000AF0446084611461A462346FB8095
:102230000346BB800B467B8013463B807B88C3F103
:1022400001039BB2FB820123BB827B881A46D20327
:10225000D31A5B009BB27B8200233B827B88FB818D
:10226000FEF758FEF888BA887B8813449BB23A88F8
:102270001946FFF741F8F888BA887B88D31A9BB2D1
:102280003A881946FFF738F8FA887B8813449BB2DE
:10229000B9883A881846FFF72FF8FA887B88D31A4E
:1022A0009BB2B9883A881846FFF726F881E0B7F95B
:1022B0001630002B0EDBB7F90E309BB2013B9BB200
:1022C000FB817B8A02339BB27B82FA8A7B8A13442E
:1022D0009BB2FB82B7F910309BB201339BB23B82B9
:1022E000BB8A02339BB2BB82FA8ABB8A13449BB27D
:1022F000FB82FA883B8A134498B2BA88FB8913445C
:102300009BB23A881946FEF7F7FFFA883B8AD31A40
:1023100098B2BA88FB8913449BB23A881946FEF7F3
:10232000EBFFFA883B8A134498B2BA88FB89D31A28
:102330009BB23A881946FEF7DFFFFA883B8AD31A28
:1023400098B2BA88FB89D31A9BB23A881946FEF72D
:10235000D3FFFA88FB89134498B2BA883B8A1344A6
:102360009BB23A881946FEF7C7FFFA88FB89D31A51
:1023700098B2BA883B8A13449BB23A881946FEF752
:10238000BBFFFA88FB89134498B2BA883B8AD31AF8
:102390009BB23A881946FEF7AFFFFA88FB89D31A39
:1023A00098B2BA883B8AD31A9BB23A881946FEF78C
:1023B000A3FFB7F91020B7F90E309A42FFF677AFB6
:1023C000FEF7B8FD00BF1C37BD4690BD80B483B09A
:1023D00000AF0F4B7B607B681B680E4A13600E4B8F
:1023E0007B607B681B680D4A13600D4B7B607B68CC
:1023F0001B680C4A13600C4B7B607B681B680B4AA4
:10240000136000BF0C37BD465DF8047B704700BF0A
:10241000F0FF070874490120F4FF070878490120FC
:10242000F8FF07087C490120FCFF070880490120CC
:1024300080B500AF00224FF48071024803F01AF813
:1024400000BF80BD0000024080B500AF01224FF404
:102450008071024803F00EF800BF80BD000002400A
:1024600080B500AF4FF48051054802F0EBFF034602
:10247000002B0CBF01230023DBB2184680BD00BF38
:102480000004024080B58EB002AF78603960FFF77B
:10249000CFFF0023FB620023BB62002387F82730B5
:1024A000002387F826304BE0FFF7DAFF034683F07E
:1024B0000103DBB2002B48D197F82730013387F8AE
:1024C00027304FF0FF3301224D494E4803F099FC6D
:1024D00007F110024FF0FF33009302234A494948A5
:1024E00003F0CBFD4FF0FF3301224849454803F08C
:1024F00088FC07F10C024FF0FF330093022342499E
:10250000404803F0BAFD3B7B1B027A7B1343BB615F
:10251000BB69DB08C3F30B03FA6A1344FB623B7C21
:102520001B027A7C13437B617B69DB08C3F30B03DB
:10253000BA6A1344BB6297F82630013387F8263015
:1025400097F826300F2BAFD900E000BFFFF77CFFD4
:1025500097F827300F2B01D800234CE0FB6A1B09AA
:102560003B622B4B1B683A6A9A4202D2284B1B688B
:102570003B62284B1B683A6A9A4202D9254B1B687A
:102580003B62BB6A1B09FB61234B1B68FA699A42D9
:1025900002D2214B1B68FB61204B1B68FA699A42EF
:1025A00002D91E4B1B68FB61194B1B683A6AD21A91
:1025B00013469B0013449B011946164B1A68144B93
:1025C0001B68D31AB1FBF3F39AB27B681A80124BE3
:1025D0001B68FA69D21A13461B019B1A1B01194684
:1025E0000E4B1A680C4B1B68D31AB1FBF3F39AB26B
:1025F0003B681A80012318463037BD4680BD00BFB6
:10260000AC410120244A0120B0410120B441012005
:1026100074490120784901207C490120804901202A
:1026200080B483B000AF294B1B685B08274A136056
:10263000274B1B685B08264A1360264B1B685B0808
:10264000244A1360244B1B685B08234A1360214B08
:102650001A681E4B1B68D31A204AA2FB03235B098E
:102660007B601D4B1A681A4B1B68D31A9B081C4AC7
:10267000A2FB03235B083B607A6813469B0013446C
:102680005B007B603A6813469B0013445B003B6031
:102690000E4B1A687B68D31A124A13600D4B1A68E6
:1026A0007B681344104A1360094B1A683B68D31ABD
:1026B0000E4A1360084B1A683B6813440C4A1360B7
:1026C00000BF0C37BD465DF8047B7047844901208C
:1026D0008C4901208849012090490120B5814E1B79
:1026E00095204F0974490120784901207C49012037
:1026F0008049012080B58EB002AF0346FB7101E036
:10270000FFF796FEFFF7ACFE034683F00103DBB252
:10271000002BF5D10023FB620023BB62002387F866
:102720002730002387F826304BE0FFF799FE034659
:1027300083F00103DBB2002B48D197F82730013337
:1027400087F827304FF0FF3301228149814803F099
:1027500058FB07F110024FF0FF33009302237E492C
:102760007C4803F08AFC4FF0FF3301227B49794813
:1027700003F047FB07F10C024FF0FF3300930223F5
:102780007549744803F079FC3B7B1B027A7B134349
:102790003B623B6ADB08C3F30B03FA6A1344FB6238
:1027A0003B7C1B027A7C1343FB61FB69DB08C3F3B0
:1027B0000B03BA6A1344BB6297F82630013387F8DB
:1027C000263097F826300F2BAFD900E000BFFFF777
:1027D0003BFE97F827300F2B00D890E7FB6A1B09C8
:1027E000BB61BB6A1B097B61FB79042B00F2AA80E9
:1027F00001A252F823F000BF0D280020212800205C
:102800003B2800205528002079280020544ABB6925
:102810001360544A7B691360642001F065FC91E009
:10282000514ABB6913604F4B1A687B6913444D4A88
:102830001360642001F058FC84E0494B1A68BB69BE
:102840001344474A1360494A7B691360642001F0CE
:102850004BFC77E0444B1A68BB691344424A13604F
:10286000424B1A687B691344404A1360642001F0AC
:102870003BFCFFF7D5FE65E0642001F035FC3C4BE6
:102880001B687A69D21A13461B019B1A1B01194651
:10289000384B1A68364B1B68D31AB1FBF3F37C2B09
:1028A0004ED8334B1B687A69D21A13461B019B1A08
:1028B0001B0119462F4B1A682D4B1B68D31AB1FB0D
:1028C000F3F3732B3CD92C4B1B68BA69D21A13460D
:1028D0009B0013449B011946284B1A68264B1B6822
:1028E000D31AB1FBF3F3A42B2AD8234B1B68BA6984
:1028F000D21A13469B0013449B0119461F4B1A68BA
:102900001D4B1B68D31AB1FBF3F39B2B18D91A4B41
:102910001B6819461A4801F005FC184B1B6819463C
:10292000184801F0FFFB124B1B681946164801F0CE
:10293000F9FB104B1B681946144801F0F3FB01E04A
:10294000002300E0012318463037BD4680BD00BF9C
:10295000B8410120244A0120BC410120C04101208E
:10296000844901208C490120884901209049012097
:102970007C490120804901207449012078490120C7
:10298000F0FF0708F4FF0708F8FF0708FCFF070837
:1029900080B584B004AF0020FEF74AFD214B224AE7
:1029A00092E80300186004331980002300934FF469
:1029B000FC631C4A4C216920FEF742FE194B1B4A5E
:1029C00007CA03C31A80002300934FF4FC63154A1F
:1029D00078214120FEF734FE154B002202924FF67B
:1029E000E07201925A6800921B68124ADC21FA20B8
:1029F000FEF7FDFE4FF6E0730293022301930423DA
:102A000000936C23F02242212820FFF700FB4FF4B3
:102A1000FA6002F097F8642001F066FB00BFBD4643
:102A200080BD00BF94490120009B0020089B00202E
:102A30002C470120149B002080B586B004AF0346CC
:102A4000FB71FB79062B00F2008101A252F823F002
:102A50006D2A0020C92A0020FB2A00202B2B0020F1
:102A60005D2B0020CB2B00200B2C00200020FEF73C
:102A7000DFFC784B002202924FF6E07201925A6816
:102A800000921B68744A32210F20FEF7B0FE714B92
:102A9000002202924FF6E07201925A6800921B687F
:102AA0006E4A46210F20FEF7A2FE4FF6E0730A227F
:102AB0000A210A20FFF7B3FB4FF6E07309220A212F
:102AC0000A20FFF7ACFBC0E0002300931923192272
:102AD00000210020FEF742FC4FF6E0730A220A2193
:102AE00040F23510FFF79BFB4FF6E07309220A21F5
:102AF00040F23510FFF793FBA7E000230093192362
:102B00001922002140F22B10FEF728FC4FF6E0734B
:102B10000A22E5210A20FFF782FB4FF6E073092223
:102B2000E5210A20FFF77BFB8FE0002300931923A8
:102B30001922DB210020FEF711FC4FF6E0730A2278
:102B4000E52140F23510FFF76AFB4FF6E0730922EA
:102B5000E52140F23510FFF762FB76E00023009399
:102B600019231922DB2140F22B10FEF7F7FB00237B
:102B7000009328234FF4917232210F20FEF7EEFBD1
:102B80000023009314233C2264218C20FEF7E6FBF3
:102B9000304B002202924FF6E07201925A68009286
:102BA0001B682F4A14213C20FEF721FE4FF6E073EC
:102BB0000A227821A020FFF732FB4FF6E0730922AA
:102BC0007821A020FFF72BFB3FE000230093142384
:102BD0004FF4827214213C20FEF7C0FB00230093C7
:102BE0001E231E226E219620FEF7B8FB194B0022F1
:102BF00002924FF6E07201925A6800921B68194ADD
:102C000014214B20FEF7F3FD1FE000230093142353
:102C10004FF4827232213C20FEF7A0FB0023009388
:102C20001E231E226E219620FEF798FB094B0022E0
:102C300002924FF6E07201925A6800921B680A4AAB
:102C400014213C20FEF7D3FD00BF00BF0837BD466E
:102C500080BD00BF2C4701201C9B0020389B00201A
:102C6000549B0020689B0020789B002080B586B094
:102C700004AF0346FB71FB79002B0ED0104B0022F2
:102C800002924FF6E07201925A6800921B680D4A58
:102C900064218C20FEF7ABFD0DE0094B002202926F
:102CA0004FF6E07201925A6800921B68064A64214E
:102CB0008C20FEF79CFD00BF0837BD4680BD00BFDD
:102CC0002C4701208C9B0020949B002080B500AFF6
:102CD000FFF7BAFBFEF72EF90A2001F033FF094B8C
:102CE0001B68084A43F040031360FEF7CFF9FEF774
:102CF00011F90020FEF79CFB642001F023FF00BFC8
:102D000080BD00BF0030014080B586B004AF002315
:102D1000FB714FF000033B60434B1B8807EE903A7A
:102D2000F8EE676A404B1B7A1A46404B53F8223044
:102D300007EE903AF8EE677A86EEA77A3A4B5B8810
:102D400007EE903AB8EE676A374B5B7A1A46374B14
:102D500053F8223007EE903AF8EE676AC6EE267A0C
:102D600037EE277AF7EE006AC6EE877AC7ED007A6B
:102D7000D7ED007A9FED2E7AF4EEC77AF1EE10FAD5
:102D800009DB0223FB7197ED007ADFED296AC7EEBC
:102D9000267AC7ED007AD7ED007A9FED267AF4EE19
:102DA000C77AF1EE10FA09DB0123FB7197ED007A87
:102DB000DFED206AC7EE267AC7ED007A1E4B1F4A68
:102DC00092E803001860043319801D4B1F22029201
:102DD0004FF6FF7201925A6800921B68164A022150
:102DE0000A20FEF704FD3868FDF7B6FB02460B46E5
:102DF000F979144850F82110009113490E4804F055
:102E0000D1FB0F4B1F2202924FF6FF7201925A68BC
:102E100000921B68084A02214120FEF7E8FC00BF2F
:102E20000837BD4680BD00BF6C4701204C470120DC
:102E30000024744900007A44944901209C9B00209E
:102E40002C47012040470120A49B002080B584B07E
:102E500004AF1F2300931623A0220021BE20FEF7FB
:102E60007DFA3A4BDB7A002B17D0384B1B7B002BBB
:102E700013D1374B374A92E8030083E80300364BFF
:102E80001F2202924FF6FF7201925A6800921B684D
:102E90002F4A0221BE20FEF7AAFC2C4BDB7A002B26
:102EA00016D02A4B1B7B002B12D0294B2B4A07CA6A
:102EB00083E80700284B1F2202924FF6FF7201920F
:102EC0005A6800921B68224A0221BE20FEF78FFC3E
:102ED0001E4BDB7A002B17D11C4B1B7B002B13D016
:102EE0001B4B1F4A92E8030083E803001A4B1F2282
:102EF00002924FF6FF7201925A6800921B68144AC0
:102F00000221BE20FEF773FC104BDB7A002B19D197
:102F10000E4B1B7B002B15D10D4B124A07CA03C366
:102F20001A800233120C1A700B4B1F2202924FF6BA
:102F3000FF7201925A6800921B68054A0221BE2066
:102F4000FEF755FC00BFBD4680BD00BF6C470120A9
:102F500094490120B09B00202C470120B89B002001
:102F6000C49B0020CC9B002080B582B002AF164BE2
:102F7000164A92E8030018600433198002330A0CE1
:102F80001A70002300934FF4FC630F4A1E210C209B
:102F9000FEF756FB0E4B1B8819460D4B1B7A1A4643
:102FA0000C4B53F822300A460B49074804F0FAFA52
:102FB000002300934FF4FC63034A1E217D20FEF79B
:102FC0003FFB00BFBD4680BD94490120D89B002037
:102FD0006C47012034470120E09B002080B582B07F
:102FE00002AF144B144A92E8030083E80300002365
:102FF00000934FF6E0730F4A4E210C20FEF720FBA2
:103000000E4B5B8819460D4B5B7A1A460C4B53F8F6
:1030100022300A460B49074804F0C4FA0023009303
:103020004FF6E073034A4E217D20FEF709FB00BFF7
:10303000BD4680BD94490120EC9B00206C470120D7
:1030400034470120E09B002080B582B002AF1D4BC9
:103050001D4A92E8030018600433198002330A0CF9
:103060001A70002300934FF61F03164A7E210C208E
:10307000FEF7E6FA154B9B88002B11D0134B9B886B
:103080001A46134B13490F4804F08CFA002300939F
:103090004FF61F030B4A7E217D20FEF7D1FA0DE08B
:1030A0000B4A0D49074804F07DFA002300934FF6C0
:1030B0001F03044A7E217D20FEF7C2FA00BFBD46F1
:1030C00080BD00BF94490120F49B00206C47012083
:1030D000FC9B0020E09B0020009C002090B585B068
:1030E00002AF0446084611461A462346FB800346B3
:1030F000BB800B467B8013463B803B8B002B1CD157
:10310000FB88013B9BB218B2BB88013B9BB219B252
:103110007B8802339BB21AB23B8802339BB21BB24C
:1031200000240094FEF7C6FC3C887A88B988F888A9
:10313000FB6900932346FEF7A5FB3B8B012B1CD1BB
:10314000B7F90600B7F904107B8802339BB21AB2B4
:103150003B8802339BB21BB200240094FEF7AAFC0A
:10316000FB88013398B2BB88013399B23C887A88D6
:10317000FB6900932346FEF785FB00BF0C37BD4675
:1031800090BD000080B584B004AF0020FEF750F978
:103190001F23009316234FF4A07200210020FEF796
:1031A000DDF8FFF753FEFFF7AFFDFFF7DDFEFFF79A
:1031B00015FFFFF749FF204B0193002300933223B3
:1031C0003222B6211820FFF789FF1C4B0193002300
:1031D000009332233222B6216220FFF77FFF184B83
:1031E00001930023009332233222B621AC20FFF753
:1031F00075FF144B01930023009332233222B62132
:10320000F620FFF76BFF104A6B4607CA83E80700FA
:1032100000234FF6E0722B214FF48270FEF77AFB09
:103220000121012000F0D6FA0021002000F0D2FA9E
:1032300000BFBD4680BD00BF28C3002064EB002056
:10324000B0D60020A0AF00202443012090B482B06B
:1032500000AF0446084611461A462346FB80034643
:10326000BB800B467B8013463B80FA887B889A4262
:1032700011D3FA8879883B8A0B449A420BDCBA88CE
:103280003B889A4207D3BA883988BB8A0B449A4252
:1032900001DC012300E0002318460837BD4690BC3E
:1032A0007047000080B584B004AF314B1B6803F059
:1032B0000803002B0CD10023029302230193042363
:1032C00000933023F2221C210720FEF7A0FE0CE021
:1032D0004FF6E073029302230193042300933023FB
:1032E000F2221C210720FEF792FE214B1B6803F0FF
:1032F0001003002B0CD1002302930223019304231B
:1033000000933023F2224C210720FEF780FE0CE0D0
:103310004FF6E073029302230193042300933023BA
:10332000F2224C210720FEF772FE114B1B6803F0BE
:103330002003002B0CD100230293022301930423CA
:1033400000933023F2227C210720FEF760FE0CE080
:103350004FF6E0730293022301930423009330237A
:10336000F2227C210720FEF752FE00BFBD4680BD41
:10337000C44A012080B586B004AF0346FB71FB79D7
:10338000002B23D0002300933C23B4223C2128208F
:10339000FDF7E4FF4FF6E07302930223019303234A
:1033A00000933E23B6223A212620FEF730FE104B32
:1033B000104A07CA03C31A70002300934FF47843DE
:1033C0000B4A41213020FEF73BF90DE0002300932A
:1033D0003E23B6223A212620FDF7C0FFFFF7C4FDA9
:1033E000FFF7FCFDFFF75EFF00BF0837BD4680BD5D
:1033F000944901200C9C002080B582B002AF1B4B89
:103400001B6803F00203002B2CD1184B1B6843F000
:103410000203164A1360164BDB7A002B03D1144BC0
:103420001B7B002B1ED0124B5B7B002B0DD0104B57
:1034300000225A730F4B0193002300933223322250
:10344000B621F620FFF74AFE0CE0094B01225A7321
:10345000094B01930123009332233222B621F62037
:10346000FFF73CFE00BFBD4680BD00BFC44A01203F
:103470006C470120A0AF0020189C002080B582B0CE
:1034800002AF064B01930023009332233222B62170
:10349000F620FFF723FE00BFBD4680BDA0AF002091
:1034A00080B485B000AFF860084611461A4603465E
:1034B0007B810B463B811346FB803B89012B1BD153
:1034C000FB681B881A467B891A443B8B9A4207DAB1
:1034D000FB681A887B8913449AB2FB681A8026E03D
:1034E000FB681B883A8B9A4221D9FB681B88013301
:1034F0009AB2FB681A801AE0FB681B881A467B891F
:10350000D21AFB889A4207DDFB681A887B89D31A96
:103510009AB2FB681A800AE0FB681B88FA889A4214
:1035200005D2FB681B88013B9AB2FB681A8000BF7A
:103530001437BD465DF8047B7047000080B584B049
:1035400002AF03460A46FB801346BB80294B1B682B
:1035500003F00803002B19D0274B1B7A022B09D04C
:10356000BA88F98840F2E733009301232248FFF735
:1035700097FF07E0BA88F9881423009301231E48B7
:10358000FFF78EFFFFF7F0FCFFF7BEFB194B1B6840
:1035900003F01003002B19D0174B5B7A022B09D0D4
:1035A000BA88F98840F2E733009301231348FFF704
:1035B00077FF07E0BA88F9881423009301230F48A6
:1035C000FFF76EFFFFF70AFDFFF79EFB094B1B6835
:1035D00003F02003002B09D0BA88F988FF23009359
:1035E00000230748FFF75CFFFFF72EFD00BF0837F9
:1035F000BD4680BDC44A01206C4701206E470120B2
:103600007047012080B400AF1B4B1B6841F287322A
:10361000934207D8184B1B68B3F57A6F02D9174B42
:1036200002221A80144B1B68B3F57A6F08D2124B32
:103630001B6840F6B832934202D9104B05221A801B
:103640000D4B1B6840F6B732934207D80A4B1B68F4
:10365000B3F5FA6F02D9094B0A221A80064B1B6890
:10366000B3F5FA6F02D2054B19221A8000BFBD468E
:103670005DF8047B704700BFC8490120584701200E
:1036800080B582B000AF0346FB80214B1B6803F07E
:103690000103002B09D11E4B1B6843F001031C4A98
:1036A00013601C4B41F27C521A60194B1B6803F0EB
:1036B0000203002B05D1FB8819460120FFF73EFFCE
:1036C00013E0154B1B88012B0FD9134B1B88FA886D
:1036D00011461846FFF732FF0F4B1B88C3F16403F6
:1036E0009BB21BB2184600F0FFFC094B1B6803F0AD
:1036F0000203002B05D1064B1B6843F00203044A6A
:103700001360FFF77FFF00BF0837BD4680BD00BFD5
:10371000C44A0120C84901205847012080B500AFA4
:103720002A4B1B6803F00203002B4DD1274B1B686B
:1037300043F00203254A1360244B1B6803F008037F
:10374000002B1ED0224B1B7A012B06D8204B1B7A54
:103750000133DAB21E4B1A7202E01D4B00221A72BC
:10376000FFF702FC1A4B1B7A022B06D1184B1B8861
:10377000142B02D9164B14221A80FFF7F5FBFFF722
:10378000C3FA124B1B6803F01003002B1CD0104B24
:103790005B7A012B06D80E4B5B7A0133DAB20C4B05
:1037A0005A7202E00A4B00225A72094B5B7A022BD2
:1037B00006D1074B5B88142B02D9054B14225A8083
:1037C000FFF70CFCFFF7A0FA00BF80BDC44A012040
:1037D0006C47012080B586B004AF03460A46FB71F2
:1037E0001346BB71FB79002B45D0BB79002B21D050
:1037F000464B0122DA72464B464A1A604FF6E07396
:103800000193032300931A23322266214FF482701E
:10381000FEF788FC404B4FF6E072029200220192C4
:103820005A6800921B683A4A6A214FF48770FDF784
:10383000DEFF65E0354B0022DA72354B354A1A60FF
:103840001F230193032300931A23322266214FF48E
:103850008270FEF767FC304B1F2202924FF6FF7218
:1038600001925A6800921B68294A6A214FF48770B6
:10387000FDF7BDFF44E0BB79002B21D0234B012293
:103880001A73234B254A1A604FF6E0730193032302
:1038900000931A2332228C214FF48270FEF742FCEF
:1038A0001D4B4FF6E0720292002201925A6800927C
:1038B0001B68174A90214FF48770FDF798FF1FE0AF
:1038C000124B00221A73124B144A1A601F230193E1
:1038D000032300931A2332228C214FF48270FEF7C7
:1038E00021FC0D4B1F2202924FF6FF7201925A6883
:1038F00000921B68064A90214FF48770FDF777FF0E
:10390000FFF7A4FA00BF0837BD4680BD6C47012011
:10391000944901204E504E002C470120504E50003B
:1039200080B582B000AF0346FB71184B1B6803F0F3
:103930000203002B25D1154B1B6843F00203134AE9
:103940001360FB79012B0CD1114BDB7A002B04D0D7
:1039500000210120FFF73EFF03E001210120FFF7D6
:1039600039FFFB79002B0CD1094B1B7B002B04D0BA
:1039700000210020FFF72EFF03E001210020FFF7C8
:1039800029FF00BF0837BD4680BD00BFC44A0120E3
:103990006C47012080B582B002AF8B4B1B6903F4EA
:1039A0008053002B40F0058188498948FEF76AFD65
:1039B0000346002B00F0F580864B1B6803F00403E0
:1039C000002B08D1834B1B6843F00403814A13602A
:1039D000642000F089FB7E4B18887C4B19883223C9
:1039E000019332230093B623F622FFF72FFC034600
:1039F000002B01D0FFF700FD774B5B7B002B40F0E5
:103A0000D080734B1888714B198823230193EB23C3
:103A100000931E230F22FFF719FC0346002B0DD045
:103A20006C4B1B6823F030036A4A1360694B1B68B8
:103A300043F00803674A1360FFF734FC644B1888AF
:103A4000624B198823230193EB2300934E230F220B
:103A5000FFF7FCFB0346002B0DD05E4B1B6823F0E9
:103A600028035C4A13605B4B1B6843F01003594A00
:103A70001360FFF717FC564B1888544B1988232303
:103A80000193EB2300937E230F22FFF7DFFB034616
:103A9000002B0DD04F4B1B6823F018034D4A1360C9
:103AA0004C4B1B6843F020034A4A1360FFF7FAFBB4
:103AB000474B1888454B19883223019332230093D2
:103AC000B6231822FFF7C2FB0346002B0CD0434B52
:103AD00001930123009332233222B6211820FFF7ED
:103AE000FDFA0120FFF7CCFD394B1888374B1988B8
:103AF0003223019332230093B623AC22FFF7A6FBB7
:103B00000346002B0CD0364B019301230093322344
:103B10003222B621AC20FFF7E1FA0020FFF7B0FD1A
:103B20002B4B1888294B1988322301933223009399
:103B3000B6236222FFF78AFB0346002B0BD0294BEA
:103B400001930123009332233222B6216220FFF732
:103B5000C5FAFFF7E3FD1E4B18881C4B19881A2382
:103B600001933223009366234FF48272FFF76EFBBA
:103B70000346002B02D00120FFF7D2FE144B188819
:103B8000124B19881A230193322300938C234FF48C
:103B90008272FFF75BFB0346002B02D00020FFF789
:103BA000BFFE114B41F288321A60104B32221A606C
:103BB00005E0084B1B6823F00403064A136000F07D
:103BC00017F800BFBD4680BD00040240BE49012079
:103BD000BC490120C44A01206C47012028C30020B1
:103BE000B0D6002064EB0020C0490120C449012068
:103BF00080B582B002AF264B1B68002B0DD1254B40
:103C00001B6803F03803002B07D0224B1B6823F0FE
:103C10003803204A1360FFF745FB1F4B1B68002B3E
:103C200032D11C4B1B6803F00203002B2CD01B4B22
:103C300001930023009332233222B6211820FFF78C
:103C40004DFA174B01930023009332233222B62101
:103C5000AC20FFF743FA134B019300230093322368
:103C60003222B6216220FFF739FA0A4B1B6823F093
:103C70000103084A1360074B1B6823F00203054A3F
:103C80001360094B01221A8000BFBD4680BD00BFF2
:103C9000C0490120C44A0120C449012028C3002092
:103CA000B0D6002064EB00205847012080B500AF5B
:103CB000094B03221A6000F0D3FE00F00FF800F069
:103CC0004BF900F073F800F0A7F800F0DBF800F013
:103CD0009BFD00F0A7FDFCE70038014080B594B0E3
:103CE00000AF07F1200330220021184602F0E8FF60
:103CF00007F10C0300221A605A609A60DA601A61B8
:103D00000023BB60274B1B6C264A43F0805313648F
:103D1000244B1B6C03F08053BB60BB6800237B60AB
:103D2000214B1B68204A43F4404313601E4B1B6821
:103D300003F440437B607B6801233B624FF4803394
:103D40007B620223BB634FF48003FB630C233B6461
:103D500060237B640223BB640423FB6407F120031C
:103D6000184601F0A1FB0346002B01D000F076F9C4
:103D70000F23FB6002233B6100237B614FF48053E0
:103D8000BB610023FB6107F10C030321184601F01E
:103D900003FE0346002B01D000F060F900BF50374E
:103DA000BD4680BD003802400070004080B500AFC5
:103DB000174B184A1A60164B4FF482725A60144B14
:103DC00000229A60124B0022DA60114B00221A6125
:103DD0000F4B00225A610E4B4FF400729A610C4B4C
:103DE0000022DA610A4B00221A62094B00225A6251
:103DF000074B00229A62064B0A22DA62044801F05D
:103E000077FF0346002B01D000F028F900BF80BDEA
:103E1000CC4901200030014080B500AF174B184A53
:103E20001A60164B4FF482725A60144B00229A604B
:103E3000124B0022DA60114B00221A610F4B002254
:103E40005A610E4B4FF400729A610C4B3822DA61C2
:103E50000A4B00221A62094B00225A62074B0022C9
:103E60009A62064B0A22DA62044801F041FF0346D7
:103E7000002B01D000F0F2F800BF80BD244A0120E1
:103E80000038004080B58AB000AF07F1200300225F
:103E90001A605A603B1D00221A605A609A60DA600C
:103EA0001A615A619A61294B294A1A60274B0022EC
:103EB0005A60264B00229A60244B264ADA60234B34
:103EC00000221A61214B80229A61204802F042FBB5
:103ED0000346002B01D000F0C1F800233B62002311
:103EE0007B6207F120031946184802F051FE034691
:103EF000002B01D000F0B2F860237B6046F2A813DB
:103F0000BB600023FB6000237B613B1D042219463C
:103F10000E4802F06FFB0346002B01D000F09EF824
:103F200040F63403BB603B1D08221946074802F0E7
:103F300061FB0346002B01D000F090F8034800F02D
:103F4000DBF900BF2837BD4680BD00BF7C4A012099
:103F5000000C0040A086010080B588B000AF07F1DA
:103F60000C0300221A605A609A60DA601A6100231A
:103F7000BB60374B1B6B364A43F080031363344BF3
:103F80001B6B03F08003BB60BB6800237B60304B7E
:103F90001B6B2F4A43F0010313632D4B1B6B03F084
:103FA00001037B607B6800233B60294B1B6B284A25
:103FB00043F002031363264B1B6B03F002033B60C9
:103FC0003B68002240F21111224801F053FA00220E
:103FD0000721214801F04EFA0123FB6001233B61D8
:103FE00000237B610323BB6107F10C0319461948C9
:103FF00001F0A4F84FF48873FB6001233B610023B8
:104000007B610023BB6107F10C031946114801F0E5
:1040100095F80723FB6001233B6100237B610023AC
:10402000BB6107F10C0319460B4801F087F84FF408
:104030008053FB6000233B6100237B6107F10C038D
:104040001946054801F07AF800BF2037BD4680BD0B
:1040500000380240000002400004024080B400AF7B
:1040600072B600BFFEE780B487B000AF03460A46D1
:10407000FB801346BB800023FB82B7F90620B7F90B
:10408000043092FBF3F39BB201339BB2FB8100231C
:104090003B6113E0B7F90620B7F904309A4213DD0B
:1040A000FA88BB88D31A9BB2FB80B7F916309BB253
:1040B00001339BB2FB823B6901333B61B7F90E30A0
:1040C0003A699A42E6DB00E000BFB7F916309BB2CE
:1040D00001339BB2FB82B7F9163018461C37BD4638
:1040E0005DF8047B7047000080B483B000AF0346E6
:1040F000FB800A4B1B68002B09D1B7F90630074A31
:104100001360074B9B69064A43F00103936100BFAC
:104110000C37BD465DF8047B704700BFC84A0120DC
:1041200000000240B0B582B000AF7860396000F0A6
:1041300093FE094BF322DA603B6800221C461546C9
:1041400022462B467968022000F032FE00F0A6FEDF
:1041500000BF0837BD46B0BD003C024080B483B00C
:1041600000AF00237B60104B5B6C0F4A43F480432D
:1041700053640D4B5B6C03F480437B607B680023CE
:104180003B60094B1B6C084A43F080531364064B99
:104190001B6C03F080533B603B6800BF0C37BD468F
:1041A0005DF8047B704700BF0038024080B58CB0DA
:1041B00000AF786007F11C0300221A605A609A6011
:1041C000DA601A617B681B68324A93422CD1002363
:1041D000BB61314B5B6C304A43F4805353642E4BCC
:1041E0005B6C03F48053BB61BB6900237B612A4B8A
:1041F0001B6B294A43F001031363274B1B6B03F02E
:1042000001037B617B69E023FB6102233B620023A6
:104210007B620323BB620523FB6207F11C03194683
:104220001E4800F08BFF31E07B681B681C4A9342FC
:104230002CD100233B61184B1B6C174A43F480437D
:104240001364154B1B6C03F480433B613B690023F3
:10425000FB60114B1B6B104A43F0020313630E4BC0
:104260001B6B03F00203FB60FB684FF46043FB61D0
:1042700002233B6200237B620323BB620523FB62B4
:1042800007F11C031946074800F058FF00BF3037FC
:10429000BD4680BD003001400038024000000240B1
:1042A000003800400004024080B584B000AF786060
:1042B0007B681B680E4A934215D10023FB600D4BAF
:1042C0001B6C0C4A43F0080313640A4B1B6C03F08D
:1042D0000803FB60FB6800220021322000F031FD62
:1042E000322000F04AFD00BF1037BD4680BD00BF40
:1042F000000C00400038024080B588B000AF786004
:1043000007F10C0300221A605A609A60DA601A61A1
:104310007B681B68124A93421DD10023BB60114B7E
:104320001B6B104A43F0010313630E4B1B6B03F02E
:104330000103BB60BB680623FB6002233B610023D3
:104340007B610023BB610223FB6107F10C0319466B
:10435000054800F0F3FE00BF2037BD4680BD00BF1A
:10436000000C0040003802400000024080B400AF62
:10437000FEE780B400AFFEE780B400AFFEE780B494
:1043800000AFFEE780B400AFFEE780B400AF00BF2F
:10439000BD465DF8047B704780B400AF00BFBD46EA
:1043A0005DF8047B704780B400AF00BFBD465DF888
:1043B000047B704780B500AF214B1B68002B04D0F5
:1043C0001F4B1B68013B1E4A13601E4B1B68002BD2
:1043D00004D01C4B1B68013B1A4A13601A4B1B6824
:1043E000002B04D0184B1B68013B174A1360174B76
:1043F0001B68002B04D0154B1B68013B134A13604C
:10440000134B1B68012B04D9114B1B68013B104A4D
:104410001360104B1B68002B04D00E4B1B68013B34
:104420000C4A13600B4B1B680A2B05D10A4B9B6986
:10443000094A43F48033936100F064FB00BF80BD00
:10444000C0490120C4490120C8490120D04A0120A7
:10445000D44A0120C84A01200000024080B400AFC5
:104460001D4B1B691C4A23F00C0313611B4BDB889B
:10447000002B05D0194BDB88013B9AB2174BDA8031
:10448000164BDB88002B21D1144B9B7A002B1DD1BE
:10449000134B1B6803F08003002B17D10E4B1B6AD4
:1044A0000D4A23F4887313620B4BDB680A4A23F02E
:1044B0000C03D360084B1B68074A23F00103136009
:1044C000074B1B6843F08003054A136000BFBD46DD
:1044D0005DF8047B704700BF000C00406C47012072
:1044E000C44A012080B400AF01231846BD465DF8E0
:1044F000047B704780B582B000AF7860396002F00D
:10450000B5FB034616221A604FF0FF3318460837F2
:10451000BD4680BD80B582B000AF78604FF0FF31FE
:104520007868FFF7E7FFFEE780B586B000AFF86078
:10453000B9607A6000237B610AE0AFF30080014636
:10454000BB685A1CBA60CAB21A707B6901337B61BE
:104550007A697B689A42F0DB7B6818461837BD465B
:1045600080BD80B586B000AFF860B9607A60002386
:104570007B6109E0BB685A1CBA601B781846AFF330
:1045800000807B6901337B617A697B689A42F1DB49
:104590007B6818461837BD4680BD80B483B000AF35
:1045A00078604FF0FF3318460C37BD465DF8047B4A
:1045B000704780B483B000AF786039603B684FF4D7
:1045C00000525A60002318460C37BD465DF8047B44
:1045D000704780B483B000AF7860012318460C3771
:1045E000BD465DF8047B704780B485B000AFF860CD
:1045F000B9607A60002318461437BD465DF8047B25
:104600007047000080B586B000AF7860144A154B43
:10461000D31A7B617B693B61134B1B68002B02D172
:10462000114B124A1A60104B1A687B6813443A699E
:104630009A4207D202F01AFB03460C221A604FF08E
:10464000FF3309E0084B1B68FB60074B1A687B6867
:104650001344054A1360FB6818461837BD4680BDF1
:104660000000022000040000CC4A0120104B012071
:1046700080B400AF064BD3F88830054A43F470038A
:10468000C2F8883000BFBD465DF8047B704700BFAC
:1046900000ED00E080B400AF484B9A88474BDA80C9
:1046A000474B1B69464A23F00C031361434B1B889D
:1046B0001A46424B1B7A1946424B53F8213003FBF2
:1046C00002F23E4B5B8819463C4B5B7A18463D4BE9
:1046D00053F8203001FB03F339491344CB62374BC5
:1046E0001B881946354B1B7A1A46364B53F8223035
:1046F000334A01FB03F39363304B1B8819462F4B5E
:104700001B7A1A462F4B53F822302D4A01FB03F334
:10471000D3632B4B00225A62294B5B69284A43F032
:1047200001035361254BDB88002B02D1234B01226F
:104730009A72224B1B7B002B13D0204BDB7A002B71
:104740000FD11E4B9B7A002B05D11D4BDB681C4AF9
:1047500043F00803D3601A4B1B6A194A43F4807371
:104760001362164BDB7A002B0FD0144B9B7A002B75
:1047700005D1134BDB68124A43F00403D360104B9E
:104780001B6A0F4A43F0100313620C4B1B7B002B78
:1047900009D00A4BDB7A002B05D0094B1B6A084A6B
:1047A00043F480731362064B1B68054A43F0010310
:1047B000136000BFBD465DF8047B70476C47012065
:1047C000000C00406047012080B400AF0C4B1B6A16
:1047D0000B4A23F488731362094BDB68084A23F001
:1047E0000C03D360064B1B68054A23F001031360DA
:1047F000044B00229A7200BFBD465DF8047B7047EF
:10480000000C00406C47012080B500AFFEF75EFA57
:1048100000F096F8FDF7DAFDFEF7BAF8FEF7B2FC05
:1048200000BF80BD80B500AFFFF7B4F8414B5B7BA4
:10483000002B0DD0404B1B6803F48073002B07D175
:104840003D4B1B6843F480733B4A1360FFF722FF24
:10485000394B1B6803F08003002B15D0364B1B68C7
:1048600003F48073002B0FD0334B1B6823F08003BD
:10487000314A13600120FEF77DFD304B4FF47A7210
:104880001A606420FFF730FC2B4B1B6803F4807325
:10489000002B14D0294B1B68012B10D1274B002271
:1048A0001A60254B1B6823F48073234A1360FEF7BC
:1048B000E5FD204B00225A730020FEF75BFD1D4BE7
:1048C0005B7B002B11D11C4B1B6803F48073002B06
:1048D0000BD0184B9B7A002B07D0FFF775FF164BB8
:1048E0001B6823F48073144A1360124B5B7B002B0C
:1048F0001DD1114B1B6803F48073002B17D00D4B97
:104900009B7A002B13D10C4B1B6803F08003002B08
:104910000DD1FFF759FF084B1B6823F48073064A3B
:104920001360054B1B6823F08003034A136000BF2C
:1049300080BD00BF6C470120C44A0120D44A012039
:1049400080B500AF304B1B681B68B3F1FF3F59D1F6
:1049500000BF0020FEF770F80020FEF787F9002066
:10496000FDF7C8FE0120FEF781F94FF47A7000F0E0
:10497000E9F80120FEF760F80020FEF777F9012042
:10498000FDF7B8FE0120FEF771F94FF47A7000F0E0
:10499000D9F80220FEF750F80020FEF767F9022050
:1049A000FDF7A8FE0120FEF761F94FF47A7000F0E0
:1049B000C9F80320FEF740F80020FEF757F903205E
:1049C000FDF798FE0120FEF751F94FF47A7000F0E0
:1049D000B9F80420FEF730F80420FDF78BFE0346FB
:1049E000002B07D00520FEF727F84FF47A7000F06F
:1049F000A9F807E00620FEF71FF84FF47A7000F0E0
:104A0000A1F8A6E700BF80BD7C470120DFF834D0C5
:104A10000D480E490E4A002302E0D458C450043316
:104A2000C4188C42F9D30B4A0B4C002301E01360ED
:104A30000432A242FBD3FFF71BFE02F01DF9FFF781
:104A400035F97047000002202C4701205849012009
:104A50002C470120584901200C4B0120FEE70000A3
:104A600080B500AF0E4B1B680D4A43F40073136012
:104A70000B4B1B680A4A43F480631360084B1B68A6
:104A8000074A43F480731360032000F04FF90F20AE
:104A900000F008F8FFF762FB0023184680BD00BF56
:104AA000003C024080B582B000AF7860124B1A68BB
:104AB000124B1B7819464FF47A73B3FBF1F3B2FB38
:104AC000F3F3184600F067F90346002B01D00123E9
:104AD0000EE07B680F2B0AD8002279684FF0FF3078
:104AE00000F02FF9064A7B681360002300E00123E1
:104AF00018460837BD4680BD5C4701208447012029
:104B00008047012080B400AF064B1B781A46064B45
:104B10001B681344044A136000BFBD465DF8047B64
:104B2000704700BF84470120D84A012080B400AFFD
:104B3000034B1B681846BD465DF8047B704700BFF9
:104B4000D84A012080B584B000AF7860FFF7EEFF4F
:104B5000B8607B68FB60FB68B3F1FF3F05D00A4B90
:104B60001B781A46FB681344FB6000BFFFF7DEFFAB
:104B70000246BB68D31AFA689A42F7D800BF00BF52
:104B80001037BD4680BD00BF8447012080B485B08A
:104B900000AF78607B6803F00703FB600C4BDB68B9
:104BA000BB60BA684FF6FF031340BB60FB681A0294
:104BB000BB68134343F0BF6343F40033BB60044A54
:104BC000BB68D36000BF1437BD465DF8047B7047F7
:104BD00000ED00E080B400AF044BDB681B0A03F07B
:104BE00007031846BD465DF8047B704700ED00E002
:104BF00080B483B000AF0346FB7197F90730002BF8
:104C00000BDBFB7903F01F02074997F907305B09BB
:104C1000012000FA02F241F8232000BF0C37BD4604
:104C20005DF8047B704700BF00E100E080B483B012
:104C300000AF03463960FB7197F90730002B0ADBA0
:104C40003B68DAB20C4997F907301201D2B20B4433
:104C500083F800230AE03B68DAB20849FB7903F0E5
:104C60000F03043B1201D2B20B441A7600BF0C377B
:104C7000BD465DF8047B704700E100E000ED00E018
:104C800080B489B000AFF860B9607A60FB6803F067
:104C90000703FB61FB69C3F10703042B28BF04234F
:104CA000BB61FB690433062B02D9FB69033B00E0BF
:104CB00000237B614FF0FF32BB6902FA03F3DA4352
:104CC000BB681A407B699A404FF0FF317B6901FA5B
:104CD00003F3D9437B680B40134318462437BD4682
:104CE0005DF8047B7047000080B582B000AF78604B
:104CF0007B68013BB3F1807F01D301230FE00A4AB7
:104D00007B68013B53600F214FF0FF30FFF78EFFB0
:104D1000054B00229A60044B07221A6000231846B4
:104D20000837BD4680BD00BF10E000E080B582B00E
:104D300000AF78607868FFF729FF00BF0837BD46ED
:104D400080BD80B586B000AF0346B9607A60FB7362
:104D500000237B61FFF73EFF78617A68B968786964
:104D6000FFF78EFF024697F90F3011461846FFF7FE
:104D70005DFF00BF1837BD4680BD80B582B000AF73
:104D80000346FB7197F907301846FFF731FF00BF64
:104D90000837BD4680BD80B582B000AF78607868C6
:104DA000FFF7A2FF034618460837BD4680BD000046
:104DB00080B586B000AFF860B960C7E90023012371
:104DC000FB75234B1B7E012B01D102233BE0204BC3
:104DD00001221A764CF2503000F070F80346FB7551
:104DE000FB7D002B2BD1FB68002B05D13B781946AE
:104DF000B86800F01BF916E0FB68012B05D13B8871
:104E00001946B86800F0EEF80DE0FB68022B05D1FA
:104E10003B681946B86800F0C3F804E0D7E90023FE
:104E2000B86800F08BF84CF2503000F047F80346B9
:104E3000FB75084B1B69074A23F001031361044B00
:104E400000221A76FB7D18461837BD4680BD00BF8C
:104E5000DC4A0120003C024080B483B000AF002354
:104E6000FB710B4B1B69002B0BDA094B094A5A608B
:104E7000074B094A5A60064B1B69002B01DA0123D4
:104E8000FB71FB7918460C37BD465DF8047B704713
:104E9000003C024023016745AB89EFCD80B400AFF1
:104EA000054B1B69044A43F0004313610023184675
:104EB000BD465DF8047B7047003C024080B584B07D
:104EC00000AF78600023FB601A4B0022DA61FFF725
:104ED0002DFEF86010E07B68B3F1FF3F0CD07B68DB
:104EE000002B07D0FFF722FE0246FB68D31A7A6830
:104EF0009A4201D2032319E00F4BDB6803F480339D
:104F0000002BE8D10C4BDB6803F00103002B02D02F
:104F1000094B0122DA60084BDB6803F4F973002BBC
:104F200003D000F0A5F8012300E000231846103755
:104F3000BD4680BDDC4A0120003C024080B485B003
:104F400000AFF860C7E90023144B1B69134A23F430
:104F500040731361114B1B69104A43F44073136192
:104F60000E4B1B690D4A43F001031361FB683A685D
:104F70001A60BFF36F8F00BFD7E900014FF0000246
:104F80004FF000030A000023F968043113460B6058
:104F900000BF1437BD465DF8047B7047003C0240FB
:104FA00080B483B000AF786039600D4B1B690C4A48
:104FB00023F4407313610A4B1B69094A43F40073DD
:104FC0001361074B1B69064A43F0010313617B68B9
:104FD0003A681A6000BF0C37BD465DF8047B704725
:104FE000003C024080B483B000AF78600B467B8009
:104FF0000D4B1B690C4A23F4407313610A4B1B6968
:10500000094A43F480731361074B1B69064A43F056
:10501000010313617B687A881A8000BF0C37BD4694
:105020005DF8047B704700BF003C024080B483B051
:1050300000AF78600B46FB700C4B1B690B4A23F4E6
:1050400040731361094B094A1B691361074B1B69C4
:10505000064A43F0010313617B68FA781A7000BFB7
:105060000C37BD465DF8047B704700BF003C024032
:1050700080B400AF2F4BDB6803F01003002B08D087
:105080002D4BDB6943F010032B4AD361294B1022CF
:10509000DA60284BDB6803F02003002B08D0264B96
:1050A000DB6943F00803244AD361224B2022DA60F3
:1050B000204BDB6803F04003002B08D01E4BDB695C
:1050C00043F004031C4AD3611A4B4022DA60194BA7
:1050D000DB6803F08003002B08D0174BDB6943F03B
:1050E0000203154AD361134B8022DA60114BDB684F
:1050F00003F48073002B09D00F4BDB6943F00103ED
:105100000D4AD3610B4B4FF48072DA60094BDB68B8
:1051100003F00203002B08D0074BDB6943F02003A8
:10512000054AD361034B0222DA6000BFBD465DF839
:10513000047B7047003C0240DC4A012080B489B007
:1051400000AF7860396000237B6100233B6100235E
:10515000BB610023FB6159E10122FB6902FA03F301
:105160007B613B681B687A6913403B613A697B69E4
:105170009A4240F048813B685B6803F00303012BCF
:1051800005D03B685B6803F00303022B30D17B68DA
:105190009B68BB61FB695B00032202FA03F3DB43FC
:1051A000BA691340BB613B68DA68FB695B0002FACD
:1051B00003F3BA691343BB617B68BA699A607B6881
:1051C0005B68BB610122FB6902FA03F3DB43BA6946
:1051D0001340BB613B685B681B0903F00102FB697C
:1051E00002FA03F3BA691343BB617B68BA695A6078
:1051F0003B685B6803F00303032B17D07B68DB6815
:10520000BB61FB695B00032202FA03F3DB43BA696B
:105210001340BB613B689A68FB695B0002FA03F3C9
:10522000BA691343BB617B68BA69DA603B685B6843
:1052300003F00303022B23D1FB69DA087B680832F1
:1052400053F82230BB61FB6903F007039B000F2278
:1052500002FA03F3DB43BA691340BB613B681A6986
:10526000FB6903F007039B0002FA03F3BA691343D7
:10527000BB61FB69DA087B680832B96943F8221020
:105280007B681B68BB61FB695B00032202FA03F3C6
:10529000DB43BA691340BB613B685B6803F0030200
:1052A000FB695B0002FA03F3BA691343BB617B68D5
:1052B000BA691A603B685B6803F44033002B00F066
:1052C000A2800023FB60574B5B6C564A43F480433B
:1052D0005364544B5B6C03F48043FB60FB68524A9D
:1052E000FB699B08023352F82330BB61FB6903F072
:1052F00003039B000F2202FA03F3DB43BA69134056
:10530000BB617B68494A934219D07B68484A934203
:1053100013D07B68474A93420DD07B68464A93423C
:1053200007D07B68454A934201D1042308E0072354
:1053300006E0032304E0022302E0012300E000234F
:10534000FA6902F0030292009340BA691343BB6109
:105350003549FB699B080233BA6941F82320384B71
:105360009B68BB613B69DB43BA691340BB613B6827
:105370005B6803F48013002B03D0BA693B691343C5
:10538000BB612F4ABB6993602D4BDB68BB613B69F6
:10539000DB43BA691340BB613B685B6803F40013ED
:1053A000002B03D0BA693B691343BB61244ABB6934
:1053B000D360234B5B68BB613B69DB43BA69134035
:1053C000BB613B685B6803F40033002B03D0BA6910
:1053D0003B691343BB611A4ABB695360184B1B6896
:1053E000BB613B69DB43BA691340BB613B685B68E7
:1053F00003F48033002B03D0BA693B691343BB61CC
:105400000F4ABB691360FB690133FB61FB690F2B1A
:105410007FF6A2AE00BF00BF2437BD465DF8047B17
:10542000704700BF003802400038014000000240D1
:105430000004024000080240000C0240001002403C
:10544000003C014080B485B000AF78600B467B80A3
:105450007B681A697B881340002B02D00123FB7301
:1054600001E00023FB73FB7B18461437BD465DF853
:10547000047B704780B483B000AF78600B467B80BC
:1054800013467B707B78002B03D07A887B689A6107
:1054900003E07B881A047B689A6100BF0C37BD4625
:1054A0005DF8047B7047000080B586B000AF78607F
:1054B0007B68002B01D1012367E27B681B6803F046
:1054C0000103002B75D0884B9B6803F00C03042B61
:1054D0000CD0854B9B6803F00C03082B12D1824B38
:1054E0005B6803F48003B3F5800F0BD17E4B1B6820
:1054F00003F40033002B5BD07B685B68002B57D133
:10550000012342E27B685B68B3F5803F06D1764BAE
:105510001B68754A43F4803313601DE07B685B6849
:10552000B3F5A02F0CD1704B1B686F4A43F4802356
:1055300013606D4B1B686C4A43F4803313600BE0BF
:10554000694B1B68684A23F480331360664B1B6801
:10555000654A23F4802313607B685B68002B13D0BB
:10556000FFF7E4FA386108E0FFF7E0FA02463B692A
:10557000D31A642B01D9032307E25B4B1B6803F4A6
:105580000033002BF0D014E0FFF7D0FA386108E0C8
:10559000FFF7CCFA02463B69D31A642B01D90323E7
:1055A000F3E1514B1B6803F40033002BF0D100E012
:1055B00000BF7B681B6803F00203002B63D04A4BDB
:1055C0009B6803F00C03002B0BD0474B9B6803F048
:1055D0000C03082B1CD1444B5B6803F48003002BA5
:1055E00016D1414B1B6803F00203002B05D07B68EA
:1055F000DB68012B01D00123C7E13B4B1B6823F083
:10560000F8027B681B69DB00374913430B603AE003
:105610007B68DB68002B20D0344B01221A60FFF737
:1056200085FA386108E0FFF781FA02463B69D31A30
:10563000022B01D90323A8E12B4B1B6803F00203C3
:10564000002BF0D0284B1B6823F0F8027B681B6905
:10565000DB00254913430B6015E0244B00221A6040
:10566000FFF764FA386108E0FFF760FA02463B6929
:10567000D31A022B01D9032387E11B4B1B6803F0CC
:105680000203002BF0D17B681B6803F00803002B9A
:1056900036D07B685B69002B16D0154B01221A604F
:1056A000FFF744FA386108E0FFF740FA02463B6929
:1056B000D31A022B01D9032367E10B4B5B6F03F075
:1056C0000203002BF0D01BE0094B00221A60FFF709
:1056D0002DFA38610EE0FFF729FA02463B69D31A2A
:1056E000022B07D9032350E1003802400000474253
:1056F000800E4742884B5B6F03F00203002BEAD118
:105700007B681B6803F00403002B00F097800023E4
:10571000FB75814B1B6C03F08053002B0FD10023D2
:10572000BB607D4B1B6C7C4A43F0805313647A4B07
:105730001B6C03F08053BB60BB680123FB75774B88
:105740001B6803F48073002B18D1744B1B68734AD9
:1057500043F480731360FFF7E9F9386108E0FFF75D
:10576000E5F902463B69D31A022B01D903230CE168
:105770006A4B1B6803F48073002BF0D07B689B6836
:10578000012B06D1644B1B6F634A43F0010313677F
:105790001CE07B689B68052B0CD15F4B1B6F5E4A3E
:1057A00043F0040313675C4B1B6F5B4A43F0010338
:1057B00013670BE0584B1B6F574A23F00103136725
:1057C000554B1B6F544A23F0040313677B689B6897
:1057D000002B15D0FFF7AAF938610AE0FFF7A6F908
:1057E00002463B69D31A41F28832934201D903231E
:1057F000CBE0494B1B6F03F00203002BEED014E00B
:10580000FFF794F938610AE0FFF790F902463B6927
:10581000D31A41F28832934201D90323B5E03E4BBB
:105820001B6F03F00203002BEED1FB7D012B05D192
:10583000394B1B6C384A23F0805313647B689B6997
:10584000002B00F0A180344B9B6803F00C03082B65
:105850005CD07B689B69022B41D1314B00221A60DE
:10586000FFF764F9386108E0FFF760F902463B6929
:10587000D31A022B01D9032387E0274B1B6803F0BF
:105880000073002BF0D17B68DA697B681B6A1A43CE
:105890007B685B6A9B011A437B689B6A5B08013BE0
:1058A0001B041A437B68DB6A1B061B4913434B60CE
:1058B0001B4B01221A60FFF739F9386108E0FFF746
:1058C00035F902463B69D31A022B01D903235CE068
:1058D000114B1B6803F00073002BF0D054E0104B09
:1058E00000221A60FFF722F9386108E0FFF71EF97D
:1058F00002463B69D31A022B01D9032345E0064B2C
:105900001B6803F00073002BF0D13DE07B689B69BE
:10591000012B07D1012338E000380240007000401D
:10592000600047421B4B5B68FB607B689B69012BF7
:1059300028D0FB6803F480027B68DB699A4221D19E
:10594000FB6803F03F027B681B6A9A421AD1FA682F
:1059500047F6C07313407A68526A9201934211D19C
:10596000FB6803F440327B689B6A5B08013B1B04C5
:105970009A4207D1FB6803F070627B68DB6A1B0602
:105980009A4201D0012300E0002318461837BD4693
:1059900080BD00BF0038024080B584B000AF7860A1
:1059A00039607B68002B01D10123CCE0684B1B6878
:1059B00003F007033A689A420CD9654B3A68D2B2B1
:1059C0001A70634B1B6803F007033A689A4201D0D0
:1059D0000123B8E07B681B6803F00203002B20D092
:1059E0007B681B6803F00403002B05D0594B9B68B0
:1059F000584A43F4E05393607B681B6803F0080344
:105A0000002B05D0534B9B68524A43F4604393608C
:105A1000504B9B6823F0F0027B689B684D49134311
:105A20008B607B681B6803F00103002B44D07B680C
:105A30005B68012B07D1474B1B6803F40033002B35
:105A400019D101237FE07B685B68022B03D07B6860
:105A50005B68032B07D13F4B1B6803F00073002BDF
:105A600009D101236FE03B4B1B6803F00203002BBD
:105A700001D1012367E0374B9B6823F003027B6869
:105A80005B68344913438B60FFF750F8F8600AE015
:105A9000FFF74CF80246FB68D31A41F28832934272
:105AA00001D903234FE02B4B9B6803F00C027B686A
:105AB0005B689B009A42EBD1254B1B6803F0070300
:105AC0003A689A420CD2224B3A68D2B21A70204BF2
:105AD0001B6803F007033A689A4201D0012332E0C1
